{
  "_format": "hh-sol-artifact-1",
  "contractName": "ARENA",
  "sourceName": "contracts/tokens/ARENA.sol",
  "abi": [
    {
      "inputs": [],
      "stateMutability": "nonpayable",
      "type": "constructor"
    },
    {
      "anonymous": false,
      "inputs": [
        {
          "indexed": true,
          "internalType": "address",
          "name": "owner",
          "type": "address"
        },
        {
          "indexed": true,
          "internalType": "address",
          "name": "approved",
          "type": "address"
        },
        {
          "indexed": true,
          "internalType": "uint256",
          "name": "tokenId",
          "type": "uint256"
        }
      ],
      "name": "Approval",
      "type": "event"
    },
    {
      "anonymous": false,
      "inputs": [
        {
          "indexed": true,
          "internalType": "address",
          "name": "owner",
          "type": "address"
        },
        {
          "indexed": true,
          "internalType": "address",
          "name": "operator",
          "type": "address"
        },
        {
          "indexed": false,
          "internalType": "bool",
          "name": "approved",
          "type": "bool"
        }
      ],
      "name": "ApprovalForAll",
      "type": "event"
    },
    {
      "anonymous": false,
      "inputs": [
        {
          "indexed": false,
          "internalType": "address",
          "name": "to",
          "type": "address"
        },
        {
          "indexed": false,
          "internalType": "uint256",
          "name": "tokenId",
          "type": "uint256"
        }
      ],
      "name": "ArenaMinted",
      "type": "event"
    },
    {
      "anonymous": false,
      "inputs": [
        {
          "indexed": true,
          "internalType": "address",
          "name": "previousOwner",
          "type": "address"
        },
        {
          "indexed": true,
          "internalType": "address",
          "name": "newOwner",
          "type": "address"
        }
      ],
      "name": "OwnershipTransferred",
      "type": "event"
    },
    {
      "anonymous": false,
      "inputs": [
        {
          "indexed": true,
          "internalType": "address",
          "name": "from",
          "type": "address"
        },
        {
          "indexed": true,
          "internalType": "address",
          "name": "to",
          "type": "address"
        },
        {
          "indexed": true,
          "internalType": "uint256",
          "name": "tokenId",
          "type": "uint256"
        }
      ],
      "name": "Transfer",
      "type": "event"
    },
    {
      "inputs": [
        {
          "internalType": "address",
          "name": "to",
          "type": "address"
        },
        {
          "internalType": "uint256",
          "name": "tokenId",
          "type": "uint256"
        }
      ],
      "name": "approve",
      "outputs": [],
      "stateMutability": "nonpayable",
      "type": "function"
    },
    {
      "inputs": [
        {
          "internalType": "address",
          "name": "owner",
          "type": "address"
        }
      ],
      "name": "balanceOf",
      "outputs": [
        {
          "internalType": "uint256",
          "name": "",
          "type": "uint256"
        }
      ],
      "stateMutability": "view",
      "type": "function"
    },
    {
      "inputs": [
        {
          "internalType": "uint256",
          "name": "tokenId",
          "type": "uint256"
        }
      ],
      "name": "getApproved",
      "outputs": [
        {
          "internalType": "address",
          "name": "",
          "type": "address"
        }
      ],
      "stateMutability": "view",
      "type": "function"
    },
    {
      "inputs": [
        {
          "internalType": "uint256",
          "name": "",
          "type": "uint256"
        }
      ],
      "name": "idToArenaDetails",
      "outputs": [
        {
          "internalType": "uint8",
          "name": "gameConstant",
          "type": "uint8"
        },
        {
          "internalType": "uint16",
          "name": "winnerPercent",
          "type": "uint16"
        },
        {
          "internalType": "uint16",
          "name": "ownerPercent",
          "type": "uint16"
        },
        {
          "internalType": "uint256",
          "name": "entranceFee",
          "type": "uint256"
        }
      ],
      "stateMutability": "view",
      "type": "function"
    },
    {
      "inputs": [
        {
          "internalType": "address",
          "name": "owner",
          "type": "address"
        },
        {
          "internalType": "address",
          "name": "operator",
          "type": "address"
        }
      ],
      "name": "isApprovedForAll",
      "outputs": [
        {
          "internalType": "bool",
          "name": "",
          "type": "bool"
        }
      ],
      "stateMutability": "view",
      "type": "function"
    },
    {
      "inputs": [
        {
          "internalType": "address",
          "name": "to",
          "type": "address"
        },
        {
          "internalType": "uint256",
          "name": "tokenId",
          "type": "uint256"
        },
        {
          "components": [
            {
              "internalType": "uint8",
              "name": "gameConstant",
              "type": "uint8"
            },
            {
              "internalType": "uint16",
              "name": "winnerPercent",
              "type": "uint16"
            },
            {
              "internalType": "uint16",
              "name": "ownerPercent",
              "type": "uint16"
            },
            {
              "internalType": "uint256",
              "name": "entranceFee",
              "type": "uint256"
            }
          ],
          "internalType": "struct ArenaDetails",
          "name": "details",
          "type": "tuple"
        }
      ],
      "name": "mint",
      "outputs": [],
      "stateMutability": "nonpayable",
      "type": "function"
    },
    {
      "inputs": [],
      "name": "name",
      "outputs": [
        {
          "internalType": "string",
          "name": "",
          "type": "string"
        }
      ],
      "stateMutability": "view",
      "type": "function"
    },
    {
      "inputs": [],
      "name": "owner",
      "outputs": [
        {
          "internalType": "address",
          "name": "",
          "type": "address"
        }
      ],
      "stateMutability": "view",
      "type": "function"
    },
    {
      "inputs": [
        {
          "internalType": "uint256",
          "name": "tokenId",
          "type": "uint256"
        }
      ],
      "name": "ownerOf",
      "outputs": [
        {
          "internalType": "address",
          "name": "",
          "type": "address"
        }
      ],
      "stateMutability": "view",
      "type": "function"
    },
    {
      "inputs": [],
      "name": "renounceOwnership",
      "outputs": [],
      "stateMutability": "nonpayable",
      "type": "function"
    },
    {
      "inputs": [
        {
          "internalType": "address",
          "name": "from",
          "type": "address"
        },
        {
          "internalType": "address",
          "name": "to",
          "type": "address"
        },
        {
          "internalType": "uint256",
          "name": "tokenId",
          "type": "uint256"
        }
      ],
      "name": "safeTransferFrom",
      "outputs": [],
      "stateMutability": "nonpayable",
      "type": "function"
    },
    {
      "inputs": [
        {
          "internalType": "address",
          "name": "from",
          "type": "address"
        },
        {
          "internalType": "address",
          "name": "to",
          "type": "address"
        },
        {
          "internalType": "uint256",
          "name": "tokenId",
          "type": "uint256"
        },
        {
          "internalType": "bytes",
          "name": "_data",
          "type": "bytes"
        }
      ],
      "name": "safeTransferFrom",
      "outputs": [],
      "stateMutability": "nonpayable",
      "type": "function"
    },
    {
      "inputs": [
        {
          "internalType": "address",
          "name": "operator",
          "type": "address"
        },
        {
          "internalType": "bool",
          "name": "approved",
          "type": "bool"
        }
      ],
      "name": "setApprovalForAll",
      "outputs": [],
      "stateMutability": "nonpayable",
      "type": "function"
    },
    {
      "inputs": [
        {
          "internalType": "bytes4",
          "name": "interfaceId",
          "type": "bytes4"
        }
      ],
      "name": "supportsInterface",
      "outputs": [
        {
          "internalType": "bool",
          "name": "",
          "type": "bool"
        }
      ],
      "stateMutability": "view",
      "type": "function"
    },
    {
      "inputs": [],
      "name": "symbol",
      "outputs": [
        {
          "internalType": "string",
          "name": "",
          "type": "string"
        }
      ],
      "stateMutability": "view",
      "type": "function"
    },
    {
      "inputs": [
        {
          "internalType": "uint256",
          "name": "tokenId",
          "type": "uint256"
        }
      ],
      "name": "tokenURI",
      "outputs": [
        {
          "internalType": "string",
          "name": "",
          "type": "string"
        }
      ],
      "stateMutability": "view",
      "type": "function"
    },
    {
      "inputs": [
        {
          "internalType": "address",
          "name": "from",
          "type": "address"
        },
        {
          "internalType": "address",
          "name": "to",
          "type": "address"
        },
        {
          "internalType": "uint256",
          "name": "tokenId",
          "type": "uint256"
        }
      ],
      "name": "transferFrom",
      "outputs": [],
      "stateMutability": "nonpayable",
      "type": "function"
    },
    {
      "inputs": [
        {
          "internalType": "address",
          "name": "newOwner",
          "type": "address"
        }
      ],
      "name": "transferOwnership",
      "outputs": [],
      "stateMutability": "nonpayable",
      "type": "function"
    }
  ],
  "bytecode": "0x60806040523480156200001157600080fd5b5060408051808201825260058152644152454e4160d81b60208083019182528351808501909452600384526220a92760e91b9084015281519192916200005a91600091620000e9565b50805162000070906001906020840190620000e9565b5050506200008d620000876200009360201b60201c565b62000097565b620001cc565b3390565b600680546001600160a01b038381166001600160a01b0319831681179093556040519116919082907f8be0079c531659141344cd1fd0a4f28419497f9722a3daafe3b4186f6b6457e090600090a35050565b828054620000f7906200018f565b90600052602060002090601f0160209004810192826200011b576000855562000166565b82601f106200013657805160ff191683800117855562000166565b8280016001018555821562000166579182015b828111156200016657825182559160200191906001019062000149565b506200017492915062000178565b5090565b5b8082111562000174576000815560010162000179565b600181811c90821680620001a457607f821691505b60208210811415620001c657634e487b7160e01b600052602260045260246000fd5b50919050565b61175480620001dc6000396000f3fe608060405234801561001057600080fd5b50600436106101165760003560e01c806370a08231116100a2578063a22cb46511610071578063a22cb46514610293578063b88d4fde146102a6578063c87b56dd146102b9578063e985e9c5146102cc578063f2fde38b1461030857600080fd5b806370a0823114610251578063715018a6146102725780638da5cb5b1461027a57806395d89b411461028b57600080fd5b806323b872dd116100e957806323b872dd1461019857806342842e0e146101ab5780634b831b08146101be578063586a7b71146101d15780636352211e1461023e57600080fd5b806301ffc9a71461011b57806306fdde0314610143578063081812fc14610158578063095ea7b314610183575b600080fd5b61012e610129366004611376565b61031b565b60405190151581526020015b60405180910390f35b61014b61036d565b60405161013a9190611461565b61016b6101663660046113b0565b6103ff565b6040516001600160a01b03909116815260200161013a565b610196610191366004611304565b610499565b005b6101966101a63660046111b0565b6105af565b6101966101b93660046111b0565b6105e0565b6101966101cc36600461132e565b6105fb565b6102126101df3660046113b0565b6007602052600090815260409020805460019091015460ff82169161ffff61010082048116926301000000909204169084565b6040805160ff95909516855261ffff93841660208601529190921690830152606082015260800161013a565b61016b61024c3660046113b0565b610693565b61026461025f366004611162565b61070a565b60405190815260200161013a565b610196610791565b6006546001600160a01b031661016b565b61014b6107c7565b6101966102a13660046112c8565b6107d6565b6101966102b43660046111ec565b6107e5565b61014b6102c73660046113b0565b61081d565b61012e6102da36600461117d565b6001600160a01b03918216600090815260056020908152604080832093909416825291909152205460ff1690565b610196610316366004611162565b610905565b60006001600160e01b031982166380ac58cd60e01b148061034c57506001600160e01b03198216635b5e139f60e01b145b8061036757506301ffc9a760e01b6001600160e01b03198316145b92915050565b60606000805461037c906115bb565b80601f01602080910402602001604051908101604052809291908181526020018280546103a8906115bb565b80156103f55780601f106103ca576101008083540402835291602001916103f5565b820191906000526020600020905b8154815290600101906020018083116103d857829003601f168201915b5050505050905090565b6000818152600260205260408120546001600160a01b031661047d5760405162461bcd60e51b815260206004820152602c60248201527f4552433732313a20617070726f76656420717565727920666f72206e6f6e657860448201526b34b9ba32b73a103a37b5b2b760a11b60648201526084015b60405180910390fd5b506000908152600460205260409020546001600160a01b031690565b60006104a482610693565b9050806001600160a01b0316836001600160a01b031614156105125760405162461bcd60e51b815260206004820152602160248201527f4552433732313a20617070726f76616c20746f2063757272656e74206f776e656044820152603960f91b6064820152608401610474565b336001600160a01b038216148061052e575061052e81336102da565b6105a05760405162461bcd60e51b815260206004820152603860248201527f4552433732313a20617070726f76652063616c6c6572206973206e6f74206f7760448201527f6e6572206e6f7220617070726f76656420666f7220616c6c00000000000000006064820152608401610474565b6105aa83836109a0565b505050565b6105b93382610a0e565b6105d55760405162461bcd60e51b8152600401610474906114fb565b6105aa838383610b05565b6105aa838383604051806020016040528060008152506107e5565b6006546001600160a01b031633146106255760405162461bcd60e51b8152600401610474906114c6565b6000828152600760205260409020819061063f8282611691565b90505061064c8383610ca5565b604080516001600160a01b0385168152602081018490527faa0be916ad683be808bee521530026bd7cd6af89986d664ecfe99a82ebbe0697910160405180910390a1505050565b6000818152600260205260408120546001600160a01b0316806103675760405162461bcd60e51b815260206004820152602960248201527f4552433732313a206f776e657220717565727920666f72206e6f6e657869737460448201526832b73a103a37b5b2b760b91b6064820152608401610474565b60006001600160a01b0382166107755760405162461bcd60e51b815260206004820152602a60248201527f4552433732313a2062616c616e636520717565727920666f7220746865207a65604482015269726f206164647265737360b01b6064820152608401610474565b506001600160a01b031660009081526003602052604090205490565b6006546001600160a01b031633146107bb5760405162461bcd60e51b8152600401610474906114c6565b6107c56000610de7565b565b60606001805461037c906115bb565b6107e1338383610e39565b5050565b6107ef3383610a0e565b61080b5760405162461bcd60e51b8152600401610474906114fb565b61081784848484610f08565b50505050565b6000818152600260205260409020546060906001600160a01b031661089c5760405162461bcd60e51b815260206004820152602f60248201527f4552433732314d657461646174613a2055524920717565727920666f72206e6f60448201526e3732bc34b9ba32b73a103a37b5b2b760891b6064820152608401610474565b60006108b360408051602081019091526000815290565b905060008151116108d357604051806020016040528060008152506108fe565b806108dd84610f3b565b6040516020016108ee9291906113f5565b6040516020818303038152906040525b9392505050565b6006546001600160a01b0316331461092f5760405162461bcd60e51b8152600401610474906114c6565b6001600160a01b0381166109945760405162461bcd60e51b815260206004820152602660248201527f4f776e61626c653a206e6577206f776e657220697320746865207a65726f206160448201526564647265737360d01b6064820152608401610474565b61099d81610de7565b50565b600081815260046020526040902080546001600160a01b0319166001600160a01b03841690811790915581906109d582610693565b6001600160a01b03167f8c5be1e5ebec7d5bd14f71427d1e84f3dd0314c0f7b2291e5b200ac8c7c3b92560405160405180910390a45050565b6000818152600260205260408120546001600160a01b0316610a875760405162461bcd60e51b815260206004820152602c60248201527f4552433732313a206f70657261746f7220717565727920666f72206e6f6e657860448201526b34b9ba32b73a103a37b5b2b760a11b6064820152608401610474565b6000610a9283610693565b9050806001600160a01b0316846001600160a01b03161480610acd5750836001600160a01b0316610ac2846103ff565b6001600160a01b0316145b80610afd57506001600160a01b0380821660009081526005602090815260408083209388168352929052205460ff165b949350505050565b826001600160a01b0316610b1882610693565b6001600160a01b031614610b805760405162461bcd60e51b815260206004820152602960248201527f4552433732313a207472616e73666572206f6620746f6b656e2074686174206960448201526839903737ba1037bbb760b91b6064820152608401610474565b6001600160a01b038216610be25760405162461bcd60e51b8152602060048201526024808201527f4552433732313a207472616e7366657220746f20746865207a65726f206164646044820152637265737360e01b6064820152608401610474565b610bed6000826109a0565b6001600160a01b0383166000908152600360205260408120805460019290610c16908490611578565b90915550506001600160a01b0382166000908152600360205260408120805460019290610c4490849061154c565b909155505060008181526002602052604080822080546001600160a01b0319166001600160a01b0386811691821790925591518493918716917fddf252ad1be2c89b69c2b068fc378daa952ba7f163c4a11628f55a4df523b3ef91a4505050565b6001600160a01b038216610cfb5760405162461bcd60e51b815260206004820181905260248201527f4552433732313a206d696e7420746f20746865207a65726f20616464726573736044820152606401610474565b6000818152600260205260409020546001600160a01b031615610d605760405162461bcd60e51b815260206004820152601c60248201527f4552433732313a20746f6b656e20616c7265616479206d696e746564000000006044820152606401610474565b6001600160a01b0382166000908152600360205260408120805460019290610d8990849061154c565b909155505060008181526002602052604080822080546001600160a01b0319166001600160a01b03861690811790915590518392907fddf252ad1be2c89b69c2b068fc378daa952ba7f163c4a11628f55a4df523b3ef908290a45050565b600680546001600160a01b038381166001600160a01b0319831681179093556040519116919082907f8be0079c531659141344cd1fd0a4f28419497f9722a3daafe3b4186f6b6457e090600090a35050565b816001600160a01b0316836001600160a01b03161415610e9b5760405162461bcd60e51b815260206004820152601960248201527f4552433732313a20617070726f766520746f2063616c6c6572000000000000006044820152606401610474565b6001600160a01b03838116600081815260056020908152604080832094871680845294825291829020805460ff191686151590811790915591519182527f17307eab39ab6107e8899845ad3d59bd9653f200f220920489ca2b5937696c31910160405180910390a3505050565b610f13848484610b05565b610f1f84848484611039565b6108175760405162461bcd60e51b815260040161047490611474565b606081610f5f5750506040805180820190915260018152600360fc1b602082015290565b8160005b8115610f895780610f73816115f6565b9150610f829050600a83611564565b9150610f63565b60008167ffffffffffffffff811115610fa457610fa4611667565b6040519080825280601f01601f191660200182016040528015610fce576020820181803683370190505b5090505b8415610afd57610fe3600183611578565b9150610ff0600a86611611565b610ffb90603061154c565b60f81b81838151811061101057611010611651565b60200101906001600160f81b031916908160001a905350611032600a86611564565b9450610fd2565b60006001600160a01b0384163b1561113b57604051630a85bd0160e11b81526001600160a01b0385169063150b7a029061107d903390899088908890600401611424565b602060405180830381600087803b15801561109757600080fd5b505af19250505080156110c7575060408051601f3d908101601f191682019092526110c491810190611393565b60015b611121573d8080156110f5576040519150601f19603f3d011682016040523d82523d6000602084013e6110fa565b606091505b5080516111195760405162461bcd60e51b815260040161047490611474565b805181602001fd5b6001600160e01b031916630a85bd0160e11b149050610afd565b506001949350505050565b80356001600160a01b038116811461115d57600080fd5b919050565b60006020828403121561117457600080fd5b6108fe82611146565b6000806040838503121561119057600080fd5b61119983611146565b91506111a760208401611146565b90509250929050565b6000806000606084860312156111c557600080fd5b6111ce84611146565b92506111dc60208501611146565b9150604084013590509250925092565b6000806000806080858703121561120257600080fd5b61120b85611146565b935061121960208601611146565b925060408501359150606085013567ffffffffffffffff8082111561123d57600080fd5b818701915087601f83011261125157600080fd5b81358181111561126357611263611667565b604051601f8201601f19908116603f0116810190838211818310171561128b5761128b611667565b816040528281528a60208487010111156112a457600080fd5b82602086016020830137600060208483010152809550505050505092959194509250565b600080604083850312156112db57600080fd5b6112e483611146565b9150602083013580151581146112f957600080fd5b809150509250929050565b6000806040838503121561131757600080fd5b61132083611146565b946020939093013593505050565b600080600083850360c081121561134457600080fd5b61134d85611146565b9350602085013592506080603f198201121561136857600080fd5b506040840190509250925092565b60006020828403121561138857600080fd5b81356108fe81611708565b6000602082840312156113a557600080fd5b81516108fe81611708565b6000602082840312156113c257600080fd5b5035919050565b600081518084526113e181602086016020860161158f565b601f01601f19169290920160200192915050565b6000835161140781846020880161158f565b83519083019061141b81836020880161158f565b01949350505050565b6001600160a01b0385811682528416602082015260408101839052608060608201819052600090611457908301846113c9565b9695505050505050565b6020815260006108fe60208301846113c9565b60208082526032908201527f4552433732313a207472616e7366657220746f206e6f6e20455243373231526560408201527131b2b4bb32b91034b6b83632b6b2b73a32b960711b606082015260800190565b6020808252818101527f4f776e61626c653a2063616c6c6572206973206e6f7420746865206f776e6572604082015260600190565b60208082526031908201527f4552433732313a207472616e736665722063616c6c6572206973206e6f74206f6040820152701ddb995c881b9bdc88185c1c1c9bdd9959607a1b606082015260800190565b6000821982111561155f5761155f611625565b500190565b6000826115735761157361163b565b500490565b60008282101561158a5761158a611625565b500390565b60005b838110156115aa578181015183820152602001611592565b838111156108175750506000910152565b600181811c908216806115cf57607f821691505b602082108114156115f057634e487b7160e01b600052602260045260246000fd5b50919050565b600060001982141561160a5761160a611625565b5060010190565b6000826116205761162061163b565b500690565b634e487b7160e01b600052601160045260246000fd5b634e487b7160e01b600052601260045260246000fd5b634e487b7160e01b600052603260045260246000fd5b634e487b7160e01b600052604160045260246000fd5b6000813561ffff8116811461036757600080fd5b813560ff81168082146116a357600080fd5b825460ff19811682178455915062ffff006116c06020860161167d565b60081b16808262ffffff1985161717845564ffff0000006116e36040870161167d565b60181b168264ffffffffff198516178217178455505050606082013560018201555050565b6001600160e01b03198116811461099d57600080fdfea264697066735822122040c7f2059370f951f138f90bba450dd0e07db6db41593d0a9c6ffd803d63dc3c64736f6c63430008070033",
  "linkReferences": {},
  "deployedLinkReferences": {}
}