{
  "_format": "hh-sol-artifact-1",
  "contractName": "Marketplace",
  "sourceName": "contracts/Marketplace.sol",
  "abi": [
    {
      "inputs": [
        {
          "internalType": "contract ARENA",
          "name": "arenaAddress",
          "type": "address"
        },
        {
          "internalType": "contract GOD",
          "name": "godAddress",
          "type": "address"
        },
        {
          "internalType": "address",
          "name": "sons",
          "type": "address"
        },
        {
          "internalType": "address",
          "name": "bilira",
          "type": "address"
        }
      ],
      "stateMutability": "nonpayable",
      "type": "constructor"
    },
    {
      "inputs": [
        {
          "internalType": "uint256",
          "name": "listingId",
          "type": "uint256"
        }
      ],
      "name": "buyListing",
      "outputs": [],
      "stateMutability": "nonpayable",
      "type": "function"
    },
    {
      "inputs": [],
      "name": "getAllListings",
      "outputs": [
        {
          "components": [
            {
              "internalType": "bool",
              "name": "initialized",
              "type": "bool"
            },
            {
              "internalType": "enum AssetType",
              "name": "asset",
              "type": "uint8"
            },
            {
              "internalType": "enum TokenType",
              "name": "token",
              "type": "uint8"
            },
            {
              "internalType": "uint16",
              "name": "amount",
              "type": "uint16"
            },
            {
              "internalType": "address",
              "name": "owner",
              "type": "address"
            },
            {
              "internalType": "uint256",
              "name": "assetId",
              "type": "uint256"
            },
            {
              "internalType": "uint256",
              "name": "price",
              "type": "uint256"
            }
          ],
          "internalType": "struct ListingDetails[]",
          "name": "",
          "type": "tuple[]"
        }
      ],
      "stateMutability": "view",
      "type": "function"
    },
    {
      "inputs": [
        {
          "internalType": "uint256",
          "name": "",
          "type": "uint256"
        }
      ],
      "name": "idToListingDetails",
      "outputs": [
        {
          "internalType": "bool",
          "name": "initialized",
          "type": "bool"
        },
        {
          "internalType": "enum AssetType",
          "name": "asset",
          "type": "uint8"
        },
        {
          "internalType": "enum TokenType",
          "name": "token",
          "type": "uint8"
        },
        {
          "internalType": "uint16",
          "name": "amount",
          "type": "uint16"
        },
        {
          "internalType": "address",
          "name": "owner",
          "type": "address"
        },
        {
          "internalType": "uint256",
          "name": "assetId",
          "type": "uint256"
        },
        {
          "internalType": "uint256",
          "name": "price",
          "type": "uint256"
        }
      ],
      "stateMutability": "view",
      "type": "function"
    },
    {
      "inputs": [
        {
          "internalType": "uint256",
          "name": "arenaId",
          "type": "uint256"
        },
        {
          "internalType": "enum TokenType",
          "name": "token",
          "type": "uint8"
        },
        {
          "internalType": "uint256",
          "name": "price",
          "type": "uint256"
        }
      ],
      "name": "listArena",
      "outputs": [],
      "stateMutability": "nonpayable",
      "type": "function"
    },
    {
      "inputs": [
        {
          "internalType": "uint256",
          "name": "cardType",
          "type": "uint256"
        },
        {
          "internalType": "uint16",
          "name": "amount",
          "type": "uint16"
        },
        {
          "internalType": "enum TokenType",
          "name": "token",
          "type": "uint8"
        },
        {
          "internalType": "uint256",
          "name": "price",
          "type": "uint256"
        }
      ],
      "name": "listGod",
      "outputs": [],
      "stateMutability": "nonpayable",
      "type": "function"
    },
    {
      "inputs": [
        {
          "internalType": "uint256",
          "name": "listingId",
          "type": "uint256"
        }
      ],
      "name": "removeListing",
      "outputs": [],
      "stateMutability": "nonpayable",
      "type": "function"
    }
  ],
  "bytecode": "0x608060405260006004553480156200001657600080fd5b50604051620015703803806200157083398101604081905262000039916200008a565b600180546001600160a01b03199081166001600160a01b039485161790915560008054821692841692909217909155600280548216948316949094179093556003805490931691161790556200010b565b60008060008060808587031215620000a157600080fd5b8451620000ae81620000f2565b6020860151909450620000c181620000f2565b6040860151909350620000d481620000f2565b6060860151909250620000e781620000f2565b939692955090935050565b6001600160a01b03811681146200010857600080fd5b50565b611455806200011b6000396000f3fe608060405234801561001057600080fd5b50600436106100625760003560e01c80633d4e9d8b14610067578063479ad4c31461007c5780634884f4591461008f578063ae73ccec146100a2578063e30ee923146100c0578063f1fcd12a14610135575b600080fd5b61007a6100753660046111ff565b610148565b005b61007a61008a366004611198565b610540565b61007a61009d366004611198565b61073f565b6100aa610b30565b6040516100b7919061124c565b60405180910390f35b6101226100ce366004611198565b60076020526000908152604090208054600182015460029092015460ff808316936101008404821693620100008104909216926301000000830461ffff1692600160281b90046001600160a01b0316919087565b6040516100b797969594939291906112ef565b61007a6101433660046111ca565b610cf2565b60035460405163e985e9c560e01b81523360048201523060248201526001600160a01b039091169063e985e9c59060440160206040518083038186803b15801561019157600080fd5b505afa1580156101a5573d6000803e3d6000fd5b505050506040513d601f19601f820116820180604052508101906101c99190611176565b61021a5760405162461bcd60e51b815260206004820152601760248201527f436f6e74726163742069736e277420617070726f76656400000000000000000060448201526064015b60405180910390fd5b33600081815260086020908152604080832088845290915290819020546003549151627eeac760e11b815260048101939093526024830187905261ffff86169290916001600160a01b03169062fdd58e9060440160206040518083038186803b15801561028657600080fd5b505afa15801561029a573d6000803e3d6000fd5b505050506040513d601f19601f820116820180604052508101906102be91906111b1565b6102c8919061135e565b10156103165760405162461bcd60e51b815260206004820152601e60248201527f5573657220646f65736e2774206861766520656e6f75676820636172647300006044820152606401610211565b6040516001600160f01b031960f085901b166020820152602281018590526bffffffffffffffffffffffff193360601b16604282015260009060560160408051601f1981840301815291815281516020928301206000818152600790935291205490915060ff16156103ca5760405162461bcd60e51b815260206004820152601b60248201527f54686973206c697374696e6720616c72656164792065786973747300000000006044820152606401610211565b6040805160e081019091526001808252602082019081526020018460018111156103f6576103f66113a6565b815261ffff861660208083019190915233604080840191909152606083018990526080909201859052600084815260078252919091208251815490151560ff19821681178355928401519192839161ff001990911661ffff1990911617610100836001811115610468576104686113a6565b021790555060408201518154829062ff0000191662010000836001811115610492576104926113a6565b02179055506060820151815460808401516001600160a01b0316600160281b0265010000000000600160c81b031961ffff938416630100000002166301000000600160c81b03199092169190911717825560a0830151600183015560c0909201516002909101553360009081526008602090815260408083208984529091528120805492871692909190610527908490611346565b909155506105389050600582610f8f565b505050505050565b6000818152600760209081526040808320815160e08101909252805460ff808216151584529293919291840191610100909104166001811115610585576105856113a6565b6001811115610596576105966113a6565b8152815460209091019062010000900460ff1660018111156105ba576105ba6113a6565b60018111156105cb576105cb6113a6565b815281546301000000810461ffff166020830152600160281b90046001600160a01b031660408201526001820154606082015260029091015460809091015280519091506106535760405162461bcd60e51b8152602060048201526015602482015274131a5cdd1a5b99c8191bd95cdb89dd08195e1a5cdd605a1b6044820152606401610211565b60808101516001600160a01b031633146106aa5760405162461bcd60e51b81526020600482015260186024820152771058d8dbdd5b9d081b9bdd081bdddb995c881bd98813919560421b6044820152606401610211565b6000816020015160018111156106c2576106c26113a6565b141561070857606081015133600090815260086020908152604080832060a086015184529091528120805461ffff9093169290919061070290849061135e565b90915550505b600082815260076020526040812080546001600160c81b0319168155600181018290556002015561073a600583610fa4565b505050565b6000818152600760209081526040808320815160e08101909252805460ff808216151584529293919291840191610100909104166001811115610784576107846113a6565b6001811115610795576107956113a6565b8152815460209091019062010000900460ff1660018111156107b9576107b96113a6565b60018111156107ca576107ca6113a6565b815281546301000000810461ffff166020830152600160281b90046001600160a01b031660408201526001820154606082015260029091015460809091015280519091506108525760405162461bcd60e51b8152602060048201526015602482015274131a5cdd1a5b99c8191bd95cdb89dd08195e1a5cdd605a1b6044820152606401610211565b600060018260400151600181111561086c5761086c6113a6565b14610882576001546001600160a01b031661088f565b6000546001600160a01b03165b60c08301516040516323b872dd60e01b815233600482015230602482015260448101919091529091506001600160a01b038216906323b872dd90606401602060405180830381600087803b1580156108e657600080fd5b505af11580156108fa573d6000803e3d6000fd5b505050506040513d601f19601f8201168201806040525081019061091e9190611176565b6109625760405162461bcd60e51b8152602060048201526015602482015274151bdad95b881d1c985b9cd9995c8819985a5b1959605a1b6044820152606401610211565b60008260200151600181111561097a5761097a6113a6565b14156109fb57600254608083015160a08401516040516323b872dd60e01b81526001600160a01b03928316600482015233602482015260448101919091529116906323b872dd90606401600060405180830381600087803b1580156109de57600080fd5b505af11580156109f2573d6000803e3d6000fd5b50505050610af8565b600182602001516001811115610a1357610a136113a6565b1415610af857600354608083015160a0808501516060860151604051637921219560e11b81526001600160a01b039485166004820152336024820152604481019290925261ffff1660648201526084810191909152600060a482015291169063f242432a9060c401600060405180830381600087803b158015610a9557600080fd5b505af1158015610aa9573d6000803e3d6000fd5b505050606083015160808401516001600160a01b0316600090815260086020908152604080832060a088015184529091528120805461ffff909316935091610af290849061135e565b90915550505b600083815260076020526040812080546001600160c81b03191681556001810182905560020155610b2a600584610fa4565b50505050565b60606000610b3e6005610fb0565b67ffffffffffffffff811115610b5657610b566113e8565b604051908082528060200260200182016040528015610bc857816020015b610bb56040805160e0810190915260008082526020820190815260200160008152600060208201819052604082018190526060820181905260809091015290565b815260200190600190039081610b745790505b50905060005b610bd86005610fb0565b811015610cec5760076000610bee600584610fba565b81526020808201929092526040908101600020815160e08101909252805460ff808216151584529293919291840191610100909104166001811115610c3557610c356113a6565b6001811115610c4657610c466113a6565b8152815460209091019062010000900460ff166001811115610c6a57610c6a6113a6565b6001811115610c7b57610c7b6113a6565b815281546301000000810461ffff166020830152600160281b90046001600160a01b03166040820152600182015460608201526002909101546080909101528251839083908110610cce57610cce6113d2565b60200260200101819052508080610ce490611375565b915050610bce565b50919050565b600083604051602001610d0791815260200190565b60408051808303601f190181529082905280516020909101206002546331a9108f60e11b83526004830187905290925033916001600160a01b0390911690636352211e9060240160206040518083038186803b158015610d6657600080fd5b505afa158015610d7a573d6000803e3d6000fd5b505050506040513d601f19601f82011682018060405250810190610d9e9190611146565b6001600160a01b031614610def5760405162461bcd60e51b81526020600482015260186024820152771058d8dbdd5b9d081b9bdd081bdddb995c881bd98813919560421b6044820152606401610211565b60008181526007602052604090205460ff1615610e4e5760405162461bcd60e51b815260206004820152601760248201527f426f61726420697320616c7265616479206c69737465640000000000000000006044820152606401610211565b6040805160e08101909152600181526020810160008152602001846001811115610e7a57610e7a6113a6565b81526001602080830182905233604080850191909152606084018990526080909301869052600085815260078252929092208351815490151560ff198216811783559385015191939192849261ff00191661ffff199092169190911790610100908490811115610eec57610eec6113a6565b021790555060408201518154829062ff0000191662010000836001811115610f1657610f166113a6565b02179055506060820151815460808401516001600160a01b0316600160281b0265010000000000600160c81b031961ffff909316630100000002929092166301000000600160c81b03199091161717815560a0820151600182015560c090910151600290910155610f88600582610f8f565b5050505050565b6000610f9b8383610fc6565b90505b92915050565b6000610f9b8383611015565b6000610f9e825490565b6000610f9b8383611108565b600081815260018301602052604081205461100d57508154600181810184556000848152602080822090930184905584548482528286019093526040902091909155610f9e565b506000610f9e565b600081815260018301602052604081205480156110fe57600061103960018361135e565b855490915060009061104d9060019061135e565b90508181146110b257600086600001828154811061106d5761106d6113d2565b9060005260206000200154905080876000018481548110611090576110906113d2565b6000918252602080832090910192909255918252600188019052604090208390555b85548690806110c3576110c36113bc565b600190038181906000526020600020016000905590558560010160008681526020019081526020016000206000905560019350505050610f9e565b6000915050610f9e565b600082600001828154811061111f5761111f6113d2565b9060005260206000200154905092915050565b80356002811061114157600080fd5b919050565b60006020828403121561115857600080fd5b81516001600160a01b038116811461116f57600080fd5b9392505050565b60006020828403121561118857600080fd5b8151801515811461116f57600080fd5b6000602082840312156111aa57600080fd5b5035919050565b6000602082840312156111c357600080fd5b5051919050565b6000806000606084860312156111df57600080fd5b833592506111ef60208501611132565b9150604084013590509250925092565b6000806000806080858703121561121557600080fd5b84359350602085013561ffff8116811461122e57600080fd5b925061123c60408601611132565b9396929550929360600135925050565b602080825282518282018190526000919060409081850190868401855b828110156112e257815180511515855286810151611286816113fe565b8588015280860151611297816113fe565b8587015260608181015161ffff16908601526080808201516001600160a01b03169086015260a0808201519086015260c0908101519085015260e09093019290850190600101611269565b5091979650505050505050565b871515815260e08101611301886113fe565b876020830152611310876113fe565b604082019690965261ffff9490941660608501526001600160a01b0392909216608084015260a083015260c09091015292915050565b6000821982111561135957611359611390565b500190565b60008282101561137057611370611390565b500390565b600060001982141561138957611389611390565b5060010190565b634e487b7160e01b600052601160045260246000fd5b634e487b7160e01b600052602160045260246000fd5b634e487b7160e01b600052603160045260246000fd5b634e487b7160e01b600052603260045260246000fd5b634e487b7160e01b600052604160045260246000fd5b6002811061141c57634e487b7160e01b600052602160045260246000fd5b5056fea26469706673582212201b4b96a80bacddb4480f051c9059a77d795c0c6384e147d01df4f4eba045afbd64736f6c63430008070033",
  "linkReferences": {},
  "deployedLinkReferences": {}
}