{
  "_format": "hh-sol-artifact-1",
  "contractName": "XP",
  "sourceName": "contracts/tokens/XP.sol",
  "abi": [
    {
      "anonymous": false,
      "inputs": [
        {
          "indexed": true,
          "internalType": "address",
          "name": "previousOwner",
          "type": "address"
        },
        {
          "indexed": true,
          "internalType": "address",
          "name": "newOwner",
          "type": "address"
        }
      ],
      "name": "OwnershipTransferred",
      "type": "event"
    },
    {
      "anonymous": false,
      "inputs": [
        {
          "indexed": false,
          "internalType": "address",
          "name": "to",
          "type": "address"
        },
        {
          "indexed": false,
          "internalType": "uint256",
          "name": "amount",
          "type": "uint256"
        }
      ],
      "name": "XPTransferred",
      "type": "event"
    },
    {
      "inputs": [
        {
          "internalType": "address",
          "name": "",
          "type": "address"
        }
      ],
      "name": "balances",
      "outputs": [
        {
          "internalType": "uint256",
          "name": "",
          "type": "uint256"
        }
      ],
      "stateMutability": "view",
      "type": "function"
    },
    {
      "inputs": [
        {
          "internalType": "address",
          "name": "to",
          "type": "address"
        },
        {
          "internalType": "uint256",
          "name": "amount",
          "type": "uint256"
        }
      ],
      "name": "mint",
      "outputs": [],
      "stateMutability": "nonpayable",
      "type": "function"
    },
    {
      "inputs": [],
      "name": "owner",
      "outputs": [
        {
          "internalType": "address",
          "name": "",
          "type": "address"
        }
      ],
      "stateMutability": "view",
      "type": "function"
    },
    {
      "inputs": [
        {
          "internalType": "address",
          "name": "boardAddress",
          "type": "address"
        }
      ],
      "name": "registerBoard",
      "outputs": [],
      "stateMutability": "nonpayable",
      "type": "function"
    },
    {
      "inputs": [],
      "name": "renounceOwnership",
      "outputs": [],
      "stateMutability": "nonpayable",
      "type": "function"
    },
    {
      "inputs": [],
      "name": "totalSupply",
      "outputs": [
        {
          "internalType": "uint256",
          "name": "",
          "type": "uint256"
        }
      ],
      "stateMutability": "view",
      "type": "function"
    },
    {
      "inputs": [
        {
          "internalType": "address",
          "name": "newOwner",
          "type": "address"
        }
      ],
      "name": "transferOwnership",
      "outputs": [],
      "stateMutability": "nonpayable",
      "type": "function"
    }
  ],
  "bytecode": "0x6080604052600060015534801561001557600080fd5b5061001f33610024565b610074565b600080546001600160a01b038381166001600160a01b0319831681178455604051919092169283917f8be0079c531659141344cd1fd0a4f28419497f9722a3daafe3b4186f6b6457e09190a35050565b610464806100836000396000f3fe608060405234801561001057600080fd5b506004361061007d5760003560e01c806340c10f191161005b57806340c10f19146100d3578063715018a6146100e65780638da5cb5b146100ee578063f2fde38b1461010957600080fd5b806318160ddd1461008257806327e235e31461009e5780633d766e94146100be575b600080fd5b61008b60015481565b6040519081526020015b60405180910390f35b61008b6100ac366004610387565b60026020526000908152604090205481565b6100d16100cc366004610387565b61011c565b005b6100d16100e13660046103a9565b610173565b6100d161024a565b6000546040516001600160a01b039091168152602001610095565b6100d1610117366004610387565b610280565b6000546001600160a01b0316331461014f5760405162461bcd60e51b8152600401610146906103d3565b60405180910390fd5b6001600160a01b03166000908152600360205260409020805460ff19166001179055565b3360009081526003602052604090205460ff166101c05760405162461bcd60e51b815260206004820152600b60248201526a4f4e4c595f424f4152445360a81b6044820152606401610146565b80600160008282546101d29190610408565b90915550506001600160a01b038216600090815260026020526040812080548392906101ff908490610408565b9091555050604080516001600160a01b0384168152602081018390527f7683895fdf63c9baa6f37305493768801a705ed66c9bddcce466cbaf6460ea57910160405180910390a15050565b6000546001600160a01b031633146102745760405162461bcd60e51b8152600401610146906103d3565b61027e600061031b565b565b6000546001600160a01b031633146102aa5760405162461bcd60e51b8152600401610146906103d3565b6001600160a01b03811661030f5760405162461bcd60e51b815260206004820152602660248201527f4f776e61626c653a206e6577206f776e657220697320746865207a65726f206160448201526564647265737360d01b6064820152608401610146565b6103188161031b565b50565b600080546001600160a01b038381166001600160a01b0319831681178455604051919092169283917f8be0079c531659141344cd1fd0a4f28419497f9722a3daafe3b4186f6b6457e09190a35050565b80356001600160a01b038116811461038257600080fd5b919050565b60006020828403121561039957600080fd5b6103a28261036b565b9392505050565b600080604083850312156103bc57600080fd5b6103c58361036b565b946020939093013593505050565b6020808252818101527f4f776e61626c653a2063616c6c6572206973206e6f7420746865206f776e6572604082015260600190565b6000821982111561042957634e487b7160e01b600052601160045260246000fd5b50019056fea264697066735822122002416b25ac680f8c4ed5eaaad5c7233560aa3afac5bd575cfb249a66c19ac74564736f6c63430008070033",
  "linkReferences": {},
  "deployedLinkReferences": {}
}