{
  "data": {
    "bytecode": {
      "linkReferences": {},
      "object": "61014060405260008060006101000a81548160ff021916908360018111156200002d576200002c62000e1e565b5b021790555060008060016101000a81548161ffff021916908361ffff1602179055503480156200005c57600080fd5b5060405162006a9d38038062006a9d833981810160405281019062000082919062000a75565b60016002876000015162000097919062000ca7565b620000a3919062000ce9565b60ff168251148015620000d95750600160028760000151620000c6919062000ca7565b620000d2919062000ce9565b60ff168151145b6200011b576040517f08c379a0000000000000000000000000000000000000000000000000000000008152600401620001129062000c1c565b60405180910390fd5b88600160006101000a81548173ffffffffffffffffffffffffffffffffffffffff021916908373ffffffffffffffffffffffffffffffffffffffff16021790555087600260006101000a81548173ffffffffffffffffffffffffffffffffffffffff021916908373ffffffffffffffffffffffffffffffffffffffff16021790555086600360006101000a81548173ffffffffffffffffffffffffffffffffffffffff021916908373ffffffffffffffffffffffffffffffffffffffff1602179055506040518060800160405280620002aa600160009054906101000a900473ffffffffffffffffffffffffffffffffffffffff1673ffffffffffffffffffffffffffffffffffffffff166327e235e3886040518263ffffffff1660e01b81526004016200024a919062000bff565b60206040518083038186803b1580156200026357600080fd5b505afa15801562000278573d6000803e3d6000fd5b505050506040513d601f19601f820116820180604052508101906200029e919062000b95565b6200071060201b60201c565b60ff168152602001876000015160ff1681526020018573ffffffffffffffffffffffffffffffffffffffff16815260200183815250600460008201518160000160006101000a81548160ff021916908360ff16021790555060208201518160000160016101000a81548160ff021916908360ff16021790555060408201518160000160026101000a81548173ffffffffffffffffffffffffffffffffffffffff021916908373ffffffffffffffffffffffffffffffffffffffff1602179055506060820151816001019080519060200190620003889291906200076f565b50905050604051806080016040528062000458600160009054906101000a900473ffffffffffffffffffffffffffffffffffffffff1673ffffffffffffffffffffffffffffffffffffffff166327e235e3876040518263ffffffff1660e01b8152600401620003f8919062000bff565b60206040518083038186803b1580156200041157600080fd5b505afa15801562000426573d6000803e3d6000fd5b505050506040513d601f19601f820116820180604052508101906200044c919062000b95565b6200071060201b60201c565b60ff168152602001876000015160ff1681526020018473ffffffffffffffffffffffffffffffffffffffff16815260200182815250600660008201518160000160006101000a81548160ff021916908360ff16021790555060208201518160000160016101000a81548160ff021916908360ff16021790555060408201518160000160026101000a81548173ffffffffffffffffffffffffffffffffffffffff021916908373ffffffffffffffffffffffffffffffffffffffff1602179055506060820151816001019080519060200190620005369291906200076f565b50905050600660086000820160009054906101000a900460ff168160000160006101000a81548160ff021916908360ff1602179055506000820160019054906101000a900460ff168160000160016101000a81548160ff021916908360ff1602179055506000820160029054906101000a900473ffffffffffffffffffffffffffffffffffffffff168160000160026101000a81548173ffffffffffffffffffffffffffffffffffffffff021916908373ffffffffffffffffffffffffffffffffffffffff1602179055506001820181600101908054620006199291906200081d565b509050503373ffffffffffffffffffffffffffffffffffffffff166101208173ffffffffffffffffffffffffffffffffffffffff1660601b815250508473ffffffffffffffffffffffffffffffffffffffff166101008173ffffffffffffffffffffffffffffffffffffffff1660601b81525050856040015161ffff1660e08161ffff1660f01b81525050856020015161ffff1660c08161ffff1660f01b81525050856000015160ff1660a08160ff1660f81b81525050600160028760000151620006e5919062000ca7565b620006f1919062000ce9565b60ff1660808160ff1660f81b8152505050505050505050505062000fab565b600060648210156200072657600a90506200076a565b6101c28210156200073b57600f90506200076a565b61041a8210156200075057601490506200076a565b6110fe8210156200076557601990506200076a565b601e90505b919050565b82805482825590600052602060002090601f016020900481019282156200080a5791602002820160005b83821115620007d957835183826101000a81548160ff021916908360ff160217905550926020019260010160208160000104928301926001030262000799565b8015620008085782816101000a81549060ff0219169055600101602081600001049283019260010302620007d9565b505b50905062000819919062000882565b5090565b82805482825590600052602060002090601f016020900481019282156200086f57600052602060002091601f016020900482015b828111156200086e57825482559160010191906001019062000851565b5b5090506200087e919062000882565b5090565b5b808211156200089d57600081600090555060010162000883565b5090565b6000620008b8620008b28462000c67565b62000c3e565b90508083825260208201905082856020860282011115620008de57620008dd62000e86565b5b60005b85811015620009125781620008f7888262000a5e565b845260208401935060208301925050600181019050620008e1565b5050509392505050565b6000815190506200092d8162000ef5565b92915050565b600082601f8301126200094b576200094a62000e7c565b5b81516200095d848260208601620008a1565b91505092915050565b600081519050620009778162000f0f565b92915050565b6000815190506200098e8162000f29565b92915050565b600081519050620009a58162000f43565b92915050565b600060808284031215620009c457620009c362000e81565b5b620009d0608062000c3e565b90506000620009e28482850162000a5e565b6000830152506020620009f88482850162000a30565b602083015250604062000a0e8482850162000a30565b604083015250606062000a248482850162000a47565b60608301525092915050565b60008151905062000a418162000f5d565b92915050565b60008151905062000a588162000f77565b92915050565b60008151905062000a6f8162000f91565b92915050565b60008060008060008060008060006101808a8c03121562000a9b5762000a9a62000e90565b5b600062000aab8c828d0162000994565b995050602062000abe8c828d016200097d565b985050604062000ad18c828d0162000966565b975050606062000ae48c828d01620009ab565b96505060e062000af78c828d016200091c565b95505061010062000b0b8c828d016200091c565b94505061012062000b1f8c828d016200091c565b9350506101408a015167ffffffffffffffff81111562000b445762000b4362000e8b565b5b62000b528c828d0162000933565b9250506101608a015167ffffffffffffffff81111562000b775762000b7662000e8b565b5b62000b858c828d0162000933565b9150509295985092959850929598565b60006020828403121562000bae5762000bad62000e90565b5b600062000bbe8482850162000a47565b91505092915050565b62000bd28162000d24565b82525050565b600062000be760298362000c96565b915062000bf48262000ea6565b604082019050919050565b600060208201905062000c16600083018462000bc7565b92915050565b6000602082019050818103600083015262000c378162000bd8565b9050919050565b600062000c4a62000c5d565b905062000c58828262000db9565b919050565b6000604051905090565b600067ffffffffffffffff82111562000c855762000c8462000e4d565b5b602082029050602081019050919050565b600082825260208201905092915050565b600062000cb48262000dac565b915062000cc18362000dac565b92508160ff048311821515161562000cde5762000cdd62000def565b5b828202905092915050565b600062000cf68262000dac565b915062000d038362000dac565b92508282101562000d195762000d1862000def565b5b828203905092915050565b600062000d318262000d82565b9050919050565b600062000d458262000d24565b9050919050565b600062000d598262000d24565b9050919050565b600062000d6d8262000d24565b9050919050565b600061ffff82169050919050565b600073ffffffffffffffffffffffffffffffffffffffff82169050919050565b6000819050919050565b600060ff82169050919050565b62000dc48262000e95565b810181811067ffffffffffffffff8211171562000de65762000de562000e4d565b5b80604052505050565b7f4e487b7100000000000000000000000000000000000000000000000000000000600052601160045260246000fd5b7f4e487b7100000000000000000000000000000000000000000000000000000000600052602160045260246000fd5b7f4e487b7100000000000000000000000000000000000000000000000000000000600052604160045260246000fd5b600080fd5b600080fd5b600080fd5b600080fd5b600080fd5b6000601f19601f8301169050919050565b7f4465636b2073697a6520646f65736e2774206d617463682067616d652072657160008201527f756972656d656e74730000000000000000000000000000000000000000000000602082015250565b62000f008162000d24565b811462000f0c57600080fd5b50565b62000f1a8162000d38565b811462000f2657600080fd5b50565b62000f348162000d4c565b811462000f4057600080fd5b50565b62000f4e8162000d60565b811462000f5a57600080fd5b50565b62000f688162000d74565b811462000f7457600080fd5b50565b62000f828162000da2565b811462000f8e57600080fd5b50565b62000f9c8162000dac565b811462000fa857600080fd5b50565b60805160f81c60a05160f81c60c05160f01c60e05160f01c6101005160601c6101205160601c615a516200104c6000396000818161293c0152818161395d01528181613d6701528181613e360152613fcc01526000613fed015260006140110152600081816128d9015281816138fa0152613e9b01526000610767015260008181610acc015281816110bf0152818161110101526124840152615a516000f3fe608060405234801561001057600080fd5b50600436106100575760003560e01c80631be80d551461005c5780633f312752146100905780634f033fa0146100ac5780634f4fdf80146100dc578063d9d881e31461010c575b600080fd5b61007660048036038101906100719190614601565b61012a565b604051610087959493929190614c35565b60405180910390f35b6100aa60048036038101906100a59190614500565b6101d9565b005b6100c660048036038101906100c191906144d3565b6102bb565b6040516100d39190614fc3565b60405180910390f35b6100f660048036038101906100f1919061466e565b6102d3565b6040516101039190614fa8565b60405180910390f35b6101146103f6565b6040516101219190614c13565b60405180910390f35b600c828154811061013a57600080fd5b90600052602060002001818154811061015257600080fd5b90600052602060002001600091509150508060000160009054906101000a900460ff16908060000160019054906101000a900460ff16908060000160029054906101000a900460ff16908060000160039054906101000a900460ff16908060000160049054906101000a900473ffffffffffffffffffffffffffffffffffffffff16905085565b600860000160029054906101000a900473ffffffffffffffffffffffffffffffffffffffff1673ffffffffffffffffffffffffffffffffffffffff163373ffffffffffffffffffffffffffffffffffffffff161461026c576040517f08c379a000000000000000000000000000000000000000000000000000000000815260040161026390614ca8565b60405180910390fd5b60005b828290508110156102ae5761029b8383838181106102905761028f615511565b5b905060c002016104da565b80806102a69061543b565b91505061026f565b506102b7610765565b5050565b600b6020528060005260406000206000915090505481565b6102db614254565b600c8360ff16815481106102f2576102f1615511565b5b906000526020600020018260ff168154811061031157610310615511565b5b906000526020600020016040518060a00160405290816000820160009054906101000a900460ff161515151581526020016000820160019054906101000a900460ff1660ff1660ff1681526020016000820160029054906101000a900460ff1660ff1660ff1681526020016000820160039054906101000a900460ff1660ff1660ff1681526020016000820160049054906101000a900473ffffffffffffffffffffffffffffffffffffffff1673ffffffffffffffffffffffffffffffffffffffff1673ffffffffffffffffffffffffffffffffffffffff1681525050905092915050565b6060600460000160029054906101000a900473ffffffffffffffffffffffffffffffffffffffff1673ffffffffffffffffffffffffffffffffffffffff163373ffffffffffffffffffffffffffffffffffffffff161461045a576004600101610460565b60066001015b8054806020026020016040519081016040528092919081815260200182805480156104d057602002820191906000526020600020906000905b82829054906101000a900460ff1660ff16815260200190600101906020826000010492830192600103820291508084116104995790505b5050505050905090565b600060068111156104ee576104ed6154e2565b5b816000016020810190610501919061457a565b6006811115610513576105126154e2565b5b141561054f5761054a81602001602081019061052f9190614641565b8260400160200160208101906105459190614641565b6109de565b610762565b60016006811115610563576105626154e2565b5b816000016020810190610576919061457a565b6006811115610588576105876154e2565b5b14156105a35761059e8160400182608001610f05565b610761565b600260068111156105b7576105b66154e2565b5b8160000160208101906105ca919061457a565b60068111156105dc576105db6154e2565b5b14156105f7576105f2816040018260800161167d565b610760565b6003600681111561060b5761060a6154e2565b5b81600001602081019061061e919061457a565b60068111156106305761062f6154e2565b5b14156106475761064281604001612070565b61075f565b6004600681111561065b5761065a6154e2565b5b81600001602081019061066e919061457a565b60068111156106805761067f6154e2565b5b14156106aa576106a581602001602081019061069c9190614641565b82608001612669565b61075e565b600560068111156106be576106bd6154e2565b5b8160000160208101906106d1919061457a565b60068111156106e3576106e26154e2565b5b14156106fe576106f98160400182608001612e61565b61075d565b600680811115610711576107106154e2565b5b816000016020810190610724919061457a565b6006811115610736576107356154e2565b5b141561075c5761075b8160200160208101906107529190614641565b826080016136d0565b5b5b5b5b5b5b5b50565b7f0000000000000000000000000000000000000000000000000000000000000000600860000160018282829054906101000a900460ff166107a691906151d1565b92506101000a81548160ff021916908360ff160217905550600060018111156107d2576107d16154e2565b5b60008054906101000a900460ff1660018111156107f2576107f16154e2565b5b146107fe576000610801565b60015b6000806101000a81548160ff02191690836001811115610824576108236154e2565b5b02179055506000600181111561083d5761083c6154e2565b5b60008054906101000a900460ff16600181111561085d5761085c6154e2565b5b1461086957600461086c565b60065b60086000820160009054906101000a900460ff168160000160006101000a81548160ff021916908360ff1602179055506000820160019054906101000a900460ff168160000160016101000a81548160ff021916908360ff1602179055506000820160029054906101000a900473ffffffffffffffffffffffffffffffffffffffff168160000160026101000a81548173ffffffffffffffffffffffffffffffffffffffff021916908373ffffffffffffffffffffffffffffffffffffffff16021790555060018201816001019080546109479291906142a4565b509050506000600181819054906101000a900461ffff168092919061096b90615410565b91906101000a81548161ffff021916908361ffff160217905550507fb2a5f112f4ef2b6d1ab7a886557835d90f7826318e7a0a40a34673a7248ba8de60008054906101000a900460ff1660018111156109c7576109c66154e2565b5b6040516109d49190614ff9565b60405180910390a1565b6002600a6000600860000160029054906101000a900473ffffffffffffffffffffffffffffffffffffffff1673ffffffffffffffffffffffffffffffffffffffff1673ffffffffffffffffffffffffffffffffffffffff16815260200190815260200160002060008460ff1660ff16815260200190815260200160002060009054906101000a900461ffff16600060019054906101000a900461ffff16610a8591906152ce565b61ffff161015610aca576040517f08c379a0000000000000000000000000000000000000000000000000000000008152600401610ac190614ce8565b60405180910390fd5b7f000000000000000000000000000000000000000000000000000000000000000060ff168160ff1610610b32576040517f08c379a0000000000000000000000000000000000000000000000000000000008152600401610b2990614d08565b60405180910390fd5b600c600081548110610b4757610b46615511565b5b906000526020600020018160ff1681548110610b6657610b65615511565b5b9060005260206000200160000160009054906101000a900460ff1615610bc1576040517f08c379a0000000000000000000000000000000000000000000000000000000008152600401610bb890614e48565b60405180910390fd5b600060086001018360ff1681548110610bdd57610bdc615511565b5b90600052602060002090602091828204019190069054906101000a900460ff1690506000600360009054906101000a900473ffffffffffffffffffffffffffffffffffffffff1673ffffffffffffffffffffffffffffffffffffffff16639188d312836040518263ffffffff1660e01b8152600401610c5c9190614fde565b60e06040518083038186803b158015610c7457600080fd5b505afa158015610c88573d6000803e3d6000fd5b505050506040513d601f19601f82011682018060405250810190610cac91906145a7565b9050806080015160ff16600860000160019054906101000a900460ff1660ff1611610d0c576040517f08c379a0000000000000000000000000000000000000000000000000000000008152600401610d0390614e68565b60405180910390fd5b8060800151600860000160018282829054906101000a900460ff16610d319190615336565b92506101000a81548160ff021916908360ff1602179055506040518060a001604052806001151581526020018560ff1681526020018260a0015160ff1681526020018360ff168152602001600860000160029054906101000a900473ffffffffffffffffffffffffffffffffffffffff1673ffffffffffffffffffffffffffffffffffffffff16815250600c600081548110610dd057610dcf615511565b5b906000526020600020018460ff1681548110610def57610dee615511565b5b9060005260206000200160008201518160000160006101000a81548160ff02191690831515021790555060208201518160000160016101000a81548160ff021916908360ff16021790555060408201518160000160026101000a81548160ff021916908360ff16021790555060608201518160000160036101000a81548160ff021916908360ff16021790555060808201518160000160046101000a81548173ffffffffffffffffffffffffffffffffffffffff021916908373ffffffffffffffffffffffffffffffffffffffff1602179055509050507f2a102de3851f9d59b8d145c1ce90b60cb023d819273a14fd3b25e7f0cec7ed4e8383604051610ef7929190615014565b60405180910390a150505050565b6000600c836000016020810190610f1c9190614641565b60ff1681548110610f3057610f2f615511565b5b90600052602060002001836020016020810190610f4d9190614641565b60ff1681548110610f6157610f60615511565b5b906000526020600020016040518060a00160405290816000820160009054906101000a900460ff161515151581526020016000820160019054906101000a900460ff1660ff1660ff1681526020016000820160029054906101000a900460ff1660ff1660ff1681526020016000820160039054906101000a900460ff1660ff1660ff1681526020016000820160049054906101000a900473ffffffffffffffffffffffffffffffffffffffff1673ffffffffffffffffffffffffffffffffffffffff1673ffffffffffffffffffffffffffffffffffffffff168152505090506000600460000160029054906101000a900473ffffffffffffffffffffffffffffffffffffffff1673ffffffffffffffffffffffffffffffffffffffff16600860000160029054906101000a900473ffffffffffffffffffffffffffffffffffffffff1673ffffffffffffffffffffffffffffffffffffffff161490507f000000000000000000000000000000000000000000000000000000000000000060ff168360000160208101906110f49190614641565b60ff1610801561113b57507f000000000000000000000000000000000000000000000000000000000000000060ff168360200160208101906111369190614641565b60ff16105b61117a576040517f08c379a000000000000000000000000000000000000000000000000000000000815260040161117190614c88565b60405180910390fd5b3373ffffffffffffffffffffffffffffffffffffffff16826080015173ffffffffffffffffffffffffffffffffffffffff16146111ec576040517f08c379a00000000000000000000000000000000000000000000000000000000081526004016111e390614f88565b60405180910390fd5b600160ff16600860000160019054906101000a900460ff1660ff1611611247576040517f08c379a000000000000000000000000000000000000000000000000000000000815260040161123e90614d48565b60405180910390fd5b600081611283578360000160208101906112619190614641565b8560000160208101906112749190614641565b61127e9190615336565b6112b4565b8460000160208101906112969190614641565b8460000160208101906112a99190614641565b6112b39190615336565b5b905060008560200160208101906112cb9190614641565b60ff168560200160208101906112e19190614641565b60ff16101561131f578460200160208101906112fd9190614641565b8660200160208101906113109190614641565b61131a9190615336565b611350565b8560200160208101906113329190614641565b8560200160208101906113459190614641565b61134f9190615336565b5b905060018260ff161480611367575060018160ff16145b6113a6576040517f08c379a000000000000000000000000000000000000000000000000000000000815260040161139d90614f28565b60405180910390fd5b6001600860000160018282829054906101000a900460ff166113c89190615336565b92506101000a81548160ff021916908360ff16021790555083600c8660000160208101906113f69190614641565b60ff168154811061140a57611409615511565b5b906000526020600020018660200160208101906114279190614641565b60ff168154811061143b5761143a615511565b5b9060005260206000200160008201518160000160006101000a81548160ff02191690831515021790555060208201518160000160016101000a81548160ff021916908360ff16021790555060408201518160000160026101000a81548160ff021916908360ff16021790555060608201518160000160036101000a81548160ff021916908360ff16021790555060808201518160000160046101000a81548173ffffffffffffffffffffffffffffffffffffffff021916908373ffffffffffffffffffffffffffffffffffffffff160217905550905050600c8660000160208101906115279190614641565b60ff168154811061153b5761153a615511565b5b906000526020600020018660200160208101906115589190614641565b60ff168154811061156c5761156b615511565b5b90600052602060002001600080820160006101000a81549060ff02191690556000820160016101000a81549060ff02191690556000820160026101000a81549060ff02191690556000820160036101000a81549060ff02191690556000820160046101000a81549073ffffffffffffffffffffffffffffffffffffffff021916905550507fd46e1b079f3442f942e1744a9c599b87a4a96c160cda79caa418bd5e4632a1c28660000160208101906116249190614641565b8760200160208101906116379190614641565b87600001602081019061164a9190614641565b88602001602081019061165d9190614641565b60405161166d9493929190615074565b60405180910390a1505050505050565b6000600c8360000160208101906116949190614641565b60ff16815481106116a8576116a7615511565b5b906000526020600020018360200160208101906116c59190614641565b60ff16815481106116d9576116d8615511565b5b906000526020600020016040518060a00160405290816000820160009054906101000a900460ff161515151581526020016000820160019054906101000a900460ff1660ff1660ff1681526020016000820160029054906101000a900460ff1660ff1660ff1681526020016000820160039054906101000a900460ff1660ff1660ff1681526020016000820160049054906101000a900473ffffffffffffffffffffffffffffffffffffffff1673ffffffffffffffffffffffffffffffffffffffff1673ffffffffffffffffffffffffffffffffffffffff168152505090506000600c8360000160208101906117cf9190614641565b60ff16815481106117e3576117e2615511565b5b906000526020600020018360200160208101906118009190614641565b60ff168154811061181457611813615511565b5b906000526020600020016040518060a00160405290816000820160009054906101000a900460ff161515151581526020016000820160019054906101000a900460ff1660ff1660ff1681526020016000820160029054906101000a900460ff1660ff1660ff1681526020016000820160039054906101000a900460ff1660ff1660ff1681526020016000820160049054906101000a900473ffffffffffffffffffffffffffffffffffffffff1673ffffffffffffffffffffffffffffffffffffffff1673ffffffffffffffffffffffffffffffffffffffff168152505090503373ffffffffffffffffffffffffffffffffffffffff16826080015173ffffffffffffffffffffffffffffffffffffffff1614611965576040517f08c379a000000000000000000000000000000000000000000000000000000000815260040161195c90614e28565b60405180910390fd5b80600001516119a9576040517f08c379a00000000000000000000000000000000000000000000000000000000081526004016119a090614e88565b60405180910390fd5b3373ffffffffffffffffffffffffffffffffffffffff16816080015173ffffffffffffffffffffffffffffffffffffffff161415611a1c576040517f08c379a0000000000000000000000000000000000000000000000000000000008152600401611a1390614dc8565b60405180910390fd5b6000600360009054906101000a900473ffffffffffffffffffffffffffffffffffffffff1673ffffffffffffffffffffffffffffffffffffffff16639188d31284606001516040518263ffffffff1660e01b8152600401611a7d9190614fde565b60e06040518083038186803b158015611a9557600080fd5b505afa158015611aa9573d6000803e3d6000fd5b505050506040513d601f19601f82011682018060405250810190611acd91906145a7565b905060006001811115611ae357611ae26154e2565b5b81602001516001811115611afa57611af96154e2565b5b14611b3a576040517f08c379a0000000000000000000000000000000000000000000000000000000008152600401611b3190614ea8565b60405180910390fd5b6000600460000160029054906101000a900473ffffffffffffffffffffffffffffffffffffffff1673ffffffffffffffffffffffffffffffffffffffff16600860000160029054906101000a900473ffffffffffffffffffffffffffffffffffffffff1673ffffffffffffffffffffffffffffffffffffffff16149050600081611bf357856000016020810190611bd19190614641565b876000016020810190611be49190614641565b611bee9190615336565b611c24565b866000016020810190611c069190614641565b866000016020810190611c199190614641565b611c239190615336565b5b90506000876020016020810190611c3b9190614641565b60ff16876020016020810190611c519190614641565b60ff161015611c8f57866020016020810190611c6d9190614641565b886020016020810190611c809190614641565b611c8a9190615336565b611cc0565b876020016020810190611ca29190614641565b876020016020810190611cb59190614641565b611cbf9190615336565b5b9050836060015160ff168260ff1611158015611ce65750836040015160ff168160ff1611155b611d25576040517f08c379a0000000000000000000000000000000000000000000000000000000008152600401611d1c90614f68565b60405180910390fd5b600160ff16600860000160019054906101000a900460ff1660ff1611611d80576040517f08c379a0000000000000000000000000000000000000000000000000000000008152600401611d7790614cc8565b60405180910390fd5b6001600860000160018282829054906101000a900460ff16611da29190615336565b92506101000a81548160ff021916908360ff1602179055508360c0015160ff16856040015160ff1611611f3b57600060019054906101000a900461ffff16600a6000876080015173ffffffffffffffffffffffffffffffffffffffff1673ffffffffffffffffffffffffffffffffffffffff1681526020019081526020016000206000876020015160ff1660ff16815260200190815260200160002060006101000a81548161ffff021916908361ffff160217905550600c876000016020810190611e6d9190614641565b60ff1681548110611e8157611e80615511565b5b90600052602060002001876020016020810190611e9e9190614641565b60ff1681548110611eb257611eb1615511565b5b90600052602060002001600080820160006101000a81549060ff02191690556000820160016101000a81549060ff02191690556000820160026101000a81549060ff02191690556000820160036101000a81549060ff02191690556000820160046101000a81549073ffffffffffffffffffffffffffffffffffffffff02191690555050611fdb565b8360c00151600c886000016020810190611f559190614641565b60ff1681548110611f6957611f68615511565b5b90600052602060002001886020016020810190611f869190614641565b60ff1681548110611f9a57611f99615511565b5b9060005260206000200160000160028282829054906101000a900460ff16611fc29190615336565b92506101000a81548160ff021916908360ff1602179055505b7f821fa0d3357caf1ed6e818f6af88d667dbb5e5afc86fd1dd63c43c5d9cb668de88600001602081019061200f9190614641565b8960200160208101906120229190614641565b8960000160208101906120359190614641565b8a60200160208101906120489190614641565b8860c0015160405161205e9594939291906150b9565b60405180910390a15050505050505050565b6000806001811115612085576120846154e2565b5b60008054906101000a900460ff1660018111156120a5576120a46154e2565b5b146120b15760046120b4565b60065b90506000600c8360000160208101906120cd9190614641565b60ff16815481106120e1576120e0615511565b5b906000526020600020018360200160208101906120fe9190614641565b60ff168154811061211257612111615511565b5b906000526020600020016040518060a00160405290816000820160009054906101000a900460ff161515151581526020016000820160019054906101000a900460ff1660ff1660ff1681526020016000820160029054906101000a900460ff1660ff1660ff1681526020016000820160039054906101000a900460ff1660ff1660ff1681526020016000820160049054906101000a900473ffffffffffffffffffffffffffffffffffffffff1673ffffffffffffffffffffffffffffffffffffffff1673ffffffffffffffffffffffffffffffffffffffff168152505090506000600360009054906101000a900473ffffffffffffffffffffffffffffffffffffffff1673ffffffffffffffffffffffffffffffffffffffff16639188d31283606001516040518263ffffffff1660e01b81526004016122529190614fde565b60e06040518083038186803b15801561226a57600080fd5b505afa15801561227e573d6000803e3d6000fd5b505050506040513d601f19601f820116820180604052508101906122a291906145a7565b90503373ffffffffffffffffffffffffffffffffffffffff16826080015173ffffffffffffffffffffffffffffffffffffffff1614612316576040517f08c379a000000000000000000000000000000000000000000000000000000000815260040161230d90614e28565b60405180910390fd5b6000600181111561232a576123296154e2565b5b81602001516001811115612341576123406154e2565b5b14612381576040517f08c379a000000000000000000000000000000000000000000000000000000000815260040161237890614da8565b60405180910390fd5b600160ff16600860000160019054906101000a900460ff1660ff16116123dc576040517f08c379a00000000000000000000000000000000000000000000000000000000081526004016123d390614e08565b60405180910390fd5b6000600460000160029054906101000a900473ffffffffffffffffffffffffffffffffffffffff1673ffffffffffffffffffffffffffffffffffffffff16600860000160029054906101000a900473ffffffffffffffffffffffffffffffffffffffff1673ffffffffffffffffffffffffffffffffffffffff161490508061248257816060015160ff168560000160208101906124799190614641565b60ff16106124ce565b7f000000000000000000000000000000000000000000000000000000000000000060ff1682606001518660000160208101906124be9190614641565b6124c891906151d1565b60ff1610155b61250d576040517f08c379a000000000000000000000000000000000000000000000000000000000815260040161250490614d28565b60405180910390fd5b6001600860000160018282829054906101000a900460ff1661252f9190615336565b92506101000a81548160ff021916908360ff1602179055508360000160009054906101000a900460ff1660ff168260c0015160ff1611156125c2576125bd600860000160029054906101000a900473ffffffffffffffffffffffffffffffffffffffff168560000160029054906101000a900473ffffffffffffffffffffffffffffffffffffffff16613d25565b6125ff565b8160c001518460000160008282829054906101000a900460ff166125e69190615336565b92506101000a81548160ff021916908360ff1602179055505b7f9514b0a645ab311710078885b3d1aa7b7c941ade5dba24715646519e625ec8588560000160208101906126339190614641565b8660200160208101906126469190614641565b8460c0015160405161265a9392919061503d565b60405180910390a15050505050565b600080600181111561267e5761267d6154e2565b5b60008054906101000a900460ff16600181111561269e5761269d6154e2565b5b146126aa5760046126ad565b60065b90506000600c8360000160208101906126c69190614641565b60ff16815481106126da576126d9615511565b5b906000526020600020018360200160208101906126f79190614641565b60ff168154811061270b5761270a615511565b5b906000526020600020016040518060a00160405290816000820160009054906101000a900460ff161515151581526020016000820160019054906101000a900460ff1660ff1660ff1681526020016000820160029054906101000a900460ff1660ff1660ff1681526020016000820160039054906101000a900460ff1660ff1660ff1681526020016000820160049054906101000a900473ffffffffffffffffffffffffffffffffffffffff1673ffffffffffffffffffffffffffffffffffffffff1673ffffffffffffffffffffffffffffffffffffffff168152505090506000600360009054906101000a900473ffffffffffffffffffffffffffffffffffffffff1673ffffffffffffffffffffffffffffffffffffffff16639188d31260086001018760ff168154811061284457612843615511565b5b90600052602060002090602091828204019190069054906101000a900460ff166040518263ffffffff1660e01b81526004016128809190614fde565b60e06040518083038186803b15801561289857600080fd5b505afa1580156128ac573d6000803e3d6000fd5b505050506040513d601f19601f820116820180604052508101906128d091906145a7565b905060006103e87f000000000000000000000000000000000000000000000000000000000000000061ffff16600260009054906101000a900473ffffffffffffffffffffffffffffffffffffffff1673ffffffffffffffffffffffffffffffffffffffff1663dd62ed3e7f0000000000000000000000000000000000000000000000000000000000000000306040518363ffffffff1660e01b8152600401612979929190614b8a565b60206040518083038186803b15801561299157600080fd5b505afa1580156129a5573d6000803e3d6000fd5b505050506040513d601f19601f820116820180604052508101906129c991906145d4565b6129d39190615239565b6129dd9190615208565b90508260000151612a23576040517f08c379a0000000000000000000000000000000000000000000000000000000008152600401612a1a90614f08565b60405180910390fd5b8360000160029054906101000a900473ffffffffffffffffffffffffffffffffffffffff1673ffffffffffffffffffffffffffffffffffffffff16836080015173ffffffffffffffffffffffffffffffffffffffff1614612ab9576040517f08c379a0000000000000000000000000000000000000000000000000000000008152600401612ab090614de8565b60405180910390fd5b80600b60003373ffffffffffffffffffffffffffffffffffffffff1673ffffffffffffffffffffffffffffffffffffffff168152602001908152602001600020541115612b3b576040517f08c379a0000000000000000000000000000000000000000000000000000000008152600401612b3290614d88565b60405180910390fd5b600581612b489190615208565b600b60003373ffffffffffffffffffffffffffffffffffffffff1673ffffffffffffffffffffffffffffffffffffffff1681526020019081526020016000206000828254612b96919061517b565b925050819055508160c0015160ff16836040015160ff1611612d3e57600060019054906101000a900461ffff16600a60008660000160029054906101000a900473ffffffffffffffffffffffffffffffffffffffff1673ffffffffffffffffffffffffffffffffffffffff1673ffffffffffffffffffffffffffffffffffffffff1681526020019081526020016000206000856020015160ff1660ff16815260200190815260200160002060006101000a81548161ffff021916908361ffff160217905550600c856000016020810190612c709190614641565b60ff1681548110612c8457612c83615511565b5b90600052602060002001856020016020810190612ca19190614641565b60ff1681548110612cb557612cb4615511565b5b90600052602060002001600080820160006101000a81549060ff02191690556000820160016101000a81549060ff02191690556000820160026101000a81549060ff02191690556000820160036101000a81549060ff02191690556000820160046101000a81549073ffffffffffffffffffffffffffffffffffffffff02191690555050612dea565b60038260c00151612d4f9190615293565b600c866000016020810190612d649190614641565b60ff1681548110612d7857612d77615511565b5b90600052602060002001866020016020810190612d959190614641565b60ff1681548110612da957612da8615511565b5b9060005260206000200160000160028282829054906101000a900460ff16612dd19190615336565b92506101000a81548160ff021916908360ff1602179055505b7fad81c2d8ff449019cfaf2eda745547aae68efd585520cf7bbad02ca0ff57aaf1856000016020810190612e1e9190614641565b866020016020810190612e319190614641565b60038560c00151612e429190615293565b604051612e519392919061503d565b60405180910390a1505050505050565b6000600c836000016020810190612e789190614641565b60ff1681548110612e8c57612e8b615511565b5b90600052602060002001836020016020810190612ea99190614641565b60ff1681548110612ebd57612ebc615511565b5b906000526020600020016040518060a00160405290816000820160009054906101000a900460ff161515151581526020016000820160019054906101000a900460ff1660ff1660ff1681526020016000820160029054906101000a900460ff1660ff1660ff1681526020016000820160039054906101000a900460ff1660ff1660ff1681526020016000820160049054906101000a900473ffffffffffffffffffffffffffffffffffffffff1673ffffffffffffffffffffffffffffffffffffffff1673ffffffffffffffffffffffffffffffffffffffff168152505090506000600c836000016020810190612fb39190614641565b60ff1681548110612fc757612fc6615511565b5b90600052602060002001836020016020810190612fe49190614641565b60ff1681548110612ff857612ff7615511565b5b906000526020600020016040518060a00160405290816000820160009054906101000a900460ff161515151581526020016000820160019054906101000a900460ff1660ff1660ff1681526020016000820160029054906101000a900460ff1660ff1660ff1681526020016000820160039054906101000a900460ff1660ff1660ff1681526020016000820160049054906101000a900473ffffffffffffffffffffffffffffffffffffffff1673ffffffffffffffffffffffffffffffffffffffff1673ffffffffffffffffffffffffffffffffffffffff168152505090506000600360009054906101000a900473ffffffffffffffffffffffffffffffffffffffff1673ffffffffffffffffffffffffffffffffffffffff16639188d31284606001516040518263ffffffff1660e01b81526004016131389190614fde565b60e06040518083038186803b15801561315057600080fd5b505afa158015613164573d6000803e3d6000fd5b505050506040513d601f19601f8201168201806040525081019061318891906145a7565b90503373ffffffffffffffffffffffffffffffffffffffff16836080015173ffffffffffffffffffffffffffffffffffffffff16146131fc576040517f08c379a00000000000000000000000000000000000000000000000000000000081526004016131f390614e28565b60405180910390fd5b8160000151613240576040517f08c379a000000000000000000000000000000000000000000000000000000000815260040161323790614f08565b60405180910390fd5b3373ffffffffffffffffffffffffffffffffffffffff16826080015173ffffffffffffffffffffffffffffffffffffffff16146132b2576040517f08c379a00000000000000000000000000000000000000000000000000000000081526004016132a990614ee8565b60405180910390fd5b6001808111156132c5576132c46154e2565b5b816020015160018111156132dc576132db6154e2565b5b1461331c576040517f08c379a000000000000000000000000000000000000000000000000000000000815260040161331390614d68565b60405180910390fd5b6000600460000160029054906101000a900473ffffffffffffffffffffffffffffffffffffffff1673ffffffffffffffffffffffffffffffffffffffff16600860000160029054906101000a900473ffffffffffffffffffffffffffffffffffffffff1673ffffffffffffffffffffffffffffffffffffffff161490506000816133d5578560000160208101906133b39190614641565b8760000160208101906133c69190614641565b6133d09190615336565b613406565b8660000160208101906133e89190614641565b8660000160208101906133fb9190614641565b6134059190615336565b5b9050600087602001602081019061341d9190614641565b60ff168760200160208101906134339190614641565b60ff1610156134715786602001602081019061344f9190614641565b8860200160208101906134629190614641565b61346c9190615336565b6134a2565b8760200160208101906134849190614641565b8760200160208101906134979190614641565b6134a19190615336565b5b9050836060015160ff168260ff16111580156134c85750836040015160ff168160ff1611155b613507576040517f08c379a00000000000000000000000000000000000000000000000000000000081526004016134fe90614f68565b60405180910390fd5b600160ff16600860000160019054906101000a900460ff1660ff1611613562576040517f08c379a000000000000000000000000000000000000000000000000000000000815260040161355990614e08565b60405180910390fd5b6001600860000160018282829054906101000a900460ff166135849190615336565b92506101000a81548160ff021916908360ff1602179055508360c00151600c8860000160208101906135b69190614641565b60ff16815481106135ca576135c9615511565b5b906000526020600020018860200160208101906135e79190614641565b60ff16815481106135fb576135fa615511565b5b9060005260206000200160000160028282829054906101000a900460ff1661362391906151d1565b92506101000a81548160ff021916908360ff1602179055507f8755e3de7285d4f55c28476287892f02fa00fe2a9476fd9f76aa96ddce5a123788600001602081019061366f9190614641565b8960200160208101906136829190614641565b8960000160208101906136959190614641565b8a60200160208101906136a89190614641565b8860c001516040516136be9594939291906150b9565b60405180910390a15050505050505050565b6000600c8260000160208101906136e79190614641565b60ff16815481106136fb576136fa615511565b5b906000526020600020018260200160208101906137189190614641565b60ff168154811061372c5761372b615511565b5b906000526020600020016040518060a00160405290816000820160009054906101000a900460ff161515151581526020016000820160019054906101000a900460ff1660ff1660ff1681526020016000820160029054906101000a900460ff1660ff1660ff1681526020016000820160039054906101000a900460ff1660ff1660ff1681526020016000820160049054906101000a900473ffffffffffffffffffffffffffffffffffffffff1673ffffffffffffffffffffffffffffffffffffffff1673ffffffffffffffffffffffffffffffffffffffff168152505090506000600360009054906101000a900473ffffffffffffffffffffffffffffffffffffffff1673ffffffffffffffffffffffffffffffffffffffff16639188d31260086001018660ff168154811061386557613864615511565b5b90600052602060002090602091828204019190069054906101000a900460ff166040518263ffffffff1660e01b81526004016138a19190614fde565b60e06040518083038186803b1580156138b957600080fd5b505afa1580156138cd573d6000803e3d6000fd5b505050506040513d601f19601f820116820180604052508101906138f191906145a7565b905060006103e87f000000000000000000000000000000000000000000000000000000000000000061ffff16600260009054906101000a900473ffffffffffffffffffffffffffffffffffffffff1673ffffffffffffffffffffffffffffffffffffffff1663dd62ed3e7f0000000000000000000000000000000000000000000000000000000000000000306040518363ffffffff1660e01b815260040161399a929190614b8a565b60206040518083038186803b1580156139b257600080fd5b505afa1580156139c6573d6000803e3d6000fd5b505050506040513d601f19601f820116820180604052508101906139ea91906145d4565b6139f49190615239565b6139fe9190615208565b905080600b60003373ffffffffffffffffffffffffffffffffffffffff1673ffffffffffffffffffffffffffffffffffffffff168152602001908152602001600020541115613a82576040517f08c379a0000000000000000000000000000000000000000000000000000000008152600401613a7990614d88565b60405180910390fd5b600180811115613a9557613a946154e2565b5b82602001516001811115613aac57613aab6154e2565b5b14613aec576040517f08c379a0000000000000000000000000000000000000000000000000000000008152600401613ae390614d68565b60405180910390fd5b8260000151613b30576040517f08c379a0000000000000000000000000000000000000000000000000000000008152600401613b2790614f08565b60405180910390fd5b3373ffffffffffffffffffffffffffffffffffffffff16836080015173ffffffffffffffffffffffffffffffffffffffff1614613ba2576040517f08c379a0000000000000000000000000000000000000000000000000000000008152600401613b9990614ee8565b60405180910390fd5b600581613baf9190615208565b600b60003373ffffffffffffffffffffffffffffffffffffffff1673ffffffffffffffffffffffffffffffffffffffff1681526020019081526020016000206000828254613bfd919061517b565b9250508190555060038260c00151613c159190615293565b600c856000016020810190613c2a9190614641565b60ff1681548110613c3e57613c3d615511565b5b90600052602060002001856020016020810190613c5b9190614641565b60ff1681548110613c6f57613c6e615511565b5b9060005260206000200160000160028282829054906101000a900460ff16613c9791906151d1565b92506101000a81548160ff021916908360ff1602179055507fb66f84be78126463140b4fcd1f22ebe400bb165705bbfdd215781a0a0678660e846000016020810190613ce39190614641565b856020016020810190613cf69190614641565b60038560c00151613d079190615293565b604051613d169392919061503d565b60405180910390a15050505050565b6000600260009054906101000a900473ffffffffffffffffffffffffffffffffffffffff1673ffffffffffffffffffffffffffffffffffffffff1663dd62ed3e7f0000000000000000000000000000000000000000000000000000000000000000306040518363ffffffff1660e01b8152600401613da4929190614b8a565b60206040518083038186803b158015613dbc57600080fd5b505afa158015613dd0573d6000803e3d6000fd5b505050506040513d601f19601f82011682018060405250810190613df491906145d4565b9050600260009054906101000a900473ffffffffffffffffffffffffffffffffffffffff1673ffffffffffffffffffffffffffffffffffffffff166323b872dd7f000000000000000000000000000000000000000000000000000000000000000085600b60008873ffffffffffffffffffffffffffffffffffffffff1673ffffffffffffffffffffffffffffffffffffffff168152602001908152602001600020546103e87f000000000000000000000000000000000000000000000000000000000000000061ffff1687613ec99190615239565b613ed39190615208565b613edd9190615302565b6040518463ffffffff1660e01b8152600401613efb93929190614bb3565b602060405180830381600087803b158015613f1557600080fd5b505af1158015613f29573d6000803e3d6000fd5b505050506040513d601f19601f82011682018060405250810190613f4d919061454d565b613f8c576040517f08c379a0000000000000000000000000000000000000000000000000000000008152600401613f8390614ec8565b60405180910390fd5b600260009054906101000a900473ffffffffffffffffffffffffffffffffffffffff1673ffffffffffffffffffffffffffffffffffffffff166323b872dd7f00000000000000000000000000000000000000000000000000000000000000007f00000000000000000000000000000000000000000000000000000000000000006103e87f000000000000000000000000000000000000000000000000000000000000000061ffff168661403f9190615239565b6140499190615208565b6040518463ffffffff1660e01b815260040161406793929190614bb3565b602060405180830381600087803b15801561408157600080fd5b505af1158015614095573d6000803e3d6000fd5b505050506040513d601f19601f820116820180604052508101906140b9919061454d565b6140f8576040517f08c379a00000000000000000000000000000000000000000000000000000000081526004016140ef90614f48565b60405180910390fd5b600160009054906101000a900473ffffffffffffffffffffffffffffffffffffffff1673ffffffffffffffffffffffffffffffffffffffff166340c10f1984600a6040518363ffffffff1660e01b8152600401614156929190614bea565b600060405180830381600087803b15801561417057600080fd5b505af1158015614184573d6000803e3d6000fd5b50505050600160009054906101000a900473ffffffffffffffffffffffffffffffffffffffff1673ffffffffffffffffffffffffffffffffffffffff166340c10f198360026040518363ffffffff1660e01b81526004016141e6929190614bea565b600060405180830381600087803b15801561420057600080fd5b505af1158015614214573d6000803e3d6000fd5b505050507f1728dd43546edd06fabfe796e5b641a151aa90998bfd1b1ec0ae98c6e7708459836040516142479190614b6f565b60405180910390a1505050565b6040518060a00160405280600015158152602001600060ff168152602001600060ff168152602001600060ff168152602001600073ffffffffffffffffffffffffffffffffffffffff1681525090565b82805482825590600052602060002090601f016020900481019282156142f357600052602060002091601f016020900482015b828111156142f25782548255916001019190600101906142d7565b5b5090506143009190614304565b5090565b5b8082111561431d576000816000905550600101614305565b5090565b6000813590506143308161599f565b92915050565b60008083601f84011261434c5761434b615574565b5b8235905067ffffffffffffffff8111156143695761436861556f565b5b6020830191508360c08202830111156143855761438461557e565b5b9250929050565b60008151905061439b816159b6565b92915050565b6000815190506143b0816159cd565b92915050565b6000813590506143c5816159dd565b92915050565b600060e082840312156143e1576143e0615579565b5b6143eb60e061510c565b905060006143fb8482850161438c565b600083015250602061440f848285016143a1565b6020830152506040614423848285016144be565b6040830152506060614437848285016144be565b606083015250608061444b848285016144be565b60808301525060a061445f848285016144be565b60a08301525060c0614473848285016144be565b60c08301525092915050565b60008135905061448e816159ed565b92915050565b6000815190506144a3816159ed565b92915050565b6000813590506144b881615a04565b92915050565b6000815190506144cd81615a04565b92915050565b6000602082840312156144e9576144e8615588565b5b60006144f784828501614321565b91505092915050565b6000806020838503121561451757614516615588565b5b600083013567ffffffffffffffff81111561453557614534615583565b5b61454185828601614336565b92509250509250929050565b60006020828403121561456357614562615588565b5b60006145718482850161438c565b91505092915050565b6000602082840312156145905761458f615588565b5b600061459e848285016143b6565b91505092915050565b600060e082840312156145bd576145bc615588565b5b60006145cb848285016143cb565b91505092915050565b6000602082840312156145ea576145e9615588565b5b60006145f884828501614494565b91505092915050565b6000806040838503121561461857614617615588565b5b60006146268582860161447f565b92505060206146378582860161447f565b9150509250929050565b60006020828403121561465757614656615588565b5b6000614665848285016144a9565b91505092915050565b6000806040838503121561468557614684615588565b5b6000614693858286016144a9565b92505060206146a4858286016144a9565b9150509250929050565b60006146ba8383614b51565b60208301905092915050565b6146cf8161536a565b82525050565b6146de8161536a565b82525050565b60006146ef82615141565b6146f98185615159565b935061470483615131565b8060005b8381101561473557815161471c88826146ae565b97506147278361514c565b925050600181019050614708565b5085935050505092915050565b61474b8161537c565b82525050565b61475a8161537c565b82525050565b600061476d60118361516a565b91506147788261559e565b602082019050919050565b6000614790600e8361516a565b915061479b826155c7565b602082019050919050565b60006147b3601c8361516a565b91506147be826155f0565b602082019050919050565b60006147d6601a8361516a565b91506147e182615619565b602082019050919050565b60006147f9600e8361516a565b915061480482615642565b602082019050919050565b600061481c60148361516a565b91506148278261566b565b602082019050919050565b600061483f60138361516a565b915061484a82615694565b602082019050919050565b6000614862600f8361516a565b915061486d826156bd565b602082019050919050565b600061488560208361516a565b9150614890826156e6565b602082019050919050565b60006148a860148361516a565b91506148b38261570f565b602082019050919050565b60006148cb60168361516a565b91506148d682615738565b602082019050919050565b60006148ee60138361516a565b91506148f982615761565b602082019050919050565b600061491160118361516a565b915061491c8261578a565b602082019050919050565b600061493460138361516a565b915061493f826157b3565b602082019050919050565b600061495760108361516a565b9150614962826157dc565b602082019050919050565b600061497a60148361516a565b915061498582615805565b602082019050919050565b600061499d601a8361516a565b91506149a88261582e565b602082019050919050565b60006149c060118361516a565b91506149cb82615857565b602082019050919050565b60006149e360158361516a565b91506149ee82615880565b602082019050919050565b6000614a0660158361516a565b9150614a11826158a9565b602082019050919050565b6000614a2960148361516a565b9150614a34826158d2565b602082019050919050565b6000614a4c60108361516a565b9150614a57826158fb565b602082019050919050565b6000614a6f601a8361516a565b9150614a7a82615924565b602082019050919050565b6000614a9260168361516a565b9150614a9d8261594d565b602082019050919050565b6000614ab560158361516a565b9150614ac082615976565b602082019050919050565b60a082016000820151614ae16000850182614742565b506020820151614af46020850182614b51565b506040820151614b076040850182614b51565b506060820151614b1a6060850182614b51565b506080820151614b2d60808501826146c6565b50505050565b614b3c816153b6565b82525050565b614b4b816153cd565b82525050565b614b5a816153c0565b82525050565b614b69816153c0565b82525050565b6000602082019050614b8460008301846146d5565b92915050565b6000604082019050614b9f60008301856146d5565b614bac60208301846146d5565b9392505050565b6000606082019050614bc860008301866146d5565b614bd560208301856146d5565b614be26040830184614b33565b949350505050565b6000604082019050614bff60008301856146d5565b614c0c6020830184614b42565b9392505050565b60006020820190508181036000830152614c2d81846146e4565b905092915050565b600060a082019050614c4a6000830188614751565b614c576020830187614b60565b614c646040830186614b60565b614c716060830185614b60565b614c7e60808301846146d5565b9695505050505050565b60006020820190508181036000830152614ca181614760565b9050919050565b60006020820190508181036000830152614cc181614783565b9050919050565b60006020820190508181036000830152614ce1816147a6565b9050919050565b60006020820190508181036000830152614d01816147c9565b9050919050565b60006020820190508181036000830152614d21816147ec565b9050919050565b60006020820190508181036000830152614d418161480f565b9050919050565b60006020820190508181036000830152614d6181614832565b9050919050565b60006020820190508181036000830152614d8181614855565b9050919050565b60006020820190508181036000830152614da181614878565b9050919050565b60006020820190508181036000830152614dc18161489b565b9050919050565b60006020820190508181036000830152614de1816148be565b9050919050565b60006020820190508181036000830152614e01816148e1565b9050919050565b60006020820190508181036000830152614e2181614904565b9050919050565b60006020820190508181036000830152614e4181614927565b9050919050565b60006020820190508181036000830152614e618161494a565b9050919050565b60006020820190508181036000830152614e818161496d565b9050919050565b60006020820190508181036000830152614ea181614990565b9050919050565b60006020820190508181036000830152614ec1816149b3565b9050919050565b60006020820190508181036000830152614ee1816149d6565b9050919050565b60006020820190508181036000830152614f01816149f9565b9050919050565b60006020820190508181036000830152614f2181614a1c565b9050919050565b60006020820190508181036000830152614f4181614a3f565b9050919050565b60006020820190508181036000830152614f6181614a62565b9050919050565b60006020820190508181036000830152614f8181614a85565b9050919050565b60006020820190508181036000830152614fa181614aa8565b9050919050565b600060a082019050614fbd6000830184614acb565b92915050565b6000602082019050614fd86000830184614b33565b92915050565b6000602082019050614ff36000830184614b42565b92915050565b600060208201905061500e6000830184614b60565b92915050565b60006040820190506150296000830185614b60565b6150366020830184614b60565b9392505050565b60006060820190506150526000830186614b60565b61505f6020830185614b60565b61506c6040830184614b60565b949350505050565b60006080820190506150896000830187614b60565b6150966020830186614b60565b6150a36040830185614b60565b6150b06060830184614b60565b95945050505050565b600060a0820190506150ce6000830188614b60565b6150db6020830187614b60565b6150e86040830186614b60565b6150f56060830185614b60565b6151026080830184614b60565b9695505050505050565b6000615116615127565b905061512282826153df565b919050565b6000604051905090565b6000819050602082019050919050565b600081519050919050565b6000602082019050919050565b600082825260208201905092915050565b600082825260208201905092915050565b6000615186826153b6565b9150615191836153b6565b9250827fffffffffffffffffffffffffffffffffffffffffffffffffffffffffffffffff038211156151c6576151c5615484565b5b828201905092915050565b60006151dc826153c0565b91506151e7836153c0565b92508260ff038211156151fd576151fc615484565b5b828201905092915050565b6000615213826153b6565b915061521e836153b6565b92508261522e5761522d6154b3565b5b828204905092915050565b6000615244826153b6565b915061524f836153b6565b9250817fffffffffffffffffffffffffffffffffffffffffffffffffffffffffffffffff048311821515161561528857615287615484565b5b828202905092915050565b600061529e826153c0565b91506152a9836153c0565b92508160ff04831182151516156152c3576152c2615484565b5b828202905092915050565b60006152d982615388565b91506152e483615388565b9250828210156152f7576152f6615484565b5b828203905092915050565b600061530d826153b6565b9150615318836153b6565b92508282101561532b5761532a615484565b5b828203905092915050565b6000615341826153c0565b915061534c836153c0565b92508282101561535f5761535e615484565b5b828203905092915050565b600061537582615396565b9050919050565b60008115159050919050565b600061ffff82169050919050565b600073ffffffffffffffffffffffffffffffffffffffff82169050919050565b6000819050919050565b600060ff82169050919050565b60006153d8826153c0565b9050919050565b6153e88261558d565b810181811067ffffffffffffffff8211171561540757615406615540565b5b80604052505050565b600061541b82615388565b915061ffff8214156154305761542f615484565b5b600182019050919050565b6000615446826153b6565b91507fffffffffffffffffffffffffffffffffffffffffffffffffffffffffffffffff82141561547957615478615484565b5b600182019050919050565b7f4e487b7100000000000000000000000000000000000000000000000000000000600052601160045260246000fd5b7f4e487b7100000000000000000000000000000000000000000000000000000000600052601260045260246000fd5b7f4e487b7100000000000000000000000000000000000000000000000000000000600052602160045260246000fd5b7f4e487b7100000000000000000000000000000000000000000000000000000000600052603260045260246000fd5b7f4e487b7100000000000000000000000000000000000000000000000000000000600052604160045260246000fd5b600080fd5b600080fd5b600080fd5b600080fd5b600080fd5b600080fd5b6000601f19601f8301169050919050565b7f546172676574206f66662d626f756e6473000000000000000000000000000000600082015250565b7f4e6f74207269676874207475726e000000000000000000000000000000000000600082015250565b7f4e6f7420656e6f75676820656e6572677920666f722061747461636b00000000600082015250565b7f43616e27742070757420706c617965722074686973207475726e000000000000600082015250565b7f496e76616c696420636f6c756d6e000000000000000000000000000000000000600082015250565b7f42617365206973206f7574206f662072616e6765000000000000000000000000600082015250565b7f456e6572677920696e73756666696369656e7400000000000000000000000000600082015250565b7f4e6f742061206865616c20636172640000000000000000000000000000000000600082015250565b7f4e6f2062616c616e6365206c65667420746f2075736520676f6420706f776572600082015250565b7f4e6f7420616e2061747461636b20706c61796572000000000000000000000000600082015250565b7f41747461636b696e67206f6e206f776e2063656c6c7300000000000000000000600082015250565b7f57726f6e672074617267657420706c6179657200000000000000000000000000600082015250565b7f4e6f7420656e6f75676820656e65726779000000000000000000000000000000600082015250565b7f4e6f74206f776e696e6720746865207061776e00000000000000000000000000600082015250565b7f43656c6c206973206f6363757069656400000000000000000000000000000000600082015250565b7f456e65726779206e6f7420737566666963656e74000000000000000000000000600082015250565b7f41747461636b696e67206f6e20616e20656d7074792063656c6c000000000000600082015250565b7f4e6f74206120636172642061747461636b000000000000000000000000000000600082015250565b7f57696e6e6572207061796d656e74206661696c65640000000000000000000000600082015250565b7f4e6f74206f776e696e6720746865207461726765740000000000000000000000600082015250565b7f5461726765742063656c6c20697320656d707479000000000000000000000000600082015250565b7f496c6c6567616c206d6f76656d656e7400000000000000000000000000000000600082015250565b7f4172656e61206f776e6572207061796d656e74206661696c6564000000000000600082015250565b7f546172676574206973206f7574206f662072616e676500000000000000000000600082015250565b7f4e6f74206f776e696e6720746865206f726967696e0000000000000000000000600082015250565b6159a88161536a565b81146159b357600080fd5b50565b6159bf8161537c565b81146159ca57600080fd5b50565b600281106159da57600080fd5b50565b600781106159ea57600080fd5b50565b6159f6816153b6565b8114615a0157600080fd5b50565b615a0d816153c0565b8114615a1857600080fd5b5056fea26469706673582212208237b2749862f7393a1bbd90211f61d710897396a25a8e1758bf555b9dbf8d0164736f6c63430008070033",
      "opcodes": "PUSH2 0x140 PUSH1 0x40 MSTORE PUSH1 0x0 DUP1 PUSH1 0x0 PUSH2 0x100 EXP DUP2 SLOAD DUP2 PUSH1 0xFF MUL NOT AND SWAP1 DUP4 PUSH1 0x1 DUP2 GT ISZERO PUSH3 0x2D JUMPI PUSH3 0x2C PUSH3 0xE1E JUMP JUMPDEST JUMPDEST MUL OR SWAP1 SSTORE POP PUSH1 0x0 DUP1 PUSH1 0x1 PUSH2 0x100 EXP DUP2 SLOAD DUP2 PUSH2 0xFFFF MUL NOT AND SWAP1 DUP4 PUSH2 0xFFFF AND MUL OR SWAP1 SSTORE POP CALLVALUE DUP1 ISZERO PUSH3 0x5C JUMPI PUSH1 0x0 DUP1 REVERT JUMPDEST POP PUSH1 0x40 MLOAD PUSH3 0x6A9D CODESIZE SUB DUP1 PUSH3 0x6A9D DUP4 CODECOPY DUP2 DUP2 ADD PUSH1 0x40 MSTORE DUP2 ADD SWAP1 PUSH3 0x82 SWAP2 SWAP1 PUSH3 0xA75 JUMP JUMPDEST PUSH1 0x1 PUSH1 0x2 DUP8 PUSH1 0x0 ADD MLOAD PUSH3 0x97 SWAP2 SWAP1 PUSH3 0xCA7 JUMP JUMPDEST PUSH3 0xA3 SWAP2 SWAP1 PUSH3 0xCE9 JUMP JUMPDEST PUSH1 0xFF AND DUP3 MLOAD EQ DUP1 ISZERO PUSH3 0xD9 JUMPI POP PUSH1 0x1 PUSH1 0x2 DUP8 PUSH1 0x0 ADD MLOAD PUSH3 0xC6 SWAP2 SWAP1 PUSH3 0xCA7 JUMP JUMPDEST PUSH3 0xD2 SWAP2 SWAP1 PUSH3 0xCE9 JUMP JUMPDEST PUSH1 0xFF AND DUP2 MLOAD EQ JUMPDEST PUSH3 0x11B JUMPI PUSH1 0x40 MLOAD PUSH32 0x8C379A000000000000000000000000000000000000000000000000000000000 DUP2 MSTORE PUSH1 0x4 ADD PUSH3 0x112 SWAP1 PUSH3 0xC1C JUMP JUMPDEST PUSH1 0x40 MLOAD DUP1 SWAP2 SUB SWAP1 REVERT JUMPDEST DUP9 PUSH1 0x1 PUSH1 0x0 PUSH2 0x100 EXP DUP2 SLOAD DUP2 PUSH20 0xFFFFFFFFFFFFFFFFFFFFFFFFFFFFFFFFFFFFFFFF MUL NOT AND SWAP1 DUP4 PUSH20 0xFFFFFFFFFFFFFFFFFFFFFFFFFFFFFFFFFFFFFFFF AND MUL OR SWAP1 SSTORE POP DUP8 PUSH1 0x2 PUSH1 0x0 PUSH2 0x100 EXP DUP2 SLOAD DUP2 PUSH20 0xFFFFFFFFFFFFFFFFFFFFFFFFFFFFFFFFFFFFFFFF MUL NOT AND SWAP1 DUP4 PUSH20 0xFFFFFFFFFFFFFFFFFFFFFFFFFFFFFFFFFFFFFFFF AND MUL OR SWAP1 SSTORE POP DUP7 PUSH1 0x3 PUSH1 0x0 PUSH2 0x100 EXP DUP2 SLOAD DUP2 PUSH20 0xFFFFFFFFFFFFFFFFFFFFFFFFFFFFFFFFFFFFFFFF MUL NOT AND SWAP1 DUP4 PUSH20 0xFFFFFFFFFFFFFFFFFFFFFFFFFFFFFFFFFFFFFFFF AND MUL OR SWAP1 SSTORE POP PUSH1 0x40 MLOAD DUP1 PUSH1 0x80 ADD PUSH1 0x40 MSTORE DUP1 PUSH3 0x2AA PUSH1 0x1 PUSH1 0x0 SWAP1 SLOAD SWAP1 PUSH2 0x100 EXP SWAP1 DIV PUSH20 0xFFFFFFFFFFFFFFFFFFFFFFFFFFFFFFFFFFFFFFFF AND PUSH20 0xFFFFFFFFFFFFFFFFFFFFFFFFFFFFFFFFFFFFFFFF AND PUSH4 0x27E235E3 DUP9 PUSH1 0x40 MLOAD DUP3 PUSH4 0xFFFFFFFF AND PUSH1 0xE0 SHL DUP2 MSTORE PUSH1 0x4 ADD PUSH3 0x24A SWAP2 SWAP1 PUSH3 0xBFF JUMP JUMPDEST PUSH1 0x20 PUSH1 0x40 MLOAD DUP1 DUP4 SUB DUP2 DUP7 DUP1 EXTCODESIZE ISZERO DUP1 ISZERO PUSH3 0x263 JUMPI PUSH1 0x0 DUP1 REVERT JUMPDEST POP GAS STATICCALL ISZERO DUP1 ISZERO PUSH3 0x278 JUMPI RETURNDATASIZE PUSH1 0x0 DUP1 RETURNDATACOPY RETURNDATASIZE PUSH1 0x0 REVERT JUMPDEST POP POP POP POP PUSH1 0x40 MLOAD RETURNDATASIZE PUSH1 0x1F NOT PUSH1 0x1F DUP3 ADD AND DUP3 ADD DUP1 PUSH1 0x40 MSTORE POP DUP2 ADD SWAP1 PUSH3 0x29E SWAP2 SWAP1 PUSH3 0xB95 JUMP JUMPDEST PUSH3 0x710 PUSH1 0x20 SHL PUSH1 0x20 SHR JUMP JUMPDEST PUSH1 0xFF AND DUP2 MSTORE PUSH1 0x20 ADD DUP8 PUSH1 0x0 ADD MLOAD PUSH1 0xFF AND DUP2 MSTORE PUSH1 0x20 ADD DUP6 PUSH20 0xFFFFFFFFFFFFFFFFFFFFFFFFFFFFFFFFFFFFFFFF AND DUP2 MSTORE PUSH1 0x20 ADD DUP4 DUP2 MSTORE POP PUSH1 0x4 PUSH1 0x0 DUP3 ADD MLOAD DUP2 PUSH1 0x0 ADD PUSH1 0x0 PUSH2 0x100 EXP DUP2 SLOAD DUP2 PUSH1 0xFF MUL NOT AND SWAP1 DUP4 PUSH1 0xFF AND MUL OR SWAP1 SSTORE POP PUSH1 0x20 DUP3 ADD MLOAD DUP2 PUSH1 0x0 ADD PUSH1 0x1 PUSH2 0x100 EXP DUP2 SLOAD DUP2 PUSH1 0xFF MUL NOT AND SWAP1 DUP4 PUSH1 0xFF AND MUL OR SWAP1 SSTORE POP PUSH1 0x40 DUP3 ADD MLOAD DUP2 PUSH1 0x0 ADD PUSH1 0x2 PUSH2 0x100 EXP DUP2 SLOAD DUP2 PUSH20 0xFFFFFFFFFFFFFFFFFFFFFFFFFFFFFFFFFFFFFFFF MUL NOT AND SWAP1 DUP4 PUSH20 0xFFFFFFFFFFFFFFFFFFFFFFFFFFFFFFFFFFFFFFFF AND MUL OR SWAP1 SSTORE POP PUSH1 0x60 DUP3 ADD MLOAD DUP2 PUSH1 0x1 ADD SWAP1 DUP1 MLOAD SWAP1 PUSH1 0x20 ADD SWAP1 PUSH3 0x388 SWAP3 SWAP2 SWAP1 PUSH3 0x76F JUMP JUMPDEST POP SWAP1 POP POP PUSH1 0x40 MLOAD DUP1 PUSH1 0x80 ADD PUSH1 0x40 MSTORE DUP1 PUSH3 0x458 PUSH1 0x1 PUSH1 0x0 SWAP1 SLOAD SWAP1 PUSH2 0x100 EXP SWAP1 DIV PUSH20 0xFFFFFFFFFFFFFFFFFFFFFFFFFFFFFFFFFFFFFFFF AND PUSH20 0xFFFFFFFFFFFFFFFFFFFFFFFFFFFFFFFFFFFFFFFF AND PUSH4 0x27E235E3 DUP8 PUSH1 0x40 MLOAD DUP3 PUSH4 0xFFFFFFFF AND PUSH1 0xE0 SHL DUP2 MSTORE PUSH1 0x4 ADD PUSH3 0x3F8 SWAP2 SWAP1 PUSH3 0xBFF JUMP JUMPDEST PUSH1 0x20 PUSH1 0x40 MLOAD DUP1 DUP4 SUB DUP2 DUP7 DUP1 EXTCODESIZE ISZERO DUP1 ISZERO PUSH3 0x411 JUMPI PUSH1 0x0 DUP1 REVERT JUMPDEST POP GAS STATICCALL ISZERO DUP1 ISZERO PUSH3 0x426 JUMPI RETURNDATASIZE PUSH1 0x0 DUP1 RETURNDATACOPY RETURNDATASIZE PUSH1 0x0 REVERT JUMPDEST POP POP POP POP PUSH1 0x40 MLOAD RETURNDATASIZE PUSH1 0x1F NOT PUSH1 0x1F DUP3 ADD AND DUP3 ADD DUP1 PUSH1 0x40 MSTORE POP DUP2 ADD SWAP1 PUSH3 0x44C SWAP2 SWAP1 PUSH3 0xB95 JUMP JUMPDEST PUSH3 0x710 PUSH1 0x20 SHL PUSH1 0x20 SHR JUMP JUMPDEST PUSH1 0xFF AND DUP2 MSTORE PUSH1 0x20 ADD DUP8 PUSH1 0x0 ADD MLOAD PUSH1 0xFF AND DUP2 MSTORE PUSH1 0x20 ADD DUP5 PUSH20 0xFFFFFFFFFFFFFFFFFFFFFFFFFFFFFFFFFFFFFFFF AND DUP2 MSTORE PUSH1 0x20 ADD DUP3 DUP2 MSTORE POP PUSH1 0x6 PUSH1 0x0 DUP3 ADD MLOAD DUP2 PUSH1 0x0 ADD PUSH1 0x0 PUSH2 0x100 EXP DUP2 SLOAD DUP2 PUSH1 0xFF MUL NOT AND SWAP1 DUP4 PUSH1 0xFF AND MUL OR SWAP1 SSTORE POP PUSH1 0x20 DUP3 ADD MLOAD DUP2 PUSH1 0x0 ADD PUSH1 0x1 PUSH2 0x100 EXP DUP2 SLOAD DUP2 PUSH1 0xFF MUL NOT AND SWAP1 DUP4 PUSH1 0xFF AND MUL OR SWAP1 SSTORE POP PUSH1 0x40 DUP3 ADD MLOAD DUP2 PUSH1 0x0 ADD PUSH1 0x2 PUSH2 0x100 EXP DUP2 SLOAD DUP2 PUSH20 0xFFFFFFFFFFFFFFFFFFFFFFFFFFFFFFFFFFFFFFFF MUL NOT AND SWAP1 DUP4 PUSH20 0xFFFFFFFFFFFFFFFFFFFFFFFFFFFFFFFFFFFFFFFF AND MUL OR SWAP1 SSTORE POP PUSH1 0x60 DUP3 ADD MLOAD DUP2 PUSH1 0x1 ADD SWAP1 DUP1 MLOAD SWAP1 PUSH1 0x20 ADD SWAP1 PUSH3 0x536 SWAP3 SWAP2 SWAP1 PUSH3 0x76F JUMP JUMPDEST POP SWAP1 POP POP PUSH1 0x6 PUSH1 0x8 PUSH1 0x0 DUP3 ADD PUSH1 0x0 SWAP1 SLOAD SWAP1 PUSH2 0x100 EXP SWAP1 DIV PUSH1 0xFF AND DUP2 PUSH1 0x0 ADD PUSH1 0x0 PUSH2 0x100 EXP DUP2 SLOAD DUP2 PUSH1 0xFF MUL NOT AND SWAP1 DUP4 PUSH1 0xFF AND MUL OR SWAP1 SSTORE POP PUSH1 0x0 DUP3 ADD PUSH1 0x1 SWAP1 SLOAD SWAP1 PUSH2 0x100 EXP SWAP1 DIV PUSH1 0xFF AND DUP2 PUSH1 0x0 ADD PUSH1 0x1 PUSH2 0x100 EXP DUP2 SLOAD DUP2 PUSH1 0xFF MUL NOT AND SWAP1 DUP4 PUSH1 0xFF AND MUL OR SWAP1 SSTORE POP PUSH1 0x0 DUP3 ADD PUSH1 0x2 SWAP1 SLOAD SWAP1 PUSH2 0x100 EXP SWAP1 DIV PUSH20 0xFFFFFFFFFFFFFFFFFFFFFFFFFFFFFFFFFFFFFFFF AND DUP2 PUSH1 0x0 ADD PUSH1 0x2 PUSH2 0x100 EXP DUP2 SLOAD DUP2 PUSH20 0xFFFFFFFFFFFFFFFFFFFFFFFFFFFFFFFFFFFFFFFF MUL NOT AND SWAP1 DUP4 PUSH20 0xFFFFFFFFFFFFFFFFFFFFFFFFFFFFFFFFFFFFFFFF AND MUL OR SWAP1 SSTORE POP PUSH1 0x1 DUP3 ADD DUP2 PUSH1 0x1 ADD SWAP1 DUP1 SLOAD PUSH3 0x619 SWAP3 SWAP2 SWAP1 PUSH3 0x81D JUMP JUMPDEST POP SWAP1 POP POP CALLER PUSH20 0xFFFFFFFFFFFFFFFFFFFFFFFFFFFFFFFFFFFFFFFF AND PUSH2 0x120 DUP2 PUSH20 0xFFFFFFFFFFFFFFFFFFFFFFFFFFFFFFFFFFFFFFFF AND PUSH1 0x60 SHL DUP2 MSTORE POP POP DUP5 PUSH20 0xFFFFFFFFFFFFFFFFFFFFFFFFFFFFFFFFFFFFFFFF AND PUSH2 0x100 DUP2 PUSH20 0xFFFFFFFFFFFFFFFFFFFFFFFFFFFFFFFFFFFFFFFF AND PUSH1 0x60 SHL DUP2 MSTORE POP POP DUP6 PUSH1 0x40 ADD MLOAD PUSH2 0xFFFF AND PUSH1 0xE0 DUP2 PUSH2 0xFFFF AND PUSH1 0xF0 SHL DUP2 MSTORE POP POP DUP6 PUSH1 0x20 ADD MLOAD PUSH2 0xFFFF AND PUSH1 0xC0 DUP2 PUSH2 0xFFFF AND PUSH1 0xF0 SHL DUP2 MSTORE POP POP DUP6 PUSH1 0x0 ADD MLOAD PUSH1 0xFF AND PUSH1 0xA0 DUP2 PUSH1 0xFF AND PUSH1 0xF8 SHL DUP2 MSTORE POP POP PUSH1 0x1 PUSH1 0x2 DUP8 PUSH1 0x0 ADD MLOAD PUSH3 0x6E5 SWAP2 SWAP1 PUSH3 0xCA7 JUMP JUMPDEST PUSH3 0x6F1 SWAP2 SWAP1 PUSH3 0xCE9 JUMP JUMPDEST PUSH1 0xFF AND PUSH1 0x80 DUP2 PUSH1 0xFF AND PUSH1 0xF8 SHL DUP2 MSTORE POP POP POP POP POP POP POP POP POP POP POP PUSH3 0xFAB JUMP JUMPDEST PUSH1 0x0 PUSH1 0x64 DUP3 LT ISZERO PUSH3 0x726 JUMPI PUSH1 0xA SWAP1 POP PUSH3 0x76A JUMP JUMPDEST PUSH2 0x1C2 DUP3 LT ISZERO PUSH3 0x73B JUMPI PUSH1 0xF SWAP1 POP PUSH3 0x76A JUMP JUMPDEST PUSH2 0x41A DUP3 LT ISZERO PUSH3 0x750 JUMPI PUSH1 0x14 SWAP1 POP PUSH3 0x76A JUMP JUMPDEST PUSH2 0x10FE DUP3 LT ISZERO PUSH3 0x765 JUMPI PUSH1 0x19 SWAP1 POP PUSH3 0x76A JUMP JUMPDEST PUSH1 0x1E SWAP1 POP JUMPDEST SWAP2 SWAP1 POP JUMP JUMPDEST DUP3 DUP1 SLOAD DUP3 DUP3 SSTORE SWAP1 PUSH1 0x0 MSTORE PUSH1 0x20 PUSH1 0x0 KECCAK256 SWAP1 PUSH1 0x1F ADD PUSH1 0x20 SWAP1 DIV DUP2 ADD SWAP3 DUP3 ISZERO PUSH3 0x80A JUMPI SWAP2 PUSH1 0x20 MUL DUP3 ADD PUSH1 0x0 JUMPDEST DUP4 DUP3 GT ISZERO PUSH3 0x7D9 JUMPI DUP4 MLOAD DUP4 DUP3 PUSH2 0x100 EXP DUP2 SLOAD DUP2 PUSH1 0xFF MUL NOT AND SWAP1 DUP4 PUSH1 0xFF AND MUL OR SWAP1 SSTORE POP SWAP3 PUSH1 0x20 ADD SWAP3 PUSH1 0x1 ADD PUSH1 0x20 DUP2 PUSH1 0x0 ADD DIV SWAP3 DUP4 ADD SWAP3 PUSH1 0x1 SUB MUL PUSH3 0x799 JUMP JUMPDEST DUP1 ISZERO PUSH3 0x808 JUMPI DUP3 DUP2 PUSH2 0x100 EXP DUP2 SLOAD SWAP1 PUSH1 0xFF MUL NOT AND SWAP1 SSTORE PUSH1 0x1 ADD PUSH1 0x20 DUP2 PUSH1 0x0 ADD DIV SWAP3 DUP4 ADD SWAP3 PUSH1 0x1 SUB MUL PUSH3 0x7D9 JUMP JUMPDEST POP JUMPDEST POP SWAP1 POP PUSH3 0x819 SWAP2 SWAP1 PUSH3 0x882 JUMP JUMPDEST POP SWAP1 JUMP JUMPDEST DUP3 DUP1 SLOAD DUP3 DUP3 SSTORE SWAP1 PUSH1 0x0 MSTORE PUSH1 0x20 PUSH1 0x0 KECCAK256 SWAP1 PUSH1 0x1F ADD PUSH1 0x20 SWAP1 DIV DUP2 ADD SWAP3 DUP3 ISZERO PUSH3 0x86F JUMPI PUSH1 0x0 MSTORE PUSH1 0x20 PUSH1 0x0 KECCAK256 SWAP2 PUSH1 0x1F ADD PUSH1 0x20 SWAP1 DIV DUP3 ADD JUMPDEST DUP3 DUP2 GT ISZERO PUSH3 0x86E JUMPI DUP3 SLOAD DUP3 SSTORE SWAP2 PUSH1 0x1 ADD SWAP2 SWAP1 PUSH1 0x1 ADD SWAP1 PUSH3 0x851 JUMP JUMPDEST JUMPDEST POP SWAP1 POP PUSH3 0x87E SWAP2 SWAP1 PUSH3 0x882 JUMP JUMPDEST POP SWAP1 JUMP JUMPDEST JUMPDEST DUP1 DUP3 GT ISZERO PUSH3 0x89D JUMPI PUSH1 0x0 DUP2 PUSH1 0x0 SWAP1 SSTORE POP PUSH1 0x1 ADD PUSH3 0x883 JUMP JUMPDEST POP SWAP1 JUMP JUMPDEST PUSH1 0x0 PUSH3 0x8B8 PUSH3 0x8B2 DUP5 PUSH3 0xC67 JUMP JUMPDEST PUSH3 0xC3E JUMP JUMPDEST SWAP1 POP DUP1 DUP4 DUP3 MSTORE PUSH1 0x20 DUP3 ADD SWAP1 POP DUP3 DUP6 PUSH1 0x20 DUP7 MUL DUP3 ADD GT ISZERO PUSH3 0x8DE JUMPI PUSH3 0x8DD PUSH3 0xE86 JUMP JUMPDEST JUMPDEST PUSH1 0x0 JUMPDEST DUP6 DUP2 LT ISZERO PUSH3 0x912 JUMPI DUP2 PUSH3 0x8F7 DUP9 DUP3 PUSH3 0xA5E JUMP JUMPDEST DUP5 MSTORE PUSH1 0x20 DUP5 ADD SWAP4 POP PUSH1 0x20 DUP4 ADD SWAP3 POP POP PUSH1 0x1 DUP2 ADD SWAP1 POP PUSH3 0x8E1 JUMP JUMPDEST POP POP POP SWAP4 SWAP3 POP POP POP JUMP JUMPDEST PUSH1 0x0 DUP2 MLOAD SWAP1 POP PUSH3 0x92D DUP2 PUSH3 0xEF5 JUMP JUMPDEST SWAP3 SWAP2 POP POP JUMP JUMPDEST PUSH1 0x0 DUP3 PUSH1 0x1F DUP4 ADD SLT PUSH3 0x94B JUMPI PUSH3 0x94A PUSH3 0xE7C JUMP JUMPDEST JUMPDEST DUP2 MLOAD PUSH3 0x95D DUP5 DUP3 PUSH1 0x20 DUP7 ADD PUSH3 0x8A1 JUMP JUMPDEST SWAP2 POP POP SWAP3 SWAP2 POP POP JUMP JUMPDEST PUSH1 0x0 DUP2 MLOAD SWAP1 POP PUSH3 0x977 DUP2 PUSH3 0xF0F JUMP JUMPDEST SWAP3 SWAP2 POP POP JUMP JUMPDEST PUSH1 0x0 DUP2 MLOAD SWAP1 POP PUSH3 0x98E DUP2 PUSH3 0xF29 JUMP JUMPDEST SWAP3 SWAP2 POP POP JUMP JUMPDEST PUSH1 0x0 DUP2 MLOAD SWAP1 POP PUSH3 0x9A5 DUP2 PUSH3 0xF43 JUMP JUMPDEST SWAP3 SWAP2 POP POP JUMP JUMPDEST PUSH1 0x0 PUSH1 0x80 DUP3 DUP5 SUB SLT ISZERO PUSH3 0x9C4 JUMPI PUSH3 0x9C3 PUSH3 0xE81 JUMP JUMPDEST JUMPDEST PUSH3 0x9D0 PUSH1 0x80 PUSH3 0xC3E JUMP JUMPDEST SWAP1 POP PUSH1 0x0 PUSH3 0x9E2 DUP5 DUP3 DUP6 ADD PUSH3 0xA5E JUMP JUMPDEST PUSH1 0x0 DUP4 ADD MSTORE POP PUSH1 0x20 PUSH3 0x9F8 DUP5 DUP3 DUP6 ADD PUSH3 0xA30 JUMP JUMPDEST PUSH1 0x20 DUP4 ADD MSTORE POP PUSH1 0x40 PUSH3 0xA0E DUP5 DUP3 DUP6 ADD PUSH3 0xA30 JUMP JUMPDEST PUSH1 0x40 DUP4 ADD MSTORE POP PUSH1 0x60 PUSH3 0xA24 DUP5 DUP3 DUP6 ADD PUSH3 0xA47 JUMP JUMPDEST PUSH1 0x60 DUP4 ADD MSTORE POP SWAP3 SWAP2 POP POP JUMP JUMPDEST PUSH1 0x0 DUP2 MLOAD SWAP1 POP PUSH3 0xA41 DUP2 PUSH3 0xF5D JUMP JUMPDEST SWAP3 SWAP2 POP POP JUMP JUMPDEST PUSH1 0x0 DUP2 MLOAD SWAP1 POP PUSH3 0xA58 DUP2 PUSH3 0xF77 JUMP JUMPDEST SWAP3 SWAP2 POP POP JUMP JUMPDEST PUSH1 0x0 DUP2 MLOAD SWAP1 POP PUSH3 0xA6F DUP2 PUSH3 0xF91 JUMP JUMPDEST SWAP3 SWAP2 POP POP JUMP JUMPDEST PUSH1 0x0 DUP1 PUSH1 0x0 DUP1 PUSH1 0x0 DUP1 PUSH1 0x0 DUP1 PUSH1 0x0 PUSH2 0x180 DUP11 DUP13 SUB SLT ISZERO PUSH3 0xA9B JUMPI PUSH3 0xA9A PUSH3 0xE90 JUMP JUMPDEST JUMPDEST PUSH1 0x0 PUSH3 0xAAB DUP13 DUP3 DUP14 ADD PUSH3 0x994 JUMP JUMPDEST SWAP10 POP POP PUSH1 0x20 PUSH3 0xABE DUP13 DUP3 DUP14 ADD PUSH3 0x97D JUMP JUMPDEST SWAP9 POP POP PUSH1 0x40 PUSH3 0xAD1 DUP13 DUP3 DUP14 ADD PUSH3 0x966 JUMP JUMPDEST SWAP8 POP POP PUSH1 0x60 PUSH3 0xAE4 DUP13 DUP3 DUP14 ADD PUSH3 0x9AB JUMP JUMPDEST SWAP7 POP POP PUSH1 0xE0 PUSH3 0xAF7 DUP13 DUP3 DUP14 ADD PUSH3 0x91C JUMP JUMPDEST SWAP6 POP POP PUSH2 0x100 PUSH3 0xB0B DUP13 DUP3 DUP14 ADD PUSH3 0x91C JUMP JUMPDEST SWAP5 POP POP PUSH2 0x120 PUSH3 0xB1F DUP13 DUP3 DUP14 ADD PUSH3 0x91C JUMP JUMPDEST SWAP4 POP POP PUSH2 0x140 DUP11 ADD MLOAD PUSH8 0xFFFFFFFFFFFFFFFF DUP2 GT ISZERO PUSH3 0xB44 JUMPI PUSH3 0xB43 PUSH3 0xE8B JUMP JUMPDEST JUMPDEST PUSH3 0xB52 DUP13 DUP3 DUP14 ADD PUSH3 0x933 JUMP JUMPDEST SWAP3 POP POP PUSH2 0x160 DUP11 ADD MLOAD PUSH8 0xFFFFFFFFFFFFFFFF DUP2 GT ISZERO PUSH3 0xB77 JUMPI PUSH3 0xB76 PUSH3 0xE8B JUMP JUMPDEST JUMPDEST PUSH3 0xB85 DUP13 DUP3 DUP14 ADD PUSH3 0x933 JUMP JUMPDEST SWAP2 POP POP SWAP3 SWAP6 SWAP9 POP SWAP3 SWAP6 SWAP9 POP SWAP3 SWAP6 SWAP9 JUMP JUMPDEST PUSH1 0x0 PUSH1 0x20 DUP3 DUP5 SUB SLT ISZERO PUSH3 0xBAE JUMPI PUSH3 0xBAD PUSH3 0xE90 JUMP JUMPDEST JUMPDEST PUSH1 0x0 PUSH3 0xBBE DUP5 DUP3 DUP6 ADD PUSH3 0xA47 JUMP JUMPDEST SWAP2 POP POP SWAP3 SWAP2 POP POP JUMP JUMPDEST PUSH3 0xBD2 DUP2 PUSH3 0xD24 JUMP JUMPDEST DUP3 MSTORE POP POP JUMP JUMPDEST PUSH1 0x0 PUSH3 0xBE7 PUSH1 0x29 DUP4 PUSH3 0xC96 JUMP JUMPDEST SWAP2 POP PUSH3 0xBF4 DUP3 PUSH3 0xEA6 JUMP JUMPDEST PUSH1 0x40 DUP3 ADD SWAP1 POP SWAP2 SWAP1 POP JUMP JUMPDEST PUSH1 0x0 PUSH1 0x20 DUP3 ADD SWAP1 POP PUSH3 0xC16 PUSH1 0x0 DUP4 ADD DUP5 PUSH3 0xBC7 JUMP JUMPDEST SWAP3 SWAP2 POP POP JUMP JUMPDEST PUSH1 0x0 PUSH1 0x20 DUP3 ADD SWAP1 POP DUP2 DUP2 SUB PUSH1 0x0 DUP4 ADD MSTORE PUSH3 0xC37 DUP2 PUSH3 0xBD8 JUMP JUMPDEST SWAP1 POP SWAP2 SWAP1 POP JUMP JUMPDEST PUSH1 0x0 PUSH3 0xC4A PUSH3 0xC5D JUMP JUMPDEST SWAP1 POP PUSH3 0xC58 DUP3 DUP3 PUSH3 0xDB9 JUMP JUMPDEST SWAP2 SWAP1 POP JUMP JUMPDEST PUSH1 0x0 PUSH1 0x40 MLOAD SWAP1 POP SWAP1 JUMP JUMPDEST PUSH1 0x0 PUSH8 0xFFFFFFFFFFFFFFFF DUP3 GT ISZERO PUSH3 0xC85 JUMPI PUSH3 0xC84 PUSH3 0xE4D JUMP JUMPDEST JUMPDEST PUSH1 0x20 DUP3 MUL SWAP1 POP PUSH1 0x20 DUP2 ADD SWAP1 POP SWAP2 SWAP1 POP JUMP JUMPDEST PUSH1 0x0 DUP3 DUP3 MSTORE PUSH1 0x20 DUP3 ADD SWAP1 POP SWAP3 SWAP2 POP POP JUMP JUMPDEST PUSH1 0x0 PUSH3 0xCB4 DUP3 PUSH3 0xDAC JUMP JUMPDEST SWAP2 POP PUSH3 0xCC1 DUP4 PUSH3 0xDAC JUMP JUMPDEST SWAP3 POP DUP2 PUSH1 0xFF DIV DUP4 GT DUP3 ISZERO ISZERO AND ISZERO PUSH3 0xCDE JUMPI PUSH3 0xCDD PUSH3 0xDEF JUMP JUMPDEST JUMPDEST DUP3 DUP3 MUL SWAP1 POP SWAP3 SWAP2 POP POP JUMP JUMPDEST PUSH1 0x0 PUSH3 0xCF6 DUP3 PUSH3 0xDAC JUMP JUMPDEST SWAP2 POP PUSH3 0xD03 DUP4 PUSH3 0xDAC JUMP JUMPDEST SWAP3 POP DUP3 DUP3 LT ISZERO PUSH3 0xD19 JUMPI PUSH3 0xD18 PUSH3 0xDEF JUMP JUMPDEST JUMPDEST DUP3 DUP3 SUB SWAP1 POP SWAP3 SWAP2 POP POP JUMP JUMPDEST PUSH1 0x0 PUSH3 0xD31 DUP3 PUSH3 0xD82 JUMP JUMPDEST SWAP1 POP SWAP2 SWAP1 POP JUMP JUMPDEST PUSH1 0x0 PUSH3 0xD45 DUP3 PUSH3 0xD24 JUMP JUMPDEST SWAP1 POP SWAP2 SWAP1 POP JUMP JUMPDEST PUSH1 0x0 PUSH3 0xD59 DUP3 PUSH3 0xD24 JUMP JUMPDEST SWAP1 POP SWAP2 SWAP1 POP JUMP JUMPDEST PUSH1 0x0 PUSH3 0xD6D DUP3 PUSH3 0xD24 JUMP JUMPDEST SWAP1 POP SWAP2 SWAP1 POP JUMP JUMPDEST PUSH1 0x0 PUSH2 0xFFFF DUP3 AND SWAP1 POP SWAP2 SWAP1 POP JUMP JUMPDEST PUSH1 0x0 PUSH20 0xFFFFFFFFFFFFFFFFFFFFFFFFFFFFFFFFFFFFFFFF DUP3 AND SWAP1 POP SWAP2 SWAP1 POP JUMP JUMPDEST PUSH1 0x0 DUP2 SWAP1 POP SWAP2 SWAP1 POP JUMP JUMPDEST PUSH1 0x0 PUSH1 0xFF DUP3 AND SWAP1 POP SWAP2 SWAP1 POP JUMP JUMPDEST PUSH3 0xDC4 DUP3 PUSH3 0xE95 JUMP JUMPDEST DUP2 ADD DUP2 DUP2 LT PUSH8 0xFFFFFFFFFFFFFFFF DUP3 GT OR ISZERO PUSH3 0xDE6 JUMPI PUSH3 0xDE5 PUSH3 0xE4D JUMP JUMPDEST JUMPDEST DUP1 PUSH1 0x40 MSTORE POP POP POP JUMP JUMPDEST PUSH32 0x4E487B7100000000000000000000000000000000000000000000000000000000 PUSH1 0x0 MSTORE PUSH1 0x11 PUSH1 0x4 MSTORE PUSH1 0x24 PUSH1 0x0 REVERT JUMPDEST PUSH32 0x4E487B7100000000000000000000000000000000000000000000000000000000 PUSH1 0x0 MSTORE PUSH1 0x21 PUSH1 0x4 MSTORE PUSH1 0x24 PUSH1 0x0 REVERT JUMPDEST PUSH32 0x4E487B7100000000000000000000000000000000000000000000000000000000 PUSH1 0x0 MSTORE PUSH1 0x41 PUSH1 0x4 MSTORE PUSH1 0x24 PUSH1 0x0 REVERT JUMPDEST PUSH1 0x0 DUP1 REVERT JUMPDEST PUSH1 0x0 DUP1 REVERT JUMPDEST PUSH1 0x0 DUP1 REVERT JUMPDEST PUSH1 0x0 DUP1 REVERT JUMPDEST PUSH1 0x0 DUP1 REVERT JUMPDEST PUSH1 0x0 PUSH1 0x1F NOT PUSH1 0x1F DUP4 ADD AND SWAP1 POP SWAP2 SWAP1 POP JUMP JUMPDEST PUSH32 0x4465636B2073697A6520646F65736E2774206D617463682067616D6520726571 PUSH1 0x0 DUP3 ADD MSTORE PUSH32 0x756972656D656E74730000000000000000000000000000000000000000000000 PUSH1 0x20 DUP3 ADD MSTORE POP JUMP JUMPDEST PUSH3 0xF00 DUP2 PUSH3 0xD24 JUMP JUMPDEST DUP2 EQ PUSH3 0xF0C JUMPI PUSH1 0x0 DUP1 REVERT JUMPDEST POP JUMP JUMPDEST PUSH3 0xF1A DUP2 PUSH3 0xD38 JUMP JUMPDEST DUP2 EQ PUSH3 0xF26 JUMPI PUSH1 0x0 DUP1 REVERT JUMPDEST POP JUMP JUMPDEST PUSH3 0xF34 DUP2 PUSH3 0xD4C JUMP JUMPDEST DUP2 EQ PUSH3 0xF40 JUMPI PUSH1 0x0 DUP1 REVERT JUMPDEST POP JUMP JUMPDEST PUSH3 0xF4E DUP2 PUSH3 0xD60 JUMP JUMPDEST DUP2 EQ PUSH3 0xF5A JUMPI PUSH1 0x0 DUP1 REVERT JUMPDEST POP JUMP JUMPDEST PUSH3 0xF68 DUP2 PUSH3 0xD74 JUMP JUMPDEST DUP2 EQ PUSH3 0xF74 JUMPI PUSH1 0x0 DUP1 REVERT JUMPDEST POP JUMP JUMPDEST PUSH3 0xF82 DUP2 PUSH3 0xDA2 JUMP JUMPDEST DUP2 EQ PUSH3 0xF8E JUMPI PUSH1 0x0 DUP1 REVERT JUMPDEST POP JUMP JUMPDEST PUSH3 0xF9C DUP2 PUSH3 0xDAC JUMP JUMPDEST DUP2 EQ PUSH3 0xFA8 JUMPI PUSH1 0x0 DUP1 REVERT JUMPDEST POP JUMP JUMPDEST PUSH1 0x80 MLOAD PUSH1 0xF8 SHR PUSH1 0xA0 MLOAD PUSH1 0xF8 SHR PUSH1 0xC0 MLOAD PUSH1 0xF0 SHR PUSH1 0xE0 MLOAD PUSH1 0xF0 SHR PUSH2 0x100 MLOAD PUSH1 0x60 SHR PUSH2 0x120 MLOAD PUSH1 0x60 SHR PUSH2 0x5A51 PUSH3 0x104C PUSH1 0x0 CODECOPY PUSH1 0x0 DUP2 DUP2 PUSH2 0x293C ADD MSTORE DUP2 DUP2 PUSH2 0x395D ADD MSTORE DUP2 DUP2 PUSH2 0x3D67 ADD MSTORE DUP2 DUP2 PUSH2 0x3E36 ADD MSTORE PUSH2 0x3FCC ADD MSTORE PUSH1 0x0 PUSH2 0x3FED ADD MSTORE PUSH1 0x0 PUSH2 0x4011 ADD MSTORE PUSH1 0x0 DUP2 DUP2 PUSH2 0x28D9 ADD MSTORE DUP2 DUP2 PUSH2 0x38FA ADD MSTORE PUSH2 0x3E9B ADD MSTORE PUSH1 0x0 PUSH2 0x767 ADD MSTORE PUSH1 0x0 DUP2 DUP2 PUSH2 0xACC ADD MSTORE DUP2 DUP2 PUSH2 0x10BF ADD MSTORE DUP2 DUP2 PUSH2 0x1101 ADD MSTORE PUSH2 0x2484 ADD MSTORE PUSH2 0x5A51 PUSH1 0x0 RETURN INVALID PUSH1 0x80 PUSH1 0x40 MSTORE CALLVALUE DUP1 ISZERO PUSH2 0x10 JUMPI PUSH1 0x0 DUP1 REVERT JUMPDEST POP PUSH1 0x4 CALLDATASIZE LT PUSH2 0x57 JUMPI PUSH1 0x0 CALLDATALOAD PUSH1 0xE0 SHR DUP1 PUSH4 0x1BE80D55 EQ PUSH2 0x5C JUMPI DUP1 PUSH4 0x3F312752 EQ PUSH2 0x90 JUMPI DUP1 PUSH4 0x4F033FA0 EQ PUSH2 0xAC JUMPI DUP1 PUSH4 0x4F4FDF80 EQ PUSH2 0xDC JUMPI DUP1 PUSH4 0xD9D881E3 EQ PUSH2 0x10C JUMPI JUMPDEST PUSH1 0x0 DUP1 REVERT JUMPDEST PUSH2 0x76 PUSH1 0x4 DUP1 CALLDATASIZE SUB DUP2 ADD SWAP1 PUSH2 0x71 SWAP2 SWAP1 PUSH2 0x4601 JUMP JUMPDEST PUSH2 0x12A JUMP JUMPDEST PUSH1 0x40 MLOAD PUSH2 0x87 SWAP6 SWAP5 SWAP4 SWAP3 SWAP2 SWAP1 PUSH2 0x4C35 JUMP JUMPDEST PUSH1 0x40 MLOAD DUP1 SWAP2 SUB SWAP1 RETURN JUMPDEST PUSH2 0xAA PUSH1 0x4 DUP1 CALLDATASIZE SUB DUP2 ADD SWAP1 PUSH2 0xA5 SWAP2 SWAP1 PUSH2 0x4500 JUMP JUMPDEST PUSH2 0x1D9 JUMP JUMPDEST STOP JUMPDEST PUSH2 0xC6 PUSH1 0x4 DUP1 CALLDATASIZE SUB DUP2 ADD SWAP1 PUSH2 0xC1 SWAP2 SWAP1 PUSH2 0x44D3 JUMP JUMPDEST PUSH2 0x2BB JUMP JUMPDEST PUSH1 0x40 MLOAD PUSH2 0xD3 SWAP2 SWAP1 PUSH2 0x4FC3 JUMP JUMPDEST PUSH1 0x40 MLOAD DUP1 SWAP2 SUB SWAP1 RETURN JUMPDEST PUSH2 0xF6 PUSH1 0x4 DUP1 CALLDATASIZE SUB DUP2 ADD SWAP1 PUSH2 0xF1 SWAP2 SWAP1 PUSH2 0x466E JUMP JUMPDEST PUSH2 0x2D3 JUMP JUMPDEST PUSH1 0x40 MLOAD PUSH2 0x103 SWAP2 SWAP1 PUSH2 0x4FA8 JUMP JUMPDEST PUSH1 0x40 MLOAD DUP1 SWAP2 SUB SWAP1 RETURN JUMPDEST PUSH2 0x114 PUSH2 0x3F6 JUMP JUMPDEST PUSH1 0x40 MLOAD PUSH2 0x121 SWAP2 SWAP1 PUSH2 0x4C13 JUMP JUMPDEST PUSH1 0x40 MLOAD DUP1 SWAP2 SUB SWAP1 RETURN JUMPDEST PUSH1 0xC DUP3 DUP2 SLOAD DUP2 LT PUSH2 0x13A JUMPI PUSH1 0x0 DUP1 REVERT JUMPDEST SWAP1 PUSH1 0x0 MSTORE PUSH1 0x20 PUSH1 0x0 KECCAK256 ADD DUP2 DUP2 SLOAD DUP2 LT PUSH2 0x152 JUMPI PUSH1 0x0 DUP1 REVERT JUMPDEST SWAP1 PUSH1 0x0 MSTORE PUSH1 0x20 PUSH1 0x0 KECCAK256 ADD PUSH1 0x0 SWAP2 POP SWAP2 POP POP DUP1 PUSH1 0x0 ADD PUSH1 0x0 SWAP1 SLOAD SWAP1 PUSH2 0x100 EXP SWAP1 DIV PUSH1 0xFF AND SWAP1 DUP1 PUSH1 0x0 ADD PUSH1 0x1 SWAP1 SLOAD SWAP1 PUSH2 0x100 EXP SWAP1 DIV PUSH1 0xFF AND SWAP1 DUP1 PUSH1 0x0 ADD PUSH1 0x2 SWAP1 SLOAD SWAP1 PUSH2 0x100 EXP SWAP1 DIV PUSH1 0xFF AND SWAP1 DUP1 PUSH1 0x0 ADD PUSH1 0x3 SWAP1 SLOAD SWAP1 PUSH2 0x100 EXP SWAP1 DIV PUSH1 0xFF AND SWAP1 DUP1 PUSH1 0x0 ADD PUSH1 0x4 SWAP1 SLOAD SWAP1 PUSH2 0x100 EXP SWAP1 DIV PUSH20 0xFFFFFFFFFFFFFFFFFFFFFFFFFFFFFFFFFFFFFFFF AND SWAP1 POP DUP6 JUMP JUMPDEST PUSH1 0x8 PUSH1 0x0 ADD PUSH1 0x2 SWAP1 SLOAD SWAP1 PUSH2 0x100 EXP SWAP1 DIV PUSH20 0xFFFFFFFFFFFFFFFFFFFFFFFFFFFFFFFFFFFFFFFF AND PUSH20 0xFFFFFFFFFFFFFFFFFFFFFFFFFFFFFFFFFFFFFFFF AND CALLER PUSH20 0xFFFFFFFFFFFFFFFFFFFFFFFFFFFFFFFFFFFFFFFF AND EQ PUSH2 0x26C JUMPI PUSH1 0x40 MLOAD PUSH32 0x8C379A000000000000000000000000000000000000000000000000000000000 DUP2 MSTORE PUSH1 0x4 ADD PUSH2 0x263 SWAP1 PUSH2 0x4CA8 JUMP JUMPDEST PUSH1 0x40 MLOAD DUP1 SWAP2 SUB SWAP1 REVERT JUMPDEST PUSH1 0x0 JUMPDEST DUP3 DUP3 SWAP1 POP DUP2 LT ISZERO PUSH2 0x2AE JUMPI PUSH2 0x29B DUP4 DUP4 DUP4 DUP2 DUP2 LT PUSH2 0x290 JUMPI PUSH2 0x28F PUSH2 0x5511 JUMP JUMPDEST JUMPDEST SWAP1 POP PUSH1 0xC0 MUL ADD PUSH2 0x4DA JUMP JUMPDEST DUP1 DUP1 PUSH2 0x2A6 SWAP1 PUSH2 0x543B JUMP JUMPDEST SWAP2 POP POP PUSH2 0x26F JUMP JUMPDEST POP PUSH2 0x2B7 PUSH2 0x765 JUMP JUMPDEST POP POP JUMP JUMPDEST PUSH1 0xB PUSH1 0x20 MSTORE DUP1 PUSH1 0x0 MSTORE PUSH1 0x40 PUSH1 0x0 KECCAK256 PUSH1 0x0 SWAP2 POP SWAP1 POP SLOAD DUP2 JUMP JUMPDEST PUSH2 0x2DB PUSH2 0x4254 JUMP JUMPDEST PUSH1 0xC DUP4 PUSH1 0xFF AND DUP2 SLOAD DUP2 LT PUSH2 0x2F2 JUMPI PUSH2 0x2F1 PUSH2 0x5511 JUMP JUMPDEST JUMPDEST SWAP1 PUSH1 0x0 MSTORE PUSH1 0x20 PUSH1 0x0 KECCAK256 ADD DUP3 PUSH1 0xFF AND DUP2 SLOAD DUP2 LT PUSH2 0x311 JUMPI PUSH2 0x310 PUSH2 0x5511 JUMP JUMPDEST JUMPDEST SWAP1 PUSH1 0x0 MSTORE PUSH1 0x20 PUSH1 0x0 KECCAK256 ADD PUSH1 0x40 MLOAD DUP1 PUSH1 0xA0 ADD PUSH1 0x40 MSTORE SWAP1 DUP2 PUSH1 0x0 DUP3 ADD PUSH1 0x0 SWAP1 SLOAD SWAP1 PUSH2 0x100 EXP SWAP1 DIV PUSH1 0xFF AND ISZERO ISZERO ISZERO ISZERO DUP2 MSTORE PUSH1 0x20 ADD PUSH1 0x0 DUP3 ADD PUSH1 0x1 SWAP1 SLOAD SWAP1 PUSH2 0x100 EXP SWAP1 DIV PUSH1 0xFF AND PUSH1 0xFF AND PUSH1 0xFF AND DUP2 MSTORE PUSH1 0x20 ADD PUSH1 0x0 DUP3 ADD PUSH1 0x2 SWAP1 SLOAD SWAP1 PUSH2 0x100 EXP SWAP1 DIV PUSH1 0xFF AND PUSH1 0xFF AND PUSH1 0xFF AND DUP2 MSTORE PUSH1 0x20 ADD PUSH1 0x0 DUP3 ADD PUSH1 0x3 SWAP1 SLOAD SWAP1 PUSH2 0x100 EXP SWAP1 DIV PUSH1 0xFF AND PUSH1 0xFF AND PUSH1 0xFF AND DUP2 MSTORE PUSH1 0x20 ADD PUSH1 0x0 DUP3 ADD PUSH1 0x4 SWAP1 SLOAD SWAP1 PUSH2 0x100 EXP SWAP1 DIV PUSH20 0xFFFFFFFFFFFFFFFFFFFFFFFFFFFFFFFFFFFFFFFF AND PUSH20 0xFFFFFFFFFFFFFFFFFFFFFFFFFFFFFFFFFFFFFFFF AND PUSH20 0xFFFFFFFFFFFFFFFFFFFFFFFFFFFFFFFFFFFFFFFF AND DUP2 MSTORE POP POP SWAP1 POP SWAP3 SWAP2 POP POP JUMP JUMPDEST PUSH1 0x60 PUSH1 0x4 PUSH1 0x0 ADD PUSH1 0x2 SWAP1 SLOAD SWAP1 PUSH2 0x100 EXP SWAP1 DIV PUSH20 0xFFFFFFFFFFFFFFFFFFFFFFFFFFFFFFFFFFFFFFFF AND PUSH20 0xFFFFFFFFFFFFFFFFFFFFFFFFFFFFFFFFFFFFFFFF AND CALLER PUSH20 0xFFFFFFFFFFFFFFFFFFFFFFFFFFFFFFFFFFFFFFFF AND EQ PUSH2 0x45A JUMPI PUSH1 0x4 PUSH1 0x1 ADD PUSH2 0x460 JUMP JUMPDEST PUSH1 0x6 PUSH1 0x1 ADD JUMPDEST DUP1 SLOAD DUP1 PUSH1 0x20 MUL PUSH1 0x20 ADD PUSH1 0x40 MLOAD SWAP1 DUP2 ADD PUSH1 0x40 MSTORE DUP1 SWAP3 SWAP2 SWAP1 DUP2 DUP2 MSTORE PUSH1 0x20 ADD DUP3 DUP1 SLOAD DUP1 ISZERO PUSH2 0x4D0 JUMPI PUSH1 0x20 MUL DUP3 ADD SWAP2 SWAP1 PUSH1 0x0 MSTORE PUSH1 0x20 PUSH1 0x0 KECCAK256 SWAP1 PUSH1 0x0 SWAP1 JUMPDEST DUP3 DUP3 SWAP1 SLOAD SWAP1 PUSH2 0x100 EXP SWAP1 DIV PUSH1 0xFF AND PUSH1 0xFF AND DUP2 MSTORE PUSH1 0x20 ADD SWAP1 PUSH1 0x1 ADD SWAP1 PUSH1 0x20 DUP3 PUSH1 0x0 ADD DIV SWAP3 DUP4 ADD SWAP3 PUSH1 0x1 SUB DUP3 MUL SWAP2 POP DUP1 DUP5 GT PUSH2 0x499 JUMPI SWAP1 POP JUMPDEST POP POP POP POP POP SWAP1 POP SWAP1 JUMP JUMPDEST PUSH1 0x0 PUSH1 0x6 DUP2 GT ISZERO PUSH2 0x4EE JUMPI PUSH2 0x4ED PUSH2 0x54E2 JUMP JUMPDEST JUMPDEST DUP2 PUSH1 0x0 ADD PUSH1 0x20 DUP2 ADD SWAP1 PUSH2 0x501 SWAP2 SWAP1 PUSH2 0x457A JUMP JUMPDEST PUSH1 0x6 DUP2 GT ISZERO PUSH2 0x513 JUMPI PUSH2 0x512 PUSH2 0x54E2 JUMP JUMPDEST JUMPDEST EQ ISZERO PUSH2 0x54F JUMPI PUSH2 0x54A DUP2 PUSH1 0x20 ADD PUSH1 0x20 DUP2 ADD SWAP1 PUSH2 0x52F SWAP2 SWAP1 PUSH2 0x4641 JUMP JUMPDEST DUP3 PUSH1 0x40 ADD PUSH1 0x20 ADD PUSH1 0x20 DUP2 ADD SWAP1 PUSH2 0x545 SWAP2 SWAP1 PUSH2 0x4641 JUMP JUMPDEST PUSH2 0x9DE JUMP JUMPDEST PUSH2 0x762 JUMP JUMPDEST PUSH1 0x1 PUSH1 0x6 DUP2 GT ISZERO PUSH2 0x563 JUMPI PUSH2 0x562 PUSH2 0x54E2 JUMP JUMPDEST JUMPDEST DUP2 PUSH1 0x0 ADD PUSH1 0x20 DUP2 ADD SWAP1 PUSH2 0x576 SWAP2 SWAP1 PUSH2 0x457A JUMP JUMPDEST PUSH1 0x6 DUP2 GT ISZERO PUSH2 0x588 JUMPI PUSH2 0x587 PUSH2 0x54E2 JUMP JUMPDEST JUMPDEST EQ ISZERO PUSH2 0x5A3 JUMPI PUSH2 0x59E DUP2 PUSH1 0x40 ADD DUP3 PUSH1 0x80 ADD PUSH2 0xF05 JUMP JUMPDEST PUSH2 0x761 JUMP JUMPDEST PUSH1 0x2 PUSH1 0x6 DUP2 GT ISZERO PUSH2 0x5B7 JUMPI PUSH2 0x5B6 PUSH2 0x54E2 JUMP JUMPDEST JUMPDEST DUP2 PUSH1 0x0 ADD PUSH1 0x20 DUP2 ADD SWAP1 PUSH2 0x5CA SWAP2 SWAP1 PUSH2 0x457A JUMP JUMPDEST PUSH1 0x6 DUP2 GT ISZERO PUSH2 0x5DC JUMPI PUSH2 0x5DB PUSH2 0x54E2 JUMP JUMPDEST JUMPDEST EQ ISZERO PUSH2 0x5F7 JUMPI PUSH2 0x5F2 DUP2 PUSH1 0x40 ADD DUP3 PUSH1 0x80 ADD PUSH2 0x167D JUMP JUMPDEST PUSH2 0x760 JUMP JUMPDEST PUSH1 0x3 PUSH1 0x6 DUP2 GT ISZERO PUSH2 0x60B JUMPI PUSH2 0x60A PUSH2 0x54E2 JUMP JUMPDEST JUMPDEST DUP2 PUSH1 0x0 ADD PUSH1 0x20 DUP2 ADD SWAP1 PUSH2 0x61E SWAP2 SWAP1 PUSH2 0x457A JUMP JUMPDEST PUSH1 0x6 DUP2 GT ISZERO PUSH2 0x630 JUMPI PUSH2 0x62F PUSH2 0x54E2 JUMP JUMPDEST JUMPDEST EQ ISZERO PUSH2 0x647 JUMPI PUSH2 0x642 DUP2 PUSH1 0x40 ADD PUSH2 0x2070 JUMP JUMPDEST PUSH2 0x75F JUMP JUMPDEST PUSH1 0x4 PUSH1 0x6 DUP2 GT ISZERO PUSH2 0x65B JUMPI PUSH2 0x65A PUSH2 0x54E2 JUMP JUMPDEST JUMPDEST DUP2 PUSH1 0x0 ADD PUSH1 0x20 DUP2 ADD SWAP1 PUSH2 0x66E SWAP2 SWAP1 PUSH2 0x457A JUMP JUMPDEST PUSH1 0x6 DUP2 GT ISZERO PUSH2 0x680 JUMPI PUSH2 0x67F PUSH2 0x54E2 JUMP JUMPDEST JUMPDEST EQ ISZERO PUSH2 0x6AA JUMPI PUSH2 0x6A5 DUP2 PUSH1 0x20 ADD PUSH1 0x20 DUP2 ADD SWAP1 PUSH2 0x69C SWAP2 SWAP1 PUSH2 0x4641 JUMP JUMPDEST DUP3 PUSH1 0x80 ADD PUSH2 0x2669 JUMP JUMPDEST PUSH2 0x75E JUMP JUMPDEST PUSH1 0x5 PUSH1 0x6 DUP2 GT ISZERO PUSH2 0x6BE JUMPI PUSH2 0x6BD PUSH2 0x54E2 JUMP JUMPDEST JUMPDEST DUP2 PUSH1 0x0 ADD PUSH1 0x20 DUP2 ADD SWAP1 PUSH2 0x6D1 SWAP2 SWAP1 PUSH2 0x457A JUMP JUMPDEST PUSH1 0x6 DUP2 GT ISZERO PUSH2 0x6E3 JUMPI PUSH2 0x6E2 PUSH2 0x54E2 JUMP JUMPDEST JUMPDEST EQ ISZERO PUSH2 0x6FE JUMPI PUSH2 0x6F9 DUP2 PUSH1 0x40 ADD DUP3 PUSH1 0x80 ADD PUSH2 0x2E61 JUMP JUMPDEST PUSH2 0x75D JUMP JUMPDEST PUSH1 0x6 DUP1 DUP2 GT ISZERO PUSH2 0x711 JUMPI PUSH2 0x710 PUSH2 0x54E2 JUMP JUMPDEST JUMPDEST DUP2 PUSH1 0x0 ADD PUSH1 0x20 DUP2 ADD SWAP1 PUSH2 0x724 SWAP2 SWAP1 PUSH2 0x457A JUMP JUMPDEST PUSH1 0x6 DUP2 GT ISZERO PUSH2 0x736 JUMPI PUSH2 0x735 PUSH2 0x54E2 JUMP JUMPDEST JUMPDEST EQ ISZERO PUSH2 0x75C JUMPI PUSH2 0x75B DUP2 PUSH1 0x20 ADD PUSH1 0x20 DUP2 ADD SWAP1 PUSH2 0x752 SWAP2 SWAP1 PUSH2 0x4641 JUMP JUMPDEST DUP3 PUSH1 0x80 ADD PUSH2 0x36D0 JUMP JUMPDEST JUMPDEST JUMPDEST JUMPDEST JUMPDEST JUMPDEST JUMPDEST JUMPDEST POP JUMP JUMPDEST PUSH32 0x0 PUSH1 0x8 PUSH1 0x0 ADD PUSH1 0x1 DUP3 DUP3 DUP3 SWAP1 SLOAD SWAP1 PUSH2 0x100 EXP SWAP1 DIV PUSH1 0xFF AND PUSH2 0x7A6 SWAP2 SWAP1 PUSH2 0x51D1 JUMP JUMPDEST SWAP3 POP PUSH2 0x100 EXP DUP2 SLOAD DUP2 PUSH1 0xFF MUL NOT AND SWAP1 DUP4 PUSH1 0xFF AND MUL OR SWAP1 SSTORE POP PUSH1 0x0 PUSH1 0x1 DUP2 GT ISZERO PUSH2 0x7D2 JUMPI PUSH2 0x7D1 PUSH2 0x54E2 JUMP JUMPDEST JUMPDEST PUSH1 0x0 DUP1 SLOAD SWAP1 PUSH2 0x100 EXP SWAP1 DIV PUSH1 0xFF AND PUSH1 0x1 DUP2 GT ISZERO PUSH2 0x7F2 JUMPI PUSH2 0x7F1 PUSH2 0x54E2 JUMP JUMPDEST JUMPDEST EQ PUSH2 0x7FE JUMPI PUSH1 0x0 PUSH2 0x801 JUMP JUMPDEST PUSH1 0x1 JUMPDEST PUSH1 0x0 DUP1 PUSH2 0x100 EXP DUP2 SLOAD DUP2 PUSH1 0xFF MUL NOT AND SWAP1 DUP4 PUSH1 0x1 DUP2 GT ISZERO PUSH2 0x824 JUMPI PUSH2 0x823 PUSH2 0x54E2 JUMP JUMPDEST JUMPDEST MUL OR SWAP1 SSTORE POP PUSH1 0x0 PUSH1 0x1 DUP2 GT ISZERO PUSH2 0x83D JUMPI PUSH2 0x83C PUSH2 0x54E2 JUMP JUMPDEST JUMPDEST PUSH1 0x0 DUP1 SLOAD SWAP1 PUSH2 0x100 EXP SWAP1 DIV PUSH1 0xFF AND PUSH1 0x1 DUP2 GT ISZERO PUSH2 0x85D JUMPI PUSH2 0x85C PUSH2 0x54E2 JUMP JUMPDEST JUMPDEST EQ PUSH2 0x869 JUMPI PUSH1 0x4 PUSH2 0x86C JUMP JUMPDEST PUSH1 0x6 JUMPDEST PUSH1 0x8 PUSH1 0x0 DUP3 ADD PUSH1 0x0 SWAP1 SLOAD SWAP1 PUSH2 0x100 EXP SWAP1 DIV PUSH1 0xFF AND DUP2 PUSH1 0x0 ADD PUSH1 0x0 PUSH2 0x100 EXP DUP2 SLOAD DUP2 PUSH1 0xFF MUL NOT AND SWAP1 DUP4 PUSH1 0xFF AND MUL OR SWAP1 SSTORE POP PUSH1 0x0 DUP3 ADD PUSH1 0x1 SWAP1 SLOAD SWAP1 PUSH2 0x100 EXP SWAP1 DIV PUSH1 0xFF AND DUP2 PUSH1 0x0 ADD PUSH1 0x1 PUSH2 0x100 EXP DUP2 SLOAD DUP2 PUSH1 0xFF MUL NOT AND SWAP1 DUP4 PUSH1 0xFF AND MUL OR SWAP1 SSTORE POP PUSH1 0x0 DUP3 ADD PUSH1 0x2 SWAP1 SLOAD SWAP1 PUSH2 0x100 EXP SWAP1 DIV PUSH20 0xFFFFFFFFFFFFFFFFFFFFFFFFFFFFFFFFFFFFFFFF AND DUP2 PUSH1 0x0 ADD PUSH1 0x2 PUSH2 0x100 EXP DUP2 SLOAD DUP2 PUSH20 0xFFFFFFFFFFFFFFFFFFFFFFFFFFFFFFFFFFFFFFFF MUL NOT AND SWAP1 DUP4 PUSH20 0xFFFFFFFFFFFFFFFFFFFFFFFFFFFFFFFFFFFFFFFF AND MUL OR SWAP1 SSTORE POP PUSH1 0x1 DUP3 ADD DUP2 PUSH1 0x1 ADD SWAP1 DUP1 SLOAD PUSH2 0x947 SWAP3 SWAP2 SWAP1 PUSH2 0x42A4 JUMP JUMPDEST POP SWAP1 POP POP PUSH1 0x0 PUSH1 0x1 DUP2 DUP2 SWAP1 SLOAD SWAP1 PUSH2 0x100 EXP SWAP1 DIV PUSH2 0xFFFF AND DUP1 SWAP3 SWAP2 SWAP1 PUSH2 0x96B SWAP1 PUSH2 0x5410 JUMP JUMPDEST SWAP2 SWAP1 PUSH2 0x100 EXP DUP2 SLOAD DUP2 PUSH2 0xFFFF MUL NOT AND SWAP1 DUP4 PUSH2 0xFFFF AND MUL OR SWAP1 SSTORE POP POP PUSH32 0xB2A5F112F4EF2B6D1AB7A886557835D90F7826318E7A0A40A34673A7248BA8DE PUSH1 0x0 DUP1 SLOAD SWAP1 PUSH2 0x100 EXP SWAP1 DIV PUSH1 0xFF AND PUSH1 0x1 DUP2 GT ISZERO PUSH2 0x9C7 JUMPI PUSH2 0x9C6 PUSH2 0x54E2 JUMP JUMPDEST JUMPDEST PUSH1 0x40 MLOAD PUSH2 0x9D4 SWAP2 SWAP1 PUSH2 0x4FF9 JUMP JUMPDEST PUSH1 0x40 MLOAD DUP1 SWAP2 SUB SWAP1 LOG1 JUMP JUMPDEST PUSH1 0x2 PUSH1 0xA PUSH1 0x0 PUSH1 0x8 PUSH1 0x0 ADD PUSH1 0x2 SWAP1 SLOAD SWAP1 PUSH2 0x100 EXP SWAP1 DIV PUSH20 0xFFFFFFFFFFFFFFFFFFFFFFFFFFFFFFFFFFFFFFFF AND PUSH20 0xFFFFFFFFFFFFFFFFFFFFFFFFFFFFFFFFFFFFFFFF AND PUSH20 0xFFFFFFFFFFFFFFFFFFFFFFFFFFFFFFFFFFFFFFFF AND DUP2 MSTORE PUSH1 0x20 ADD SWAP1 DUP2 MSTORE PUSH1 0x20 ADD PUSH1 0x0 KECCAK256 PUSH1 0x0 DUP5 PUSH1 0xFF AND PUSH1 0xFF AND DUP2 MSTORE PUSH1 0x20 ADD SWAP1 DUP2 MSTORE PUSH1 0x20 ADD PUSH1 0x0 KECCAK256 PUSH1 0x0 SWAP1 SLOAD SWAP1 PUSH2 0x100 EXP SWAP1 DIV PUSH2 0xFFFF AND PUSH1 0x0 PUSH1 0x1 SWAP1 SLOAD SWAP1 PUSH2 0x100 EXP SWAP1 DIV PUSH2 0xFFFF AND PUSH2 0xA85 SWAP2 SWAP1 PUSH2 0x52CE JUMP JUMPDEST PUSH2 0xFFFF AND LT ISZERO PUSH2 0xACA JUMPI PUSH1 0x40 MLOAD PUSH32 0x8C379A000000000000000000000000000000000000000000000000000000000 DUP2 MSTORE PUSH1 0x4 ADD PUSH2 0xAC1 SWAP1 PUSH2 0x4CE8 JUMP JUMPDEST PUSH1 0x40 MLOAD DUP1 SWAP2 SUB SWAP1 REVERT JUMPDEST PUSH32 0x0 PUSH1 0xFF AND DUP2 PUSH1 0xFF AND LT PUSH2 0xB32 JUMPI PUSH1 0x40 MLOAD PUSH32 0x8C379A000000000000000000000000000000000000000000000000000000000 DUP2 MSTORE PUSH1 0x4 ADD PUSH2 0xB29 SWAP1 PUSH2 0x4D08 JUMP JUMPDEST PUSH1 0x40 MLOAD DUP1 SWAP2 SUB SWAP1 REVERT JUMPDEST PUSH1 0xC PUSH1 0x0 DUP2 SLOAD DUP2 LT PUSH2 0xB47 JUMPI PUSH2 0xB46 PUSH2 0x5511 JUMP JUMPDEST JUMPDEST SWAP1 PUSH1 0x0 MSTORE PUSH1 0x20 PUSH1 0x0 KECCAK256 ADD DUP2 PUSH1 0xFF AND DUP2 SLOAD DUP2 LT PUSH2 0xB66 JUMPI PUSH2 0xB65 PUSH2 0x5511 JUMP JUMPDEST JUMPDEST SWAP1 PUSH1 0x0 MSTORE PUSH1 0x20 PUSH1 0x0 KECCAK256 ADD PUSH1 0x0 ADD PUSH1 0x0 SWAP1 SLOAD SWAP1 PUSH2 0x100 EXP SWAP1 DIV PUSH1 0xFF AND ISZERO PUSH2 0xBC1 JUMPI PUSH1 0x40 MLOAD PUSH32 0x8C379A000000000000000000000000000000000000000000000000000000000 DUP2 MSTORE PUSH1 0x4 ADD PUSH2 0xBB8 SWAP1 PUSH2 0x4E48 JUMP JUMPDEST PUSH1 0x40 MLOAD DUP1 SWAP2 SUB SWAP1 REVERT JUMPDEST PUSH1 0x0 PUSH1 0x8 PUSH1 0x1 ADD DUP4 PUSH1 0xFF AND DUP2 SLOAD DUP2 LT PUSH2 0xBDD JUMPI PUSH2 0xBDC PUSH2 0x5511 JUMP JUMPDEST JUMPDEST SWAP1 PUSH1 0x0 MSTORE PUSH1 0x20 PUSH1 0x0 KECCAK256 SWAP1 PUSH1 0x20 SWAP2 DUP3 DUP3 DIV ADD SWAP2 SWAP1 MOD SWAP1 SLOAD SWAP1 PUSH2 0x100 EXP SWAP1 DIV PUSH1 0xFF AND SWAP1 POP PUSH1 0x0 PUSH1 0x3 PUSH1 0x0 SWAP1 SLOAD SWAP1 PUSH2 0x100 EXP SWAP1 DIV PUSH20 0xFFFFFFFFFFFFFFFFFFFFFFFFFFFFFFFFFFFFFFFF AND PUSH20 0xFFFFFFFFFFFFFFFFFFFFFFFFFFFFFFFFFFFFFFFF AND PUSH4 0x9188D312 DUP4 PUSH1 0x40 MLOAD DUP3 PUSH4 0xFFFFFFFF AND PUSH1 0xE0 SHL DUP2 MSTORE PUSH1 0x4 ADD PUSH2 0xC5C SWAP2 SWAP1 PUSH2 0x4FDE JUMP JUMPDEST PUSH1 0xE0 PUSH1 0x40 MLOAD DUP1 DUP4 SUB DUP2 DUP7 DUP1 EXTCODESIZE ISZERO DUP1 ISZERO PUSH2 0xC74 JUMPI PUSH1 0x0 DUP1 REVERT JUMPDEST POP GAS STATICCALL ISZERO DUP1 ISZERO PUSH2 0xC88 JUMPI RETURNDATASIZE PUSH1 0x0 DUP1 RETURNDATACOPY RETURNDATASIZE PUSH1 0x0 REVERT JUMPDEST POP POP POP POP PUSH1 0x40 MLOAD RETURNDATASIZE PUSH1 0x1F NOT PUSH1 0x1F DUP3 ADD AND DUP3 ADD DUP1 PUSH1 0x40 MSTORE POP DUP2 ADD SWAP1 PUSH2 0xCAC SWAP2 SWAP1 PUSH2 0x45A7 JUMP JUMPDEST SWAP1 POP DUP1 PUSH1 0x80 ADD MLOAD PUSH1 0xFF AND PUSH1 0x8 PUSH1 0x0 ADD PUSH1 0x1 SWAP1 SLOAD SWAP1 PUSH2 0x100 EXP SWAP1 DIV PUSH1 0xFF AND PUSH1 0xFF AND GT PUSH2 0xD0C JUMPI PUSH1 0x40 MLOAD PUSH32 0x8C379A000000000000000000000000000000000000000000000000000000000 DUP2 MSTORE PUSH1 0x4 ADD PUSH2 0xD03 SWAP1 PUSH2 0x4E68 JUMP JUMPDEST PUSH1 0x40 MLOAD DUP1 SWAP2 SUB SWAP1 REVERT JUMPDEST DUP1 PUSH1 0x80 ADD MLOAD PUSH1 0x8 PUSH1 0x0 ADD PUSH1 0x1 DUP3 DUP3 DUP3 SWAP1 SLOAD SWAP1 PUSH2 0x100 EXP SWAP1 DIV PUSH1 0xFF AND PUSH2 0xD31 SWAP2 SWAP1 PUSH2 0x5336 JUMP JUMPDEST SWAP3 POP PUSH2 0x100 EXP DUP2 SLOAD DUP2 PUSH1 0xFF MUL NOT AND SWAP1 DUP4 PUSH1 0xFF AND MUL OR SWAP1 SSTORE POP PUSH1 0x40 MLOAD DUP1 PUSH1 0xA0 ADD PUSH1 0x40 MSTORE DUP1 PUSH1 0x1 ISZERO ISZERO DUP2 MSTORE PUSH1 0x20 ADD DUP6 PUSH1 0xFF AND DUP2 MSTORE PUSH1 0x20 ADD DUP3 PUSH1 0xA0 ADD MLOAD PUSH1 0xFF AND DUP2 MSTORE PUSH1 0x20 ADD DUP4 PUSH1 0xFF AND DUP2 MSTORE PUSH1 0x20 ADD PUSH1 0x8 PUSH1 0x0 ADD PUSH1 0x2 SWAP1 SLOAD SWAP1 PUSH2 0x100 EXP SWAP1 DIV PUSH20 0xFFFFFFFFFFFFFFFFFFFFFFFFFFFFFFFFFFFFFFFF AND PUSH20 0xFFFFFFFFFFFFFFFFFFFFFFFFFFFFFFFFFFFFFFFF AND DUP2 MSTORE POP PUSH1 0xC PUSH1 0x0 DUP2 SLOAD DUP2 LT PUSH2 0xDD0 JUMPI PUSH2 0xDCF PUSH2 0x5511 JUMP JUMPDEST JUMPDEST SWAP1 PUSH1 0x0 MSTORE PUSH1 0x20 PUSH1 0x0 KECCAK256 ADD DUP5 PUSH1 0xFF AND DUP2 SLOAD DUP2 LT PUSH2 0xDEF JUMPI PUSH2 0xDEE PUSH2 0x5511 JUMP JUMPDEST JUMPDEST SWAP1 PUSH1 0x0 MSTORE PUSH1 0x20 PUSH1 0x0 KECCAK256 ADD PUSH1 0x0 DUP3 ADD MLOAD DUP2 PUSH1 0x0 ADD PUSH1 0x0 PUSH2 0x100 EXP DUP2 SLOAD DUP2 PUSH1 0xFF MUL NOT AND SWAP1 DUP4 ISZERO ISZERO MUL OR SWAP1 SSTORE POP PUSH1 0x20 DUP3 ADD MLOAD DUP2 PUSH1 0x0 ADD PUSH1 0x1 PUSH2 0x100 EXP DUP2 SLOAD DUP2 PUSH1 0xFF MUL NOT AND SWAP1 DUP4 PUSH1 0xFF AND MUL OR SWAP1 SSTORE POP PUSH1 0x40 DUP3 ADD MLOAD DUP2 PUSH1 0x0 ADD PUSH1 0x2 PUSH2 0x100 EXP DUP2 SLOAD DUP2 PUSH1 0xFF MUL NOT AND SWAP1 DUP4 PUSH1 0xFF AND MUL OR SWAP1 SSTORE POP PUSH1 0x60 DUP3 ADD MLOAD DUP2 PUSH1 0x0 ADD PUSH1 0x3 PUSH2 0x100 EXP DUP2 SLOAD DUP2 PUSH1 0xFF MUL NOT AND SWAP1 DUP4 PUSH1 0xFF AND MUL OR SWAP1 SSTORE POP PUSH1 0x80 DUP3 ADD MLOAD DUP2 PUSH1 0x0 ADD PUSH1 0x4 PUSH2 0x100 EXP DUP2 SLOAD DUP2 PUSH20 0xFFFFFFFFFFFFFFFFFFFFFFFFFFFFFFFFFFFFFFFF MUL NOT AND SWAP1 DUP4 PUSH20 0xFFFFFFFFFFFFFFFFFFFFFFFFFFFFFFFFFFFFFFFF AND MUL OR SWAP1 SSTORE POP SWAP1 POP POP PUSH32 0x2A102DE3851F9D59B8D145C1CE90B60CB023D819273A14FD3B25E7F0CEC7ED4E DUP4 DUP4 PUSH1 0x40 MLOAD PUSH2 0xEF7 SWAP3 SWAP2 SWAP1 PUSH2 0x5014 JUMP JUMPDEST PUSH1 0x40 MLOAD DUP1 SWAP2 SUB SWAP1 LOG1 POP POP POP POP JUMP JUMPDEST PUSH1 0x0 PUSH1 0xC DUP4 PUSH1 0x0 ADD PUSH1 0x20 DUP2 ADD SWAP1 PUSH2 0xF1C SWAP2 SWAP1 PUSH2 0x4641 JUMP JUMPDEST PUSH1 0xFF AND DUP2 SLOAD DUP2 LT PUSH2 0xF30 JUMPI PUSH2 0xF2F PUSH2 0x5511 JUMP JUMPDEST JUMPDEST SWAP1 PUSH1 0x0 MSTORE PUSH1 0x20 PUSH1 0x0 KECCAK256 ADD DUP4 PUSH1 0x20 ADD PUSH1 0x20 DUP2 ADD SWAP1 PUSH2 0xF4D SWAP2 SWAP1 PUSH2 0x4641 JUMP JUMPDEST PUSH1 0xFF AND DUP2 SLOAD DUP2 LT PUSH2 0xF61 JUMPI PUSH2 0xF60 PUSH2 0x5511 JUMP JUMPDEST JUMPDEST SWAP1 PUSH1 0x0 MSTORE PUSH1 0x20 PUSH1 0x0 KECCAK256 ADD PUSH1 0x40 MLOAD DUP1 PUSH1 0xA0 ADD PUSH1 0x40 MSTORE SWAP1 DUP2 PUSH1 0x0 DUP3 ADD PUSH1 0x0 SWAP1 SLOAD SWAP1 PUSH2 0x100 EXP SWAP1 DIV PUSH1 0xFF AND ISZERO ISZERO ISZERO ISZERO DUP2 MSTORE PUSH1 0x20 ADD PUSH1 0x0 DUP3 ADD PUSH1 0x1 SWAP1 SLOAD SWAP1 PUSH2 0x100 EXP SWAP1 DIV PUSH1 0xFF AND PUSH1 0xFF AND PUSH1 0xFF AND DUP2 MSTORE PUSH1 0x20 ADD PUSH1 0x0 DUP3 ADD PUSH1 0x2 SWAP1 SLOAD SWAP1 PUSH2 0x100 EXP SWAP1 DIV PUSH1 0xFF AND PUSH1 0xFF AND PUSH1 0xFF AND DUP2 MSTORE PUSH1 0x20 ADD PUSH1 0x0 DUP3 ADD PUSH1 0x3 SWAP1 SLOAD SWAP1 PUSH2 0x100 EXP SWAP1 DIV PUSH1 0xFF AND PUSH1 0xFF AND PUSH1 0xFF AND DUP2 MSTORE PUSH1 0x20 ADD PUSH1 0x0 DUP3 ADD PUSH1 0x4 SWAP1 SLOAD SWAP1 PUSH2 0x100 EXP SWAP1 DIV PUSH20 0xFFFFFFFFFFFFFFFFFFFFFFFFFFFFFFFFFFFFFFFF AND PUSH20 0xFFFFFFFFFFFFFFFFFFFFFFFFFFFFFFFFFFFFFFFF AND PUSH20 0xFFFFFFFFFFFFFFFFFFFFFFFFFFFFFFFFFFFFFFFF AND DUP2 MSTORE POP POP SWAP1 POP PUSH1 0x0 PUSH1 0x4 PUSH1 0x0 ADD PUSH1 0x2 SWAP1 SLOAD SWAP1 PUSH2 0x100 EXP SWAP1 DIV PUSH20 0xFFFFFFFFFFFFFFFFFFFFFFFFFFFFFFFFFFFFFFFF AND PUSH20 0xFFFFFFFFFFFFFFFFFFFFFFFFFFFFFFFFFFFFFFFF AND PUSH1 0x8 PUSH1 0x0 ADD PUSH1 0x2 SWAP1 SLOAD SWAP1 PUSH2 0x100 EXP SWAP1 DIV PUSH20 0xFFFFFFFFFFFFFFFFFFFFFFFFFFFFFFFFFFFFFFFF AND PUSH20 0xFFFFFFFFFFFFFFFFFFFFFFFFFFFFFFFFFFFFFFFF AND EQ SWAP1 POP PUSH32 0x0 PUSH1 0xFF AND DUP4 PUSH1 0x0 ADD PUSH1 0x20 DUP2 ADD SWAP1 PUSH2 0x10F4 SWAP2 SWAP1 PUSH2 0x4641 JUMP JUMPDEST PUSH1 0xFF AND LT DUP1 ISZERO PUSH2 0x113B JUMPI POP PUSH32 0x0 PUSH1 0xFF AND DUP4 PUSH1 0x20 ADD PUSH1 0x20 DUP2 ADD SWAP1 PUSH2 0x1136 SWAP2 SWAP1 PUSH2 0x4641 JUMP JUMPDEST PUSH1 0xFF AND LT JUMPDEST PUSH2 0x117A JUMPI PUSH1 0x40 MLOAD PUSH32 0x8C379A000000000000000000000000000000000000000000000000000000000 DUP2 MSTORE PUSH1 0x4 ADD PUSH2 0x1171 SWAP1 PUSH2 0x4C88 JUMP JUMPDEST PUSH1 0x40 MLOAD DUP1 SWAP2 SUB SWAP1 REVERT JUMPDEST CALLER PUSH20 0xFFFFFFFFFFFFFFFFFFFFFFFFFFFFFFFFFFFFFFFF AND DUP3 PUSH1 0x80 ADD MLOAD PUSH20 0xFFFFFFFFFFFFFFFFFFFFFFFFFFFFFFFFFFFFFFFF AND EQ PUSH2 0x11EC JUMPI PUSH1 0x40 MLOAD PUSH32 0x8C379A000000000000000000000000000000000000000000000000000000000 DUP2 MSTORE PUSH1 0x4 ADD PUSH2 0x11E3 SWAP1 PUSH2 0x4F88 JUMP JUMPDEST PUSH1 0x40 MLOAD DUP1 SWAP2 SUB SWAP1 REVERT JUMPDEST PUSH1 0x1 PUSH1 0xFF AND PUSH1 0x8 PUSH1 0x0 ADD PUSH1 0x1 SWAP1 SLOAD SWAP1 PUSH2 0x100 EXP SWAP1 DIV PUSH1 0xFF AND PUSH1 0xFF AND GT PUSH2 0x1247 JUMPI PUSH1 0x40 MLOAD PUSH32 0x8C379A000000000000000000000000000000000000000000000000000000000 DUP2 MSTORE PUSH1 0x4 ADD PUSH2 0x123E SWAP1 PUSH2 0x4D48 JUMP JUMPDEST PUSH1 0x40 MLOAD DUP1 SWAP2 SUB SWAP1 REVERT JUMPDEST PUSH1 0x0 DUP2 PUSH2 0x1283 JUMPI DUP4 PUSH1 0x0 ADD PUSH1 0x20 DUP2 ADD SWAP1 PUSH2 0x1261 SWAP2 SWAP1 PUSH2 0x4641 JUMP JUMPDEST DUP6 PUSH1 0x0 ADD PUSH1 0x20 DUP2 ADD SWAP1 PUSH2 0x1274 SWAP2 SWAP1 PUSH2 0x4641 JUMP JUMPDEST PUSH2 0x127E SWAP2 SWAP1 PUSH2 0x5336 JUMP JUMPDEST PUSH2 0x12B4 JUMP JUMPDEST DUP5 PUSH1 0x0 ADD PUSH1 0x20 DUP2 ADD SWAP1 PUSH2 0x1296 SWAP2 SWAP1 PUSH2 0x4641 JUMP JUMPDEST DUP5 PUSH1 0x0 ADD PUSH1 0x20 DUP2 ADD SWAP1 PUSH2 0x12A9 SWAP2 SWAP1 PUSH2 0x4641 JUMP JUMPDEST PUSH2 0x12B3 SWAP2 SWAP1 PUSH2 0x5336 JUMP JUMPDEST JUMPDEST SWAP1 POP PUSH1 0x0 DUP6 PUSH1 0x20 ADD PUSH1 0x20 DUP2 ADD SWAP1 PUSH2 0x12CB SWAP2 SWAP1 PUSH2 0x4641 JUMP JUMPDEST PUSH1 0xFF AND DUP6 PUSH1 0x20 ADD PUSH1 0x20 DUP2 ADD SWAP1 PUSH2 0x12E1 SWAP2 SWAP1 PUSH2 0x4641 JUMP JUMPDEST PUSH1 0xFF AND LT ISZERO PUSH2 0x131F JUMPI DUP5 PUSH1 0x20 ADD PUSH1 0x20 DUP2 ADD SWAP1 PUSH2 0x12FD SWAP2 SWAP1 PUSH2 0x4641 JUMP JUMPDEST DUP7 PUSH1 0x20 ADD PUSH1 0x20 DUP2 ADD SWAP1 PUSH2 0x1310 SWAP2 SWAP1 PUSH2 0x4641 JUMP JUMPDEST PUSH2 0x131A SWAP2 SWAP1 PUSH2 0x5336 JUMP JUMPDEST PUSH2 0x1350 JUMP JUMPDEST DUP6 PUSH1 0x20 ADD PUSH1 0x20 DUP2 ADD SWAP1 PUSH2 0x1332 SWAP2 SWAP1 PUSH2 0x4641 JUMP JUMPDEST DUP6 PUSH1 0x20 ADD PUSH1 0x20 DUP2 ADD SWAP1 PUSH2 0x1345 SWAP2 SWAP1 PUSH2 0x4641 JUMP JUMPDEST PUSH2 0x134F SWAP2 SWAP1 PUSH2 0x5336 JUMP JUMPDEST JUMPDEST SWAP1 POP PUSH1 0x1 DUP3 PUSH1 0xFF AND EQ DUP1 PUSH2 0x1367 JUMPI POP PUSH1 0x1 DUP2 PUSH1 0xFF AND EQ JUMPDEST PUSH2 0x13A6 JUMPI PUSH1 0x40 MLOAD PUSH32 0x8C379A000000000000000000000000000000000000000000000000000000000 DUP2 MSTORE PUSH1 0x4 ADD PUSH2 0x139D SWAP1 PUSH2 0x4F28 JUMP JUMPDEST PUSH1 0x40 MLOAD DUP1 SWAP2 SUB SWAP1 REVERT JUMPDEST PUSH1 0x1 PUSH1 0x8 PUSH1 0x0 ADD PUSH1 0x1 DUP3 DUP3 DUP3 SWAP1 SLOAD SWAP1 PUSH2 0x100 EXP SWAP1 DIV PUSH1 0xFF AND PUSH2 0x13C8 SWAP2 SWAP1 PUSH2 0x5336 JUMP JUMPDEST SWAP3 POP PUSH2 0x100 EXP DUP2 SLOAD DUP2 PUSH1 0xFF MUL NOT AND SWAP1 DUP4 PUSH1 0xFF AND MUL OR SWAP1 SSTORE POP DUP4 PUSH1 0xC DUP7 PUSH1 0x0 ADD PUSH1 0x20 DUP2 ADD SWAP1 PUSH2 0x13F6 SWAP2 SWAP1 PUSH2 0x4641 JUMP JUMPDEST PUSH1 0xFF AND DUP2 SLOAD DUP2 LT PUSH2 0x140A JUMPI PUSH2 0x1409 PUSH2 0x5511 JUMP JUMPDEST JUMPDEST SWAP1 PUSH1 0x0 MSTORE PUSH1 0x20 PUSH1 0x0 KECCAK256 ADD DUP7 PUSH1 0x20 ADD PUSH1 0x20 DUP2 ADD SWAP1 PUSH2 0x1427 SWAP2 SWAP1 PUSH2 0x4641 JUMP JUMPDEST PUSH1 0xFF AND DUP2 SLOAD DUP2 LT PUSH2 0x143B JUMPI PUSH2 0x143A PUSH2 0x5511 JUMP JUMPDEST JUMPDEST SWAP1 PUSH1 0x0 MSTORE PUSH1 0x20 PUSH1 0x0 KECCAK256 ADD PUSH1 0x0 DUP3 ADD MLOAD DUP2 PUSH1 0x0 ADD PUSH1 0x0 PUSH2 0x100 EXP DUP2 SLOAD DUP2 PUSH1 0xFF MUL NOT AND SWAP1 DUP4 ISZERO ISZERO MUL OR SWAP1 SSTORE POP PUSH1 0x20 DUP3 ADD MLOAD DUP2 PUSH1 0x0 ADD PUSH1 0x1 PUSH2 0x100 EXP DUP2 SLOAD DUP2 PUSH1 0xFF MUL NOT AND SWAP1 DUP4 PUSH1 0xFF AND MUL OR SWAP1 SSTORE POP PUSH1 0x40 DUP3 ADD MLOAD DUP2 PUSH1 0x0 ADD PUSH1 0x2 PUSH2 0x100 EXP DUP2 SLOAD DUP2 PUSH1 0xFF MUL NOT AND SWAP1 DUP4 PUSH1 0xFF AND MUL OR SWAP1 SSTORE POP PUSH1 0x60 DUP3 ADD MLOAD DUP2 PUSH1 0x0 ADD PUSH1 0x3 PUSH2 0x100 EXP DUP2 SLOAD DUP2 PUSH1 0xFF MUL NOT AND SWAP1 DUP4 PUSH1 0xFF AND MUL OR SWAP1 SSTORE POP PUSH1 0x80 DUP3 ADD MLOAD DUP2 PUSH1 0x0 ADD PUSH1 0x4 PUSH2 0x100 EXP DUP2 SLOAD DUP2 PUSH20 0xFFFFFFFFFFFFFFFFFFFFFFFFFFFFFFFFFFFFFFFF MUL NOT AND SWAP1 DUP4 PUSH20 0xFFFFFFFFFFFFFFFFFFFFFFFFFFFFFFFFFFFFFFFF AND MUL OR SWAP1 SSTORE POP SWAP1 POP POP PUSH1 0xC DUP7 PUSH1 0x0 ADD PUSH1 0x20 DUP2 ADD SWAP1 PUSH2 0x1527 SWAP2 SWAP1 PUSH2 0x4641 JUMP JUMPDEST PUSH1 0xFF AND DUP2 SLOAD DUP2 LT PUSH2 0x153B JUMPI PUSH2 0x153A PUSH2 0x5511 JUMP JUMPDEST JUMPDEST SWAP1 PUSH1 0x0 MSTORE PUSH1 0x20 PUSH1 0x0 KECCAK256 ADD DUP7 PUSH1 0x20 ADD PUSH1 0x20 DUP2 ADD SWAP1 PUSH2 0x1558 SWAP2 SWAP1 PUSH2 0x4641 JUMP JUMPDEST PUSH1 0xFF AND DUP2 SLOAD DUP2 LT PUSH2 0x156C JUMPI PUSH2 0x156B PUSH2 0x5511 JUMP JUMPDEST JUMPDEST SWAP1 PUSH1 0x0 MSTORE PUSH1 0x20 PUSH1 0x0 KECCAK256 ADD PUSH1 0x0 DUP1 DUP3 ADD PUSH1 0x0 PUSH2 0x100 EXP DUP2 SLOAD SWAP1 PUSH1 0xFF MUL NOT AND SWAP1 SSTORE PUSH1 0x0 DUP3 ADD PUSH1 0x1 PUSH2 0x100 EXP DUP2 SLOAD SWAP1 PUSH1 0xFF MUL NOT AND SWAP1 SSTORE PUSH1 0x0 DUP3 ADD PUSH1 0x2 PUSH2 0x100 EXP DUP2 SLOAD SWAP1 PUSH1 0xFF MUL NOT AND SWAP1 SSTORE PUSH1 0x0 DUP3 ADD PUSH1 0x3 PUSH2 0x100 EXP DUP2 SLOAD SWAP1 PUSH1 0xFF MUL NOT AND SWAP1 SSTORE PUSH1 0x0 DUP3 ADD PUSH1 0x4 PUSH2 0x100 EXP DUP2 SLOAD SWAP1 PUSH20 0xFFFFFFFFFFFFFFFFFFFFFFFFFFFFFFFFFFFFFFFF MUL NOT AND SWAP1 SSTORE POP POP PUSH32 0xD46E1B079F3442F942E1744A9C599B87A4A96C160CDA79CAA418BD5E4632A1C2 DUP7 PUSH1 0x0 ADD PUSH1 0x20 DUP2 ADD SWAP1 PUSH2 0x1624 SWAP2 SWAP1 PUSH2 0x4641 JUMP JUMPDEST DUP8 PUSH1 0x20 ADD PUSH1 0x20 DUP2 ADD SWAP1 PUSH2 0x1637 SWAP2 SWAP1 PUSH2 0x4641 JUMP JUMPDEST DUP8 PUSH1 0x0 ADD PUSH1 0x20 DUP2 ADD SWAP1 PUSH2 0x164A SWAP2 SWAP1 PUSH2 0x4641 JUMP JUMPDEST DUP9 PUSH1 0x20 ADD PUSH1 0x20 DUP2 ADD SWAP1 PUSH2 0x165D SWAP2 SWAP1 PUSH2 0x4641 JUMP JUMPDEST PUSH1 0x40 MLOAD PUSH2 0x166D SWAP5 SWAP4 SWAP3 SWAP2 SWAP1 PUSH2 0x5074 JUMP JUMPDEST PUSH1 0x40 MLOAD DUP1 SWAP2 SUB SWAP1 LOG1 POP POP POP POP POP POP JUMP JUMPDEST PUSH1 0x0 PUSH1 0xC DUP4 PUSH1 0x0 ADD PUSH1 0x20 DUP2 ADD SWAP1 PUSH2 0x1694 SWAP2 SWAP1 PUSH2 0x4641 JUMP JUMPDEST PUSH1 0xFF AND DUP2 SLOAD DUP2 LT PUSH2 0x16A8 JUMPI PUSH2 0x16A7 PUSH2 0x5511 JUMP JUMPDEST JUMPDEST SWAP1 PUSH1 0x0 MSTORE PUSH1 0x20 PUSH1 0x0 KECCAK256 ADD DUP4 PUSH1 0x20 ADD PUSH1 0x20 DUP2 ADD SWAP1 PUSH2 0x16C5 SWAP2 SWAP1 PUSH2 0x4641 JUMP JUMPDEST PUSH1 0xFF AND DUP2 SLOAD DUP2 LT PUSH2 0x16D9 JUMPI PUSH2 0x16D8 PUSH2 0x5511 JUMP JUMPDEST JUMPDEST SWAP1 PUSH1 0x0 MSTORE PUSH1 0x20 PUSH1 0x0 KECCAK256 ADD PUSH1 0x40 MLOAD DUP1 PUSH1 0xA0 ADD PUSH1 0x40 MSTORE SWAP1 DUP2 PUSH1 0x0 DUP3 ADD PUSH1 0x0 SWAP1 SLOAD SWAP1 PUSH2 0x100 EXP SWAP1 DIV PUSH1 0xFF AND ISZERO ISZERO ISZERO ISZERO DUP2 MSTORE PUSH1 0x20 ADD PUSH1 0x0 DUP3 ADD PUSH1 0x1 SWAP1 SLOAD SWAP1 PUSH2 0x100 EXP SWAP1 DIV PUSH1 0xFF AND PUSH1 0xFF AND PUSH1 0xFF AND DUP2 MSTORE PUSH1 0x20 ADD PUSH1 0x0 DUP3 ADD PUSH1 0x2 SWAP1 SLOAD SWAP1 PUSH2 0x100 EXP SWAP1 DIV PUSH1 0xFF AND PUSH1 0xFF AND PUSH1 0xFF AND DUP2 MSTORE PUSH1 0x20 ADD PUSH1 0x0 DUP3 ADD PUSH1 0x3 SWAP1 SLOAD SWAP1 PUSH2 0x100 EXP SWAP1 DIV PUSH1 0xFF AND PUSH1 0xFF AND PUSH1 0xFF AND DUP2 MSTORE PUSH1 0x20 ADD PUSH1 0x0 DUP3 ADD PUSH1 0x4 SWAP1 SLOAD SWAP1 PUSH2 0x100 EXP SWAP1 DIV PUSH20 0xFFFFFFFFFFFFFFFFFFFFFFFFFFFFFFFFFFFFFFFF AND PUSH20 0xFFFFFFFFFFFFFFFFFFFFFFFFFFFFFFFFFFFFFFFF AND PUSH20 0xFFFFFFFFFFFFFFFFFFFFFFFFFFFFFFFFFFFFFFFF AND DUP2 MSTORE POP POP SWAP1 POP PUSH1 0x0 PUSH1 0xC DUP4 PUSH1 0x0 ADD PUSH1 0x20 DUP2 ADD SWAP1 PUSH2 0x17CF SWAP2 SWAP1 PUSH2 0x4641 JUMP JUMPDEST PUSH1 0xFF AND DUP2 SLOAD DUP2 LT PUSH2 0x17E3 JUMPI PUSH2 0x17E2 PUSH2 0x5511 JUMP JUMPDEST JUMPDEST SWAP1 PUSH1 0x0 MSTORE PUSH1 0x20 PUSH1 0x0 KECCAK256 ADD DUP4 PUSH1 0x20 ADD PUSH1 0x20 DUP2 ADD SWAP1 PUSH2 0x1800 SWAP2 SWAP1 PUSH2 0x4641 JUMP JUMPDEST PUSH1 0xFF AND DUP2 SLOAD DUP2 LT PUSH2 0x1814 JUMPI PUSH2 0x1813 PUSH2 0x5511 JUMP JUMPDEST JUMPDEST SWAP1 PUSH1 0x0 MSTORE PUSH1 0x20 PUSH1 0x0 KECCAK256 ADD PUSH1 0x40 MLOAD DUP1 PUSH1 0xA0 ADD PUSH1 0x40 MSTORE SWAP1 DUP2 PUSH1 0x0 DUP3 ADD PUSH1 0x0 SWAP1 SLOAD SWAP1 PUSH2 0x100 EXP SWAP1 DIV PUSH1 0xFF AND ISZERO ISZERO ISZERO ISZERO DUP2 MSTORE PUSH1 0x20 ADD PUSH1 0x0 DUP3 ADD PUSH1 0x1 SWAP1 SLOAD SWAP1 PUSH2 0x100 EXP SWAP1 DIV PUSH1 0xFF AND PUSH1 0xFF AND PUSH1 0xFF AND DUP2 MSTORE PUSH1 0x20 ADD PUSH1 0x0 DUP3 ADD PUSH1 0x2 SWAP1 SLOAD SWAP1 PUSH2 0x100 EXP SWAP1 DIV PUSH1 0xFF AND PUSH1 0xFF AND PUSH1 0xFF AND DUP2 MSTORE PUSH1 0x20 ADD PUSH1 0x0 DUP3 ADD PUSH1 0x3 SWAP1 SLOAD SWAP1 PUSH2 0x100 EXP SWAP1 DIV PUSH1 0xFF AND PUSH1 0xFF AND PUSH1 0xFF AND DUP2 MSTORE PUSH1 0x20 ADD PUSH1 0x0 DUP3 ADD PUSH1 0x4 SWAP1 SLOAD SWAP1 PUSH2 0x100 EXP SWAP1 DIV PUSH20 0xFFFFFFFFFFFFFFFFFFFFFFFFFFFFFFFFFFFFFFFF AND PUSH20 0xFFFFFFFFFFFFFFFFFFFFFFFFFFFFFFFFFFFFFFFF AND PUSH20 0xFFFFFFFFFFFFFFFFFFFFFFFFFFFFFFFFFFFFFFFF AND DUP2 MSTORE POP POP SWAP1 POP CALLER PUSH20 0xFFFFFFFFFFFFFFFFFFFFFFFFFFFFFFFFFFFFFFFF AND DUP3 PUSH1 0x80 ADD MLOAD PUSH20 0xFFFFFFFFFFFFFFFFFFFFFFFFFFFFFFFFFFFFFFFF AND EQ PUSH2 0x1965 JUMPI PUSH1 0x40 MLOAD PUSH32 0x8C379A000000000000000000000000000000000000000000000000000000000 DUP2 MSTORE PUSH1 0x4 ADD PUSH2 0x195C SWAP1 PUSH2 0x4E28 JUMP JUMPDEST PUSH1 0x40 MLOAD DUP1 SWAP2 SUB SWAP1 REVERT JUMPDEST DUP1 PUSH1 0x0 ADD MLOAD PUSH2 0x19A9 JUMPI PUSH1 0x40 MLOAD PUSH32 0x8C379A000000000000000000000000000000000000000000000000000000000 DUP2 MSTORE PUSH1 0x4 ADD PUSH2 0x19A0 SWAP1 PUSH2 0x4E88 JUMP JUMPDEST PUSH1 0x40 MLOAD DUP1 SWAP2 SUB SWAP1 REVERT JUMPDEST CALLER PUSH20 0xFFFFFFFFFFFFFFFFFFFFFFFFFFFFFFFFFFFFFFFF AND DUP2 PUSH1 0x80 ADD MLOAD PUSH20 0xFFFFFFFFFFFFFFFFFFFFFFFFFFFFFFFFFFFFFFFF AND EQ ISZERO PUSH2 0x1A1C JUMPI PUSH1 0x40 MLOAD PUSH32 0x8C379A000000000000000000000000000000000000000000000000000000000 DUP2 MSTORE PUSH1 0x4 ADD PUSH2 0x1A13 SWAP1 PUSH2 0x4DC8 JUMP JUMPDEST PUSH1 0x40 MLOAD DUP1 SWAP2 SUB SWAP1 REVERT JUMPDEST PUSH1 0x0 PUSH1 0x3 PUSH1 0x0 SWAP1 SLOAD SWAP1 PUSH2 0x100 EXP SWAP1 DIV PUSH20 0xFFFFFFFFFFFFFFFFFFFFFFFFFFFFFFFFFFFFFFFF AND PUSH20 0xFFFFFFFFFFFFFFFFFFFFFFFFFFFFFFFFFFFFFFFF AND PUSH4 0x9188D312 DUP5 PUSH1 0x60 ADD MLOAD PUSH1 0x40 MLOAD DUP3 PUSH4 0xFFFFFFFF AND PUSH1 0xE0 SHL DUP2 MSTORE PUSH1 0x4 ADD PUSH2 0x1A7D SWAP2 SWAP1 PUSH2 0x4FDE JUMP JUMPDEST PUSH1 0xE0 PUSH1 0x40 MLOAD DUP1 DUP4 SUB DUP2 DUP7 DUP1 EXTCODESIZE ISZERO DUP1 ISZERO PUSH2 0x1A95 JUMPI PUSH1 0x0 DUP1 REVERT JUMPDEST POP GAS STATICCALL ISZERO DUP1 ISZERO PUSH2 0x1AA9 JUMPI RETURNDATASIZE PUSH1 0x0 DUP1 RETURNDATACOPY RETURNDATASIZE PUSH1 0x0 REVERT JUMPDEST POP POP POP POP PUSH1 0x40 MLOAD RETURNDATASIZE PUSH1 0x1F NOT PUSH1 0x1F DUP3 ADD AND DUP3 ADD DUP1 PUSH1 0x40 MSTORE POP DUP2 ADD SWAP1 PUSH2 0x1ACD SWAP2 SWAP1 PUSH2 0x45A7 JUMP JUMPDEST SWAP1 POP PUSH1 0x0 PUSH1 0x1 DUP2 GT ISZERO PUSH2 0x1AE3 JUMPI PUSH2 0x1AE2 PUSH2 0x54E2 JUMP JUMPDEST JUMPDEST DUP2 PUSH1 0x20 ADD MLOAD PUSH1 0x1 DUP2 GT ISZERO PUSH2 0x1AFA JUMPI PUSH2 0x1AF9 PUSH2 0x54E2 JUMP JUMPDEST JUMPDEST EQ PUSH2 0x1B3A JUMPI PUSH1 0x40 MLOAD PUSH32 0x8C379A000000000000000000000000000000000000000000000000000000000 DUP2 MSTORE PUSH1 0x4 ADD PUSH2 0x1B31 SWAP1 PUSH2 0x4EA8 JUMP JUMPDEST PUSH1 0x40 MLOAD DUP1 SWAP2 SUB SWAP1 REVERT JUMPDEST PUSH1 0x0 PUSH1 0x4 PUSH1 0x0 ADD PUSH1 0x2 SWAP1 SLOAD SWAP1 PUSH2 0x100 EXP SWAP1 DIV PUSH20 0xFFFFFFFFFFFFFFFFFFFFFFFFFFFFFFFFFFFFFFFF AND PUSH20 0xFFFFFFFFFFFFFFFFFFFFFFFFFFFFFFFFFFFFFFFF AND PUSH1 0x8 PUSH1 0x0 ADD PUSH1 0x2 SWAP1 SLOAD SWAP1 PUSH2 0x100 EXP SWAP1 DIV PUSH20 0xFFFFFFFFFFFFFFFFFFFFFFFFFFFFFFFFFFFFFFFF AND PUSH20 0xFFFFFFFFFFFFFFFFFFFFFFFFFFFFFFFFFFFFFFFF AND EQ SWAP1 POP PUSH1 0x0 DUP2 PUSH2 0x1BF3 JUMPI DUP6 PUSH1 0x0 ADD PUSH1 0x20 DUP2 ADD SWAP1 PUSH2 0x1BD1 SWAP2 SWAP1 PUSH2 0x4641 JUMP JUMPDEST DUP8 PUSH1 0x0 ADD PUSH1 0x20 DUP2 ADD SWAP1 PUSH2 0x1BE4 SWAP2 SWAP1 PUSH2 0x4641 JUMP JUMPDEST PUSH2 0x1BEE SWAP2 SWAP1 PUSH2 0x5336 JUMP JUMPDEST PUSH2 0x1C24 JUMP JUMPDEST DUP7 PUSH1 0x0 ADD PUSH1 0x20 DUP2 ADD SWAP1 PUSH2 0x1C06 SWAP2 SWAP1 PUSH2 0x4641 JUMP JUMPDEST DUP7 PUSH1 0x0 ADD PUSH1 0x20 DUP2 ADD SWAP1 PUSH2 0x1C19 SWAP2 SWAP1 PUSH2 0x4641 JUMP JUMPDEST PUSH2 0x1C23 SWAP2 SWAP1 PUSH2 0x5336 JUMP JUMPDEST JUMPDEST SWAP1 POP PUSH1 0x0 DUP8 PUSH1 0x20 ADD PUSH1 0x20 DUP2 ADD SWAP1 PUSH2 0x1C3B SWAP2 SWAP1 PUSH2 0x4641 JUMP JUMPDEST PUSH1 0xFF AND DUP8 PUSH1 0x20 ADD PUSH1 0x20 DUP2 ADD SWAP1 PUSH2 0x1C51 SWAP2 SWAP1 PUSH2 0x4641 JUMP JUMPDEST PUSH1 0xFF AND LT ISZERO PUSH2 0x1C8F JUMPI DUP7 PUSH1 0x20 ADD PUSH1 0x20 DUP2 ADD SWAP1 PUSH2 0x1C6D SWAP2 SWAP1 PUSH2 0x4641 JUMP JUMPDEST DUP9 PUSH1 0x20 ADD PUSH1 0x20 DUP2 ADD SWAP1 PUSH2 0x1C80 SWAP2 SWAP1 PUSH2 0x4641 JUMP JUMPDEST PUSH2 0x1C8A SWAP2 SWAP1 PUSH2 0x5336 JUMP JUMPDEST PUSH2 0x1CC0 JUMP JUMPDEST DUP8 PUSH1 0x20 ADD PUSH1 0x20 DUP2 ADD SWAP1 PUSH2 0x1CA2 SWAP2 SWAP1 PUSH2 0x4641 JUMP JUMPDEST DUP8 PUSH1 0x20 ADD PUSH1 0x20 DUP2 ADD SWAP1 PUSH2 0x1CB5 SWAP2 SWAP1 PUSH2 0x4641 JUMP JUMPDEST PUSH2 0x1CBF SWAP2 SWAP1 PUSH2 0x5336 JUMP JUMPDEST JUMPDEST SWAP1 POP DUP4 PUSH1 0x60 ADD MLOAD PUSH1 0xFF AND DUP3 PUSH1 0xFF AND GT ISZERO DUP1 ISZERO PUSH2 0x1CE6 JUMPI POP DUP4 PUSH1 0x40 ADD MLOAD PUSH1 0xFF AND DUP2 PUSH1 0xFF AND GT ISZERO JUMPDEST PUSH2 0x1D25 JUMPI PUSH1 0x40 MLOAD PUSH32 0x8C379A000000000000000000000000000000000000000000000000000000000 DUP2 MSTORE PUSH1 0x4 ADD PUSH2 0x1D1C SWAP1 PUSH2 0x4F68 JUMP JUMPDEST PUSH1 0x40 MLOAD DUP1 SWAP2 SUB SWAP1 REVERT JUMPDEST PUSH1 0x1 PUSH1 0xFF AND PUSH1 0x8 PUSH1 0x0 ADD PUSH1 0x1 SWAP1 SLOAD SWAP1 PUSH2 0x100 EXP SWAP1 DIV PUSH1 0xFF AND PUSH1 0xFF AND GT PUSH2 0x1D80 JUMPI PUSH1 0x40 MLOAD PUSH32 0x8C379A000000000000000000000000000000000000000000000000000000000 DUP2 MSTORE PUSH1 0x4 ADD PUSH2 0x1D77 SWAP1 PUSH2 0x4CC8 JUMP JUMPDEST PUSH1 0x40 MLOAD DUP1 SWAP2 SUB SWAP1 REVERT JUMPDEST PUSH1 0x1 PUSH1 0x8 PUSH1 0x0 ADD PUSH1 0x1 DUP3 DUP3 DUP3 SWAP1 SLOAD SWAP1 PUSH2 0x100 EXP SWAP1 DIV PUSH1 0xFF AND PUSH2 0x1DA2 SWAP2 SWAP1 PUSH2 0x5336 JUMP JUMPDEST SWAP3 POP PUSH2 0x100 EXP DUP2 SLOAD DUP2 PUSH1 0xFF MUL NOT AND SWAP1 DUP4 PUSH1 0xFF AND MUL OR SWAP1 SSTORE POP DUP4 PUSH1 0xC0 ADD MLOAD PUSH1 0xFF AND DUP6 PUSH1 0x40 ADD MLOAD PUSH1 0xFF AND GT PUSH2 0x1F3B JUMPI PUSH1 0x0 PUSH1 0x1 SWAP1 SLOAD SWAP1 PUSH2 0x100 EXP SWAP1 DIV PUSH2 0xFFFF AND PUSH1 0xA PUSH1 0x0 DUP8 PUSH1 0x80 ADD MLOAD PUSH20 0xFFFFFFFFFFFFFFFFFFFFFFFFFFFFFFFFFFFFFFFF AND PUSH20 0xFFFFFFFFFFFFFFFFFFFFFFFFFFFFFFFFFFFFFFFF AND DUP2 MSTORE PUSH1 0x20 ADD SWAP1 DUP2 MSTORE PUSH1 0x20 ADD PUSH1 0x0 KECCAK256 PUSH1 0x0 DUP8 PUSH1 0x20 ADD MLOAD PUSH1 0xFF AND PUSH1 0xFF AND DUP2 MSTORE PUSH1 0x20 ADD SWAP1 DUP2 MSTORE PUSH1 0x20 ADD PUSH1 0x0 KECCAK256 PUSH1 0x0 PUSH2 0x100 EXP DUP2 SLOAD DUP2 PUSH2 0xFFFF MUL NOT AND SWAP1 DUP4 PUSH2 0xFFFF AND MUL OR SWAP1 SSTORE POP PUSH1 0xC DUP8 PUSH1 0x0 ADD PUSH1 0x20 DUP2 ADD SWAP1 PUSH2 0x1E6D SWAP2 SWAP1 PUSH2 0x4641 JUMP JUMPDEST PUSH1 0xFF AND DUP2 SLOAD DUP2 LT PUSH2 0x1E81 JUMPI PUSH2 0x1E80 PUSH2 0x5511 JUMP JUMPDEST JUMPDEST SWAP1 PUSH1 0x0 MSTORE PUSH1 0x20 PUSH1 0x0 KECCAK256 ADD DUP8 PUSH1 0x20 ADD PUSH1 0x20 DUP2 ADD SWAP1 PUSH2 0x1E9E SWAP2 SWAP1 PUSH2 0x4641 JUMP JUMPDEST PUSH1 0xFF AND DUP2 SLOAD DUP2 LT PUSH2 0x1EB2 JUMPI PUSH2 0x1EB1 PUSH2 0x5511 JUMP JUMPDEST JUMPDEST SWAP1 PUSH1 0x0 MSTORE PUSH1 0x20 PUSH1 0x0 KECCAK256 ADD PUSH1 0x0 DUP1 DUP3 ADD PUSH1 0x0 PUSH2 0x100 EXP DUP2 SLOAD SWAP1 PUSH1 0xFF MUL NOT AND SWAP1 SSTORE PUSH1 0x0 DUP3 ADD PUSH1 0x1 PUSH2 0x100 EXP DUP2 SLOAD SWAP1 PUSH1 0xFF MUL NOT AND SWAP1 SSTORE PUSH1 0x0 DUP3 ADD PUSH1 0x2 PUSH2 0x100 EXP DUP2 SLOAD SWAP1 PUSH1 0xFF MUL NOT AND SWAP1 SSTORE PUSH1 0x0 DUP3 ADD PUSH1 0x3 PUSH2 0x100 EXP DUP2 SLOAD SWAP1 PUSH1 0xFF MUL NOT AND SWAP1 SSTORE PUSH1 0x0 DUP3 ADD PUSH1 0x4 PUSH2 0x100 EXP DUP2 SLOAD SWAP1 PUSH20 0xFFFFFFFFFFFFFFFFFFFFFFFFFFFFFFFFFFFFFFFF MUL NOT AND SWAP1 SSTORE POP POP PUSH2 0x1FDB JUMP JUMPDEST DUP4 PUSH1 0xC0 ADD MLOAD PUSH1 0xC DUP9 PUSH1 0x0 ADD PUSH1 0x20 DUP2 ADD SWAP1 PUSH2 0x1F55 SWAP2 SWAP1 PUSH2 0x4641 JUMP JUMPDEST PUSH1 0xFF AND DUP2 SLOAD DUP2 LT PUSH2 0x1F69 JUMPI PUSH2 0x1F68 PUSH2 0x5511 JUMP JUMPDEST JUMPDEST SWAP1 PUSH1 0x0 MSTORE PUSH1 0x20 PUSH1 0x0 KECCAK256 ADD DUP9 PUSH1 0x20 ADD PUSH1 0x20 DUP2 ADD SWAP1 PUSH2 0x1F86 SWAP2 SWAP1 PUSH2 0x4641 JUMP JUMPDEST PUSH1 0xFF AND DUP2 SLOAD DUP2 LT PUSH2 0x1F9A JUMPI PUSH2 0x1F99 PUSH2 0x5511 JUMP JUMPDEST JUMPDEST SWAP1 PUSH1 0x0 MSTORE PUSH1 0x20 PUSH1 0x0 KECCAK256 ADD PUSH1 0x0 ADD PUSH1 0x2 DUP3 DUP3 DUP3 SWAP1 SLOAD SWAP1 PUSH2 0x100 EXP SWAP1 DIV PUSH1 0xFF AND PUSH2 0x1FC2 SWAP2 SWAP1 PUSH2 0x5336 JUMP JUMPDEST SWAP3 POP PUSH2 0x100 EXP DUP2 SLOAD DUP2 PUSH1 0xFF MUL NOT AND SWAP1 DUP4 PUSH1 0xFF AND MUL OR SWAP1 SSTORE POP JUMPDEST PUSH32 0x821FA0D3357CAF1ED6E818F6AF88D667DBB5E5AFC86FD1DD63C43C5D9CB668DE DUP9 PUSH1 0x0 ADD PUSH1 0x20 DUP2 ADD SWAP1 PUSH2 0x200F SWAP2 SWAP1 PUSH2 0x4641 JUMP JUMPDEST DUP10 PUSH1 0x20 ADD PUSH1 0x20 DUP2 ADD SWAP1 PUSH2 0x2022 SWAP2 SWAP1 PUSH2 0x4641 JUMP JUMPDEST DUP10 PUSH1 0x0 ADD PUSH1 0x20 DUP2 ADD SWAP1 PUSH2 0x2035 SWAP2 SWAP1 PUSH2 0x4641 JUMP JUMPDEST DUP11 PUSH1 0x20 ADD PUSH1 0x20 DUP2 ADD SWAP1 PUSH2 0x2048 SWAP2 SWAP1 PUSH2 0x4641 JUMP JUMPDEST DUP9 PUSH1 0xC0 ADD MLOAD PUSH1 0x40 MLOAD PUSH2 0x205E SWAP6 SWAP5 SWAP4 SWAP3 SWAP2 SWAP1 PUSH2 0x50B9 JUMP JUMPDEST PUSH1 0x40 MLOAD DUP1 SWAP2 SUB SWAP1 LOG1 POP POP POP POP POP POP POP POP JUMP JUMPDEST PUSH1 0x0 DUP1 PUSH1 0x1 DUP2 GT ISZERO PUSH2 0x2085 JUMPI PUSH2 0x2084 PUSH2 0x54E2 JUMP JUMPDEST JUMPDEST PUSH1 0x0 DUP1 SLOAD SWAP1 PUSH2 0x100 EXP SWAP1 DIV PUSH1 0xFF AND PUSH1 0x1 DUP2 GT ISZERO PUSH2 0x20A5 JUMPI PUSH2 0x20A4 PUSH2 0x54E2 JUMP JUMPDEST JUMPDEST EQ PUSH2 0x20B1 JUMPI PUSH1 0x4 PUSH2 0x20B4 JUMP JUMPDEST PUSH1 0x6 JUMPDEST SWAP1 POP PUSH1 0x0 PUSH1 0xC DUP4 PUSH1 0x0 ADD PUSH1 0x20 DUP2 ADD SWAP1 PUSH2 0x20CD SWAP2 SWAP1 PUSH2 0x4641 JUMP JUMPDEST PUSH1 0xFF AND DUP2 SLOAD DUP2 LT PUSH2 0x20E1 JUMPI PUSH2 0x20E0 PUSH2 0x5511 JUMP JUMPDEST JUMPDEST SWAP1 PUSH1 0x0 MSTORE PUSH1 0x20 PUSH1 0x0 KECCAK256 ADD DUP4 PUSH1 0x20 ADD PUSH1 0x20 DUP2 ADD SWAP1 PUSH2 0x20FE SWAP2 SWAP1 PUSH2 0x4641 JUMP JUMPDEST PUSH1 0xFF AND DUP2 SLOAD DUP2 LT PUSH2 0x2112 JUMPI PUSH2 0x2111 PUSH2 0x5511 JUMP JUMPDEST JUMPDEST SWAP1 PUSH1 0x0 MSTORE PUSH1 0x20 PUSH1 0x0 KECCAK256 ADD PUSH1 0x40 MLOAD DUP1 PUSH1 0xA0 ADD PUSH1 0x40 MSTORE SWAP1 DUP2 PUSH1 0x0 DUP3 ADD PUSH1 0x0 SWAP1 SLOAD SWAP1 PUSH2 0x100 EXP SWAP1 DIV PUSH1 0xFF AND ISZERO ISZERO ISZERO ISZERO DUP2 MSTORE PUSH1 0x20 ADD PUSH1 0x0 DUP3 ADD PUSH1 0x1 SWAP1 SLOAD SWAP1 PUSH2 0x100 EXP SWAP1 DIV PUSH1 0xFF AND PUSH1 0xFF AND PUSH1 0xFF AND DUP2 MSTORE PUSH1 0x20 ADD PUSH1 0x0 DUP3 ADD PUSH1 0x2 SWAP1 SLOAD SWAP1 PUSH2 0x100 EXP SWAP1 DIV PUSH1 0xFF AND PUSH1 0xFF AND PUSH1 0xFF AND DUP2 MSTORE PUSH1 0x20 ADD PUSH1 0x0 DUP3 ADD PUSH1 0x3 SWAP1 SLOAD SWAP1 PUSH2 0x100 EXP SWAP1 DIV PUSH1 0xFF AND PUSH1 0xFF AND PUSH1 0xFF AND DUP2 MSTORE PUSH1 0x20 ADD PUSH1 0x0 DUP3 ADD PUSH1 0x4 SWAP1 SLOAD SWAP1 PUSH2 0x100 EXP SWAP1 DIV PUSH20 0xFFFFFFFFFFFFFFFFFFFFFFFFFFFFFFFFFFFFFFFF AND PUSH20 0xFFFFFFFFFFFFFFFFFFFFFFFFFFFFFFFFFFFFFFFF AND PUSH20 0xFFFFFFFFFFFFFFFFFFFFFFFFFFFFFFFFFFFFFFFF AND DUP2 MSTORE POP POP SWAP1 POP PUSH1 0x0 PUSH1 0x3 PUSH1 0x0 SWAP1 SLOAD SWAP1 PUSH2 0x100 EXP SWAP1 DIV PUSH20 0xFFFFFFFFFFFFFFFFFFFFFFFFFFFFFFFFFFFFFFFF AND PUSH20 0xFFFFFFFFFFFFFFFFFFFFFFFFFFFFFFFFFFFFFFFF AND PUSH4 0x9188D312 DUP4 PUSH1 0x60 ADD MLOAD PUSH1 0x40 MLOAD DUP3 PUSH4 0xFFFFFFFF AND PUSH1 0xE0 SHL DUP2 MSTORE PUSH1 0x4 ADD PUSH2 0x2252 SWAP2 SWAP1 PUSH2 0x4FDE JUMP JUMPDEST PUSH1 0xE0 PUSH1 0x40 MLOAD DUP1 DUP4 SUB DUP2 DUP7 DUP1 EXTCODESIZE ISZERO DUP1 ISZERO PUSH2 0x226A JUMPI PUSH1 0x0 DUP1 REVERT JUMPDEST POP GAS STATICCALL ISZERO DUP1 ISZERO PUSH2 0x227E JUMPI RETURNDATASIZE PUSH1 0x0 DUP1 RETURNDATACOPY RETURNDATASIZE PUSH1 0x0 REVERT JUMPDEST POP POP POP POP PUSH1 0x40 MLOAD RETURNDATASIZE PUSH1 0x1F NOT PUSH1 0x1F DUP3 ADD AND DUP3 ADD DUP1 PUSH1 0x40 MSTORE POP DUP2 ADD SWAP1 PUSH2 0x22A2 SWAP2 SWAP1 PUSH2 0x45A7 JUMP JUMPDEST SWAP1 POP CALLER PUSH20 0xFFFFFFFFFFFFFFFFFFFFFFFFFFFFFFFFFFFFFFFF AND DUP3 PUSH1 0x80 ADD MLOAD PUSH20 0xFFFFFFFFFFFFFFFFFFFFFFFFFFFFFFFFFFFFFFFF AND EQ PUSH2 0x2316 JUMPI PUSH1 0x40 MLOAD PUSH32 0x8C379A000000000000000000000000000000000000000000000000000000000 DUP2 MSTORE PUSH1 0x4 ADD PUSH2 0x230D SWAP1 PUSH2 0x4E28 JUMP JUMPDEST PUSH1 0x40 MLOAD DUP1 SWAP2 SUB SWAP1 REVERT JUMPDEST PUSH1 0x0 PUSH1 0x1 DUP2 GT ISZERO PUSH2 0x232A JUMPI PUSH2 0x2329 PUSH2 0x54E2 JUMP JUMPDEST JUMPDEST DUP2 PUSH1 0x20 ADD MLOAD PUSH1 0x1 DUP2 GT ISZERO PUSH2 0x2341 JUMPI PUSH2 0x2340 PUSH2 0x54E2 JUMP JUMPDEST JUMPDEST EQ PUSH2 0x2381 JUMPI PUSH1 0x40 MLOAD PUSH32 0x8C379A000000000000000000000000000000000000000000000000000000000 DUP2 MSTORE PUSH1 0x4 ADD PUSH2 0x2378 SWAP1 PUSH2 0x4DA8 JUMP JUMPDEST PUSH1 0x40 MLOAD DUP1 SWAP2 SUB SWAP1 REVERT JUMPDEST PUSH1 0x1 PUSH1 0xFF AND PUSH1 0x8 PUSH1 0x0 ADD PUSH1 0x1 SWAP1 SLOAD SWAP1 PUSH2 0x100 EXP SWAP1 DIV PUSH1 0xFF AND PUSH1 0xFF AND GT PUSH2 0x23DC JUMPI PUSH1 0x40 MLOAD PUSH32 0x8C379A000000000000000000000000000000000000000000000000000000000 DUP2 MSTORE PUSH1 0x4 ADD PUSH2 0x23D3 SWAP1 PUSH2 0x4E08 JUMP JUMPDEST PUSH1 0x40 MLOAD DUP1 SWAP2 SUB SWAP1 REVERT JUMPDEST PUSH1 0x0 PUSH1 0x4 PUSH1 0x0 ADD PUSH1 0x2 SWAP1 SLOAD SWAP1 PUSH2 0x100 EXP SWAP1 DIV PUSH20 0xFFFFFFFFFFFFFFFFFFFFFFFFFFFFFFFFFFFFFFFF AND PUSH20 0xFFFFFFFFFFFFFFFFFFFFFFFFFFFFFFFFFFFFFFFF AND PUSH1 0x8 PUSH1 0x0 ADD PUSH1 0x2 SWAP1 SLOAD SWAP1 PUSH2 0x100 EXP SWAP1 DIV PUSH20 0xFFFFFFFFFFFFFFFFFFFFFFFFFFFFFFFFFFFFFFFF AND PUSH20 0xFFFFFFFFFFFFFFFFFFFFFFFFFFFFFFFFFFFFFFFF AND EQ SWAP1 POP DUP1 PUSH2 0x2482 JUMPI DUP2 PUSH1 0x60 ADD MLOAD PUSH1 0xFF AND DUP6 PUSH1 0x0 ADD PUSH1 0x20 DUP2 ADD SWAP1 PUSH2 0x2479 SWAP2 SWAP1 PUSH2 0x4641 JUMP JUMPDEST PUSH1 0xFF AND LT PUSH2 0x24CE JUMP JUMPDEST PUSH32 0x0 PUSH1 0xFF AND DUP3 PUSH1 0x60 ADD MLOAD DUP7 PUSH1 0x0 ADD PUSH1 0x20 DUP2 ADD SWAP1 PUSH2 0x24BE SWAP2 SWAP1 PUSH2 0x4641 JUMP JUMPDEST PUSH2 0x24C8 SWAP2 SWAP1 PUSH2 0x51D1 JUMP JUMPDEST PUSH1 0xFF AND LT ISZERO JUMPDEST PUSH2 0x250D JUMPI PUSH1 0x40 MLOAD PUSH32 0x8C379A000000000000000000000000000000000000000000000000000000000 DUP2 MSTORE PUSH1 0x4 ADD PUSH2 0x2504 SWAP1 PUSH2 0x4D28 JUMP JUMPDEST PUSH1 0x40 MLOAD DUP1 SWAP2 SUB SWAP1 REVERT JUMPDEST PUSH1 0x1 PUSH1 0x8 PUSH1 0x0 ADD PUSH1 0x1 DUP3 DUP3 DUP3 SWAP1 SLOAD SWAP1 PUSH2 0x100 EXP SWAP1 DIV PUSH1 0xFF AND PUSH2 0x252F SWAP2 SWAP1 PUSH2 0x5336 JUMP JUMPDEST SWAP3 POP PUSH2 0x100 EXP DUP2 SLOAD DUP2 PUSH1 0xFF MUL NOT AND SWAP1 DUP4 PUSH1 0xFF AND MUL OR SWAP1 SSTORE POP DUP4 PUSH1 0x0 ADD PUSH1 0x0 SWAP1 SLOAD SWAP1 PUSH2 0x100 EXP SWAP1 DIV PUSH1 0xFF AND PUSH1 0xFF AND DUP3 PUSH1 0xC0 ADD MLOAD PUSH1 0xFF AND GT ISZERO PUSH2 0x25C2 JUMPI PUSH2 0x25BD PUSH1 0x8 PUSH1 0x0 ADD PUSH1 0x2 SWAP1 SLOAD SWAP1 PUSH2 0x100 EXP SWAP1 DIV PUSH20 0xFFFFFFFFFFFFFFFFFFFFFFFFFFFFFFFFFFFFFFFF AND DUP6 PUSH1 0x0 ADD PUSH1 0x2 SWAP1 SLOAD SWAP1 PUSH2 0x100 EXP SWAP1 DIV PUSH20 0xFFFFFFFFFFFFFFFFFFFFFFFFFFFFFFFFFFFFFFFF AND PUSH2 0x3D25 JUMP JUMPDEST PUSH2 0x25FF JUMP JUMPDEST DUP2 PUSH1 0xC0 ADD MLOAD DUP5 PUSH1 0x0 ADD PUSH1 0x0 DUP3 DUP3 DUP3 SWAP1 SLOAD SWAP1 PUSH2 0x100 EXP SWAP1 DIV PUSH1 0xFF AND PUSH2 0x25E6 SWAP2 SWAP1 PUSH2 0x5336 JUMP JUMPDEST SWAP3 POP PUSH2 0x100 EXP DUP2 SLOAD DUP2 PUSH1 0xFF MUL NOT AND SWAP1 DUP4 PUSH1 0xFF AND MUL OR SWAP1 SSTORE POP JUMPDEST PUSH32 0x9514B0A645AB311710078885B3D1AA7B7C941ADE5DBA24715646519E625EC858 DUP6 PUSH1 0x0 ADD PUSH1 0x20 DUP2 ADD SWAP1 PUSH2 0x2633 SWAP2 SWAP1 PUSH2 0x4641 JUMP JUMPDEST DUP7 PUSH1 0x20 ADD PUSH1 0x20 DUP2 ADD SWAP1 PUSH2 0x2646 SWAP2 SWAP1 PUSH2 0x4641 JUMP JUMPDEST DUP5 PUSH1 0xC0 ADD MLOAD PUSH1 0x40 MLOAD PUSH2 0x265A SWAP4 SWAP3 SWAP2 SWAP1 PUSH2 0x503D JUMP JUMPDEST PUSH1 0x40 MLOAD DUP1 SWAP2 SUB SWAP1 LOG1 POP POP POP POP POP JUMP JUMPDEST PUSH1 0x0 DUP1 PUSH1 0x1 DUP2 GT ISZERO PUSH2 0x267E JUMPI PUSH2 0x267D PUSH2 0x54E2 JUMP JUMPDEST JUMPDEST PUSH1 0x0 DUP1 SLOAD SWAP1 PUSH2 0x100 EXP SWAP1 DIV PUSH1 0xFF AND PUSH1 0x1 DUP2 GT ISZERO PUSH2 0x269E JUMPI PUSH2 0x269D PUSH2 0x54E2 JUMP JUMPDEST JUMPDEST EQ PUSH2 0x26AA JUMPI PUSH1 0x4 PUSH2 0x26AD JUMP JUMPDEST PUSH1 0x6 JUMPDEST SWAP1 POP PUSH1 0x0 PUSH1 0xC DUP4 PUSH1 0x0 ADD PUSH1 0x20 DUP2 ADD SWAP1 PUSH2 0x26C6 SWAP2 SWAP1 PUSH2 0x4641 JUMP JUMPDEST PUSH1 0xFF AND DUP2 SLOAD DUP2 LT PUSH2 0x26DA JUMPI PUSH2 0x26D9 PUSH2 0x5511 JUMP JUMPDEST JUMPDEST SWAP1 PUSH1 0x0 MSTORE PUSH1 0x20 PUSH1 0x0 KECCAK256 ADD DUP4 PUSH1 0x20 ADD PUSH1 0x20 DUP2 ADD SWAP1 PUSH2 0x26F7 SWAP2 SWAP1 PUSH2 0x4641 JUMP JUMPDEST PUSH1 0xFF AND DUP2 SLOAD DUP2 LT PUSH2 0x270B JUMPI PUSH2 0x270A PUSH2 0x5511 JUMP JUMPDEST JUMPDEST SWAP1 PUSH1 0x0 MSTORE PUSH1 0x20 PUSH1 0x0 KECCAK256 ADD PUSH1 0x40 MLOAD DUP1 PUSH1 0xA0 ADD PUSH1 0x40 MSTORE SWAP1 DUP2 PUSH1 0x0 DUP3 ADD PUSH1 0x0 SWAP1 SLOAD SWAP1 PUSH2 0x100 EXP SWAP1 DIV PUSH1 0xFF AND ISZERO ISZERO ISZERO ISZERO DUP2 MSTORE PUSH1 0x20 ADD PUSH1 0x0 DUP3 ADD PUSH1 0x1 SWAP1 SLOAD SWAP1 PUSH2 0x100 EXP SWAP1 DIV PUSH1 0xFF AND PUSH1 0xFF AND PUSH1 0xFF AND DUP2 MSTORE PUSH1 0x20 ADD PUSH1 0x0 DUP3 ADD PUSH1 0x2 SWAP1 SLOAD SWAP1 PUSH2 0x100 EXP SWAP1 DIV PUSH1 0xFF AND PUSH1 0xFF AND PUSH1 0xFF AND DUP2 MSTORE PUSH1 0x20 ADD PUSH1 0x0 DUP3 ADD PUSH1 0x3 SWAP1 SLOAD SWAP1 PUSH2 0x100 EXP SWAP1 DIV PUSH1 0xFF AND PUSH1 0xFF AND PUSH1 0xFF AND DUP2 MSTORE PUSH1 0x20 ADD PUSH1 0x0 DUP3 ADD PUSH1 0x4 SWAP1 SLOAD SWAP1 PUSH2 0x100 EXP SWAP1 DIV PUSH20 0xFFFFFFFFFFFFFFFFFFFFFFFFFFFFFFFFFFFFFFFF AND PUSH20 0xFFFFFFFFFFFFFFFFFFFFFFFFFFFFFFFFFFFFFFFF AND PUSH20 0xFFFFFFFFFFFFFFFFFFFFFFFFFFFFFFFFFFFFFFFF AND DUP2 MSTORE POP POP SWAP1 POP PUSH1 0x0 PUSH1 0x3 PUSH1 0x0 SWAP1 SLOAD SWAP1 PUSH2 0x100 EXP SWAP1 DIV PUSH20 0xFFFFFFFFFFFFFFFFFFFFFFFFFFFFFFFFFFFFFFFF AND PUSH20 0xFFFFFFFFFFFFFFFFFFFFFFFFFFFFFFFFFFFFFFFF AND PUSH4 0x9188D312 PUSH1 0x8 PUSH1 0x1 ADD DUP8 PUSH1 0xFF AND DUP2 SLOAD DUP2 LT PUSH2 0x2844 JUMPI PUSH2 0x2843 PUSH2 0x5511 JUMP JUMPDEST JUMPDEST SWAP1 PUSH1 0x0 MSTORE PUSH1 0x20 PUSH1 0x0 KECCAK256 SWAP1 PUSH1 0x20 SWAP2 DUP3 DUP3 DIV ADD SWAP2 SWAP1 MOD SWAP1 SLOAD SWAP1 PUSH2 0x100 EXP SWAP1 DIV PUSH1 0xFF AND PUSH1 0x40 MLOAD DUP3 PUSH4 0xFFFFFFFF AND PUSH1 0xE0 SHL DUP2 MSTORE PUSH1 0x4 ADD PUSH2 0x2880 SWAP2 SWAP1 PUSH2 0x4FDE JUMP JUMPDEST PUSH1 0xE0 PUSH1 0x40 MLOAD DUP1 DUP4 SUB DUP2 DUP7 DUP1 EXTCODESIZE ISZERO DUP1 ISZERO PUSH2 0x2898 JUMPI PUSH1 0x0 DUP1 REVERT JUMPDEST POP GAS STATICCALL ISZERO DUP1 ISZERO PUSH2 0x28AC JUMPI RETURNDATASIZE PUSH1 0x0 DUP1 RETURNDATACOPY RETURNDATASIZE PUSH1 0x0 REVERT JUMPDEST POP POP POP POP PUSH1 0x40 MLOAD RETURNDATASIZE PUSH1 0x1F NOT PUSH1 0x1F DUP3 ADD AND DUP3 ADD DUP1 PUSH1 0x40 MSTORE POP DUP2 ADD SWAP1 PUSH2 0x28D0 SWAP2 SWAP1 PUSH2 0x45A7 JUMP JUMPDEST SWAP1 POP PUSH1 0x0 PUSH2 0x3E8 PUSH32 0x0 PUSH2 0xFFFF AND PUSH1 0x2 PUSH1 0x0 SWAP1 SLOAD SWAP1 PUSH2 0x100 EXP SWAP1 DIV PUSH20 0xFFFFFFFFFFFFFFFFFFFFFFFFFFFFFFFFFFFFFFFF AND PUSH20 0xFFFFFFFFFFFFFFFFFFFFFFFFFFFFFFFFFFFFFFFF AND PUSH4 0xDD62ED3E PUSH32 0x0 ADDRESS PUSH1 0x40 MLOAD DUP4 PUSH4 0xFFFFFFFF AND PUSH1 0xE0 SHL DUP2 MSTORE PUSH1 0x4 ADD PUSH2 0x2979 SWAP3 SWAP2 SWAP1 PUSH2 0x4B8A JUMP JUMPDEST PUSH1 0x20 PUSH1 0x40 MLOAD DUP1 DUP4 SUB DUP2 DUP7 DUP1 EXTCODESIZE ISZERO DUP1 ISZERO PUSH2 0x2991 JUMPI PUSH1 0x0 DUP1 REVERT JUMPDEST POP GAS STATICCALL ISZERO DUP1 ISZERO PUSH2 0x29A5 JUMPI RETURNDATASIZE PUSH1 0x0 DUP1 RETURNDATACOPY RETURNDATASIZE PUSH1 0x0 REVERT JUMPDEST POP POP POP POP PUSH1 0x40 MLOAD RETURNDATASIZE PUSH1 0x1F NOT PUSH1 0x1F DUP3 ADD AND DUP3 ADD DUP1 PUSH1 0x40 MSTORE POP DUP2 ADD SWAP1 PUSH2 0x29C9 SWAP2 SWAP1 PUSH2 0x45D4 JUMP JUMPDEST PUSH2 0x29D3 SWAP2 SWAP1 PUSH2 0x5239 JUMP JUMPDEST PUSH2 0x29DD SWAP2 SWAP1 PUSH2 0x5208 JUMP JUMPDEST SWAP1 POP DUP3 PUSH1 0x0 ADD MLOAD PUSH2 0x2A23 JUMPI PUSH1 0x40 MLOAD PUSH32 0x8C379A000000000000000000000000000000000000000000000000000000000 DUP2 MSTORE PUSH1 0x4 ADD PUSH2 0x2A1A SWAP1 PUSH2 0x4F08 JUMP JUMPDEST PUSH1 0x40 MLOAD DUP1 SWAP2 SUB SWAP1 REVERT JUMPDEST DUP4 PUSH1 0x0 ADD PUSH1 0x2 SWAP1 SLOAD SWAP1 PUSH2 0x100 EXP SWAP1 DIV PUSH20 0xFFFFFFFFFFFFFFFFFFFFFFFFFFFFFFFFFFFFFFFF AND PUSH20 0xFFFFFFFFFFFFFFFFFFFFFFFFFFFFFFFFFFFFFFFF AND DUP4 PUSH1 0x80 ADD MLOAD PUSH20 0xFFFFFFFFFFFFFFFFFFFFFFFFFFFFFFFFFFFFFFFF AND EQ PUSH2 0x2AB9 JUMPI PUSH1 0x40 MLOAD PUSH32 0x8C379A000000000000000000000000000000000000000000000000000000000 DUP2 MSTORE PUSH1 0x4 ADD PUSH2 0x2AB0 SWAP1 PUSH2 0x4DE8 JUMP JUMPDEST PUSH1 0x40 MLOAD DUP1 SWAP2 SUB SWAP1 REVERT JUMPDEST DUP1 PUSH1 0xB PUSH1 0x0 CALLER PUSH20 0xFFFFFFFFFFFFFFFFFFFFFFFFFFFFFFFFFFFFFFFF AND PUSH20 0xFFFFFFFFFFFFFFFFFFFFFFFFFFFFFFFFFFFFFFFF AND DUP2 MSTORE PUSH1 0x20 ADD SWAP1 DUP2 MSTORE PUSH1 0x20 ADD PUSH1 0x0 KECCAK256 SLOAD GT ISZERO PUSH2 0x2B3B JUMPI PUSH1 0x40 MLOAD PUSH32 0x8C379A000000000000000000000000000000000000000000000000000000000 DUP2 MSTORE PUSH1 0x4 ADD PUSH2 0x2B32 SWAP1 PUSH2 0x4D88 JUMP JUMPDEST PUSH1 0x40 MLOAD DUP1 SWAP2 SUB SWAP1 REVERT JUMPDEST PUSH1 0x5 DUP2 PUSH2 0x2B48 SWAP2 SWAP1 PUSH2 0x5208 JUMP JUMPDEST PUSH1 0xB PUSH1 0x0 CALLER PUSH20 0xFFFFFFFFFFFFFFFFFFFFFFFFFFFFFFFFFFFFFFFF AND PUSH20 0xFFFFFFFFFFFFFFFFFFFFFFFFFFFFFFFFFFFFFFFF AND DUP2 MSTORE PUSH1 0x20 ADD SWAP1 DUP2 MSTORE PUSH1 0x20 ADD PUSH1 0x0 KECCAK256 PUSH1 0x0 DUP3 DUP3 SLOAD PUSH2 0x2B96 SWAP2 SWAP1 PUSH2 0x517B JUMP JUMPDEST SWAP3 POP POP DUP2 SWAP1 SSTORE POP DUP2 PUSH1 0xC0 ADD MLOAD PUSH1 0xFF AND DUP4 PUSH1 0x40 ADD MLOAD PUSH1 0xFF AND GT PUSH2 0x2D3E JUMPI PUSH1 0x0 PUSH1 0x1 SWAP1 SLOAD SWAP1 PUSH2 0x100 EXP SWAP1 DIV PUSH2 0xFFFF AND PUSH1 0xA PUSH1 0x0 DUP7 PUSH1 0x0 ADD PUSH1 0x2 SWAP1 SLOAD SWAP1 PUSH2 0x100 EXP SWAP1 DIV PUSH20 0xFFFFFFFFFFFFFFFFFFFFFFFFFFFFFFFFFFFFFFFF AND PUSH20 0xFFFFFFFFFFFFFFFFFFFFFFFFFFFFFFFFFFFFFFFF AND PUSH20 0xFFFFFFFFFFFFFFFFFFFFFFFFFFFFFFFFFFFFFFFF AND DUP2 MSTORE PUSH1 0x20 ADD SWAP1 DUP2 MSTORE PUSH1 0x20 ADD PUSH1 0x0 KECCAK256 PUSH1 0x0 DUP6 PUSH1 0x20 ADD MLOAD PUSH1 0xFF AND PUSH1 0xFF AND DUP2 MSTORE PUSH1 0x20 ADD SWAP1 DUP2 MSTORE PUSH1 0x20 ADD PUSH1 0x0 KECCAK256 PUSH1 0x0 PUSH2 0x100 EXP DUP2 SLOAD DUP2 PUSH2 0xFFFF MUL NOT AND SWAP1 DUP4 PUSH2 0xFFFF AND MUL OR SWAP1 SSTORE POP PUSH1 0xC DUP6 PUSH1 0x0 ADD PUSH1 0x20 DUP2 ADD SWAP1 PUSH2 0x2C70 SWAP2 SWAP1 PUSH2 0x4641 JUMP JUMPDEST PUSH1 0xFF AND DUP2 SLOAD DUP2 LT PUSH2 0x2C84 JUMPI PUSH2 0x2C83 PUSH2 0x5511 JUMP JUMPDEST JUMPDEST SWAP1 PUSH1 0x0 MSTORE PUSH1 0x20 PUSH1 0x0 KECCAK256 ADD DUP6 PUSH1 0x20 ADD PUSH1 0x20 DUP2 ADD SWAP1 PUSH2 0x2CA1 SWAP2 SWAP1 PUSH2 0x4641 JUMP JUMPDEST PUSH1 0xFF AND DUP2 SLOAD DUP2 LT PUSH2 0x2CB5 JUMPI PUSH2 0x2CB4 PUSH2 0x5511 JUMP JUMPDEST JUMPDEST SWAP1 PUSH1 0x0 MSTORE PUSH1 0x20 PUSH1 0x0 KECCAK256 ADD PUSH1 0x0 DUP1 DUP3 ADD PUSH1 0x0 PUSH2 0x100 EXP DUP2 SLOAD SWAP1 PUSH1 0xFF MUL NOT AND SWAP1 SSTORE PUSH1 0x0 DUP3 ADD PUSH1 0x1 PUSH2 0x100 EXP DUP2 SLOAD SWAP1 PUSH1 0xFF MUL NOT AND SWAP1 SSTORE PUSH1 0x0 DUP3 ADD PUSH1 0x2 PUSH2 0x100 EXP DUP2 SLOAD SWAP1 PUSH1 0xFF MUL NOT AND SWAP1 SSTORE PUSH1 0x0 DUP3 ADD PUSH1 0x3 PUSH2 0x100 EXP DUP2 SLOAD SWAP1 PUSH1 0xFF MUL NOT AND SWAP1 SSTORE PUSH1 0x0 DUP3 ADD PUSH1 0x4 PUSH2 0x100 EXP DUP2 SLOAD SWAP1 PUSH20 0xFFFFFFFFFFFFFFFFFFFFFFFFFFFFFFFFFFFFFFFF MUL NOT AND SWAP1 SSTORE POP POP PUSH2 0x2DEA JUMP JUMPDEST PUSH1 0x3 DUP3 PUSH1 0xC0 ADD MLOAD PUSH2 0x2D4F SWAP2 SWAP1 PUSH2 0x5293 JUMP JUMPDEST PUSH1 0xC DUP7 PUSH1 0x0 ADD PUSH1 0x20 DUP2 ADD SWAP1 PUSH2 0x2D64 SWAP2 SWAP1 PUSH2 0x4641 JUMP JUMPDEST PUSH1 0xFF AND DUP2 SLOAD DUP2 LT PUSH2 0x2D78 JUMPI PUSH2 0x2D77 PUSH2 0x5511 JUMP JUMPDEST JUMPDEST SWAP1 PUSH1 0x0 MSTORE PUSH1 0x20 PUSH1 0x0 KECCAK256 ADD DUP7 PUSH1 0x20 ADD PUSH1 0x20 DUP2 ADD SWAP1 PUSH2 0x2D95 SWAP2 SWAP1 PUSH2 0x4641 JUMP JUMPDEST PUSH1 0xFF AND DUP2 SLOAD DUP2 LT PUSH2 0x2DA9 JUMPI PUSH2 0x2DA8 PUSH2 0x5511 JUMP JUMPDEST JUMPDEST SWAP1 PUSH1 0x0 MSTORE PUSH1 0x20 PUSH1 0x0 KECCAK256 ADD PUSH1 0x0 ADD PUSH1 0x2 DUP3 DUP3 DUP3 SWAP1 SLOAD SWAP1 PUSH2 0x100 EXP SWAP1 DIV PUSH1 0xFF AND PUSH2 0x2DD1 SWAP2 SWAP1 PUSH2 0x5336 JUMP JUMPDEST SWAP3 POP PUSH2 0x100 EXP DUP2 SLOAD DUP2 PUSH1 0xFF MUL NOT AND SWAP1 DUP4 PUSH1 0xFF AND MUL OR SWAP1 SSTORE POP JUMPDEST PUSH32 0xAD81C2D8FF449019CFAF2EDA745547AAE68EFD585520CF7BBAD02CA0FF57AAF1 DUP6 PUSH1 0x0 ADD PUSH1 0x20 DUP2 ADD SWAP1 PUSH2 0x2E1E SWAP2 SWAP1 PUSH2 0x4641 JUMP JUMPDEST DUP7 PUSH1 0x20 ADD PUSH1 0x20 DUP2 ADD SWAP1 PUSH2 0x2E31 SWAP2 SWAP1 PUSH2 0x4641 JUMP JUMPDEST PUSH1 0x3 DUP6 PUSH1 0xC0 ADD MLOAD PUSH2 0x2E42 SWAP2 SWAP1 PUSH2 0x5293 JUMP JUMPDEST PUSH1 0x40 MLOAD PUSH2 0x2E51 SWAP4 SWAP3 SWAP2 SWAP1 PUSH2 0x503D JUMP JUMPDEST PUSH1 0x40 MLOAD DUP1 SWAP2 SUB SWAP1 LOG1 POP POP POP POP POP POP JUMP JUMPDEST PUSH1 0x0 PUSH1 0xC DUP4 PUSH1 0x0 ADD PUSH1 0x20 DUP2 ADD SWAP1 PUSH2 0x2E78 SWAP2 SWAP1 PUSH2 0x4641 JUMP JUMPDEST PUSH1 0xFF AND DUP2 SLOAD DUP2 LT PUSH2 0x2E8C JUMPI PUSH2 0x2E8B PUSH2 0x5511 JUMP JUMPDEST JUMPDEST SWAP1 PUSH1 0x0 MSTORE PUSH1 0x20 PUSH1 0x0 KECCAK256 ADD DUP4 PUSH1 0x20 ADD PUSH1 0x20 DUP2 ADD SWAP1 PUSH2 0x2EA9 SWAP2 SWAP1 PUSH2 0x4641 JUMP JUMPDEST PUSH1 0xFF AND DUP2 SLOAD DUP2 LT PUSH2 0x2EBD JUMPI PUSH2 0x2EBC PUSH2 0x5511 JUMP JUMPDEST JUMPDEST SWAP1 PUSH1 0x0 MSTORE PUSH1 0x20 PUSH1 0x0 KECCAK256 ADD PUSH1 0x40 MLOAD DUP1 PUSH1 0xA0 ADD PUSH1 0x40 MSTORE SWAP1 DUP2 PUSH1 0x0 DUP3 ADD PUSH1 0x0 SWAP1 SLOAD SWAP1 PUSH2 0x100 EXP SWAP1 DIV PUSH1 0xFF AND ISZERO ISZERO ISZERO ISZERO DUP2 MSTORE PUSH1 0x20 ADD PUSH1 0x0 DUP3 ADD PUSH1 0x1 SWAP1 SLOAD SWAP1 PUSH2 0x100 EXP SWAP1 DIV PUSH1 0xFF AND PUSH1 0xFF AND PUSH1 0xFF AND DUP2 MSTORE PUSH1 0x20 ADD PUSH1 0x0 DUP3 ADD PUSH1 0x2 SWAP1 SLOAD SWAP1 PUSH2 0x100 EXP SWAP1 DIV PUSH1 0xFF AND PUSH1 0xFF AND PUSH1 0xFF AND DUP2 MSTORE PUSH1 0x20 ADD PUSH1 0x0 DUP3 ADD PUSH1 0x3 SWAP1 SLOAD SWAP1 PUSH2 0x100 EXP SWAP1 DIV PUSH1 0xFF AND PUSH1 0xFF AND PUSH1 0xFF AND DUP2 MSTORE PUSH1 0x20 ADD PUSH1 0x0 DUP3 ADD PUSH1 0x4 SWAP1 SLOAD SWAP1 PUSH2 0x100 EXP SWAP1 DIV PUSH20 0xFFFFFFFFFFFFFFFFFFFFFFFFFFFFFFFFFFFFFFFF AND PUSH20 0xFFFFFFFFFFFFFFFFFFFFFFFFFFFFFFFFFFFFFFFF AND PUSH20 0xFFFFFFFFFFFFFFFFFFFFFFFFFFFFFFFFFFFFFFFF AND DUP2 MSTORE POP POP SWAP1 POP PUSH1 0x0 PUSH1 0xC DUP4 PUSH1 0x0 ADD PUSH1 0x20 DUP2 ADD SWAP1 PUSH2 0x2FB3 SWAP2 SWAP1 PUSH2 0x4641 JUMP JUMPDEST PUSH1 0xFF AND DUP2 SLOAD DUP2 LT PUSH2 0x2FC7 JUMPI PUSH2 0x2FC6 PUSH2 0x5511 JUMP JUMPDEST JUMPDEST SWAP1 PUSH1 0x0 MSTORE PUSH1 0x20 PUSH1 0x0 KECCAK256 ADD DUP4 PUSH1 0x20 ADD PUSH1 0x20 DUP2 ADD SWAP1 PUSH2 0x2FE4 SWAP2 SWAP1 PUSH2 0x4641 JUMP JUMPDEST PUSH1 0xFF AND DUP2 SLOAD DUP2 LT PUSH2 0x2FF8 JUMPI PUSH2 0x2FF7 PUSH2 0x5511 JUMP JUMPDEST JUMPDEST SWAP1 PUSH1 0x0 MSTORE PUSH1 0x20 PUSH1 0x0 KECCAK256 ADD PUSH1 0x40 MLOAD DUP1 PUSH1 0xA0 ADD PUSH1 0x40 MSTORE SWAP1 DUP2 PUSH1 0x0 DUP3 ADD PUSH1 0x0 SWAP1 SLOAD SWAP1 PUSH2 0x100 EXP SWAP1 DIV PUSH1 0xFF AND ISZERO ISZERO ISZERO ISZERO DUP2 MSTORE PUSH1 0x20 ADD PUSH1 0x0 DUP3 ADD PUSH1 0x1 SWAP1 SLOAD SWAP1 PUSH2 0x100 EXP SWAP1 DIV PUSH1 0xFF AND PUSH1 0xFF AND PUSH1 0xFF AND DUP2 MSTORE PUSH1 0x20 ADD PUSH1 0x0 DUP3 ADD PUSH1 0x2 SWAP1 SLOAD SWAP1 PUSH2 0x100 EXP SWAP1 DIV PUSH1 0xFF AND PUSH1 0xFF AND PUSH1 0xFF AND DUP2 MSTORE PUSH1 0x20 ADD PUSH1 0x0 DUP3 ADD PUSH1 0x3 SWAP1 SLOAD SWAP1 PUSH2 0x100 EXP SWAP1 DIV PUSH1 0xFF AND PUSH1 0xFF AND PUSH1 0xFF AND DUP2 MSTORE PUSH1 0x20 ADD PUSH1 0x0 DUP3 ADD PUSH1 0x4 SWAP1 SLOAD SWAP1 PUSH2 0x100 EXP SWAP1 DIV PUSH20 0xFFFFFFFFFFFFFFFFFFFFFFFFFFFFFFFFFFFFFFFF AND PUSH20 0xFFFFFFFFFFFFFFFFFFFFFFFFFFFFFFFFFFFFFFFF AND PUSH20 0xFFFFFFFFFFFFFFFFFFFFFFFFFFFFFFFFFFFFFFFF AND DUP2 MSTORE POP POP SWAP1 POP PUSH1 0x0 PUSH1 0x3 PUSH1 0x0 SWAP1 SLOAD SWAP1 PUSH2 0x100 EXP SWAP1 DIV PUSH20 0xFFFFFFFFFFFFFFFFFFFFFFFFFFFFFFFFFFFFFFFF AND PUSH20 0xFFFFFFFFFFFFFFFFFFFFFFFFFFFFFFFFFFFFFFFF AND PUSH4 0x9188D312 DUP5 PUSH1 0x60 ADD MLOAD PUSH1 0x40 MLOAD DUP3 PUSH4 0xFFFFFFFF AND PUSH1 0xE0 SHL DUP2 MSTORE PUSH1 0x4 ADD PUSH2 0x3138 SWAP2 SWAP1 PUSH2 0x4FDE JUMP JUMPDEST PUSH1 0xE0 PUSH1 0x40 MLOAD DUP1 DUP4 SUB DUP2 DUP7 DUP1 EXTCODESIZE ISZERO DUP1 ISZERO PUSH2 0x3150 JUMPI PUSH1 0x0 DUP1 REVERT JUMPDEST POP GAS STATICCALL ISZERO DUP1 ISZERO PUSH2 0x3164 JUMPI RETURNDATASIZE PUSH1 0x0 DUP1 RETURNDATACOPY RETURNDATASIZE PUSH1 0x0 REVERT JUMPDEST POP POP POP POP PUSH1 0x40 MLOAD RETURNDATASIZE PUSH1 0x1F NOT PUSH1 0x1F DUP3 ADD AND DUP3 ADD DUP1 PUSH1 0x40 MSTORE POP DUP2 ADD SWAP1 PUSH2 0x3188 SWAP2 SWAP1 PUSH2 0x45A7 JUMP JUMPDEST SWAP1 POP CALLER PUSH20 0xFFFFFFFFFFFFFFFFFFFFFFFFFFFFFFFFFFFFFFFF AND DUP4 PUSH1 0x80 ADD MLOAD PUSH20 0xFFFFFFFFFFFFFFFFFFFFFFFFFFFFFFFFFFFFFFFF AND EQ PUSH2 0x31FC JUMPI PUSH1 0x40 MLOAD PUSH32 0x8C379A000000000000000000000000000000000000000000000000000000000 DUP2 MSTORE PUSH1 0x4 ADD PUSH2 0x31F3 SWAP1 PUSH2 0x4E28 JUMP JUMPDEST PUSH1 0x40 MLOAD DUP1 SWAP2 SUB SWAP1 REVERT JUMPDEST DUP2 PUSH1 0x0 ADD MLOAD PUSH2 0x3240 JUMPI PUSH1 0x40 MLOAD PUSH32 0x8C379A000000000000000000000000000000000000000000000000000000000 DUP2 MSTORE PUSH1 0x4 ADD PUSH2 0x3237 SWAP1 PUSH2 0x4F08 JUMP JUMPDEST PUSH1 0x40 MLOAD DUP1 SWAP2 SUB SWAP1 REVERT JUMPDEST CALLER PUSH20 0xFFFFFFFFFFFFFFFFFFFFFFFFFFFFFFFFFFFFFFFF AND DUP3 PUSH1 0x80 ADD MLOAD PUSH20 0xFFFFFFFFFFFFFFFFFFFFFFFFFFFFFFFFFFFFFFFF AND EQ PUSH2 0x32B2 JUMPI PUSH1 0x40 MLOAD PUSH32 0x8C379A000000000000000000000000000000000000000000000000000000000 DUP2 MSTORE PUSH1 0x4 ADD PUSH2 0x32A9 SWAP1 PUSH2 0x4EE8 JUMP JUMPDEST PUSH1 0x40 MLOAD DUP1 SWAP2 SUB SWAP1 REVERT JUMPDEST PUSH1 0x1 DUP1 DUP2 GT ISZERO PUSH2 0x32C5 JUMPI PUSH2 0x32C4 PUSH2 0x54E2 JUMP JUMPDEST JUMPDEST DUP2 PUSH1 0x20 ADD MLOAD PUSH1 0x1 DUP2 GT ISZERO PUSH2 0x32DC JUMPI PUSH2 0x32DB PUSH2 0x54E2 JUMP JUMPDEST JUMPDEST EQ PUSH2 0x331C JUMPI PUSH1 0x40 MLOAD PUSH32 0x8C379A000000000000000000000000000000000000000000000000000000000 DUP2 MSTORE PUSH1 0x4 ADD PUSH2 0x3313 SWAP1 PUSH2 0x4D68 JUMP JUMPDEST PUSH1 0x40 MLOAD DUP1 SWAP2 SUB SWAP1 REVERT JUMPDEST PUSH1 0x0 PUSH1 0x4 PUSH1 0x0 ADD PUSH1 0x2 SWAP1 SLOAD SWAP1 PUSH2 0x100 EXP SWAP1 DIV PUSH20 0xFFFFFFFFFFFFFFFFFFFFFFFFFFFFFFFFFFFFFFFF AND PUSH20 0xFFFFFFFFFFFFFFFFFFFFFFFFFFFFFFFFFFFFFFFF AND PUSH1 0x8 PUSH1 0x0 ADD PUSH1 0x2 SWAP1 SLOAD SWAP1 PUSH2 0x100 EXP SWAP1 DIV PUSH20 0xFFFFFFFFFFFFFFFFFFFFFFFFFFFFFFFFFFFFFFFF AND PUSH20 0xFFFFFFFFFFFFFFFFFFFFFFFFFFFFFFFFFFFFFFFF AND EQ SWAP1 POP PUSH1 0x0 DUP2 PUSH2 0x33D5 JUMPI DUP6 PUSH1 0x0 ADD PUSH1 0x20 DUP2 ADD SWAP1 PUSH2 0x33B3 SWAP2 SWAP1 PUSH2 0x4641 JUMP JUMPDEST DUP8 PUSH1 0x0 ADD PUSH1 0x20 DUP2 ADD SWAP1 PUSH2 0x33C6 SWAP2 SWAP1 PUSH2 0x4641 JUMP JUMPDEST PUSH2 0x33D0 SWAP2 SWAP1 PUSH2 0x5336 JUMP JUMPDEST PUSH2 0x3406 JUMP JUMPDEST DUP7 PUSH1 0x0 ADD PUSH1 0x20 DUP2 ADD SWAP1 PUSH2 0x33E8 SWAP2 SWAP1 PUSH2 0x4641 JUMP JUMPDEST DUP7 PUSH1 0x0 ADD PUSH1 0x20 DUP2 ADD SWAP1 PUSH2 0x33FB SWAP2 SWAP1 PUSH2 0x4641 JUMP JUMPDEST PUSH2 0x3405 SWAP2 SWAP1 PUSH2 0x5336 JUMP JUMPDEST JUMPDEST SWAP1 POP PUSH1 0x0 DUP8 PUSH1 0x20 ADD PUSH1 0x20 DUP2 ADD SWAP1 PUSH2 0x341D SWAP2 SWAP1 PUSH2 0x4641 JUMP JUMPDEST PUSH1 0xFF AND DUP8 PUSH1 0x20 ADD PUSH1 0x20 DUP2 ADD SWAP1 PUSH2 0x3433 SWAP2 SWAP1 PUSH2 0x4641 JUMP JUMPDEST PUSH1 0xFF AND LT ISZERO PUSH2 0x3471 JUMPI DUP7 PUSH1 0x20 ADD PUSH1 0x20 DUP2 ADD SWAP1 PUSH2 0x344F SWAP2 SWAP1 PUSH2 0x4641 JUMP JUMPDEST DUP9 PUSH1 0x20 ADD PUSH1 0x20 DUP2 ADD SWAP1 PUSH2 0x3462 SWAP2 SWAP1 PUSH2 0x4641 JUMP JUMPDEST PUSH2 0x346C SWAP2 SWAP1 PUSH2 0x5336 JUMP JUMPDEST PUSH2 0x34A2 JUMP JUMPDEST DUP8 PUSH1 0x20 ADD PUSH1 0x20 DUP2 ADD SWAP1 PUSH2 0x3484 SWAP2 SWAP1 PUSH2 0x4641 JUMP JUMPDEST DUP8 PUSH1 0x20 ADD PUSH1 0x20 DUP2 ADD SWAP1 PUSH2 0x3497 SWAP2 SWAP1 PUSH2 0x4641 JUMP JUMPDEST PUSH2 0x34A1 SWAP2 SWAP1 PUSH2 0x5336 JUMP JUMPDEST JUMPDEST SWAP1 POP DUP4 PUSH1 0x60 ADD MLOAD PUSH1 0xFF AND DUP3 PUSH1 0xFF AND GT ISZERO DUP1 ISZERO PUSH2 0x34C8 JUMPI POP DUP4 PUSH1 0x40 ADD MLOAD PUSH1 0xFF AND DUP2 PUSH1 0xFF AND GT ISZERO JUMPDEST PUSH2 0x3507 JUMPI PUSH1 0x40 MLOAD PUSH32 0x8C379A000000000000000000000000000000000000000000000000000000000 DUP2 MSTORE PUSH1 0x4 ADD PUSH2 0x34FE SWAP1 PUSH2 0x4F68 JUMP JUMPDEST PUSH1 0x40 MLOAD DUP1 SWAP2 SUB SWAP1 REVERT JUMPDEST PUSH1 0x1 PUSH1 0xFF AND PUSH1 0x8 PUSH1 0x0 ADD PUSH1 0x1 SWAP1 SLOAD SWAP1 PUSH2 0x100 EXP SWAP1 DIV PUSH1 0xFF AND PUSH1 0xFF AND GT PUSH2 0x3562 JUMPI PUSH1 0x40 MLOAD PUSH32 0x8C379A000000000000000000000000000000000000000000000000000000000 DUP2 MSTORE PUSH1 0x4 ADD PUSH2 0x3559 SWAP1 PUSH2 0x4E08 JUMP JUMPDEST PUSH1 0x40 MLOAD DUP1 SWAP2 SUB SWAP1 REVERT JUMPDEST PUSH1 0x1 PUSH1 0x8 PUSH1 0x0 ADD PUSH1 0x1 DUP3 DUP3 DUP3 SWAP1 SLOAD SWAP1 PUSH2 0x100 EXP SWAP1 DIV PUSH1 0xFF AND PUSH2 0x3584 SWAP2 SWAP1 PUSH2 0x5336 JUMP JUMPDEST SWAP3 POP PUSH2 0x100 EXP DUP2 SLOAD DUP2 PUSH1 0xFF MUL NOT AND SWAP1 DUP4 PUSH1 0xFF AND MUL OR SWAP1 SSTORE POP DUP4 PUSH1 0xC0 ADD MLOAD PUSH1 0xC DUP9 PUSH1 0x0 ADD PUSH1 0x20 DUP2 ADD SWAP1 PUSH2 0x35B6 SWAP2 SWAP1 PUSH2 0x4641 JUMP JUMPDEST PUSH1 0xFF AND DUP2 SLOAD DUP2 LT PUSH2 0x35CA JUMPI PUSH2 0x35C9 PUSH2 0x5511 JUMP JUMPDEST JUMPDEST SWAP1 PUSH1 0x0 MSTORE PUSH1 0x20 PUSH1 0x0 KECCAK256 ADD DUP9 PUSH1 0x20 ADD PUSH1 0x20 DUP2 ADD SWAP1 PUSH2 0x35E7 SWAP2 SWAP1 PUSH2 0x4641 JUMP JUMPDEST PUSH1 0xFF AND DUP2 SLOAD DUP2 LT PUSH2 0x35FB JUMPI PUSH2 0x35FA PUSH2 0x5511 JUMP JUMPDEST JUMPDEST SWAP1 PUSH1 0x0 MSTORE PUSH1 0x20 PUSH1 0x0 KECCAK256 ADD PUSH1 0x0 ADD PUSH1 0x2 DUP3 DUP3 DUP3 SWAP1 SLOAD SWAP1 PUSH2 0x100 EXP SWAP1 DIV PUSH1 0xFF AND PUSH2 0x3623 SWAP2 SWAP1 PUSH2 0x51D1 JUMP JUMPDEST SWAP3 POP PUSH2 0x100 EXP DUP2 SLOAD DUP2 PUSH1 0xFF MUL NOT AND SWAP1 DUP4 PUSH1 0xFF AND MUL OR SWAP1 SSTORE POP PUSH32 0x8755E3DE7285D4F55C28476287892F02FA00FE2A9476FD9F76AA96DDCE5A1237 DUP9 PUSH1 0x0 ADD PUSH1 0x20 DUP2 ADD SWAP1 PUSH2 0x366F SWAP2 SWAP1 PUSH2 0x4641 JUMP JUMPDEST DUP10 PUSH1 0x20 ADD PUSH1 0x20 DUP2 ADD SWAP1 PUSH2 0x3682 SWAP2 SWAP1 PUSH2 0x4641 JUMP JUMPDEST DUP10 PUSH1 0x0 ADD PUSH1 0x20 DUP2 ADD SWAP1 PUSH2 0x3695 SWAP2 SWAP1 PUSH2 0x4641 JUMP JUMPDEST DUP11 PUSH1 0x20 ADD PUSH1 0x20 DUP2 ADD SWAP1 PUSH2 0x36A8 SWAP2 SWAP1 PUSH2 0x4641 JUMP JUMPDEST DUP9 PUSH1 0xC0 ADD MLOAD PUSH1 0x40 MLOAD PUSH2 0x36BE SWAP6 SWAP5 SWAP4 SWAP3 SWAP2 SWAP1 PUSH2 0x50B9 JUMP JUMPDEST PUSH1 0x40 MLOAD DUP1 SWAP2 SUB SWAP1 LOG1 POP POP POP POP POP POP POP POP JUMP JUMPDEST PUSH1 0x0 PUSH1 0xC DUP3 PUSH1 0x0 ADD PUSH1 0x20 DUP2 ADD SWAP1 PUSH2 0x36E7 SWAP2 SWAP1 PUSH2 0x4641 JUMP JUMPDEST PUSH1 0xFF AND DUP2 SLOAD DUP2 LT PUSH2 0x36FB JUMPI PUSH2 0x36FA PUSH2 0x5511 JUMP JUMPDEST JUMPDEST SWAP1 PUSH1 0x0 MSTORE PUSH1 0x20 PUSH1 0x0 KECCAK256 ADD DUP3 PUSH1 0x20 ADD PUSH1 0x20 DUP2 ADD SWAP1 PUSH2 0x3718 SWAP2 SWAP1 PUSH2 0x4641 JUMP JUMPDEST PUSH1 0xFF AND DUP2 SLOAD DUP2 LT PUSH2 0x372C JUMPI PUSH2 0x372B PUSH2 0x5511 JUMP JUMPDEST JUMPDEST SWAP1 PUSH1 0x0 MSTORE PUSH1 0x20 PUSH1 0x0 KECCAK256 ADD PUSH1 0x40 MLOAD DUP1 PUSH1 0xA0 ADD PUSH1 0x40 MSTORE SWAP1 DUP2 PUSH1 0x0 DUP3 ADD PUSH1 0x0 SWAP1 SLOAD SWAP1 PUSH2 0x100 EXP SWAP1 DIV PUSH1 0xFF AND ISZERO ISZERO ISZERO ISZERO DUP2 MSTORE PUSH1 0x20 ADD PUSH1 0x0 DUP3 ADD PUSH1 0x1 SWAP1 SLOAD SWAP1 PUSH2 0x100 EXP SWAP1 DIV PUSH1 0xFF AND PUSH1 0xFF AND PUSH1 0xFF AND DUP2 MSTORE PUSH1 0x20 ADD PUSH1 0x0 DUP3 ADD PUSH1 0x2 SWAP1 SLOAD SWAP1 PUSH2 0x100 EXP SWAP1 DIV PUSH1 0xFF AND PUSH1 0xFF AND PUSH1 0xFF AND DUP2 MSTORE PUSH1 0x20 ADD PUSH1 0x0 DUP3 ADD PUSH1 0x3 SWAP1 SLOAD SWAP1 PUSH2 0x100 EXP SWAP1 DIV PUSH1 0xFF AND PUSH1 0xFF AND PUSH1 0xFF AND DUP2 MSTORE PUSH1 0x20 ADD PUSH1 0x0 DUP3 ADD PUSH1 0x4 SWAP1 SLOAD SWAP1 PUSH2 0x100 EXP SWAP1 DIV PUSH20 0xFFFFFFFFFFFFFFFFFFFFFFFFFFFFFFFFFFFFFFFF AND PUSH20 0xFFFFFFFFFFFFFFFFFFFFFFFFFFFFFFFFFFFFFFFF AND PUSH20 0xFFFFFFFFFFFFFFFFFFFFFFFFFFFFFFFFFFFFFFFF AND DUP2 MSTORE POP POP SWAP1 POP PUSH1 0x0 PUSH1 0x3 PUSH1 0x0 SWAP1 SLOAD SWAP1 PUSH2 0x100 EXP SWAP1 DIV PUSH20 0xFFFFFFFFFFFFFFFFFFFFFFFFFFFFFFFFFFFFFFFF AND PUSH20 0xFFFFFFFFFFFFFFFFFFFFFFFFFFFFFFFFFFFFFFFF AND PUSH4 0x9188D312 PUSH1 0x8 PUSH1 0x1 ADD DUP7 PUSH1 0xFF AND DUP2 SLOAD DUP2 LT PUSH2 0x3865 JUMPI PUSH2 0x3864 PUSH2 0x5511 JUMP JUMPDEST JUMPDEST SWAP1 PUSH1 0x0 MSTORE PUSH1 0x20 PUSH1 0x0 KECCAK256 SWAP1 PUSH1 0x20 SWAP2 DUP3 DUP3 DIV ADD SWAP2 SWAP1 MOD SWAP1 SLOAD SWAP1 PUSH2 0x100 EXP SWAP1 DIV PUSH1 0xFF AND PUSH1 0x40 MLOAD DUP3 PUSH4 0xFFFFFFFF AND PUSH1 0xE0 SHL DUP2 MSTORE PUSH1 0x4 ADD PUSH2 0x38A1 SWAP2 SWAP1 PUSH2 0x4FDE JUMP JUMPDEST PUSH1 0xE0 PUSH1 0x40 MLOAD DUP1 DUP4 SUB DUP2 DUP7 DUP1 EXTCODESIZE ISZERO DUP1 ISZERO PUSH2 0x38B9 JUMPI PUSH1 0x0 DUP1 REVERT JUMPDEST POP GAS STATICCALL ISZERO DUP1 ISZERO PUSH2 0x38CD JUMPI RETURNDATASIZE PUSH1 0x0 DUP1 RETURNDATACOPY RETURNDATASIZE PUSH1 0x0 REVERT JUMPDEST POP POP POP POP PUSH1 0x40 MLOAD RETURNDATASIZE PUSH1 0x1F NOT PUSH1 0x1F DUP3 ADD AND DUP3 ADD DUP1 PUSH1 0x40 MSTORE POP DUP2 ADD SWAP1 PUSH2 0x38F1 SWAP2 SWAP1 PUSH2 0x45A7 JUMP JUMPDEST SWAP1 POP PUSH1 0x0 PUSH2 0x3E8 PUSH32 0x0 PUSH2 0xFFFF AND PUSH1 0x2 PUSH1 0x0 SWAP1 SLOAD SWAP1 PUSH2 0x100 EXP SWAP1 DIV PUSH20 0xFFFFFFFFFFFFFFFFFFFFFFFFFFFFFFFFFFFFFFFF AND PUSH20 0xFFFFFFFFFFFFFFFFFFFFFFFFFFFFFFFFFFFFFFFF AND PUSH4 0xDD62ED3E PUSH32 0x0 ADDRESS PUSH1 0x40 MLOAD DUP4 PUSH4 0xFFFFFFFF AND PUSH1 0xE0 SHL DUP2 MSTORE PUSH1 0x4 ADD PUSH2 0x399A SWAP3 SWAP2 SWAP1 PUSH2 0x4B8A JUMP JUMPDEST PUSH1 0x20 PUSH1 0x40 MLOAD DUP1 DUP4 SUB DUP2 DUP7 DUP1 EXTCODESIZE ISZERO DUP1 ISZERO PUSH2 0x39B2 JUMPI PUSH1 0x0 DUP1 REVERT JUMPDEST POP GAS STATICCALL ISZERO DUP1 ISZERO PUSH2 0x39C6 JUMPI RETURNDATASIZE PUSH1 0x0 DUP1 RETURNDATACOPY RETURNDATASIZE PUSH1 0x0 REVERT JUMPDEST POP POP POP POP PUSH1 0x40 MLOAD RETURNDATASIZE PUSH1 0x1F NOT PUSH1 0x1F DUP3 ADD AND DUP3 ADD DUP1 PUSH1 0x40 MSTORE POP DUP2 ADD SWAP1 PUSH2 0x39EA SWAP2 SWAP1 PUSH2 0x45D4 JUMP JUMPDEST PUSH2 0x39F4 SWAP2 SWAP1 PUSH2 0x5239 JUMP JUMPDEST PUSH2 0x39FE SWAP2 SWAP1 PUSH2 0x5208 JUMP JUMPDEST SWAP1 POP DUP1 PUSH1 0xB PUSH1 0x0 CALLER PUSH20 0xFFFFFFFFFFFFFFFFFFFFFFFFFFFFFFFFFFFFFFFF AND PUSH20 0xFFFFFFFFFFFFFFFFFFFFFFFFFFFFFFFFFFFFFFFF AND DUP2 MSTORE PUSH1 0x20 ADD SWAP1 DUP2 MSTORE PUSH1 0x20 ADD PUSH1 0x0 KECCAK256 SLOAD GT ISZERO PUSH2 0x3A82 JUMPI PUSH1 0x40 MLOAD PUSH32 0x8C379A000000000000000000000000000000000000000000000000000000000 DUP2 MSTORE PUSH1 0x4 ADD PUSH2 0x3A79 SWAP1 PUSH2 0x4D88 JUMP JUMPDEST PUSH1 0x40 MLOAD DUP1 SWAP2 SUB SWAP1 REVERT JUMPDEST PUSH1 0x1 DUP1 DUP2 GT ISZERO PUSH2 0x3A95 JUMPI PUSH2 0x3A94 PUSH2 0x54E2 JUMP JUMPDEST JUMPDEST DUP3 PUSH1 0x20 ADD MLOAD PUSH1 0x1 DUP2 GT ISZERO PUSH2 0x3AAC JUMPI PUSH2 0x3AAB PUSH2 0x54E2 JUMP JUMPDEST JUMPDEST EQ PUSH2 0x3AEC JUMPI PUSH1 0x40 MLOAD PUSH32 0x8C379A000000000000000000000000000000000000000000000000000000000 DUP2 MSTORE PUSH1 0x4 ADD PUSH2 0x3AE3 SWAP1 PUSH2 0x4D68 JUMP JUMPDEST PUSH1 0x40 MLOAD DUP1 SWAP2 SUB SWAP1 REVERT JUMPDEST DUP3 PUSH1 0x0 ADD MLOAD PUSH2 0x3B30 JUMPI PUSH1 0x40 MLOAD PUSH32 0x8C379A000000000000000000000000000000000000000000000000000000000 DUP2 MSTORE PUSH1 0x4 ADD PUSH2 0x3B27 SWAP1 PUSH2 0x4F08 JUMP JUMPDEST PUSH1 0x40 MLOAD DUP1 SWAP2 SUB SWAP1 REVERT JUMPDEST CALLER PUSH20 0xFFFFFFFFFFFFFFFFFFFFFFFFFFFFFFFFFFFFFFFF AND DUP4 PUSH1 0x80 ADD MLOAD PUSH20 0xFFFFFFFFFFFFFFFFFFFFFFFFFFFFFFFFFFFFFFFF AND EQ PUSH2 0x3BA2 JUMPI PUSH1 0x40 MLOAD PUSH32 0x8C379A000000000000000000000000000000000000000000000000000000000 DUP2 MSTORE PUSH1 0x4 ADD PUSH2 0x3B99 SWAP1 PUSH2 0x4EE8 JUMP JUMPDEST PUSH1 0x40 MLOAD DUP1 SWAP2 SUB SWAP1 REVERT JUMPDEST PUSH1 0x5 DUP2 PUSH2 0x3BAF SWAP2 SWAP1 PUSH2 0x5208 JUMP JUMPDEST PUSH1 0xB PUSH1 0x0 CALLER PUSH20 0xFFFFFFFFFFFFFFFFFFFFFFFFFFFFFFFFFFFFFFFF AND PUSH20 0xFFFFFFFFFFFFFFFFFFFFFFFFFFFFFFFFFFFFFFFF AND DUP2 MSTORE PUSH1 0x20 ADD SWAP1 DUP2 MSTORE PUSH1 0x20 ADD PUSH1 0x0 KECCAK256 PUSH1 0x0 DUP3 DUP3 SLOAD PUSH2 0x3BFD SWAP2 SWAP1 PUSH2 0x517B JUMP JUMPDEST SWAP3 POP POP DUP2 SWAP1 SSTORE POP PUSH1 0x3 DUP3 PUSH1 0xC0 ADD MLOAD PUSH2 0x3C15 SWAP2 SWAP1 PUSH2 0x5293 JUMP JUMPDEST PUSH1 0xC DUP6 PUSH1 0x0 ADD PUSH1 0x20 DUP2 ADD SWAP1 PUSH2 0x3C2A SWAP2 SWAP1 PUSH2 0x4641 JUMP JUMPDEST PUSH1 0xFF AND DUP2 SLOAD DUP2 LT PUSH2 0x3C3E JUMPI PUSH2 0x3C3D PUSH2 0x5511 JUMP JUMPDEST JUMPDEST SWAP1 PUSH1 0x0 MSTORE PUSH1 0x20 PUSH1 0x0 KECCAK256 ADD DUP6 PUSH1 0x20 ADD PUSH1 0x20 DUP2 ADD SWAP1 PUSH2 0x3C5B SWAP2 SWAP1 PUSH2 0x4641 JUMP JUMPDEST PUSH1 0xFF AND DUP2 SLOAD DUP2 LT PUSH2 0x3C6F JUMPI PUSH2 0x3C6E PUSH2 0x5511 JUMP JUMPDEST JUMPDEST SWAP1 PUSH1 0x0 MSTORE PUSH1 0x20 PUSH1 0x0 KECCAK256 ADD PUSH1 0x0 ADD PUSH1 0x2 DUP3 DUP3 DUP3 SWAP1 SLOAD SWAP1 PUSH2 0x100 EXP SWAP1 DIV PUSH1 0xFF AND PUSH2 0x3C97 SWAP2 SWAP1 PUSH2 0x51D1 JUMP JUMPDEST SWAP3 POP PUSH2 0x100 EXP DUP2 SLOAD DUP2 PUSH1 0xFF MUL NOT AND SWAP1 DUP4 PUSH1 0xFF AND MUL OR SWAP1 SSTORE POP PUSH32 0xB66F84BE78126463140B4FCD1F22EBE400BB165705BBFDD215781A0A0678660E DUP5 PUSH1 0x0 ADD PUSH1 0x20 DUP2 ADD SWAP1 PUSH2 0x3CE3 SWAP2 SWAP1 PUSH2 0x4641 JUMP JUMPDEST DUP6 PUSH1 0x20 ADD PUSH1 0x20 DUP2 ADD SWAP1 PUSH2 0x3CF6 SWAP2 SWAP1 PUSH2 0x4641 JUMP JUMPDEST PUSH1 0x3 DUP6 PUSH1 0xC0 ADD MLOAD PUSH2 0x3D07 SWAP2 SWAP1 PUSH2 0x5293 JUMP JUMPDEST PUSH1 0x40 MLOAD PUSH2 0x3D16 SWAP4 SWAP3 SWAP2 SWAP1 PUSH2 0x503D JUMP JUMPDEST PUSH1 0x40 MLOAD DUP1 SWAP2 SUB SWAP1 LOG1 POP POP POP POP POP JUMP JUMPDEST PUSH1 0x0 PUSH1 0x2 PUSH1 0x0 SWAP1 SLOAD SWAP1 PUSH2 0x100 EXP SWAP1 DIV PUSH20 0xFFFFFFFFFFFFFFFFFFFFFFFFFFFFFFFFFFFFFFFF AND PUSH20 0xFFFFFFFFFFFFFFFFFFFFFFFFFFFFFFFFFFFFFFFF AND PUSH4 0xDD62ED3E PUSH32 0x0 ADDRESS PUSH1 0x40 MLOAD DUP4 PUSH4 0xFFFFFFFF AND PUSH1 0xE0 SHL DUP2 MSTORE PUSH1 0x4 ADD PUSH2 0x3DA4 SWAP3 SWAP2 SWAP1 PUSH2 0x4B8A JUMP JUMPDEST PUSH1 0x20 PUSH1 0x40 MLOAD DUP1 DUP4 SUB DUP2 DUP7 DUP1 EXTCODESIZE ISZERO DUP1 ISZERO PUSH2 0x3DBC JUMPI PUSH1 0x0 DUP1 REVERT JUMPDEST POP GAS STATICCALL ISZERO DUP1 ISZERO PUSH2 0x3DD0 JUMPI RETURNDATASIZE PUSH1 0x0 DUP1 RETURNDATACOPY RETURNDATASIZE PUSH1 0x0 REVERT JUMPDEST POP POP POP POP PUSH1 0x40 MLOAD RETURNDATASIZE PUSH1 0x1F NOT PUSH1 0x1F DUP3 ADD AND DUP3 ADD DUP1 PUSH1 0x40 MSTORE POP DUP2 ADD SWAP1 PUSH2 0x3DF4 SWAP2 SWAP1 PUSH2 0x45D4 JUMP JUMPDEST SWAP1 POP PUSH1 0x2 PUSH1 0x0 SWAP1 SLOAD SWAP1 PUSH2 0x100 EXP SWAP1 DIV PUSH20 0xFFFFFFFFFFFFFFFFFFFFFFFFFFFFFFFFFFFFFFFF AND PUSH20 0xFFFFFFFFFFFFFFFFFFFFFFFFFFFFFFFFFFFFFFFF AND PUSH4 0x23B872DD PUSH32 0x0 DUP6 PUSH1 0xB PUSH1 0x0 DUP9 PUSH20 0xFFFFFFFFFFFFFFFFFFFFFFFFFFFFFFFFFFFFFFFF AND PUSH20 0xFFFFFFFFFFFFFFFFFFFFFFFFFFFFFFFFFFFFFFFF AND DUP2 MSTORE PUSH1 0x20 ADD SWAP1 DUP2 MSTORE PUSH1 0x20 ADD PUSH1 0x0 KECCAK256 SLOAD PUSH2 0x3E8 PUSH32 0x0 PUSH2 0xFFFF AND DUP8 PUSH2 0x3EC9 SWAP2 SWAP1 PUSH2 0x5239 JUMP JUMPDEST PUSH2 0x3ED3 SWAP2 SWAP1 PUSH2 0x5208 JUMP JUMPDEST PUSH2 0x3EDD SWAP2 SWAP1 PUSH2 0x5302 JUMP JUMPDEST PUSH1 0x40 MLOAD DUP5 PUSH4 0xFFFFFFFF AND PUSH1 0xE0 SHL DUP2 MSTORE PUSH1 0x4 ADD PUSH2 0x3EFB SWAP4 SWAP3 SWAP2 SWAP1 PUSH2 0x4BB3 JUMP JUMPDEST PUSH1 0x20 PUSH1 0x40 MLOAD DUP1 DUP4 SUB DUP2 PUSH1 0x0 DUP8 DUP1 EXTCODESIZE ISZERO DUP1 ISZERO PUSH2 0x3F15 JUMPI PUSH1 0x0 DUP1 REVERT JUMPDEST POP GAS CALL ISZERO DUP1 ISZERO PUSH2 0x3F29 JUMPI RETURNDATASIZE PUSH1 0x0 DUP1 RETURNDATACOPY RETURNDATASIZE PUSH1 0x0 REVERT JUMPDEST POP POP POP POP PUSH1 0x40 MLOAD RETURNDATASIZE PUSH1 0x1F NOT PUSH1 0x1F DUP3 ADD AND DUP3 ADD DUP1 PUSH1 0x40 MSTORE POP DUP2 ADD SWAP1 PUSH2 0x3F4D SWAP2 SWAP1 PUSH2 0x454D JUMP JUMPDEST PUSH2 0x3F8C JUMPI PUSH1 0x40 MLOAD PUSH32 0x8C379A000000000000000000000000000000000000000000000000000000000 DUP2 MSTORE PUSH1 0x4 ADD PUSH2 0x3F83 SWAP1 PUSH2 0x4EC8 JUMP JUMPDEST PUSH1 0x40 MLOAD DUP1 SWAP2 SUB SWAP1 REVERT JUMPDEST PUSH1 0x2 PUSH1 0x0 SWAP1 SLOAD SWAP1 PUSH2 0x100 EXP SWAP1 DIV PUSH20 0xFFFFFFFFFFFFFFFFFFFFFFFFFFFFFFFFFFFFFFFF AND PUSH20 0xFFFFFFFFFFFFFFFFFFFFFFFFFFFFFFFFFFFFFFFF AND PUSH4 0x23B872DD PUSH32 0x0 PUSH32 0x0 PUSH2 0x3E8 PUSH32 0x0 PUSH2 0xFFFF AND DUP7 PUSH2 0x403F SWAP2 SWAP1 PUSH2 0x5239 JUMP JUMPDEST PUSH2 0x4049 SWAP2 SWAP1 PUSH2 0x5208 JUMP JUMPDEST PUSH1 0x40 MLOAD DUP5 PUSH4 0xFFFFFFFF AND PUSH1 0xE0 SHL DUP2 MSTORE PUSH1 0x4 ADD PUSH2 0x4067 SWAP4 SWAP3 SWAP2 SWAP1 PUSH2 0x4BB3 JUMP JUMPDEST PUSH1 0x20 PUSH1 0x40 MLOAD DUP1 DUP4 SUB DUP2 PUSH1 0x0 DUP8 DUP1 EXTCODESIZE ISZERO DUP1 ISZERO PUSH2 0x4081 JUMPI PUSH1 0x0 DUP1 REVERT JUMPDEST POP GAS CALL ISZERO DUP1 ISZERO PUSH2 0x4095 JUMPI RETURNDATASIZE PUSH1 0x0 DUP1 RETURNDATACOPY RETURNDATASIZE PUSH1 0x0 REVERT JUMPDEST POP POP POP POP PUSH1 0x40 MLOAD RETURNDATASIZE PUSH1 0x1F NOT PUSH1 0x1F DUP3 ADD AND DUP3 ADD DUP1 PUSH1 0x40 MSTORE POP DUP2 ADD SWAP1 PUSH2 0x40B9 SWAP2 SWAP1 PUSH2 0x454D JUMP JUMPDEST PUSH2 0x40F8 JUMPI PUSH1 0x40 MLOAD PUSH32 0x8C379A000000000000000000000000000000000000000000000000000000000 DUP2 MSTORE PUSH1 0x4 ADD PUSH2 0x40EF SWAP1 PUSH2 0x4F48 JUMP JUMPDEST PUSH1 0x40 MLOAD DUP1 SWAP2 SUB SWAP1 REVERT JUMPDEST PUSH1 0x1 PUSH1 0x0 SWAP1 SLOAD SWAP1 PUSH2 0x100 EXP SWAP1 DIV PUSH20 0xFFFFFFFFFFFFFFFFFFFFFFFFFFFFFFFFFFFFFFFF AND PUSH20 0xFFFFFFFFFFFFFFFFFFFFFFFFFFFFFFFFFFFFFFFF AND PUSH4 0x40C10F19 DUP5 PUSH1 0xA PUSH1 0x40 MLOAD DUP4 PUSH4 0xFFFFFFFF AND PUSH1 0xE0 SHL DUP2 MSTORE PUSH1 0x4 ADD PUSH2 0x4156 SWAP3 SWAP2 SWAP1 PUSH2 0x4BEA JUMP JUMPDEST PUSH1 0x0 PUSH1 0x40 MLOAD DUP1 DUP4 SUB DUP2 PUSH1 0x0 DUP8 DUP1 EXTCODESIZE ISZERO DUP1 ISZERO PUSH2 0x4170 JUMPI PUSH1 0x0 DUP1 REVERT JUMPDEST POP GAS CALL ISZERO DUP1 ISZERO PUSH2 0x4184 JUMPI RETURNDATASIZE PUSH1 0x0 DUP1 RETURNDATACOPY RETURNDATASIZE PUSH1 0x0 REVERT JUMPDEST POP POP POP POP PUSH1 0x1 PUSH1 0x0 SWAP1 SLOAD SWAP1 PUSH2 0x100 EXP SWAP1 DIV PUSH20 0xFFFFFFFFFFFFFFFFFFFFFFFFFFFFFFFFFFFFFFFF AND PUSH20 0xFFFFFFFFFFFFFFFFFFFFFFFFFFFFFFFFFFFFFFFF AND PUSH4 0x40C10F19 DUP4 PUSH1 0x2 PUSH1 0x40 MLOAD DUP4 PUSH4 0xFFFFFFFF AND PUSH1 0xE0 SHL DUP2 MSTORE PUSH1 0x4 ADD PUSH2 0x41E6 SWAP3 SWAP2 SWAP1 PUSH2 0x4BEA JUMP JUMPDEST PUSH1 0x0 PUSH1 0x40 MLOAD DUP1 DUP4 SUB DUP2 PUSH1 0x0 DUP8 DUP1 EXTCODESIZE ISZERO DUP1 ISZERO PUSH2 0x4200 JUMPI PUSH1 0x0 DUP1 REVERT JUMPDEST POP GAS CALL ISZERO DUP1 ISZERO PUSH2 0x4214 JUMPI RETURNDATASIZE PUSH1 0x0 DUP1 RETURNDATACOPY RETURNDATASIZE PUSH1 0x0 REVERT JUMPDEST POP POP POP POP PUSH32 0x1728DD43546EDD06FABFE796E5B641A151AA90998BFD1B1EC0AE98C6E7708459 DUP4 PUSH1 0x40 MLOAD PUSH2 0x4247 SWAP2 SWAP1 PUSH2 0x4B6F JUMP JUMPDEST PUSH1 0x40 MLOAD DUP1 SWAP2 SUB SWAP1 LOG1 POP POP POP JUMP JUMPDEST PUSH1 0x40 MLOAD DUP1 PUSH1 0xA0 ADD PUSH1 0x40 MSTORE DUP1 PUSH1 0x0 ISZERO ISZERO DUP2 MSTORE PUSH1 0x20 ADD PUSH1 0x0 PUSH1 0xFF AND DUP2 MSTORE PUSH1 0x20 ADD PUSH1 0x0 PUSH1 0xFF AND DUP2 MSTORE PUSH1 0x20 ADD PUSH1 0x0 PUSH1 0xFF AND DUP2 MSTORE PUSH1 0x20 ADD PUSH1 0x0 PUSH20 0xFFFFFFFFFFFFFFFFFFFFFFFFFFFFFFFFFFFFFFFF AND DUP2 MSTORE POP SWAP1 JUMP JUMPDEST DUP3 DUP1 SLOAD DUP3 DUP3 SSTORE SWAP1 PUSH1 0x0 MSTORE PUSH1 0x20 PUSH1 0x0 KECCAK256 SWAP1 PUSH1 0x1F ADD PUSH1 0x20 SWAP1 DIV DUP2 ADD SWAP3 DUP3 ISZERO PUSH2 0x42F3 JUMPI PUSH1 0x0 MSTORE PUSH1 0x20 PUSH1 0x0 KECCAK256 SWAP2 PUSH1 0x1F ADD PUSH1 0x20 SWAP1 DIV DUP3 ADD JUMPDEST DUP3 DUP2 GT ISZERO PUSH2 0x42F2 JUMPI DUP3 SLOAD DUP3 SSTORE SWAP2 PUSH1 0x1 ADD SWAP2 SWAP1 PUSH1 0x1 ADD SWAP1 PUSH2 0x42D7 JUMP JUMPDEST JUMPDEST POP SWAP1 POP PUSH2 0x4300 SWAP2 SWAP1 PUSH2 0x4304 JUMP JUMPDEST POP SWAP1 JUMP JUMPDEST JUMPDEST DUP1 DUP3 GT ISZERO PUSH2 0x431D JUMPI PUSH1 0x0 DUP2 PUSH1 0x0 SWAP1 SSTORE POP PUSH1 0x1 ADD PUSH2 0x4305 JUMP JUMPDEST POP SWAP1 JUMP JUMPDEST PUSH1 0x0 DUP2 CALLDATALOAD SWAP1 POP PUSH2 0x4330 DUP2 PUSH2 0x599F JUMP JUMPDEST SWAP3 SWAP2 POP POP JUMP JUMPDEST PUSH1 0x0 DUP1 DUP4 PUSH1 0x1F DUP5 ADD SLT PUSH2 0x434C JUMPI PUSH2 0x434B PUSH2 0x5574 JUMP JUMPDEST JUMPDEST DUP3 CALLDATALOAD SWAP1 POP PUSH8 0xFFFFFFFFFFFFFFFF DUP2 GT ISZERO PUSH2 0x4369 JUMPI PUSH2 0x4368 PUSH2 0x556F JUMP JUMPDEST JUMPDEST PUSH1 0x20 DUP4 ADD SWAP2 POP DUP4 PUSH1 0xC0 DUP3 MUL DUP4 ADD GT ISZERO PUSH2 0x4385 JUMPI PUSH2 0x4384 PUSH2 0x557E JUMP JUMPDEST JUMPDEST SWAP3 POP SWAP3 SWAP1 POP JUMP JUMPDEST PUSH1 0x0 DUP2 MLOAD SWAP1 POP PUSH2 0x439B DUP2 PUSH2 0x59B6 JUMP JUMPDEST SWAP3 SWAP2 POP POP JUMP JUMPDEST PUSH1 0x0 DUP2 MLOAD SWAP1 POP PUSH2 0x43B0 DUP2 PUSH2 0x59CD JUMP JUMPDEST SWAP3 SWAP2 POP POP JUMP JUMPDEST PUSH1 0x0 DUP2 CALLDATALOAD SWAP1 POP PUSH2 0x43C5 DUP2 PUSH2 0x59DD JUMP JUMPDEST SWAP3 SWAP2 POP POP JUMP JUMPDEST PUSH1 0x0 PUSH1 0xE0 DUP3 DUP5 SUB SLT ISZERO PUSH2 0x43E1 JUMPI PUSH2 0x43E0 PUSH2 0x5579 JUMP JUMPDEST JUMPDEST PUSH2 0x43EB PUSH1 0xE0 PUSH2 0x510C JUMP JUMPDEST SWAP1 POP PUSH1 0x0 PUSH2 0x43FB DUP5 DUP3 DUP6 ADD PUSH2 0x438C JUMP JUMPDEST PUSH1 0x0 DUP4 ADD MSTORE POP PUSH1 0x20 PUSH2 0x440F DUP5 DUP3 DUP6 ADD PUSH2 0x43A1 JUMP JUMPDEST PUSH1 0x20 DUP4 ADD MSTORE POP PUSH1 0x40 PUSH2 0x4423 DUP5 DUP3 DUP6 ADD PUSH2 0x44BE JUMP JUMPDEST PUSH1 0x40 DUP4 ADD MSTORE POP PUSH1 0x60 PUSH2 0x4437 DUP5 DUP3 DUP6 ADD PUSH2 0x44BE JUMP JUMPDEST PUSH1 0x60 DUP4 ADD MSTORE POP PUSH1 0x80 PUSH2 0x444B DUP5 DUP3 DUP6 ADD PUSH2 0x44BE JUMP JUMPDEST PUSH1 0x80 DUP4 ADD MSTORE POP PUSH1 0xA0 PUSH2 0x445F DUP5 DUP3 DUP6 ADD PUSH2 0x44BE JUMP JUMPDEST PUSH1 0xA0 DUP4 ADD MSTORE POP PUSH1 0xC0 PUSH2 0x4473 DUP5 DUP3 DUP6 ADD PUSH2 0x44BE JUMP JUMPDEST PUSH1 0xC0 DUP4 ADD MSTORE POP SWAP3 SWAP2 POP POP JUMP JUMPDEST PUSH1 0x0 DUP2 CALLDATALOAD SWAP1 POP PUSH2 0x448E DUP2 PUSH2 0x59ED JUMP JUMPDEST SWAP3 SWAP2 POP POP JUMP JUMPDEST PUSH1 0x0 DUP2 MLOAD SWAP1 POP PUSH2 0x44A3 DUP2 PUSH2 0x59ED JUMP JUMPDEST SWAP3 SWAP2 POP POP JUMP JUMPDEST PUSH1 0x0 DUP2 CALLDATALOAD SWAP1 POP PUSH2 0x44B8 DUP2 PUSH2 0x5A04 JUMP JUMPDEST SWAP3 SWAP2 POP POP JUMP JUMPDEST PUSH1 0x0 DUP2 MLOAD SWAP1 POP PUSH2 0x44CD DUP2 PUSH2 0x5A04 JUMP JUMPDEST SWAP3 SWAP2 POP POP JUMP JUMPDEST PUSH1 0x0 PUSH1 0x20 DUP3 DUP5 SUB SLT ISZERO PUSH2 0x44E9 JUMPI PUSH2 0x44E8 PUSH2 0x5588 JUMP JUMPDEST JUMPDEST PUSH1 0x0 PUSH2 0x44F7 DUP5 DUP3 DUP6 ADD PUSH2 0x4321 JUMP JUMPDEST SWAP2 POP POP SWAP3 SWAP2 POP POP JUMP JUMPDEST PUSH1 0x0 DUP1 PUSH1 0x20 DUP4 DUP6 SUB SLT ISZERO PUSH2 0x4517 JUMPI PUSH2 0x4516 PUSH2 0x5588 JUMP JUMPDEST JUMPDEST PUSH1 0x0 DUP4 ADD CALLDATALOAD PUSH8 0xFFFFFFFFFFFFFFFF DUP2 GT ISZERO PUSH2 0x4535 JUMPI PUSH2 0x4534 PUSH2 0x5583 JUMP JUMPDEST JUMPDEST PUSH2 0x4541 DUP6 DUP3 DUP7 ADD PUSH2 0x4336 JUMP JUMPDEST SWAP3 POP SWAP3 POP POP SWAP3 POP SWAP3 SWAP1 POP JUMP JUMPDEST PUSH1 0x0 PUSH1 0x20 DUP3 DUP5 SUB SLT ISZERO PUSH2 0x4563 JUMPI PUSH2 0x4562 PUSH2 0x5588 JUMP JUMPDEST JUMPDEST PUSH1 0x0 PUSH2 0x4571 DUP5 DUP3 DUP6 ADD PUSH2 0x438C JUMP JUMPDEST SWAP2 POP POP SWAP3 SWAP2 POP POP JUMP JUMPDEST PUSH1 0x0 PUSH1 0x20 DUP3 DUP5 SUB SLT ISZERO PUSH2 0x4590 JUMPI PUSH2 0x458F PUSH2 0x5588 JUMP JUMPDEST JUMPDEST PUSH1 0x0 PUSH2 0x459E DUP5 DUP3 DUP6 ADD PUSH2 0x43B6 JUMP JUMPDEST SWAP2 POP POP SWAP3 SWAP2 POP POP JUMP JUMPDEST PUSH1 0x0 PUSH1 0xE0 DUP3 DUP5 SUB SLT ISZERO PUSH2 0x45BD JUMPI PUSH2 0x45BC PUSH2 0x5588 JUMP JUMPDEST JUMPDEST PUSH1 0x0 PUSH2 0x45CB DUP5 DUP3 DUP6 ADD PUSH2 0x43CB JUMP JUMPDEST SWAP2 POP POP SWAP3 SWAP2 POP POP JUMP JUMPDEST PUSH1 0x0 PUSH1 0x20 DUP3 DUP5 SUB SLT ISZERO PUSH2 0x45EA JUMPI PUSH2 0x45E9 PUSH2 0x5588 JUMP JUMPDEST JUMPDEST PUSH1 0x0 PUSH2 0x45F8 DUP5 DUP3 DUP6 ADD PUSH2 0x4494 JUMP JUMPDEST SWAP2 POP POP SWAP3 SWAP2 POP POP JUMP JUMPDEST PUSH1 0x0 DUP1 PUSH1 0x40 DUP4 DUP6 SUB SLT ISZERO PUSH2 0x4618 JUMPI PUSH2 0x4617 PUSH2 0x5588 JUMP JUMPDEST JUMPDEST PUSH1 0x0 PUSH2 0x4626 DUP6 DUP3 DUP7 ADD PUSH2 0x447F JUMP JUMPDEST SWAP3 POP POP PUSH1 0x20 PUSH2 0x4637 DUP6 DUP3 DUP7 ADD PUSH2 0x447F JUMP JUMPDEST SWAP2 POP POP SWAP3 POP SWAP3 SWAP1 POP JUMP JUMPDEST PUSH1 0x0 PUSH1 0x20 DUP3 DUP5 SUB SLT ISZERO PUSH2 0x4657 JUMPI PUSH2 0x4656 PUSH2 0x5588 JUMP JUMPDEST JUMPDEST PUSH1 0x0 PUSH2 0x4665 DUP5 DUP3 DUP6 ADD PUSH2 0x44A9 JUMP JUMPDEST SWAP2 POP POP SWAP3 SWAP2 POP POP JUMP JUMPDEST PUSH1 0x0 DUP1 PUSH1 0x40 DUP4 DUP6 SUB SLT ISZERO PUSH2 0x4685 JUMPI PUSH2 0x4684 PUSH2 0x5588 JUMP JUMPDEST JUMPDEST PUSH1 0x0 PUSH2 0x4693 DUP6 DUP3 DUP7 ADD PUSH2 0x44A9 JUMP JUMPDEST SWAP3 POP POP PUSH1 0x20 PUSH2 0x46A4 DUP6 DUP3 DUP7 ADD PUSH2 0x44A9 JUMP JUMPDEST SWAP2 POP POP SWAP3 POP SWAP3 SWAP1 POP JUMP JUMPDEST PUSH1 0x0 PUSH2 0x46BA DUP4 DUP4 PUSH2 0x4B51 JUMP JUMPDEST PUSH1 0x20 DUP4 ADD SWAP1 POP SWAP3 SWAP2 POP POP JUMP JUMPDEST PUSH2 0x46CF DUP2 PUSH2 0x536A JUMP JUMPDEST DUP3 MSTORE POP POP JUMP JUMPDEST PUSH2 0x46DE DUP2 PUSH2 0x536A JUMP JUMPDEST DUP3 MSTORE POP POP JUMP JUMPDEST PUSH1 0x0 PUSH2 0x46EF DUP3 PUSH2 0x5141 JUMP JUMPDEST PUSH2 0x46F9 DUP2 DUP6 PUSH2 0x5159 JUMP JUMPDEST SWAP4 POP PUSH2 0x4704 DUP4 PUSH2 0x5131 JUMP JUMPDEST DUP1 PUSH1 0x0 JUMPDEST DUP4 DUP2 LT ISZERO PUSH2 0x4735 JUMPI DUP2 MLOAD PUSH2 0x471C DUP9 DUP3 PUSH2 0x46AE JUMP JUMPDEST SWAP8 POP PUSH2 0x4727 DUP4 PUSH2 0x514C JUMP JUMPDEST SWAP3 POP POP PUSH1 0x1 DUP2 ADD SWAP1 POP PUSH2 0x4708 JUMP JUMPDEST POP DUP6 SWAP4 POP POP POP POP SWAP3 SWAP2 POP POP JUMP JUMPDEST PUSH2 0x474B DUP2 PUSH2 0x537C JUMP JUMPDEST DUP3 MSTORE POP POP JUMP JUMPDEST PUSH2 0x475A DUP2 PUSH2 0x537C JUMP JUMPDEST DUP3 MSTORE POP POP JUMP JUMPDEST PUSH1 0x0 PUSH2 0x476D PUSH1 0x11 DUP4 PUSH2 0x516A JUMP JUMPDEST SWAP2 POP PUSH2 0x4778 DUP3 PUSH2 0x559E JUMP JUMPDEST PUSH1 0x20 DUP3 ADD SWAP1 POP SWAP2 SWAP1 POP JUMP JUMPDEST PUSH1 0x0 PUSH2 0x4790 PUSH1 0xE DUP4 PUSH2 0x516A JUMP JUMPDEST SWAP2 POP PUSH2 0x479B DUP3 PUSH2 0x55C7 JUMP JUMPDEST PUSH1 0x20 DUP3 ADD SWAP1 POP SWAP2 SWAP1 POP JUMP JUMPDEST PUSH1 0x0 PUSH2 0x47B3 PUSH1 0x1C DUP4 PUSH2 0x516A JUMP JUMPDEST SWAP2 POP PUSH2 0x47BE DUP3 PUSH2 0x55F0 JUMP JUMPDEST PUSH1 0x20 DUP3 ADD SWAP1 POP SWAP2 SWAP1 POP JUMP JUMPDEST PUSH1 0x0 PUSH2 0x47D6 PUSH1 0x1A DUP4 PUSH2 0x516A JUMP JUMPDEST SWAP2 POP PUSH2 0x47E1 DUP3 PUSH2 0x5619 JUMP JUMPDEST PUSH1 0x20 DUP3 ADD SWAP1 POP SWAP2 SWAP1 POP JUMP JUMPDEST PUSH1 0x0 PUSH2 0x47F9 PUSH1 0xE DUP4 PUSH2 0x516A JUMP JUMPDEST SWAP2 POP PUSH2 0x4804 DUP3 PUSH2 0x5642 JUMP JUMPDEST PUSH1 0x20 DUP3 ADD SWAP1 POP SWAP2 SWAP1 POP JUMP JUMPDEST PUSH1 0x0 PUSH2 0x481C PUSH1 0x14 DUP4 PUSH2 0x516A JUMP JUMPDEST SWAP2 POP PUSH2 0x4827 DUP3 PUSH2 0x566B JUMP JUMPDEST PUSH1 0x20 DUP3 ADD SWAP1 POP SWAP2 SWAP1 POP JUMP JUMPDEST PUSH1 0x0 PUSH2 0x483F PUSH1 0x13 DUP4 PUSH2 0x516A JUMP JUMPDEST SWAP2 POP PUSH2 0x484A DUP3 PUSH2 0x5694 JUMP JUMPDEST PUSH1 0x20 DUP3 ADD SWAP1 POP SWAP2 SWAP1 POP JUMP JUMPDEST PUSH1 0x0 PUSH2 0x4862 PUSH1 0xF DUP4 PUSH2 0x516A JUMP JUMPDEST SWAP2 POP PUSH2 0x486D DUP3 PUSH2 0x56BD JUMP JUMPDEST PUSH1 0x20 DUP3 ADD SWAP1 POP SWAP2 SWAP1 POP JUMP JUMPDEST PUSH1 0x0 PUSH2 0x4885 PUSH1 0x20 DUP4 PUSH2 0x516A JUMP JUMPDEST SWAP2 POP PUSH2 0x4890 DUP3 PUSH2 0x56E6 JUMP JUMPDEST PUSH1 0x20 DUP3 ADD SWAP1 POP SWAP2 SWAP1 POP JUMP JUMPDEST PUSH1 0x0 PUSH2 0x48A8 PUSH1 0x14 DUP4 PUSH2 0x516A JUMP JUMPDEST SWAP2 POP PUSH2 0x48B3 DUP3 PUSH2 0x570F JUMP JUMPDEST PUSH1 0x20 DUP3 ADD SWAP1 POP SWAP2 SWAP1 POP JUMP JUMPDEST PUSH1 0x0 PUSH2 0x48CB PUSH1 0x16 DUP4 PUSH2 0x516A JUMP JUMPDEST SWAP2 POP PUSH2 0x48D6 DUP3 PUSH2 0x5738 JUMP JUMPDEST PUSH1 0x20 DUP3 ADD SWAP1 POP SWAP2 SWAP1 POP JUMP JUMPDEST PUSH1 0x0 PUSH2 0x48EE PUSH1 0x13 DUP4 PUSH2 0x516A JUMP JUMPDEST SWAP2 POP PUSH2 0x48F9 DUP3 PUSH2 0x5761 JUMP JUMPDEST PUSH1 0x20 DUP3 ADD SWAP1 POP SWAP2 SWAP1 POP JUMP JUMPDEST PUSH1 0x0 PUSH2 0x4911 PUSH1 0x11 DUP4 PUSH2 0x516A JUMP JUMPDEST SWAP2 POP PUSH2 0x491C DUP3 PUSH2 0x578A JUMP JUMPDEST PUSH1 0x20 DUP3 ADD SWAP1 POP SWAP2 SWAP1 POP JUMP JUMPDEST PUSH1 0x0 PUSH2 0x4934 PUSH1 0x13 DUP4 PUSH2 0x516A JUMP JUMPDEST SWAP2 POP PUSH2 0x493F DUP3 PUSH2 0x57B3 JUMP JUMPDEST PUSH1 0x20 DUP3 ADD SWAP1 POP SWAP2 SWAP1 POP JUMP JUMPDEST PUSH1 0x0 PUSH2 0x4957 PUSH1 0x10 DUP4 PUSH2 0x516A JUMP JUMPDEST SWAP2 POP PUSH2 0x4962 DUP3 PUSH2 0x57DC JUMP JUMPDEST PUSH1 0x20 DUP3 ADD SWAP1 POP SWAP2 SWAP1 POP JUMP JUMPDEST PUSH1 0x0 PUSH2 0x497A PUSH1 0x14 DUP4 PUSH2 0x516A JUMP JUMPDEST SWAP2 POP PUSH2 0x4985 DUP3 PUSH2 0x5805 JUMP JUMPDEST PUSH1 0x20 DUP3 ADD SWAP1 POP SWAP2 SWAP1 POP JUMP JUMPDEST PUSH1 0x0 PUSH2 0x499D PUSH1 0x1A DUP4 PUSH2 0x516A JUMP JUMPDEST SWAP2 POP PUSH2 0x49A8 DUP3 PUSH2 0x582E JUMP JUMPDEST PUSH1 0x20 DUP3 ADD SWAP1 POP SWAP2 SWAP1 POP JUMP JUMPDEST PUSH1 0x0 PUSH2 0x49C0 PUSH1 0x11 DUP4 PUSH2 0x516A JUMP JUMPDEST SWAP2 POP PUSH2 0x49CB DUP3 PUSH2 0x5857 JUMP JUMPDEST PUSH1 0x20 DUP3 ADD SWAP1 POP SWAP2 SWAP1 POP JUMP JUMPDEST PUSH1 0x0 PUSH2 0x49E3 PUSH1 0x15 DUP4 PUSH2 0x516A JUMP JUMPDEST SWAP2 POP PUSH2 0x49EE DUP3 PUSH2 0x5880 JUMP JUMPDEST PUSH1 0x20 DUP3 ADD SWAP1 POP SWAP2 SWAP1 POP JUMP JUMPDEST PUSH1 0x0 PUSH2 0x4A06 PUSH1 0x15 DUP4 PUSH2 0x516A JUMP JUMPDEST SWAP2 POP PUSH2 0x4A11 DUP3 PUSH2 0x58A9 JUMP JUMPDEST PUSH1 0x20 DUP3 ADD SWAP1 POP SWAP2 SWAP1 POP JUMP JUMPDEST PUSH1 0x0 PUSH2 0x4A29 PUSH1 0x14 DUP4 PUSH2 0x516A JUMP JUMPDEST SWAP2 POP PUSH2 0x4A34 DUP3 PUSH2 0x58D2 JUMP JUMPDEST PUSH1 0x20 DUP3 ADD SWAP1 POP SWAP2 SWAP1 POP JUMP JUMPDEST PUSH1 0x0 PUSH2 0x4A4C PUSH1 0x10 DUP4 PUSH2 0x516A JUMP JUMPDEST SWAP2 POP PUSH2 0x4A57 DUP3 PUSH2 0x58FB JUMP JUMPDEST PUSH1 0x20 DUP3 ADD SWAP1 POP SWAP2 SWAP1 POP JUMP JUMPDEST PUSH1 0x0 PUSH2 0x4A6F PUSH1 0x1A DUP4 PUSH2 0x516A JUMP JUMPDEST SWAP2 POP PUSH2 0x4A7A DUP3 PUSH2 0x5924 JUMP JUMPDEST PUSH1 0x20 DUP3 ADD SWAP1 POP SWAP2 SWAP1 POP JUMP JUMPDEST PUSH1 0x0 PUSH2 0x4A92 PUSH1 0x16 DUP4 PUSH2 0x516A JUMP JUMPDEST SWAP2 POP PUSH2 0x4A9D DUP3 PUSH2 0x594D JUMP JUMPDEST PUSH1 0x20 DUP3 ADD SWAP1 POP SWAP2 SWAP1 POP JUMP JUMPDEST PUSH1 0x0 PUSH2 0x4AB5 PUSH1 0x15 DUP4 PUSH2 0x516A JUMP JUMPDEST SWAP2 POP PUSH2 0x4AC0 DUP3 PUSH2 0x5976 JUMP JUMPDEST PUSH1 0x20 DUP3 ADD SWAP1 POP SWAP2 SWAP1 POP JUMP JUMPDEST PUSH1 0xA0 DUP3 ADD PUSH1 0x0 DUP3 ADD MLOAD PUSH2 0x4AE1 PUSH1 0x0 DUP6 ADD DUP3 PUSH2 0x4742 JUMP JUMPDEST POP PUSH1 0x20 DUP3 ADD MLOAD PUSH2 0x4AF4 PUSH1 0x20 DUP6 ADD DUP3 PUSH2 0x4B51 JUMP JUMPDEST POP PUSH1 0x40 DUP3 ADD MLOAD PUSH2 0x4B07 PUSH1 0x40 DUP6 ADD DUP3 PUSH2 0x4B51 JUMP JUMPDEST POP PUSH1 0x60 DUP3 ADD MLOAD PUSH2 0x4B1A PUSH1 0x60 DUP6 ADD DUP3 PUSH2 0x4B51 JUMP JUMPDEST POP PUSH1 0x80 DUP3 ADD MLOAD PUSH2 0x4B2D PUSH1 0x80 DUP6 ADD DUP3 PUSH2 0x46C6 JUMP JUMPDEST POP POP POP POP JUMP JUMPDEST PUSH2 0x4B3C DUP2 PUSH2 0x53B6 JUMP JUMPDEST DUP3 MSTORE POP POP JUMP JUMPDEST PUSH2 0x4B4B DUP2 PUSH2 0x53CD JUMP JUMPDEST DUP3 MSTORE POP POP JUMP JUMPDEST PUSH2 0x4B5A DUP2 PUSH2 0x53C0 JUMP JUMPDEST DUP3 MSTORE POP POP JUMP JUMPDEST PUSH2 0x4B69 DUP2 PUSH2 0x53C0 JUMP JUMPDEST DUP3 MSTORE POP POP JUMP JUMPDEST PUSH1 0x0 PUSH1 0x20 DUP3 ADD SWAP1 POP PUSH2 0x4B84 PUSH1 0x0 DUP4 ADD DUP5 PUSH2 0x46D5 JUMP JUMPDEST SWAP3 SWAP2 POP POP JUMP JUMPDEST PUSH1 0x0 PUSH1 0x40 DUP3 ADD SWAP1 POP PUSH2 0x4B9F PUSH1 0x0 DUP4 ADD DUP6 PUSH2 0x46D5 JUMP JUMPDEST PUSH2 0x4BAC PUSH1 0x20 DUP4 ADD DUP5 PUSH2 0x46D5 JUMP JUMPDEST SWAP4 SWAP3 POP POP POP JUMP JUMPDEST PUSH1 0x0 PUSH1 0x60 DUP3 ADD SWAP1 POP PUSH2 0x4BC8 PUSH1 0x0 DUP4 ADD DUP7 PUSH2 0x46D5 JUMP JUMPDEST PUSH2 0x4BD5 PUSH1 0x20 DUP4 ADD DUP6 PUSH2 0x46D5 JUMP JUMPDEST PUSH2 0x4BE2 PUSH1 0x40 DUP4 ADD DUP5 PUSH2 0x4B33 JUMP JUMPDEST SWAP5 SWAP4 POP POP POP POP JUMP JUMPDEST PUSH1 0x0 PUSH1 0x40 DUP3 ADD SWAP1 POP PUSH2 0x4BFF PUSH1 0x0 DUP4 ADD DUP6 PUSH2 0x46D5 JUMP JUMPDEST PUSH2 0x4C0C PUSH1 0x20 DUP4 ADD DUP5 PUSH2 0x4B42 JUMP JUMPDEST SWAP4 SWAP3 POP POP POP JUMP JUMPDEST PUSH1 0x0 PUSH1 0x20 DUP3 ADD SWAP1 POP DUP2 DUP2 SUB PUSH1 0x0 DUP4 ADD MSTORE PUSH2 0x4C2D DUP2 DUP5 PUSH2 0x46E4 JUMP JUMPDEST SWAP1 POP SWAP3 SWAP2 POP POP JUMP JUMPDEST PUSH1 0x0 PUSH1 0xA0 DUP3 ADD SWAP1 POP PUSH2 0x4C4A PUSH1 0x0 DUP4 ADD DUP9 PUSH2 0x4751 JUMP JUMPDEST PUSH2 0x4C57 PUSH1 0x20 DUP4 ADD DUP8 PUSH2 0x4B60 JUMP JUMPDEST PUSH2 0x4C64 PUSH1 0x40 DUP4 ADD DUP7 PUSH2 0x4B60 JUMP JUMPDEST PUSH2 0x4C71 PUSH1 0x60 DUP4 ADD DUP6 PUSH2 0x4B60 JUMP JUMPDEST PUSH2 0x4C7E PUSH1 0x80 DUP4 ADD DUP5 PUSH2 0x46D5 JUMP JUMPDEST SWAP7 SWAP6 POP POP POP POP POP POP JUMP JUMPDEST PUSH1 0x0 PUSH1 0x20 DUP3 ADD SWAP1 POP DUP2 DUP2 SUB PUSH1 0x0 DUP4 ADD MSTORE PUSH2 0x4CA1 DUP2 PUSH2 0x4760 JUMP JUMPDEST SWAP1 POP SWAP2 SWAP1 POP JUMP JUMPDEST PUSH1 0x0 PUSH1 0x20 DUP3 ADD SWAP1 POP DUP2 DUP2 SUB PUSH1 0x0 DUP4 ADD MSTORE PUSH2 0x4CC1 DUP2 PUSH2 0x4783 JUMP JUMPDEST SWAP1 POP SWAP2 SWAP1 POP JUMP JUMPDEST PUSH1 0x0 PUSH1 0x20 DUP3 ADD SWAP1 POP DUP2 DUP2 SUB PUSH1 0x0 DUP4 ADD MSTORE PUSH2 0x4CE1 DUP2 PUSH2 0x47A6 JUMP JUMPDEST SWAP1 POP SWAP2 SWAP1 POP JUMP JUMPDEST PUSH1 0x0 PUSH1 0x20 DUP3 ADD SWAP1 POP DUP2 DUP2 SUB PUSH1 0x0 DUP4 ADD MSTORE PUSH2 0x4D01 DUP2 PUSH2 0x47C9 JUMP JUMPDEST SWAP1 POP SWAP2 SWAP1 POP JUMP JUMPDEST PUSH1 0x0 PUSH1 0x20 DUP3 ADD SWAP1 POP DUP2 DUP2 SUB PUSH1 0x0 DUP4 ADD MSTORE PUSH2 0x4D21 DUP2 PUSH2 0x47EC JUMP JUMPDEST SWAP1 POP SWAP2 SWAP1 POP JUMP JUMPDEST PUSH1 0x0 PUSH1 0x20 DUP3 ADD SWAP1 POP DUP2 DUP2 SUB PUSH1 0x0 DUP4 ADD MSTORE PUSH2 0x4D41 DUP2 PUSH2 0x480F JUMP JUMPDEST SWAP1 POP SWAP2 SWAP1 POP JUMP JUMPDEST PUSH1 0x0 PUSH1 0x20 DUP3 ADD SWAP1 POP DUP2 DUP2 SUB PUSH1 0x0 DUP4 ADD MSTORE PUSH2 0x4D61 DUP2 PUSH2 0x4832 JUMP JUMPDEST SWAP1 POP SWAP2 SWAP1 POP JUMP JUMPDEST PUSH1 0x0 PUSH1 0x20 DUP3 ADD SWAP1 POP DUP2 DUP2 SUB PUSH1 0x0 DUP4 ADD MSTORE PUSH2 0x4D81 DUP2 PUSH2 0x4855 JUMP JUMPDEST SWAP1 POP SWAP2 SWAP1 POP JUMP JUMPDEST PUSH1 0x0 PUSH1 0x20 DUP3 ADD SWAP1 POP DUP2 DUP2 SUB PUSH1 0x0 DUP4 ADD MSTORE PUSH2 0x4DA1 DUP2 PUSH2 0x4878 JUMP JUMPDEST SWAP1 POP SWAP2 SWAP1 POP JUMP JUMPDEST PUSH1 0x0 PUSH1 0x20 DUP3 ADD SWAP1 POP DUP2 DUP2 SUB PUSH1 0x0 DUP4 ADD MSTORE PUSH2 0x4DC1 DUP2 PUSH2 0x489B JUMP JUMPDEST SWAP1 POP SWAP2 SWAP1 POP JUMP JUMPDEST PUSH1 0x0 PUSH1 0x20 DUP3 ADD SWAP1 POP DUP2 DUP2 SUB PUSH1 0x0 DUP4 ADD MSTORE PUSH2 0x4DE1 DUP2 PUSH2 0x48BE JUMP JUMPDEST SWAP1 POP SWAP2 SWAP1 POP JUMP JUMPDEST PUSH1 0x0 PUSH1 0x20 DUP3 ADD SWAP1 POP DUP2 DUP2 SUB PUSH1 0x0 DUP4 ADD MSTORE PUSH2 0x4E01 DUP2 PUSH2 0x48E1 JUMP JUMPDEST SWAP1 POP SWAP2 SWAP1 POP JUMP JUMPDEST PUSH1 0x0 PUSH1 0x20 DUP3 ADD SWAP1 POP DUP2 DUP2 SUB PUSH1 0x0 DUP4 ADD MSTORE PUSH2 0x4E21 DUP2 PUSH2 0x4904 JUMP JUMPDEST SWAP1 POP SWAP2 SWAP1 POP JUMP JUMPDEST PUSH1 0x0 PUSH1 0x20 DUP3 ADD SWAP1 POP DUP2 DUP2 SUB PUSH1 0x0 DUP4 ADD MSTORE PUSH2 0x4E41 DUP2 PUSH2 0x4927 JUMP JUMPDEST SWAP1 POP SWAP2 SWAP1 POP JUMP JUMPDEST PUSH1 0x0 PUSH1 0x20 DUP3 ADD SWAP1 POP DUP2 DUP2 SUB PUSH1 0x0 DUP4 ADD MSTORE PUSH2 0x4E61 DUP2 PUSH2 0x494A JUMP JUMPDEST SWAP1 POP SWAP2 SWAP1 POP JUMP JUMPDEST PUSH1 0x0 PUSH1 0x20 DUP3 ADD SWAP1 POP DUP2 DUP2 SUB PUSH1 0x0 DUP4 ADD MSTORE PUSH2 0x4E81 DUP2 PUSH2 0x496D JUMP JUMPDEST SWAP1 POP SWAP2 SWAP1 POP JUMP JUMPDEST PUSH1 0x0 PUSH1 0x20 DUP3 ADD SWAP1 POP DUP2 DUP2 SUB PUSH1 0x0 DUP4 ADD MSTORE PUSH2 0x4EA1 DUP2 PUSH2 0x4990 JUMP JUMPDEST SWAP1 POP SWAP2 SWAP1 POP JUMP JUMPDEST PUSH1 0x0 PUSH1 0x20 DUP3 ADD SWAP1 POP DUP2 DUP2 SUB PUSH1 0x0 DUP4 ADD MSTORE PUSH2 0x4EC1 DUP2 PUSH2 0x49B3 JUMP JUMPDEST SWAP1 POP SWAP2 SWAP1 POP JUMP JUMPDEST PUSH1 0x0 PUSH1 0x20 DUP3 ADD SWAP1 POP DUP2 DUP2 SUB PUSH1 0x0 DUP4 ADD MSTORE PUSH2 0x4EE1 DUP2 PUSH2 0x49D6 JUMP JUMPDEST SWAP1 POP SWAP2 SWAP1 POP JUMP JUMPDEST PUSH1 0x0 PUSH1 0x20 DUP3 ADD SWAP1 POP DUP2 DUP2 SUB PUSH1 0x0 DUP4 ADD MSTORE PUSH2 0x4F01 DUP2 PUSH2 0x49F9 JUMP JUMPDEST SWAP1 POP SWAP2 SWAP1 POP JUMP JUMPDEST PUSH1 0x0 PUSH1 0x20 DUP3 ADD SWAP1 POP DUP2 DUP2 SUB PUSH1 0x0 DUP4 ADD MSTORE PUSH2 0x4F21 DUP2 PUSH2 0x4A1C JUMP JUMPDEST SWAP1 POP SWAP2 SWAP1 POP JUMP JUMPDEST PUSH1 0x0 PUSH1 0x20 DUP3 ADD SWAP1 POP DUP2 DUP2 SUB PUSH1 0x0 DUP4 ADD MSTORE PUSH2 0x4F41 DUP2 PUSH2 0x4A3F JUMP JUMPDEST SWAP1 POP SWAP2 SWAP1 POP JUMP JUMPDEST PUSH1 0x0 PUSH1 0x20 DUP3 ADD SWAP1 POP DUP2 DUP2 SUB PUSH1 0x0 DUP4 ADD MSTORE PUSH2 0x4F61 DUP2 PUSH2 0x4A62 JUMP JUMPDEST SWAP1 POP SWAP2 SWAP1 POP JUMP JUMPDEST PUSH1 0x0 PUSH1 0x20 DUP3 ADD SWAP1 POP DUP2 DUP2 SUB PUSH1 0x0 DUP4 ADD MSTORE PUSH2 0x4F81 DUP2 PUSH2 0x4A85 JUMP JUMPDEST SWAP1 POP SWAP2 SWAP1 POP JUMP JUMPDEST PUSH1 0x0 PUSH1 0x20 DUP3 ADD SWAP1 POP DUP2 DUP2 SUB PUSH1 0x0 DUP4 ADD MSTORE PUSH2 0x4FA1 DUP2 PUSH2 0x4AA8 JUMP JUMPDEST SWAP1 POP SWAP2 SWAP1 POP JUMP JUMPDEST PUSH1 0x0 PUSH1 0xA0 DUP3 ADD SWAP1 POP PUSH2 0x4FBD PUSH1 0x0 DUP4 ADD DUP5 PUSH2 0x4ACB JUMP JUMPDEST SWAP3 SWAP2 POP POP JUMP JUMPDEST PUSH1 0x0 PUSH1 0x20 DUP3 ADD SWAP1 POP PUSH2 0x4FD8 PUSH1 0x0 DUP4 ADD DUP5 PUSH2 0x4B33 JUMP JUMPDEST SWAP3 SWAP2 POP POP JUMP JUMPDEST PUSH1 0x0 PUSH1 0x20 DUP3 ADD SWAP1 POP PUSH2 0x4FF3 PUSH1 0x0 DUP4 ADD DUP5 PUSH2 0x4B42 JUMP JUMPDEST SWAP3 SWAP2 POP POP JUMP JUMPDEST PUSH1 0x0 PUSH1 0x20 DUP3 ADD SWAP1 POP PUSH2 0x500E PUSH1 0x0 DUP4 ADD DUP5 PUSH2 0x4B60 JUMP JUMPDEST SWAP3 SWAP2 POP POP JUMP JUMPDEST PUSH1 0x0 PUSH1 0x40 DUP3 ADD SWAP1 POP PUSH2 0x5029 PUSH1 0x0 DUP4 ADD DUP6 PUSH2 0x4B60 JUMP JUMPDEST PUSH2 0x5036 PUSH1 0x20 DUP4 ADD DUP5 PUSH2 0x4B60 JUMP JUMPDEST SWAP4 SWAP3 POP POP POP JUMP JUMPDEST PUSH1 0x0 PUSH1 0x60 DUP3 ADD SWAP1 POP PUSH2 0x5052 PUSH1 0x0 DUP4 ADD DUP7 PUSH2 0x4B60 JUMP JUMPDEST PUSH2 0x505F PUSH1 0x20 DUP4 ADD DUP6 PUSH2 0x4B60 JUMP JUMPDEST PUSH2 0x506C PUSH1 0x40 DUP4 ADD DUP5 PUSH2 0x4B60 JUMP JUMPDEST SWAP5 SWAP4 POP POP POP POP JUMP JUMPDEST PUSH1 0x0 PUSH1 0x80 DUP3 ADD SWAP1 POP PUSH2 0x5089 PUSH1 0x0 DUP4 ADD DUP8 PUSH2 0x4B60 JUMP JUMPDEST PUSH2 0x5096 PUSH1 0x20 DUP4 ADD DUP7 PUSH2 0x4B60 JUMP JUMPDEST PUSH2 0x50A3 PUSH1 0x40 DUP4 ADD DUP6 PUSH2 0x4B60 JUMP JUMPDEST PUSH2 0x50B0 PUSH1 0x60 DUP4 ADD DUP5 PUSH2 0x4B60 JUMP JUMPDEST SWAP6 SWAP5 POP POP POP POP POP JUMP JUMPDEST PUSH1 0x0 PUSH1 0xA0 DUP3 ADD SWAP1 POP PUSH2 0x50CE PUSH1 0x0 DUP4 ADD DUP9 PUSH2 0x4B60 JUMP JUMPDEST PUSH2 0x50DB PUSH1 0x20 DUP4 ADD DUP8 PUSH2 0x4B60 JUMP JUMPDEST PUSH2 0x50E8 PUSH1 0x40 DUP4 ADD DUP7 PUSH2 0x4B60 JUMP JUMPDEST PUSH2 0x50F5 PUSH1 0x60 DUP4 ADD DUP6 PUSH2 0x4B60 JUMP JUMPDEST PUSH2 0x5102 PUSH1 0x80 DUP4 ADD DUP5 PUSH2 0x4B60 JUMP JUMPDEST SWAP7 SWAP6 POP POP POP POP POP POP JUMP JUMPDEST PUSH1 0x0 PUSH2 0x5116 PUSH2 0x5127 JUMP JUMPDEST SWAP1 POP PUSH2 0x5122 DUP3 DUP3 PUSH2 0x53DF JUMP JUMPDEST SWAP2 SWAP1 POP JUMP JUMPDEST PUSH1 0x0 PUSH1 0x40 MLOAD SWAP1 POP SWAP1 JUMP JUMPDEST PUSH1 0x0 DUP2 SWAP1 POP PUSH1 0x20 DUP3 ADD SWAP1 POP SWAP2 SWAP1 POP JUMP JUMPDEST PUSH1 0x0 DUP2 MLOAD SWAP1 POP SWAP2 SWAP1 POP JUMP JUMPDEST PUSH1 0x0 PUSH1 0x20 DUP3 ADD SWAP1 POP SWAP2 SWAP1 POP JUMP JUMPDEST PUSH1 0x0 DUP3 DUP3 MSTORE PUSH1 0x20 DUP3 ADD SWAP1 POP SWAP3 SWAP2 POP POP JUMP JUMPDEST PUSH1 0x0 DUP3 DUP3 MSTORE PUSH1 0x20 DUP3 ADD SWAP1 POP SWAP3 SWAP2 POP POP JUMP JUMPDEST PUSH1 0x0 PUSH2 0x5186 DUP3 PUSH2 0x53B6 JUMP JUMPDEST SWAP2 POP PUSH2 0x5191 DUP4 PUSH2 0x53B6 JUMP JUMPDEST SWAP3 POP DUP3 PUSH32 0xFFFFFFFFFFFFFFFFFFFFFFFFFFFFFFFFFFFFFFFFFFFFFFFFFFFFFFFFFFFFFFFF SUB DUP3 GT ISZERO PUSH2 0x51C6 JUMPI PUSH2 0x51C5 PUSH2 0x5484 JUMP JUMPDEST JUMPDEST DUP3 DUP3 ADD SWAP1 POP SWAP3 SWAP2 POP POP JUMP JUMPDEST PUSH1 0x0 PUSH2 0x51DC DUP3 PUSH2 0x53C0 JUMP JUMPDEST SWAP2 POP PUSH2 0x51E7 DUP4 PUSH2 0x53C0 JUMP JUMPDEST SWAP3 POP DUP3 PUSH1 0xFF SUB DUP3 GT ISZERO PUSH2 0x51FD JUMPI PUSH2 0x51FC PUSH2 0x5484 JUMP JUMPDEST JUMPDEST DUP3 DUP3 ADD SWAP1 POP SWAP3 SWAP2 POP POP JUMP JUMPDEST PUSH1 0x0 PUSH2 0x5213 DUP3 PUSH2 0x53B6 JUMP JUMPDEST SWAP2 POP PUSH2 0x521E DUP4 PUSH2 0x53B6 JUMP JUMPDEST SWAP3 POP DUP3 PUSH2 0x522E JUMPI PUSH2 0x522D PUSH2 0x54B3 JUMP JUMPDEST JUMPDEST DUP3 DUP3 DIV SWAP1 POP SWAP3 SWAP2 POP POP JUMP JUMPDEST PUSH1 0x0 PUSH2 0x5244 DUP3 PUSH2 0x53B6 JUMP JUMPDEST SWAP2 POP PUSH2 0x524F DUP4 PUSH2 0x53B6 JUMP JUMPDEST SWAP3 POP DUP2 PUSH32 0xFFFFFFFFFFFFFFFFFFFFFFFFFFFFFFFFFFFFFFFFFFFFFFFFFFFFFFFFFFFFFFFF DIV DUP4 GT DUP3 ISZERO ISZERO AND ISZERO PUSH2 0x5288 JUMPI PUSH2 0x5287 PUSH2 0x5484 JUMP JUMPDEST JUMPDEST DUP3 DUP3 MUL SWAP1 POP SWAP3 SWAP2 POP POP JUMP JUMPDEST PUSH1 0x0 PUSH2 0x529E DUP3 PUSH2 0x53C0 JUMP JUMPDEST SWAP2 POP PUSH2 0x52A9 DUP4 PUSH2 0x53C0 JUMP JUMPDEST SWAP3 POP DUP2 PUSH1 0xFF DIV DUP4 GT DUP3 ISZERO ISZERO AND ISZERO PUSH2 0x52C3 JUMPI PUSH2 0x52C2 PUSH2 0x5484 JUMP JUMPDEST JUMPDEST DUP3 DUP3 MUL SWAP1 POP SWAP3 SWAP2 POP POP JUMP JUMPDEST PUSH1 0x0 PUSH2 0x52D9 DUP3 PUSH2 0x5388 JUMP JUMPDEST SWAP2 POP PUSH2 0x52E4 DUP4 PUSH2 0x5388 JUMP JUMPDEST SWAP3 POP DUP3 DUP3 LT ISZERO PUSH2 0x52F7 JUMPI PUSH2 0x52F6 PUSH2 0x5484 JUMP JUMPDEST JUMPDEST DUP3 DUP3 SUB SWAP1 POP SWAP3 SWAP2 POP POP JUMP JUMPDEST PUSH1 0x0 PUSH2 0x530D DUP3 PUSH2 0x53B6 JUMP JUMPDEST SWAP2 POP PUSH2 0x5318 DUP4 PUSH2 0x53B6 JUMP JUMPDEST SWAP3 POP DUP3 DUP3 LT ISZERO PUSH2 0x532B JUMPI PUSH2 0x532A PUSH2 0x5484 JUMP JUMPDEST JUMPDEST DUP3 DUP3 SUB SWAP1 POP SWAP3 SWAP2 POP POP JUMP JUMPDEST PUSH1 0x0 PUSH2 0x5341 DUP3 PUSH2 0x53C0 JUMP JUMPDEST SWAP2 POP PUSH2 0x534C DUP4 PUSH2 0x53C0 JUMP JUMPDEST SWAP3 POP DUP3 DUP3 LT ISZERO PUSH2 0x535F JUMPI PUSH2 0x535E PUSH2 0x5484 JUMP JUMPDEST JUMPDEST DUP3 DUP3 SUB SWAP1 POP SWAP3 SWAP2 POP POP JUMP JUMPDEST PUSH1 0x0 PUSH2 0x5375 DUP3 PUSH2 0x5396 JUMP JUMPDEST SWAP1 POP SWAP2 SWAP1 POP JUMP JUMPDEST PUSH1 0x0 DUP2 ISZERO ISZERO SWAP1 POP SWAP2 SWAP1 POP JUMP JUMPDEST PUSH1 0x0 PUSH2 0xFFFF DUP3 AND SWAP1 POP SWAP2 SWAP1 POP JUMP JUMPDEST PUSH1 0x0 PUSH20 0xFFFFFFFFFFFFFFFFFFFFFFFFFFFFFFFFFFFFFFFF DUP3 AND SWAP1 POP SWAP2 SWAP1 POP JUMP JUMPDEST PUSH1 0x0 DUP2 SWAP1 POP SWAP2 SWAP1 POP JUMP JUMPDEST PUSH1 0x0 PUSH1 0xFF DUP3 AND SWAP1 POP SWAP2 SWAP1 POP JUMP JUMPDEST PUSH1 0x0 PUSH2 0x53D8 DUP3 PUSH2 0x53C0 JUMP JUMPDEST SWAP1 POP SWAP2 SWAP1 POP JUMP JUMPDEST PUSH2 0x53E8 DUP3 PUSH2 0x558D JUMP JUMPDEST DUP2 ADD DUP2 DUP2 LT PUSH8 0xFFFFFFFFFFFFFFFF DUP3 GT OR ISZERO PUSH2 0x5407 JUMPI PUSH2 0x5406 PUSH2 0x5540 JUMP JUMPDEST JUMPDEST DUP1 PUSH1 0x40 MSTORE POP POP POP JUMP JUMPDEST PUSH1 0x0 PUSH2 0x541B DUP3 PUSH2 0x5388 JUMP JUMPDEST SWAP2 POP PUSH2 0xFFFF DUP3 EQ ISZERO PUSH2 0x5430 JUMPI PUSH2 0x542F PUSH2 0x5484 JUMP JUMPDEST JUMPDEST PUSH1 0x1 DUP3 ADD SWAP1 POP SWAP2 SWAP1 POP JUMP JUMPDEST PUSH1 0x0 PUSH2 0x5446 DUP3 PUSH2 0x53B6 JUMP JUMPDEST SWAP2 POP PUSH32 0xFFFFFFFFFFFFFFFFFFFFFFFFFFFFFFFFFFFFFFFFFFFFFFFFFFFFFFFFFFFFFFFF DUP3 EQ ISZERO PUSH2 0x5479 JUMPI PUSH2 0x5478 PUSH2 0x5484 JUMP JUMPDEST JUMPDEST PUSH1 0x1 DUP3 ADD SWAP1 POP SWAP2 SWAP1 POP JUMP JUMPDEST PUSH32 0x4E487B7100000000000000000000000000000000000000000000000000000000 PUSH1 0x0 MSTORE PUSH1 0x11 PUSH1 0x4 MSTORE PUSH1 0x24 PUSH1 0x0 REVERT JUMPDEST PUSH32 0x4E487B7100000000000000000000000000000000000000000000000000000000 PUSH1 0x0 MSTORE PUSH1 0x12 PUSH1 0x4 MSTORE PUSH1 0x24 PUSH1 0x0 REVERT JUMPDEST PUSH32 0x4E487B7100000000000000000000000000000000000000000000000000000000 PUSH1 0x0 MSTORE PUSH1 0x21 PUSH1 0x4 MSTORE PUSH1 0x24 PUSH1 0x0 REVERT JUMPDEST PUSH32 0x4E487B7100000000000000000000000000000000000000000000000000000000 PUSH1 0x0 MSTORE PUSH1 0x32 PUSH1 0x4 MSTORE PUSH1 0x24 PUSH1 0x0 REVERT JUMPDEST PUSH32 0x4E487B7100000000000000000000000000000000000000000000000000000000 PUSH1 0x0 MSTORE PUSH1 0x41 PUSH1 0x4 MSTORE PUSH1 0x24 PUSH1 0x0 REVERT JUMPDEST PUSH1 0x0 DUP1 REVERT JUMPDEST PUSH1 0x0 DUP1 REVERT JUMPDEST PUSH1 0x0 DUP1 REVERT JUMPDEST PUSH1 0x0 DUP1 REVERT JUMPDEST PUSH1 0x0 DUP1 REVERT JUMPDEST PUSH1 0x0 DUP1 REVERT JUMPDEST PUSH1 0x0 PUSH1 0x1F NOT PUSH1 0x1F DUP4 ADD AND SWAP1 POP SWAP2 SWAP1 POP JUMP JUMPDEST PUSH32 0x546172676574206F66662D626F756E6473000000000000000000000000000000 PUSH1 0x0 DUP3 ADD MSTORE POP JUMP JUMPDEST PUSH32 0x4E6F74207269676874207475726E000000000000000000000000000000000000 PUSH1 0x0 DUP3 ADD MSTORE POP JUMP JUMPDEST PUSH32 0x4E6F7420656E6F75676820656E6572677920666F722061747461636B00000000 PUSH1 0x0 DUP3 ADD MSTORE POP JUMP JUMPDEST PUSH32 0x43616E27742070757420706C617965722074686973207475726E000000000000 PUSH1 0x0 DUP3 ADD MSTORE POP JUMP JUMPDEST PUSH32 0x496E76616C696420636F6C756D6E000000000000000000000000000000000000 PUSH1 0x0 DUP3 ADD MSTORE POP JUMP JUMPDEST PUSH32 0x42617365206973206F7574206F662072616E6765000000000000000000000000 PUSH1 0x0 DUP3 ADD MSTORE POP JUMP JUMPDEST PUSH32 0x456E6572677920696E73756666696369656E7400000000000000000000000000 PUSH1 0x0 DUP3 ADD MSTORE POP JUMP JUMPDEST PUSH32 0x4E6F742061206865616C20636172640000000000000000000000000000000000 PUSH1 0x0 DUP3 ADD MSTORE POP JUMP JUMPDEST PUSH32 0x4E6F2062616C616E6365206C65667420746F2075736520676F6420706F776572 PUSH1 0x0 DUP3 ADD MSTORE POP JUMP JUMPDEST PUSH32 0x4E6F7420616E2061747461636B20706C61796572000000000000000000000000 PUSH1 0x0 DUP3 ADD MSTORE POP JUMP JUMPDEST PUSH32 0x41747461636B696E67206F6E206F776E2063656C6C7300000000000000000000 PUSH1 0x0 DUP3 ADD MSTORE POP JUMP JUMPDEST PUSH32 0x57726F6E672074617267657420706C6179657200000000000000000000000000 PUSH1 0x0 DUP3 ADD MSTORE POP JUMP JUMPDEST PUSH32 0x4E6F7420656E6F75676820656E65726779000000000000000000000000000000 PUSH1 0x0 DUP3 ADD MSTORE POP JUMP JUMPDEST PUSH32 0x4E6F74206F776E696E6720746865207061776E00000000000000000000000000 PUSH1 0x0 DUP3 ADD MSTORE POP JUMP JUMPDEST PUSH32 0x43656C6C206973206F6363757069656400000000000000000000000000000000 PUSH1 0x0 DUP3 ADD MSTORE POP JUMP JUMPDEST PUSH32 0x456E65726779206E6F7420737566666963656E74000000000000000000000000 PUSH1 0x0 DUP3 ADD MSTORE POP JUMP JUMPDEST PUSH32 0x41747461636B696E67206F6E20616E20656D7074792063656C6C000000000000 PUSH1 0x0 DUP3 ADD MSTORE POP JUMP JUMPDEST PUSH32 0x4E6F74206120636172642061747461636B000000000000000000000000000000 PUSH1 0x0 DUP3 ADD MSTORE POP JUMP JUMPDEST PUSH32 0x57696E6E6572207061796D656E74206661696C65640000000000000000000000 PUSH1 0x0 DUP3 ADD MSTORE POP JUMP JUMPDEST PUSH32 0x4E6F74206F776E696E6720746865207461726765740000000000000000000000 PUSH1 0x0 DUP3 ADD MSTORE POP JUMP JUMPDEST PUSH32 0x5461726765742063656C6C20697320656D707479000000000000000000000000 PUSH1 0x0 DUP3 ADD MSTORE POP JUMP JUMPDEST PUSH32 0x496C6C6567616C206D6F76656D656E7400000000000000000000000000000000 PUSH1 0x0 DUP3 ADD MSTORE POP JUMP JUMPDEST PUSH32 0x4172656E61206F776E6572207061796D656E74206661696C6564000000000000 PUSH1 0x0 DUP3 ADD MSTORE POP JUMP JUMPDEST PUSH32 0x546172676574206973206F7574206F662072616E676500000000000000000000 PUSH1 0x0 DUP3 ADD MSTORE POP JUMP JUMPDEST PUSH32 0x4E6F74206F776E696E6720746865206F726967696E0000000000000000000000 PUSH1 0x0 DUP3 ADD MSTORE POP JUMP JUMPDEST PUSH2 0x59A8 DUP2 PUSH2 0x536A JUMP JUMPDEST DUP2 EQ PUSH2 0x59B3 JUMPI PUSH1 0x0 DUP1 REVERT JUMPDEST POP JUMP JUMPDEST PUSH2 0x59BF DUP2 PUSH2 0x537C JUMP JUMPDEST DUP2 EQ PUSH2 0x59CA JUMPI PUSH1 0x0 DUP1 REVERT JUMPDEST POP JUMP JUMPDEST PUSH1 0x2 DUP2 LT PUSH2 0x59DA JUMPI PUSH1 0x0 DUP1 REVERT JUMPDEST POP JUMP JUMPDEST PUSH1 0x7 DUP2 LT PUSH2 0x59EA JUMPI PUSH1 0x0 DUP1 REVERT JUMPDEST POP JUMP JUMPDEST PUSH2 0x59F6 DUP2 PUSH2 0x53B6 JUMP JUMPDEST DUP2 EQ PUSH2 0x5A01 JUMPI PUSH1 0x0 DUP1 REVERT JUMPDEST POP JUMP JUMPDEST PUSH2 0x5A0D DUP2 PUSH2 0x53C0 JUMP JUMPDEST DUP2 EQ PUSH2 0x5A18 JUMPI PUSH1 0x0 DUP1 REVERT JUMPDEST POP JUMP INVALID LOG2 PUSH5 0x6970667358 0x22 SLT KECCAK256 DUP3 CALLDATACOPY 0xB2 PUSH21 0x9862F7393A1BBD90211F61D710897396A25A8E1758 0xBF SSTORE JUMPDEST SWAP14 0xBF DUP14 ADD PUSH5 0x736F6C6343 STOP ADDMOD SMOD STOP CALLER "
    },
    "gasEstimates": {
      "creation": {
        "codeDepositCost": "4624200",
        "executionCost": "infinite",
        "totalCost": "infinite"
      },
      "external": {
        "flashLoans(address)": "2836",
        "gameBoard(uint256,uint256)": "infinite",
        "getCell(uint8,uint8)": "infinite",
        "getEnemyDeck()": "infinite",
        "playTurn((uint8,uint8,(uint8,uint8),(uint8,uint8))[])": "infinite"
      },
      "internal": {
        "_attackBase(struct Origin calldata)": "infinite",
        "_attackCell(struct Origin calldata,struct Target calldata)": "infinite",
        "_attackGodPower(uint8,struct Target calldata)": "infinite",
        "_baseHealth(uint256)": "infinite",
        "_endTurn()": "infinite",
        "_finishGame(address,address)": "infinite",
        "_healCell(struct Origin calldata,struct Target calldata)": "infinite",
        "_healGodPower(uint8,struct Target calldata)": "infinite",
        "_moveCardToCell(struct Origin calldata,struct Target calldata)": "infinite",
        "_playMove(struct Move calldata)": "infinite",
        "_putCardOnBoard(uint8,uint8)": "infinite"
      }
    },
    "methodIdentifiers": {
      "flashLoans(address)": "4f033fa0",
      "gameBoard(uint256,uint256)": "1be80d55",
      "getCell(uint8,uint8)": "4f4fdf80",
      "getEnemyDeck()": "d9d881e3",
      "playTurn((uint8,uint8,(uint8,uint8),(uint8,uint8))[])": "3f312752"
    }
  },
  "abi": [
    {
      "inputs": [
        {
          "internalType": "contract XP",
          "name": "xpAddress",
          "type": "address"
        },
        {
          "internalType": "contract SONS",
          "name": "sonsAddress",
          "type": "address"
        },
        {
          "internalType": "contract GOD",
          "name": "godAddress",
          "type": "address"
        },
        {
          "components": [
            {
              "internalType": "uint8",
              "name": "gameConstant",
              "type": "uint8"
            },
            {
              "internalType": "uint16",
              "name": "winnerPercent",
              "type": "uint16"
            },
            {
              "internalType": "uint16",
              "name": "ownerPercent",
              "type": "uint16"
            },
            {
              "internalType": "uint256",
              "name": "entranceFee",
              "type": "uint256"
            }
          ],
          "internalType": "struct ArenaDetails",
          "name": "arena",
          "type": "tuple"
        },
        {
          "internalType": "address",
          "name": "arenaOwner",
          "type": "address"
        },
        {
          "internalType": "address",
          "name": "addressOne",
          "type": "address"
        },
        {
          "internalType": "address",
          "name": "addressTwo",
          "type": "address"
        },
        {
          "internalType": "uint8[]",
          "name": "deckOne",
          "type": "uint8[]"
        },
        {
          "internalType": "uint8[]",
          "name": "deckTwo",
          "type": "uint8[]"
        }
      ],
      "stateMutability": "nonpayable",
      "type": "constructor"
    },
    {
      "anonymous": false,
      "inputs": [
        {
          "indexed": false,
          "internalType": "uint8",
          "name": "orow",
          "type": "uint8"
        },
        {
          "indexed": false,
          "internalType": "uint8",
          "name": "ocol",
          "type": "uint8"
        },
        {
          "indexed": false,
          "internalType": "uint8",
          "name": "damage",
          "type": "uint8"
        }
      ],
      "name": "AttackBase",
      "type": "event"
    },
    {
      "anonymous": false,
      "inputs": [
        {
          "indexed": false,
          "internalType": "uint8",
          "name": "orow",
          "type": "uint8"
        },
        {
          "indexed": false,
          "internalType": "uint8",
          "name": "ocol",
          "type": "uint8"
        },
        {
          "indexed": false,
          "internalType": "uint8",
          "name": "trow",
          "type": "uint8"
        },
        {
          "indexed": false,
          "internalType": "uint8",
          "name": "tcol",
          "type": "uint8"
        },
        {
          "indexed": false,
          "internalType": "uint8",
          "name": "points",
          "type": "uint8"
        }
      ],
      "name": "AttackCard",
      "type": "event"
    },
    {
      "anonymous": false,
      "inputs": [
        {
          "indexed": false,
          "internalType": "uint8",
          "name": "trow",
          "type": "uint8"
        },
        {
          "indexed": false,
          "internalType": "uint8",
          "name": "tcol",
          "type": "uint8"
        },
        {
          "indexed": false,
          "internalType": "uint8",
          "name": "points",
          "type": "uint8"
        }
      ],
      "name": "AttackGodPower",
      "type": "event"
    },
    {
      "anonymous": false,
      "inputs": [
        {
          "indexed": false,
          "internalType": "address",
          "name": "winner",
          "type": "address"
        }
      ],
      "name": "GameFinished",
      "type": "event"
    },
    {
      "anonymous": false,
      "inputs": [
        {
          "indexed": false,
          "internalType": "uint8",
          "name": "orow",
          "type": "uint8"
        },
        {
          "indexed": false,
          "internalType": "uint8",
          "name": "ocol",
          "type": "uint8"
        },
        {
          "indexed": false,
          "internalType": "uint8",
          "name": "trow",
          "type": "uint8"
        },
        {
          "indexed": false,
          "internalType": "uint8",
          "name": "tcol",
          "type": "uint8"
        },
        {
          "indexed": false,
          "internalType": "uint8",
          "name": "points",
          "type": "uint8"
        }
      ],
      "name": "HealCard",
      "type": "event"
    },
    {
      "anonymous": false,
      "inputs": [
        {
          "indexed": false,
          "internalType": "uint8",
          "name": "trow",
          "type": "uint8"
        },
        {
          "indexed": false,
          "internalType": "uint8",
          "name": "tcol",
          "type": "uint8"
        },
        {
          "indexed": false,
          "internalType": "uint8",
          "name": "points",
          "type": "uint8"
        }
      ],
      "name": "HealGodPower",
      "type": "event"
    },
    {
      "anonymous": false,
      "inputs": [
        {
          "indexed": false,
          "internalType": "uint8",
          "name": "orow",
          "type": "uint8"
        },
        {
          "indexed": false,
          "internalType": "uint8",
          "name": "ocol",
          "type": "uint8"
        },
        {
          "indexed": false,
          "internalType": "uint8",
          "name": "trow",
          "type": "uint8"
        },
        {
          "indexed": false,
          "internalType": "uint8",
          "name": "tcol",
          "type": "uint8"
        }
      ],
      "name": "MoveCard",
      "type": "event"
    },
    {
      "anonymous": false,
      "inputs": [
        {
          "indexed": false,
          "internalType": "uint8",
          "name": "col",
          "type": "uint8"
        },
        {
          "indexed": false,
          "internalType": "uint8",
          "name": "typeId",
          "type": "uint8"
        }
      ],
      "name": "PutCard",
      "type": "event"
    },
    {
      "anonymous": false,
      "inputs": [
        {
          "indexed": false,
          "internalType": "uint8",
          "name": "turn",
          "type": "uint8"
        }
      ],
      "name": "TurnFinished",
      "type": "event"
    },
    {
      "inputs": [
        {
          "internalType": "address",
          "name": "",
          "type": "address"
        }
      ],
      "name": "flashLoans",
      "outputs": [
        {
          "internalType": "uint256",
          "name": "",
          "type": "uint256"
        }
      ],
      "stateMutability": "view",
      "type": "function"
    },
    {
      "inputs": [
        {
          "internalType": "uint256",
          "name": "",
          "type": "uint256"
        },
        {
          "internalType": "uint256",
          "name": "",
          "type": "uint256"
        }
      ],
      "name": "gameBoard",
      "outputs": [
        {
          "internalType": "bool",
          "name": "occupied",
          "type": "bool"
        },
        {
          "internalType": "uint8",
          "name": "slotId",
          "type": "uint8"
        },
        {
          "internalType": "uint8",
          "name": "health",
          "type": "uint8"
        },
        {
          "internalType": "uint8",
          "name": "cardId",
          "type": "uint8"
        },
        {
          "internalType": "address",
          "name": "owner",
          "type": "address"
        }
      ],
      "stateMutability": "view",
      "type": "function"
    },
    {
      "inputs": [
        {
          "internalType": "uint8",
          "name": "i",
          "type": "uint8"
        },
        {
          "internalType": "uint8",
          "name": "j",
          "type": "uint8"
        }
      ],
      "name": "getCell",
      "outputs": [
        {
          "components": [
            {
              "internalType": "bool",
              "name": "occupied",
              "type": "bool"
            },
            {
              "internalType": "uint8",
              "name": "slotId",
              "type": "uint8"
            },
            {
              "internalType": "uint8",
              "name": "health",
              "type": "uint8"
            },
            {
              "internalType": "uint8",
              "name": "cardId",
              "type": "uint8"
            },
            {
              "internalType": "address",
              "name": "owner",
              "type": "address"
            }
          ],
          "internalType": "struct Cell",
          "name": "",
          "type": "tuple"
        }
      ],
      "stateMutability": "view",
      "type": "function"
    },
    {
      "inputs": [],
      "name": "getEnemyDeck",
      "outputs": [
        {
          "internalType": "uint8[]",
          "name": "",
          "type": "uint8[]"
        }
      ],
      "stateMutability": "view",
      "type": "function"
    },
    {
      "inputs": [
        {
          "components": [
            {
              "internalType": "enum MoveType",
              "name": "moveType",
              "type": "uint8"
            },
            {
              "internalType": "uint8",
              "name": "slotId",
              "type": "uint8"
            },
            {
              "components": [
                {
                  "internalType": "uint8",
                  "name": "row",
                  "type": "uint8"
                },
                {
                  "internalType": "uint8",
                  "name": "col",
                  "type": "uint8"
                }
              ],
              "internalType": "struct Origin",
              "name": "origin",
              "type": "tuple"
            },
            {
              "components": [
                {
                  "internalType": "uint8",
                  "name": "row",
                  "type": "uint8"
                },
                {
                  "internalType": "uint8",
                  "name": "col",
                  "type": "uint8"
                }
              ],
              "internalType": "struct Target",
              "name": "target",
              "type": "tuple"
            }
          ],
          "internalType": "struct Move[]",
          "name": "moves",
          "type": "tuple[]"
        }
      ],
      "name": "playTurn",
      "outputs": [],
      "stateMutability": "nonpayable",
      "type": "function"
    }
  ]
}