{
  "data": {
    "bytecode": {
      "linkReferences": {},
      "object": "608060405260006006553480156200001657600080fd5b5060405162008b4a38038062008b4a83398181016040528101906200003c9190620002eb565b6200005c62000050620001ac60201b60201c565b620001b460201b60201c565b84600160006101000a81548173ffffffffffffffffffffffffffffffffffffffff021916908373ffffffffffffffffffffffffffffffffffffffff16021790555083600260006101000a81548173ffffffffffffffffffffffffffffffffffffffff021916908373ffffffffffffffffffffffffffffffffffffffff16021790555082600360006101000a81548173ffffffffffffffffffffffffffffffffffffffff021916908373ffffffffffffffffffffffffffffffffffffffff16021790555080600460006101000a81548173ffffffffffffffffffffffffffffffffffffffff021916908373ffffffffffffffffffffffffffffffffffffffff16021790555081600560006101000a81548173ffffffffffffffffffffffffffffffffffffffff021916908373ffffffffffffffffffffffffffffffffffffffff160217905550505050505062000492565b600033905090565b60008060009054906101000a900473ffffffffffffffffffffffffffffffffffffffff169050816000806101000a81548173ffffffffffffffffffffffffffffffffffffffff021916908373ffffffffffffffffffffffffffffffffffffffff1602179055508173ffffffffffffffffffffffffffffffffffffffff168173ffffffffffffffffffffffffffffffffffffffff167f8be0079c531659141344cd1fd0a4f28419497f9722a3daafe3b4186f6b6457e060405160405180910390a35050565b600081519050620002898162000410565b92915050565b600081519050620002a0816200042a565b92915050565b600081519050620002b78162000444565b92915050565b600081519050620002ce816200045e565b92915050565b600081519050620002e58162000478565b92915050565b600080600080600060a086880312156200030a57620003096200040b565b5b60006200031a88828901620002d4565b95505060206200032d8882890162000278565b94505060406200034088828901620002bd565b935050606062000353888289016200028f565b92505060806200036688828901620002a6565b9150509295509295909350565b60006200038082620003eb565b9050919050565b6000620003948262000373565b9050919050565b6000620003a88262000373565b9050919050565b6000620003bc8262000373565b9050919050565b6000620003d08262000373565b9050919050565b6000620003e48262000373565b9050919050565b600073ffffffffffffffffffffffffffffffffffffffff82169050919050565b600080fd5b6200041b8162000387565b81146200042757600080fd5b50565b62000435816200039b565b81146200044157600080fd5b50565b6200044f81620003af565b81146200045b57600080fd5b50565b6200046981620003c3565b81146200047557600080fd5b50565b6200048381620003d7565b81146200048f57600080fd5b50565b6186a880620004a26000396000f3fe60806040523480156200001157600080fd5b5060043610620000885760003560e01c8063715018a61162000063578063715018a614620001035780637962bf0c146200010f5780638da5cb5b1462000147578063f2fde38b14620001695762000088565b80630721cbb9146200008d57806325bc6be114620000ad5780633feef58a14620000e3575b600080fd5b620000ab6004803603810190620000a59190620013a3565b62000189565b005b620000cb6004803603810190620000c59190620012db565b62000b16565b604051620000da9190620017fa565b60405180910390f35b620001016004803603810190620000fb919062001371565b62000b36565b005b6200010d62000dde565b005b6200012d600480360381019062000127919062001371565b62000e6f565b6040516200013e9392919062001817565b60405180910390f35b6200015162000ec6565b60405162000160919062001773565b60405180910390f35b620001876004803603810190620001819190620012db565b62000eef565b005b6000600260009054906101000a900473ffffffffffffffffffffffffffffffffffffffff1673ffffffffffffffffffffffffffffffffffffffff16636352211e856040518263ffffffff1660e01b8152600401620001e89190620019f4565b60206040518083038186803b1580156200020157600080fd5b505afa15801562000216573d6000803e3d6000fd5b505050506040513d601f19601f820116820180604052508101906200023c91906200130d565b9050600073ffffffffffffffffffffffffffffffffffffffff168173ffffffffffffffffffffffffffffffffffffffff161415620002b1576040517f08c379a0000000000000000000000000000000000000000000000000000000008152600401620002a890620019b0565b60405180910390fd5b6000600760008681526020019081526020016000206040518060800160405290816000820160009054906101000a900460ff161515151581526020016000820160019054906101000a900473ffffffffffffffffffffffffffffffffffffffff1673ffffffffffffffffffffffffffffffffffffffff1673ffffffffffffffffffffffffffffffffffffffff1681526020016001820154815260200160028201805480602002602001604051908101604052809291908181526020018280548015620003c357602002820191906000526020600020906000905b82829054906101000a900460ff1660ff16815260200190600101906020826000010492830192600103820291508084116200038b5790505b5050505050815250509050600080600080600260009054906101000a900473ffffffffffffffffffffffffffffffffffffffff1673ffffffffffffffffffffffffffffffffffffffff1663586a7b718a6040518263ffffffff1660e01b8152600401620004319190620019f4565b60806040518083038186803b1580156200044a57600080fd5b505afa1580156200045f573d6000803e3d6000fd5b505050506040513d601f19601f820116820180604052508101906200048591906200140d565b935093509350935060016002856200049e919062001b19565b620004aa919062001b5b565b60ff168888905014620004f4576040517f08c379a0000000000000000000000000000000000000000000000000000000008152600401620004eb9062001906565b60405180910390fd5b600360009054906101000a900473ffffffffffffffffffffffffffffffffffffffff1673ffffffffffffffffffffffffffffffffffffffff166323b872dd3330846040518463ffffffff1660e01b8152600401620005559392919062001790565b602060405180830381600087803b1580156200057057600080fd5b505af115801562000585573d6000803e3d6000fd5b505050506040513d601f19601f82011682018060405250810190620005ab91906200133f565b620005ed576040517f08c379a0000000000000000000000000000000000000000000000000000000008152600401620005e4906200194a565b60405180910390fd5b8460000151156200093e576000600160009054906101000a900473ffffffffffffffffffffffffffffffffffffffff16600360009054906101000a900473ffffffffffffffffffffffffffffffffffffffff16600460009054906101000a900473ffffffffffffffffffffffffffffffffffffffff1660405180608001604052808960ff1681526020018861ffff1681526020018761ffff168152602001868152508a338b602001518f8f8e60600151604051620006ab90620010bf565b620006c09a9998979695949392919062001854565b604051809103906000f080158015620006dd573d6000803e3d6000fd5b509050600360009054906101000a900473ffffffffffffffffffffffffffffffffffffffff1673ffffffffffffffffffffffffffffffffffffffff1663095ea7b3828460026200072e919062001ab8565b6040518363ffffffff1660e01b81526004016200074d929190620017cd565b602060405180830381600087803b1580156200076857600080fd5b505af11580156200077d573d6000803e3d6000fd5b505050506040513d601f19601f82011682018060405250810190620007a391906200133f565b620007e5576040517f08c379a0000000000000000000000000000000000000000000000000000000008152600401620007dc906200196c565b60405180910390fd5b7ffadb9547847a0c2c31f4c02590545e318d33d7aae99071caecf3fa4ce3cd7dca8660400151826040516200081c92919062001a11565b60405180910390a1600860003373ffffffffffffffffffffffffffffffffffffffff1673ffffffffffffffffffffffffffffffffffffffff16815260200190815260200160002060006101000a81549060ff021916905560086000876020015173ffffffffffffffffffffffffffffffffffffffff1673ffffffffffffffffffffffffffffffffffffffff16815260200190815260200160002060006101000a81549060ff0219169055600760008b8152602001908152602001600020600080820160006101000a81549060ff02191690556000820160016101000a81549073ffffffffffffffffffffffffffffffffffffffff021916905560018201600090556002820160006200092f9190620010cd565b50505050505050505062000b11565b60405180608001604052806001151581526020013373ffffffffffffffffffffffffffffffffffffffff16815260200160066000815480929190620009839062001c5f565b919050558152602001898980806020026020016040519081016040528093929190818152602001838360200280828437600081840152601f19601f82011690508083019250505050505050815250600760008b815260200190815260200160002060008201518160000160006101000a81548160ff02191690831515021790555060208201518160000160016101000a81548173ffffffffffffffffffffffffffffffffffffffff021916908373ffffffffffffffffffffffffffffffffffffffff16021790555060408201518160010155606082015181600201908051906020019062000a73929190620010f7565b509050506001600860003373ffffffffffffffffffffffffffffffffffffffff1673ffffffffffffffffffffffffffffffffffffffff16815260200190815260200160002060006101000a81548160ff0219169083151502179055507f6ba49772de98d7caa0bbc51b24dfec5673a2f67fc9932e20e1295eca2947d43b60065460405162000b029190620019f4565b60405180910390a15050505050505b505050565b60086020528060005260406000206000915054906101000a900460ff1681565b6000600260009054906101000a900473ffffffffffffffffffffffffffffffffffffffff1673ffffffffffffffffffffffffffffffffffffffff1663586a7b71836040518263ffffffff1660e01b815260040162000b959190620019f4565b60806040518083038186803b15801562000bae57600080fd5b505afa15801562000bc3573d6000803e3d6000fd5b505050506040513d601f19601f8201168201806040525081019062000be991906200140d565b9350505050600360009054906101000a900473ffffffffffffffffffffffffffffffffffffffff1673ffffffffffffffffffffffffffffffffffffffff1663095ea7b333836040518363ffffffff1660e01b815260040162000c4d929190620017cd565b602060405180830381600087803b15801562000c6857600080fd5b505af115801562000c7d573d6000803e3d6000fd5b505050506040513d601f19601f8201168201806040525081019062000ca391906200133f565b62000ce5576040517f08c379a000000000000000000000000000000000000000000000000000000000815260040162000cdc90620019d2565b60405180910390fd5b600860003373ffffffffffffffffffffffffffffffffffffffff1673ffffffffffffffffffffffffffffffffffffffff16815260200190815260200160002060006101000a81549060ff021916905560076000838152602001908152602001600020600080820160006101000a81549060ff02191690556000820160016101000a81549073ffffffffffffffffffffffffffffffffffffffff0219169055600182016000905560028201600062000d9d9190620010cd565b50507f376488118f6c5ddef80f45989b43f1e286861b6b2187e9db3965731e4d69a43d823360405162000dd292919062001a11565b60405180910390a15050565b62000de862000ff3565b73ffffffffffffffffffffffffffffffffffffffff1662000e0862000ec6565b73ffffffffffffffffffffffffffffffffffffffff161462000e61576040517f08c379a000000000000000000000000000000000000000000000000000000000815260040162000e58906200198e565b60405180910390fd5b62000e6d600062000ffb565b565b60076020528060005260406000206000915090508060000160009054906101000a900460ff16908060000160019054906101000a900473ffffffffffffffffffffffffffffffffffffffff16908060010154905083565b60008060009054906101000a900473ffffffffffffffffffffffffffffffffffffffff16905090565b62000ef962000ff3565b73ffffffffffffffffffffffffffffffffffffffff1662000f1962000ec6565b73ffffffffffffffffffffffffffffffffffffffff161462000f72576040517f08c379a000000000000000000000000000000000000000000000000000000000815260040162000f69906200198e565b60405180910390fd5b600073ffffffffffffffffffffffffffffffffffffffff168173ffffffffffffffffffffffffffffffffffffffff16141562000fe5576040517f08c379a000000000000000000000000000000000000000000000000000000000815260040162000fdc9062001928565b60405180910390fd5b62000ff08162000ffb565b50565b600033905090565b60008060009054906101000a900473ffffffffffffffffffffffffffffffffffffffff169050816000806101000a81548173ffffffffffffffffffffffffffffffffffffffff021916908373ffffffffffffffffffffffffffffffffffffffff1602179055508173ffffffffffffffffffffffffffffffffffffffff168173ffffffffffffffffffffffffffffffffffffffff167f8be0079c531659141344cd1fd0a4f28419497f9722a3daafe3b4186f6b6457e060405160405180910390a35050565b6167b68062001ebd83390190565b50805460008255601f016020900490600052602060002090810190620010f49190620011a5565b50565b82805482825590600052602060002090601f01602090048101928215620011925791602002820160005b838211156200116157835183826101000a81548160ff021916908360ff160217905550926020019260010160208160000104928301926001030262001121565b8015620011905782816101000a81549060ff021916905560010160208160000104928301926001030262001161565b505b509050620011a19190620011a5565b5090565b5b80821115620011c0576000816000905550600101620011a6565b5090565b600081359050620011d58162001e3a565b92915050565b600081519050620011ec8162001e3a565b92915050565b60008083601f8401126200120b576200120a62001ce1565b5b8235905067ffffffffffffffff8111156200122b576200122a62001cdc565b5b6020830191508360208202830111156200124a576200124962001ce6565b5b9250929050565b600081519050620012628162001e54565b92915050565b600081519050620012798162001e6e565b92915050565b600081359050620012908162001e88565b92915050565b600081519050620012a78162001e88565b92915050565b600081359050620012be8162001ea2565b92915050565b600081519050620012d58162001ea2565b92915050565b600060208284031215620012f457620012f362001cf0565b5b60006200130484828501620011c4565b91505092915050565b60006020828403121562001326576200132562001cf0565b5b60006200133684828501620011db565b91505092915050565b60006020828403121562001358576200135762001cf0565b5b6000620013688482850162001251565b91505092915050565b6000602082840312156200138a576200138962001cf0565b5b60006200139a848285016200127f565b91505092915050565b600080600060408486031215620013bf57620013be62001cf0565b5b6000620013cf868287016200127f565b935050602084013567ffffffffffffffff811115620013f357620013f262001ceb565b5b6200140186828701620011f2565b92509250509250925092565b600080600080608085870312156200142a576200142962001cf0565b5b60006200143a87828801620012c4565b94505060206200144d8782880162001268565b9350506040620014608782880162001268565b9250506060620014738782880162001296565b91505092959194509250565b60006200148d838362001762565b60208301905092915050565b620014a48162001b96565b82525050565b6000620014b8838562001a7d565b9350620014c58262001a3e565b8060005b858110156200150657620014de828462001a9f565b620014ea88826200147f565b9750620014f78362001a63565b925050600181019050620014c9565b5085925050509392505050565b6000620015208262001a58565b6200152c818562001a7d565b9350620015398362001a48565b8060005b83811015620015705781516200155488826200147f565b9750620015618362001a70565b9250506001810190506200153d565b5085935050505092915050565b620015888162001baa565b82525050565b620015998162001bfb565b82525050565b620015aa8162001c0f565b82525050565b620015bb8162001c23565b82525050565b6000620015d0601a8362001a8e565b9150620015dd8262001cf5565b602082019050919050565b6000620015f760268362001a8e565b9150620016048262001d1e565b604082019050919050565b60006200161e60128362001a8e565b91506200162b8262001d6d565b602082019050919050565b60006200164560198362001a8e565b9150620016528262001d96565b602082019050919050565b60006200166c60208362001a8e565b9150620016798262001dbf565b602082019050919050565b600062001693601b8362001a8e565b9150620016a08262001de8565b602082019050919050565b6000620016ba601b8362001a8e565b9150620016c78262001e11565b602082019050919050565b608082016000820151620016ea600085018262001762565b506020820151620016ff60208501826200172f565b5060408201516200171460408501826200172f565b50606082015162001729606085018262001740565b50505050565b6200173a8162001bb6565b82525050565b6200174b8162001be4565b82525050565b6200175c8162001be4565b82525050565b6200176d8162001bee565b82525050565b60006020820190506200178a600083018462001499565b92915050565b6000606082019050620017a7600083018662001499565b620017b6602083018562001499565b620017c5604083018462001751565b949350505050565b6000604082019050620017e4600083018562001499565b620017f3602083018462001751565b9392505050565b60006020820190506200181160008301846200157d565b92915050565b60006060820190506200182e60008301866200157d565b6200183d602083018562001499565b6200184c604083018462001751565b949350505050565b6000610180820190506200186c600083018d620015b0565b6200187b602083018c6200159f565b6200188a604083018b6200158e565b62001899606083018a620016d2565b620018a860e083018962001499565b620018b861010083018862001499565b620018c861012083018762001499565b818103610140830152620018de818587620014aa565b9050818103610160830152620018f5818462001513565b90509b9a5050505050505050505050565b600060208201905081810360008301526200192181620015c1565b9050919050565b600060208201905081810360008301526200194381620015e8565b9050919050565b6000602082019050818103600083015262001965816200160f565b9050919050565b60006020820190508181036000830152620019878162001636565b9050919050565b60006020820190508181036000830152620019a9816200165d565b9050919050565b60006020820190508181036000830152620019cb8162001684565b9050919050565b60006020820190508181036000830152620019ed81620016ab565b9050919050565b600060208201905062001a0b600083018462001751565b92915050565b600060408201905062001a28600083018562001751565b62001a37602083018462001499565b9392505050565b6000819050919050565b6000819050602082019050919050565b600081519050919050565b6000602082019050919050565b6000602082019050919050565b600082825260208201905092915050565b600082825260208201905092915050565b600062001ab06020840184620012ad565b905092915050565b600062001ac58262001be4565b915062001ad28362001be4565b9250817fffffffffffffffffffffffffffffffffffffffffffffffffffffffffffffffff048311821515161562001b0e5762001b0d62001cad565b5b828202905092915050565b600062001b268262001bee565b915062001b338362001bee565b92508160ff048311821515161562001b505762001b4f62001cad565b5b828202905092915050565b600062001b688262001bee565b915062001b758362001bee565b92508282101562001b8b5762001b8a62001cad565b5b828203905092915050565b600062001ba38262001bc4565b9050919050565b60008115159050919050565b600061ffff82169050919050565b600073ffffffffffffffffffffffffffffffffffffffff82169050919050565b6000819050919050565b600060ff82169050919050565b600062001c088262001c37565b9050919050565b600062001c1c8262001c37565b9050919050565b600062001c308262001c37565b9050919050565b600062001c448262001c4b565b9050919050565b600062001c588262001bc4565b9050919050565b600062001c6c8262001be4565b91507fffffffffffffffffffffffffffffffffffffffffffffffffffffffffffffffff82141562001ca25762001ca162001cad565b5b600182019050919050565b7f4e487b7100000000000000000000000000000000000000000000000000000000600052601160045260246000fd5b600080fd5b600080fd5b600080fd5b600080fd5b600080fd5b7f4465636b206973206e6f74207468652072696768742073697a65000000000000600082015250565b7f4f776e61626c653a206e6577206f776e657220697320746865207a65726f206160008201527f6464726573730000000000000000000000000000000000000000000000000000602082015250565b7f466565207061796d656e74206661696c65640000000000000000000000000000600082015250565b7f47616d6520746f6b656e20617070726f7665206661696c656400000000000000600082015250565b7f4f776e61626c653a2063616c6c6572206973206e6f7420746865206f776e6572600082015250565b7f426f6172642069736e2774206f776e656420627920616e796f6e650000000000600082015250565b7f456e7472616e63652066656520617070726f7665206661696c65640000000000600082015250565b62001e458162001b96565b811462001e5157600080fd5b50565b62001e5f8162001baa565b811462001e6b57600080fd5b50565b62001e798162001bb6565b811462001e8557600080fd5b50565b62001e938162001be4565b811462001e9f57600080fd5b50565b62001ead8162001bee565b811462001eb957600080fd5b5056fe61014060405260008060006101000a81548160ff021916908360018111156200002d576200002c62000cd6565b5b021790555060008060016101000a81548161ffff021916908361ffff1602179055503480156200005c57600080fd5b50604051620067b6380380620067b683398181016040528101906200008291906200092d565b60016002876000015162000097919062000b5f565b620000a3919062000ba1565b60ff168251148015620000d95750600160028760000151620000c6919062000b5f565b620000d2919062000ba1565b60ff168151145b6200011b576040517f08c379a0000000000000000000000000000000000000000000000000000000008152600401620001129062000ad4565b60405180910390fd5b88600160006101000a81548173ffffffffffffffffffffffffffffffffffffffff021916908373ffffffffffffffffffffffffffffffffffffffff16021790555087600260006101000a81548173ffffffffffffffffffffffffffffffffffffffff021916908373ffffffffffffffffffffffffffffffffffffffff16021790555086600360006101000a81548173ffffffffffffffffffffffffffffffffffffffff021916908373ffffffffffffffffffffffffffffffffffffffff1602179055506040518060800160405280620002aa600160009054906101000a900473ffffffffffffffffffffffffffffffffffffffff1673ffffffffffffffffffffffffffffffffffffffff166327e235e3886040518263ffffffff1660e01b81526004016200024a919062000ab7565b60206040518083038186803b1580156200026357600080fd5b505afa15801562000278573d6000803e3d6000fd5b505050506040513d601f19601f820116820180604052508101906200029e919062000a4d565b6200062d60201b60201c565b60ff168152602001876000015160ff1681526020018573ffffffffffffffffffffffffffffffffffffffff16815260200183815250600460008201518160000160006101000a81548160ff021916908360ff16021790555060208201518160000160016101000a81548160ff021916908360ff16021790555060408201518160000160026101000a81548173ffffffffffffffffffffffffffffffffffffffff021916908373ffffffffffffffffffffffffffffffffffffffff1602179055506060820151816001019080519060200190620003889291906200068c565b50905050604051806080016040528062000458600160009054906101000a900473ffffffffffffffffffffffffffffffffffffffff1673ffffffffffffffffffffffffffffffffffffffff166327e235e3876040518263ffffffff1660e01b8152600401620003f8919062000ab7565b60206040518083038186803b1580156200041157600080fd5b505afa15801562000426573d6000803e3d6000fd5b505050506040513d601f19601f820116820180604052508101906200044c919062000a4d565b6200062d60201b60201c565b60ff168152602001876000015160ff1681526020018473ffffffffffffffffffffffffffffffffffffffff16815260200182815250600660008201518160000160006101000a81548160ff021916908360ff16021790555060208201518160000160016101000a81548160ff021916908360ff16021790555060408201518160000160026101000a81548173ffffffffffffffffffffffffffffffffffffffff021916908373ffffffffffffffffffffffffffffffffffffffff1602179055506060820151816001019080519060200190620005369291906200068c565b509050503373ffffffffffffffffffffffffffffffffffffffff166101208173ffffffffffffffffffffffffffffffffffffffff1660601b815250508473ffffffffffffffffffffffffffffffffffffffff166101008173ffffffffffffffffffffffffffffffffffffffff1660601b81525050856040015161ffff1660e08161ffff1660f01b81525050856020015161ffff1660c08161ffff1660f01b81525050856000015160ff1660a08160ff1660f81b8152505060016002876000015162000602919062000b5f565b6200060e919062000ba1565b60ff1660808160ff1660f81b8152505050505050505050505062000e63565b600060648210156200064357600a905062000687565b6101c28210156200065857600f905062000687565b61041a8210156200066d576014905062000687565b6110fe82101562000682576019905062000687565b601e90505b919050565b82805482825590600052602060002090601f01602090048101928215620007275791602002820160005b83821115620006f657835183826101000a81548160ff021916908360ff1602179055509260200192600101602081600001049283019260010302620006b6565b8015620007255782816101000a81549060ff0219169055600101602081600001049283019260010302620006f6565b505b5090506200073691906200073a565b5090565b5b80821115620007555760008160009055506001016200073b565b5090565b6000620007706200076a8462000b1f565b62000af6565b9050808382526020820190508285602086028201111562000796576200079562000d3e565b5b60005b85811015620007ca5781620007af888262000916565b84526020840193506020830192505060018101905062000799565b5050509392505050565b600081519050620007e58162000dad565b92915050565b600082601f83011262000803576200080262000d34565b5b81516200081584826020860162000759565b91505092915050565b6000815190506200082f8162000dc7565b92915050565b600081519050620008468162000de1565b92915050565b6000815190506200085d8162000dfb565b92915050565b6000608082840312156200087c576200087b62000d39565b5b62000888608062000af6565b905060006200089a8482850162000916565b6000830152506020620008b084828501620008e8565b6020830152506040620008c684828501620008e8565b6040830152506060620008dc84828501620008ff565b60608301525092915050565b600081519050620008f98162000e15565b92915050565b600081519050620009108162000e2f565b92915050565b600081519050620009278162000e49565b92915050565b60008060008060008060008060006101808a8c03121562000953576200095262000d48565b5b6000620009638c828d016200084c565b9950506020620009768c828d0162000835565b9850506040620009898c828d016200081e565b97505060606200099c8c828d0162000863565b96505060e0620009af8c828d01620007d4565b955050610100620009c38c828d01620007d4565b945050610120620009d78c828d01620007d4565b9350506101408a015167ffffffffffffffff811115620009fc57620009fb62000d43565b5b62000a0a8c828d01620007eb565b9250506101608a015167ffffffffffffffff81111562000a2f5762000a2e62000d43565b5b62000a3d8c828d01620007eb565b9150509295985092959850929598565b60006020828403121562000a665762000a6562000d48565b5b600062000a7684828501620008ff565b91505092915050565b62000a8a8162000bdc565b82525050565b600062000a9f60298362000b4e565b915062000aac8262000d5e565b604082019050919050565b600060208201905062000ace600083018462000a7f565b92915050565b6000602082019050818103600083015262000aef8162000a90565b9050919050565b600062000b0262000b15565b905062000b10828262000c71565b919050565b6000604051905090565b600067ffffffffffffffff82111562000b3d5762000b3c62000d05565b5b602082029050602081019050919050565b600082825260208201905092915050565b600062000b6c8262000c64565b915062000b798362000c64565b92508160ff048311821515161562000b965762000b9562000ca7565b5b828202905092915050565b600062000bae8262000c64565b915062000bbb8362000c64565b92508282101562000bd15762000bd062000ca7565b5b828203905092915050565b600062000be98262000c3a565b9050919050565b600062000bfd8262000bdc565b9050919050565b600062000c118262000bdc565b9050919050565b600062000c258262000bdc565b9050919050565b600061ffff82169050919050565b600073ffffffffffffffffffffffffffffffffffffffff82169050919050565b6000819050919050565b600060ff82169050919050565b62000c7c8262000d4d565b810181811067ffffffffffffffff8211171562000c9e5762000c9d62000d05565b5b80604052505050565b7f4e487b7100000000000000000000000000000000000000000000000000000000600052601160045260246000fd5b7f4e487b7100000000000000000000000000000000000000000000000000000000600052602160045260246000fd5b7f4e487b7100000000000000000000000000000000000000000000000000000000600052604160045260246000fd5b600080fd5b600080fd5b600080fd5b600080fd5b600080fd5b6000601f19601f8301169050919050565b7f4465636b2073697a6520646f65736e2774206d617463682067616d652072657160008201527f756972656d656e74730000000000000000000000000000000000000000000000602082015250565b62000db88162000bdc565b811462000dc457600080fd5b50565b62000dd28162000bf0565b811462000dde57600080fd5b50565b62000dec8162000c04565b811462000df857600080fd5b50565b62000e068162000c18565b811462000e1257600080fd5b50565b62000e208162000c2c565b811462000e2c57600080fd5b50565b62000e3a8162000c5a565b811462000e4657600080fd5b50565b62000e548162000c64565b811462000e6057600080fd5b50565b60805160f81c60a05160f81c60c05160f01c60e05160f01c6101005160601c6101205160601c6158b262000f046000396000818161281a0152818161383b01528181613c4501528181613d140152613eaa01526000613ecb01526000613eef0152600081816127b7015281816137d80152613d79015260006107670152600081816109aa01528181610f9d01528181610fdf015261236201526158b26000f3fe608060405234801561001057600080fd5b50600436106100575760003560e01c80631be80d551461005c5780633f312752146100905780634f033fa0146100ac5780634f4fdf80146100dc578063d9d881e31461010c575b600080fd5b61007660048036038101906100719190614462565b61012a565b604051610087959493929190614a96565b60405180910390f35b6100aa60048036038101906100a59190614361565b6101d9565b005b6100c660048036038101906100c19190614334565b6102bb565b6040516100d39190614e24565b60405180910390f35b6100f660048036038101906100f191906144cf565b6102d3565b6040516101039190614e09565b60405180910390f35b6101146103f6565b6040516101219190614a74565b60405180910390f35b600c828154811061013a57600080fd5b90600052602060002001818154811061015257600080fd5b90600052602060002001600091509150508060000160009054906101000a900460ff16908060000160019054906101000a900460ff16908060000160029054906101000a900460ff16908060000160039054906101000a900460ff16908060000160049054906101000a900473ffffffffffffffffffffffffffffffffffffffff16905085565b600860000160029054906101000a900473ffffffffffffffffffffffffffffffffffffffff1673ffffffffffffffffffffffffffffffffffffffff163373ffffffffffffffffffffffffffffffffffffffff161461026c576040517f08c379a000000000000000000000000000000000000000000000000000000000815260040161026390614b09565b60405180910390fd5b60005b828290508110156102ae5761029b8383838181106102905761028f615372565b5b905060c002016104da565b80806102a69061529c565b91505061026f565b506102b7610765565b5050565b600b6020528060005260406000206000915090505481565b6102db614132565b600c8360ff16815481106102f2576102f1615372565b5b906000526020600020018260ff168154811061031157610310615372565b5b906000526020600020016040518060a00160405290816000820160009054906101000a900460ff161515151581526020016000820160019054906101000a900460ff1660ff1660ff1681526020016000820160029054906101000a900460ff1660ff1660ff1681526020016000820160039054906101000a900460ff1660ff1660ff1681526020016000820160049054906101000a900473ffffffffffffffffffffffffffffffffffffffff1673ffffffffffffffffffffffffffffffffffffffff1673ffffffffffffffffffffffffffffffffffffffff1681525050905092915050565b6060600460000160029054906101000a900473ffffffffffffffffffffffffffffffffffffffff1673ffffffffffffffffffffffffffffffffffffffff163373ffffffffffffffffffffffffffffffffffffffff161461045a576004600101610460565b60066001015b8054806020026020016040519081016040528092919081815260200182805480156104d057602002820191906000526020600020906000905b82829054906101000a900460ff1660ff16815260200190600101906020826000010492830192600103820291508084116104995790505b5050505050905090565b600060068111156104ee576104ed615343565b5b81600001602081019061050191906143db565b600681111561051357610512615343565b5b141561054f5761054a81602001602081019061052f91906144a2565b82604001602001602081019061054591906144a2565b6108bc565b610762565b6001600681111561056357610562615343565b5b81600001602081019061057691906143db565b600681111561058857610587615343565b5b14156105a35761059e8160400182608001610de3565b610761565b600260068111156105b7576105b6615343565b5b8160000160208101906105ca91906143db565b60068111156105dc576105db615343565b5b14156105f7576105f2816040018260800161155b565b610760565b6003600681111561060b5761060a615343565b5b81600001602081019061061e91906143db565b60068111156106305761062f615343565b5b14156106475761064281604001611f4e565b61075f565b6004600681111561065b5761065a615343565b5b81600001602081019061066e91906143db565b60068111156106805761067f615343565b5b14156106aa576106a581602001602081019061069c91906144a2565b82608001612547565b61075e565b600560068111156106be576106bd615343565b5b8160000160208101906106d191906143db565b60068111156106e3576106e2615343565b5b14156106fe576106f98160400182608001612d3f565b61075d565b60068081111561071157610710615343565b5b81600001602081019061072491906143db565b600681111561073657610735615343565b5b141561075c5761075b81602001602081019061075291906144a2565b826080016135ae565b5b5b5b5b5b5b5b50565b7f0000000000000000000000000000000000000000000000000000000000000000600860000160018282829054906101000a900460ff166107a69190615032565b92506101000a81548160ff021916908360ff160217905550600060018111156107d2576107d1615343565b5b60008054906101000a900460ff1660018111156107f2576107f1615343565b5b146107fe576000610801565b60015b6000806101000a81548160ff0219169083600181111561082457610823615343565b5b02179055506000600181819054906101000a900461ffff168092919061084990615271565b91906101000a81548161ffff021916908361ffff160217905550507fb2a5f112f4ef2b6d1ab7a886557835d90f7826318e7a0a40a34673a7248ba8de60008054906101000a900460ff1660018111156108a5576108a4615343565b5b6040516108b29190614e5a565b60405180910390a1565b6002600a6000600860000160029054906101000a900473ffffffffffffffffffffffffffffffffffffffff1673ffffffffffffffffffffffffffffffffffffffff1673ffffffffffffffffffffffffffffffffffffffff16815260200190815260200160002060008460ff1660ff16815260200190815260200160002060009054906101000a900461ffff16600060019054906101000a900461ffff16610963919061512f565b61ffff1610156109a8576040517f08c379a000000000000000000000000000000000000000000000000000000000815260040161099f90614b49565b60405180910390fd5b7f000000000000000000000000000000000000000000000000000000000000000060ff168160ff1610610a10576040517f08c379a0000000000000000000000000000000000000000000000000000000008152600401610a0790614b69565b60405180910390fd5b600c600081548110610a2557610a24615372565b5b906000526020600020018160ff1681548110610a4457610a43615372565b5b9060005260206000200160000160009054906101000a900460ff1615610a9f576040517f08c379a0000000000000000000000000000000000000000000000000000000008152600401610a9690614ca9565b60405180910390fd5b600060086001018360ff1681548110610abb57610aba615372565b5b90600052602060002090602091828204019190069054906101000a900460ff1690506000600360009054906101000a900473ffffffffffffffffffffffffffffffffffffffff1673ffffffffffffffffffffffffffffffffffffffff16639188d312836040518263ffffffff1660e01b8152600401610b3a9190614e3f565b60e06040518083038186803b158015610b5257600080fd5b505afa158015610b66573d6000803e3d6000fd5b505050506040513d601f19601f82011682018060405250810190610b8a9190614408565b9050806080015160ff16600860000160019054906101000a900460ff1660ff1611610bea576040517f08c379a0000000000000000000000000000000000000000000000000000000008152600401610be190614cc9565b60405180910390fd5b8060800151600860000160018282829054906101000a900460ff16610c0f9190615197565b92506101000a81548160ff021916908360ff1602179055506040518060a001604052806001151581526020018560ff1681526020018260a0015160ff1681526020018360ff168152602001600860000160029054906101000a900473ffffffffffffffffffffffffffffffffffffffff1673ffffffffffffffffffffffffffffffffffffffff16815250600c600081548110610cae57610cad615372565b5b906000526020600020018460ff1681548110610ccd57610ccc615372565b5b9060005260206000200160008201518160000160006101000a81548160ff02191690831515021790555060208201518160000160016101000a81548160ff021916908360ff16021790555060408201518160000160026101000a81548160ff021916908360ff16021790555060608201518160000160036101000a81548160ff021916908360ff16021790555060808201518160000160046101000a81548173ffffffffffffffffffffffffffffffffffffffff021916908373ffffffffffffffffffffffffffffffffffffffff1602179055509050507f2a102de3851f9d59b8d145c1ce90b60cb023d819273a14fd3b25e7f0cec7ed4e8383604051610dd5929190614e75565b60405180910390a150505050565b6000600c836000016020810190610dfa91906144a2565b60ff1681548110610e0e57610e0d615372565b5b90600052602060002001836020016020810190610e2b91906144a2565b60ff1681548110610e3f57610e3e615372565b5b906000526020600020016040518060a00160405290816000820160009054906101000a900460ff161515151581526020016000820160019054906101000a900460ff1660ff1660ff1681526020016000820160029054906101000a900460ff1660ff1660ff1681526020016000820160039054906101000a900460ff1660ff1660ff1681526020016000820160049054906101000a900473ffffffffffffffffffffffffffffffffffffffff1673ffffffffffffffffffffffffffffffffffffffff1673ffffffffffffffffffffffffffffffffffffffff168152505090506000600460000160029054906101000a900473ffffffffffffffffffffffffffffffffffffffff1673ffffffffffffffffffffffffffffffffffffffff16600860000160029054906101000a900473ffffffffffffffffffffffffffffffffffffffff1673ffffffffffffffffffffffffffffffffffffffff161490507f000000000000000000000000000000000000000000000000000000000000000060ff16836000016020810190610fd291906144a2565b60ff1610801561101957507f000000000000000000000000000000000000000000000000000000000000000060ff1683602001602081019061101491906144a2565b60ff16105b611058576040517f08c379a000000000000000000000000000000000000000000000000000000000815260040161104f90614ae9565b60405180910390fd5b3373ffffffffffffffffffffffffffffffffffffffff16826080015173ffffffffffffffffffffffffffffffffffffffff16146110ca576040517f08c379a00000000000000000000000000000000000000000000000000000000081526004016110c190614de9565b60405180910390fd5b600160ff16600860000160019054906101000a900460ff1660ff1611611125576040517f08c379a000000000000000000000000000000000000000000000000000000000815260040161111c90614ba9565b60405180910390fd5b6000816111615783600001602081019061113f91906144a2565b85600001602081019061115291906144a2565b61115c9190615197565b611192565b84600001602081019061117491906144a2565b84600001602081019061118791906144a2565b6111919190615197565b5b905060008560200160208101906111a991906144a2565b60ff168560200160208101906111bf91906144a2565b60ff1610156111fd578460200160208101906111db91906144a2565b8660200160208101906111ee91906144a2565b6111f89190615197565b61122e565b85602001602081019061121091906144a2565b85602001602081019061122391906144a2565b61122d9190615197565b5b905060018260ff161480611245575060018160ff16145b611284576040517f08c379a000000000000000000000000000000000000000000000000000000000815260040161127b90614d89565b60405180910390fd5b6001600860000160018282829054906101000a900460ff166112a69190615197565b92506101000a81548160ff021916908360ff16021790555083600c8660000160208101906112d491906144a2565b60ff16815481106112e8576112e7615372565b5b9060005260206000200186602001602081019061130591906144a2565b60ff168154811061131957611318615372565b5b9060005260206000200160008201518160000160006101000a81548160ff02191690831515021790555060208201518160000160016101000a81548160ff021916908360ff16021790555060408201518160000160026101000a81548160ff021916908360ff16021790555060608201518160000160036101000a81548160ff021916908360ff16021790555060808201518160000160046101000a81548173ffffffffffffffffffffffffffffffffffffffff021916908373ffffffffffffffffffffffffffffffffffffffff160217905550905050600c86600001602081019061140591906144a2565b60ff168154811061141957611418615372565b5b9060005260206000200186602001602081019061143691906144a2565b60ff168154811061144a57611449615372565b5b90600052602060002001600080820160006101000a81549060ff02191690556000820160016101000a81549060ff02191690556000820160026101000a81549060ff02191690556000820160036101000a81549060ff02191690556000820160046101000a81549073ffffffffffffffffffffffffffffffffffffffff021916905550507fd46e1b079f3442f942e1744a9c599b87a4a96c160cda79caa418bd5e4632a1c286600001602081019061150291906144a2565b87602001602081019061151591906144a2565b87600001602081019061152891906144a2565b88602001602081019061153b91906144a2565b60405161154b9493929190614ed5565b60405180910390a1505050505050565b6000600c83600001602081019061157291906144a2565b60ff168154811061158657611585615372565b5b906000526020600020018360200160208101906115a391906144a2565b60ff16815481106115b7576115b6615372565b5b906000526020600020016040518060a00160405290816000820160009054906101000a900460ff161515151581526020016000820160019054906101000a900460ff1660ff1660ff1681526020016000820160029054906101000a900460ff1660ff1660ff1681526020016000820160039054906101000a900460ff1660ff1660ff1681526020016000820160049054906101000a900473ffffffffffffffffffffffffffffffffffffffff1673ffffffffffffffffffffffffffffffffffffffff1673ffffffffffffffffffffffffffffffffffffffff168152505090506000600c8360000160208101906116ad91906144a2565b60ff16815481106116c1576116c0615372565b5b906000526020600020018360200160208101906116de91906144a2565b60ff16815481106116f2576116f1615372565b5b906000526020600020016040518060a00160405290816000820160009054906101000a900460ff161515151581526020016000820160019054906101000a900460ff1660ff1660ff1681526020016000820160029054906101000a900460ff1660ff1660ff1681526020016000820160039054906101000a900460ff1660ff1660ff1681526020016000820160049054906101000a900473ffffffffffffffffffffffffffffffffffffffff1673ffffffffffffffffffffffffffffffffffffffff1673ffffffffffffffffffffffffffffffffffffffff168152505090503373ffffffffffffffffffffffffffffffffffffffff16826080015173ffffffffffffffffffffffffffffffffffffffff1614611843576040517f08c379a000000000000000000000000000000000000000000000000000000000815260040161183a90614c89565b60405180910390fd5b8060000151611887576040517f08c379a000000000000000000000000000000000000000000000000000000000815260040161187e90614ce9565b60405180910390fd5b3373ffffffffffffffffffffffffffffffffffffffff16816080015173ffffffffffffffffffffffffffffffffffffffff1614156118fa576040517f08c379a00000000000000000000000000000000000000000000000000000000081526004016118f190614c29565b60405180910390fd5b6000600360009054906101000a900473ffffffffffffffffffffffffffffffffffffffff1673ffffffffffffffffffffffffffffffffffffffff16639188d31284606001516040518263ffffffff1660e01b815260040161195b9190614e3f565b60e06040518083038186803b15801561197357600080fd5b505afa158015611987573d6000803e3d6000fd5b505050506040513d601f19601f820116820180604052508101906119ab9190614408565b9050600060018111156119c1576119c0615343565b5b816020015160018111156119d8576119d7615343565b5b14611a18576040517f08c379a0000000000000000000000000000000000000000000000000000000008152600401611a0f90614d09565b60405180910390fd5b6000600460000160029054906101000a900473ffffffffffffffffffffffffffffffffffffffff1673ffffffffffffffffffffffffffffffffffffffff16600860000160029054906101000a900473ffffffffffffffffffffffffffffffffffffffff1673ffffffffffffffffffffffffffffffffffffffff16149050600081611ad157856000016020810190611aaf91906144a2565b876000016020810190611ac291906144a2565b611acc9190615197565b611b02565b866000016020810190611ae491906144a2565b866000016020810190611af791906144a2565b611b019190615197565b5b90506000876020016020810190611b1991906144a2565b60ff16876020016020810190611b2f91906144a2565b60ff161015611b6d57866020016020810190611b4b91906144a2565b886020016020810190611b5e91906144a2565b611b689190615197565b611b9e565b876020016020810190611b8091906144a2565b876020016020810190611b9391906144a2565b611b9d9190615197565b5b9050836060015160ff168260ff1611158015611bc45750836040015160ff168160ff1611155b611c03576040517f08c379a0000000000000000000000000000000000000000000000000000000008152600401611bfa90614dc9565b60405180910390fd5b600160ff16600860000160019054906101000a900460ff1660ff1611611c5e576040517f08c379a0000000000000000000000000000000000000000000000000000000008152600401611c5590614b29565b60405180910390fd5b6001600860000160018282829054906101000a900460ff16611c809190615197565b92506101000a81548160ff021916908360ff1602179055508360c0015160ff16856040015160ff1611611e1957600060019054906101000a900461ffff16600a6000876080015173ffffffffffffffffffffffffffffffffffffffff1673ffffffffffffffffffffffffffffffffffffffff1681526020019081526020016000206000876020015160ff1660ff16815260200190815260200160002060006101000a81548161ffff021916908361ffff160217905550600c876000016020810190611d4b91906144a2565b60ff1681548110611d5f57611d5e615372565b5b90600052602060002001876020016020810190611d7c91906144a2565b60ff1681548110611d9057611d8f615372565b5b90600052602060002001600080820160006101000a81549060ff02191690556000820160016101000a81549060ff02191690556000820160026101000a81549060ff02191690556000820160036101000a81549060ff02191690556000820160046101000a81549073ffffffffffffffffffffffffffffffffffffffff02191690555050611eb9565b8360c00151600c886000016020810190611e3391906144a2565b60ff1681548110611e4757611e46615372565b5b90600052602060002001886020016020810190611e6491906144a2565b60ff1681548110611e7857611e77615372565b5b9060005260206000200160000160028282829054906101000a900460ff16611ea09190615197565b92506101000a81548160ff021916908360ff1602179055505b7f821fa0d3357caf1ed6e818f6af88d667dbb5e5afc86fd1dd63c43c5d9cb668de886000016020810190611eed91906144a2565b896020016020810190611f0091906144a2565b896000016020810190611f1391906144a2565b8a6020016020810190611f2691906144a2565b8860c00151604051611f3c959493929190614f1a565b60405180910390a15050505050505050565b6000806001811115611f6357611f62615343565b5b60008054906101000a900460ff166001811115611f8357611f82615343565b5b14611f8f576004611f92565b60065b90506000600c836000016020810190611fab91906144a2565b60ff1681548110611fbf57611fbe615372565b5b90600052602060002001836020016020810190611fdc91906144a2565b60ff1681548110611ff057611fef615372565b5b906000526020600020016040518060a00160405290816000820160009054906101000a900460ff161515151581526020016000820160019054906101000a900460ff1660ff1660ff1681526020016000820160029054906101000a900460ff1660ff1660ff1681526020016000820160039054906101000a900460ff1660ff1660ff1681526020016000820160049054906101000a900473ffffffffffffffffffffffffffffffffffffffff1673ffffffffffffffffffffffffffffffffffffffff1673ffffffffffffffffffffffffffffffffffffffff168152505090506000600360009054906101000a900473ffffffffffffffffffffffffffffffffffffffff1673ffffffffffffffffffffffffffffffffffffffff16639188d31283606001516040518263ffffffff1660e01b81526004016121309190614e3f565b60e06040518083038186803b15801561214857600080fd5b505afa15801561215c573d6000803e3d6000fd5b505050506040513d601f19601f820116820180604052508101906121809190614408565b90503373ffffffffffffffffffffffffffffffffffffffff16826080015173ffffffffffffffffffffffffffffffffffffffff16146121f4576040517f08c379a00000000000000000000000000000000000000000000000000000000081526004016121eb90614c89565b60405180910390fd5b6000600181111561220857612207615343565b5b8160200151600181111561221f5761221e615343565b5b1461225f576040517f08c379a000000000000000000000000000000000000000000000000000000000815260040161225690614c09565b60405180910390fd5b600160ff16600860000160019054906101000a900460ff1660ff16116122ba576040517f08c379a00000000000000000000000000000000000000000000000000000000081526004016122b190614c69565b60405180910390fd5b6000600460000160029054906101000a900473ffffffffffffffffffffffffffffffffffffffff1673ffffffffffffffffffffffffffffffffffffffff16600860000160029054906101000a900473ffffffffffffffffffffffffffffffffffffffff1673ffffffffffffffffffffffffffffffffffffffff161490508061236057816060015160ff1685600001602081019061235791906144a2565b60ff16106123ac565b7f000000000000000000000000000000000000000000000000000000000000000060ff16826060015186600001602081019061239c91906144a2565b6123a69190615032565b60ff1610155b6123eb576040517f08c379a00000000000000000000000000000000000000000000000000000000081526004016123e290614b89565b60405180910390fd5b6001600860000160018282829054906101000a900460ff1661240d9190615197565b92506101000a81548160ff021916908360ff1602179055508360000160009054906101000a900460ff1660ff168260c0015160ff1611156124a05761249b600860000160029054906101000a900473ffffffffffffffffffffffffffffffffffffffff168560000160029054906101000a900473ffffffffffffffffffffffffffffffffffffffff16613c03565b6124dd565b8160c001518460000160008282829054906101000a900460ff166124c49190615197565b92506101000a81548160ff021916908360ff1602179055505b7f9514b0a645ab311710078885b3d1aa7b7c941ade5dba24715646519e625ec85885600001602081019061251191906144a2565b86602001602081019061252491906144a2565b8460c0015160405161253893929190614e9e565b60405180910390a15050505050565b600080600181111561255c5761255b615343565b5b60008054906101000a900460ff16600181111561257c5761257b615343565b5b1461258857600461258b565b60065b90506000600c8360000160208101906125a491906144a2565b60ff16815481106125b8576125b7615372565b5b906000526020600020018360200160208101906125d591906144a2565b60ff16815481106125e9576125e8615372565b5b906000526020600020016040518060a00160405290816000820160009054906101000a900460ff161515151581526020016000820160019054906101000a900460ff1660ff1660ff1681526020016000820160029054906101000a900460ff1660ff1660ff1681526020016000820160039054906101000a900460ff1660ff1660ff1681526020016000820160049054906101000a900473ffffffffffffffffffffffffffffffffffffffff1673ffffffffffffffffffffffffffffffffffffffff1673ffffffffffffffffffffffffffffffffffffffff168152505090506000600360009054906101000a900473ffffffffffffffffffffffffffffffffffffffff1673ffffffffffffffffffffffffffffffffffffffff16639188d31260086001018760ff168154811061272257612721615372565b5b90600052602060002090602091828204019190069054906101000a900460ff166040518263ffffffff1660e01b815260040161275e9190614e3f565b60e06040518083038186803b15801561277657600080fd5b505afa15801561278a573d6000803e3d6000fd5b505050506040513d601f19601f820116820180604052508101906127ae9190614408565b905060006103e87f000000000000000000000000000000000000000000000000000000000000000061ffff16600260009054906101000a900473ffffffffffffffffffffffffffffffffffffffff1673ffffffffffffffffffffffffffffffffffffffff1663dd62ed3e7f0000000000000000000000000000000000000000000000000000000000000000306040518363ffffffff1660e01b81526004016128579291906149eb565b60206040518083038186803b15801561286f57600080fd5b505afa158015612883573d6000803e3d6000fd5b505050506040513d601f19601f820116820180604052508101906128a79190614435565b6128b1919061509a565b6128bb9190615069565b90508260000151612901576040517f08c379a00000000000000000000000000000000000000000000000000000000081526004016128f890614d69565b60405180910390fd5b8360000160029054906101000a900473ffffffffffffffffffffffffffffffffffffffff1673ffffffffffffffffffffffffffffffffffffffff16836080015173ffffffffffffffffffffffffffffffffffffffff1614612997576040517f08c379a000000000000000000000000000000000000000000000000000000000815260040161298e90614c49565b60405180910390fd5b80600b60003373ffffffffffffffffffffffffffffffffffffffff1673ffffffffffffffffffffffffffffffffffffffff168152602001908152602001600020541115612a19576040517f08c379a0000000000000000000000000000000000000000000000000000000008152600401612a1090614be9565b60405180910390fd5b600581612a269190615069565b600b60003373ffffffffffffffffffffffffffffffffffffffff1673ffffffffffffffffffffffffffffffffffffffff1681526020019081526020016000206000828254612a749190614fdc565b925050819055508160c0015160ff16836040015160ff1611612c1c57600060019054906101000a900461ffff16600a60008660000160029054906101000a900473ffffffffffffffffffffffffffffffffffffffff1673ffffffffffffffffffffffffffffffffffffffff1673ffffffffffffffffffffffffffffffffffffffff1681526020019081526020016000206000856020015160ff1660ff16815260200190815260200160002060006101000a81548161ffff021916908361ffff160217905550600c856000016020810190612b4e91906144a2565b60ff1681548110612b6257612b61615372565b5b90600052602060002001856020016020810190612b7f91906144a2565b60ff1681548110612b9357612b92615372565b5b90600052602060002001600080820160006101000a81549060ff02191690556000820160016101000a81549060ff02191690556000820160026101000a81549060ff02191690556000820160036101000a81549060ff02191690556000820160046101000a81549073ffffffffffffffffffffffffffffffffffffffff02191690555050612cc8565b60038260c00151612c2d91906150f4565b600c866000016020810190612c4291906144a2565b60ff1681548110612c5657612c55615372565b5b90600052602060002001866020016020810190612c7391906144a2565b60ff1681548110612c8757612c86615372565b5b9060005260206000200160000160028282829054906101000a900460ff16612caf9190615197565b92506101000a81548160ff021916908360ff1602179055505b7fad81c2d8ff449019cfaf2eda745547aae68efd585520cf7bbad02ca0ff57aaf1856000016020810190612cfc91906144a2565b866020016020810190612d0f91906144a2565b60038560c00151612d2091906150f4565b604051612d2f93929190614e9e565b60405180910390a1505050505050565b6000600c836000016020810190612d5691906144a2565b60ff1681548110612d6a57612d69615372565b5b90600052602060002001836020016020810190612d8791906144a2565b60ff1681548110612d9b57612d9a615372565b5b906000526020600020016040518060a00160405290816000820160009054906101000a900460ff161515151581526020016000820160019054906101000a900460ff1660ff1660ff1681526020016000820160029054906101000a900460ff1660ff1660ff1681526020016000820160039054906101000a900460ff1660ff1660ff1681526020016000820160049054906101000a900473ffffffffffffffffffffffffffffffffffffffff1673ffffffffffffffffffffffffffffffffffffffff1673ffffffffffffffffffffffffffffffffffffffff168152505090506000600c836000016020810190612e9191906144a2565b60ff1681548110612ea557612ea4615372565b5b90600052602060002001836020016020810190612ec291906144a2565b60ff1681548110612ed657612ed5615372565b5b906000526020600020016040518060a00160405290816000820160009054906101000a900460ff161515151581526020016000820160019054906101000a900460ff1660ff1660ff1681526020016000820160029054906101000a900460ff1660ff1660ff1681526020016000820160039054906101000a900460ff1660ff1660ff1681526020016000820160049054906101000a900473ffffffffffffffffffffffffffffffffffffffff1673ffffffffffffffffffffffffffffffffffffffff1673ffffffffffffffffffffffffffffffffffffffff168152505090506000600360009054906101000a900473ffffffffffffffffffffffffffffffffffffffff1673ffffffffffffffffffffffffffffffffffffffff16639188d31284606001516040518263ffffffff1660e01b81526004016130169190614e3f565b60e06040518083038186803b15801561302e57600080fd5b505afa158015613042573d6000803e3d6000fd5b505050506040513d601f19601f820116820180604052508101906130669190614408565b90503373ffffffffffffffffffffffffffffffffffffffff16836080015173ffffffffffffffffffffffffffffffffffffffff16146130da576040517f08c379a00000000000000000000000000000000000000000000000000000000081526004016130d190614c89565b60405180910390fd5b816000015161311e576040517f08c379a000000000000000000000000000000000000000000000000000000000815260040161311590614d69565b60405180910390fd5b3373ffffffffffffffffffffffffffffffffffffffff16826080015173ffffffffffffffffffffffffffffffffffffffff1614613190576040517f08c379a000000000000000000000000000000000000000000000000000000000815260040161318790614d49565b60405180910390fd5b6001808111156131a3576131a2615343565b5b816020015160018111156131ba576131b9615343565b5b146131fa576040517f08c379a00000000000000000000000000000000000000000000000000000000081526004016131f190614bc9565b60405180910390fd5b6000600460000160029054906101000a900473ffffffffffffffffffffffffffffffffffffffff1673ffffffffffffffffffffffffffffffffffffffff16600860000160029054906101000a900473ffffffffffffffffffffffffffffffffffffffff1673ffffffffffffffffffffffffffffffffffffffff161490506000816132b35785600001602081019061329191906144a2565b8760000160208101906132a491906144a2565b6132ae9190615197565b6132e4565b8660000160208101906132c691906144a2565b8660000160208101906132d991906144a2565b6132e39190615197565b5b905060008760200160208101906132fb91906144a2565b60ff1687602001602081019061331191906144a2565b60ff16101561334f5786602001602081019061332d91906144a2565b88602001602081019061334091906144a2565b61334a9190615197565b613380565b87602001602081019061336291906144a2565b87602001602081019061337591906144a2565b61337f9190615197565b5b9050836060015160ff168260ff16111580156133a65750836040015160ff168160ff1611155b6133e5576040517f08c379a00000000000000000000000000000000000000000000000000000000081526004016133dc90614dc9565b60405180910390fd5b600160ff16600860000160019054906101000a900460ff1660ff1611613440576040517f08c379a000000000000000000000000000000000000000000000000000000000815260040161343790614c69565b60405180910390fd5b6001600860000160018282829054906101000a900460ff166134629190615197565b92506101000a81548160ff021916908360ff1602179055508360c00151600c88600001602081019061349491906144a2565b60ff16815481106134a8576134a7615372565b5b906000526020600020018860200160208101906134c591906144a2565b60ff16815481106134d9576134d8615372565b5b9060005260206000200160000160028282829054906101000a900460ff166135019190615032565b92506101000a81548160ff021916908360ff1602179055507f8755e3de7285d4f55c28476287892f02fa00fe2a9476fd9f76aa96ddce5a123788600001602081019061354d91906144a2565b89602001602081019061356091906144a2565b89600001602081019061357391906144a2565b8a602001602081019061358691906144a2565b8860c0015160405161359c959493929190614f1a565b60405180910390a15050505050505050565b6000600c8260000160208101906135c591906144a2565b60ff16815481106135d9576135d8615372565b5b906000526020600020018260200160208101906135f691906144a2565b60ff168154811061360a57613609615372565b5b906000526020600020016040518060a00160405290816000820160009054906101000a900460ff161515151581526020016000820160019054906101000a900460ff1660ff1660ff1681526020016000820160029054906101000a900460ff1660ff1660ff1681526020016000820160039054906101000a900460ff1660ff1660ff1681526020016000820160049054906101000a900473ffffffffffffffffffffffffffffffffffffffff1673ffffffffffffffffffffffffffffffffffffffff1673ffffffffffffffffffffffffffffffffffffffff168152505090506000600360009054906101000a900473ffffffffffffffffffffffffffffffffffffffff1673ffffffffffffffffffffffffffffffffffffffff16639188d31260086001018660ff168154811061374357613742615372565b5b90600052602060002090602091828204019190069054906101000a900460ff166040518263ffffffff1660e01b815260040161377f9190614e3f565b60e06040518083038186803b15801561379757600080fd5b505afa1580156137ab573d6000803e3d6000fd5b505050506040513d601f19601f820116820180604052508101906137cf9190614408565b905060006103e87f000000000000000000000000000000000000000000000000000000000000000061ffff16600260009054906101000a900473ffffffffffffffffffffffffffffffffffffffff1673ffffffffffffffffffffffffffffffffffffffff1663dd62ed3e7f0000000000000000000000000000000000000000000000000000000000000000306040518363ffffffff1660e01b81526004016138789291906149eb565b60206040518083038186803b15801561389057600080fd5b505afa1580156138a4573d6000803e3d6000fd5b505050506040513d601f19601f820116820180604052508101906138c89190614435565b6138d2919061509a565b6138dc9190615069565b905080600b60003373ffffffffffffffffffffffffffffffffffffffff1673ffffffffffffffffffffffffffffffffffffffff168152602001908152602001600020541115613960576040517f08c379a000000000000000000000000000000000000000000000000000000000815260040161395790614be9565b60405180910390fd5b60018081111561397357613972615343565b5b8260200151600181111561398a57613989615343565b5b146139ca576040517f08c379a00000000000000000000000000000000000000000000000000000000081526004016139c190614bc9565b60405180910390fd5b8260000151613a0e576040517f08c379a0000000000000000000000000000000000000000000000000000000008152600401613a0590614d69565b60405180910390fd5b3373ffffffffffffffffffffffffffffffffffffffff16836080015173ffffffffffffffffffffffffffffffffffffffff1614613a80576040517f08c379a0000000000000000000000000000000000000000000000000000000008152600401613a7790614d49565b60405180910390fd5b600581613a8d9190615069565b600b60003373ffffffffffffffffffffffffffffffffffffffff1673ffffffffffffffffffffffffffffffffffffffff1681526020019081526020016000206000828254613adb9190614fdc565b9250508190555060038260c00151613af391906150f4565b600c856000016020810190613b0891906144a2565b60ff1681548110613b1c57613b1b615372565b5b90600052602060002001856020016020810190613b3991906144a2565b60ff1681548110613b4d57613b4c615372565b5b9060005260206000200160000160028282829054906101000a900460ff16613b759190615032565b92506101000a81548160ff021916908360ff1602179055507fb66f84be78126463140b4fcd1f22ebe400bb165705bbfdd215781a0a0678660e846000016020810190613bc191906144a2565b856020016020810190613bd491906144a2565b60038560c00151613be591906150f4565b604051613bf493929190614e9e565b60405180910390a15050505050565b6000600260009054906101000a900473ffffffffffffffffffffffffffffffffffffffff1673ffffffffffffffffffffffffffffffffffffffff1663dd62ed3e7f0000000000000000000000000000000000000000000000000000000000000000306040518363ffffffff1660e01b8152600401613c829291906149eb565b60206040518083038186803b158015613c9a57600080fd5b505afa158015613cae573d6000803e3d6000fd5b505050506040513d601f19601f82011682018060405250810190613cd29190614435565b9050600260009054906101000a900473ffffffffffffffffffffffffffffffffffffffff1673ffffffffffffffffffffffffffffffffffffffff166323b872dd7f000000000000000000000000000000000000000000000000000000000000000085600b60008873ffffffffffffffffffffffffffffffffffffffff1673ffffffffffffffffffffffffffffffffffffffff168152602001908152602001600020546103e87f000000000000000000000000000000000000000000000000000000000000000061ffff1687613da7919061509a565b613db19190615069565b613dbb9190615163565b6040518463ffffffff1660e01b8152600401613dd993929190614a14565b602060405180830381600087803b158015613df357600080fd5b505af1158015613e07573d6000803e3d6000fd5b505050506040513d601f19601f82011682018060405250810190613e2b91906143ae565b613e6a576040517f08c379a0000000000000000000000000000000000000000000000000000000008152600401613e6190614d29565b60405180910390fd5b600260009054906101000a900473ffffffffffffffffffffffffffffffffffffffff1673ffffffffffffffffffffffffffffffffffffffff166323b872dd7f00000000000000000000000000000000000000000000000000000000000000007f00000000000000000000000000000000000000000000000000000000000000006103e87f000000000000000000000000000000000000000000000000000000000000000061ffff1686613f1d919061509a565b613f279190615069565b6040518463ffffffff1660e01b8152600401613f4593929190614a14565b602060405180830381600087803b158015613f5f57600080fd5b505af1158015613f73573d6000803e3d6000fd5b505050506040513d601f19601f82011682018060405250810190613f9791906143ae565b613fd6576040517f08c379a0000000000000000000000000000000000000000000000000000000008152600401613fcd90614da9565b60405180910390fd5b600160009054906101000a900473ffffffffffffffffffffffffffffffffffffffff1673ffffffffffffffffffffffffffffffffffffffff166340c10f1984600a6040518363ffffffff1660e01b8152600401614034929190614a4b565b600060405180830381600087803b15801561404e57600080fd5b505af1158015614062573d6000803e3d6000fd5b50505050600160009054906101000a900473ffffffffffffffffffffffffffffffffffffffff1673ffffffffffffffffffffffffffffffffffffffff166340c10f198360026040518363ffffffff1660e01b81526004016140c4929190614a4b565b600060405180830381600087803b1580156140de57600080fd5b505af11580156140f2573d6000803e3d6000fd5b505050507f1728dd43546edd06fabfe796e5b641a151aa90998bfd1b1ec0ae98c6e77084598360405161412591906149d0565b60405180910390a1505050565b6040518060a00160405280600015158152602001600060ff168152602001600060ff168152602001600060ff168152602001600073ffffffffffffffffffffffffffffffffffffffff1681525090565b60008135905061419181615800565b92915050565b60008083601f8401126141ad576141ac6153d5565b5b8235905067ffffffffffffffff8111156141ca576141c96153d0565b5b6020830191508360c08202830111156141e6576141e56153df565b5b9250929050565b6000815190506141fc81615817565b92915050565b6000815190506142118161582e565b92915050565b6000813590506142268161583e565b92915050565b600060e08284031215614242576142416153da565b5b61424c60e0614f6d565b9050600061425c848285016141ed565b600083015250602061427084828501614202565b60208301525060406142848482850161431f565b60408301525060606142988482850161431f565b60608301525060806142ac8482850161431f565b60808301525060a06142c08482850161431f565b60a08301525060c06142d48482850161431f565b60c08301525092915050565b6000813590506142ef8161584e565b92915050565b6000815190506143048161584e565b92915050565b60008135905061431981615865565b92915050565b60008151905061432e81615865565b92915050565b60006020828403121561434a576143496153e9565b5b600061435884828501614182565b91505092915050565b60008060208385031215614378576143776153e9565b5b600083013567ffffffffffffffff811115614396576143956153e4565b5b6143a285828601614197565b92509250509250929050565b6000602082840312156143c4576143c36153e9565b5b60006143d2848285016141ed565b91505092915050565b6000602082840312156143f1576143f06153e9565b5b60006143ff84828501614217565b91505092915050565b600060e0828403121561441e5761441d6153e9565b5b600061442c8482850161422c565b91505092915050565b60006020828403121561444b5761444a6153e9565b5b6000614459848285016142f5565b91505092915050565b60008060408385031215614479576144786153e9565b5b6000614487858286016142e0565b9250506020614498858286016142e0565b9150509250929050565b6000602082840312156144b8576144b76153e9565b5b60006144c68482850161430a565b91505092915050565b600080604083850312156144e6576144e56153e9565b5b60006144f48582860161430a565b92505060206145058582860161430a565b9150509250929050565b600061451b83836149b2565b60208301905092915050565b614530816151cb565b82525050565b61453f816151cb565b82525050565b600061455082614fa2565b61455a8185614fba565b935061456583614f92565b8060005b8381101561459657815161457d888261450f565b975061458883614fad565b925050600181019050614569565b5085935050505092915050565b6145ac816151dd565b82525050565b6145bb816151dd565b82525050565b60006145ce601183614fcb565b91506145d9826153ff565b602082019050919050565b60006145f1600e83614fcb565b91506145fc82615428565b602082019050919050565b6000614614601c83614fcb565b915061461f82615451565b602082019050919050565b6000614637601a83614fcb565b91506146428261547a565b602082019050919050565b600061465a600e83614fcb565b9150614665826154a3565b602082019050919050565b600061467d601483614fcb565b9150614688826154cc565b602082019050919050565b60006146a0601383614fcb565b91506146ab826154f5565b602082019050919050565b60006146c3600f83614fcb565b91506146ce8261551e565b602082019050919050565b60006146e6602083614fcb565b91506146f182615547565b602082019050919050565b6000614709601483614fcb565b915061471482615570565b602082019050919050565b600061472c601683614fcb565b915061473782615599565b602082019050919050565b600061474f601383614fcb565b915061475a826155c2565b602082019050919050565b6000614772601183614fcb565b915061477d826155eb565b602082019050919050565b6000614795601383614fcb565b91506147a082615614565b602082019050919050565b60006147b8601083614fcb565b91506147c38261563d565b602082019050919050565b60006147db601483614fcb565b91506147e682615666565b602082019050919050565b60006147fe601a83614fcb565b91506148098261568f565b602082019050919050565b6000614821601183614fcb565b915061482c826156b8565b602082019050919050565b6000614844601583614fcb565b915061484f826156e1565b602082019050919050565b6000614867601583614fcb565b91506148728261570a565b602082019050919050565b600061488a601483614fcb565b915061489582615733565b602082019050919050565b60006148ad601083614fcb565b91506148b88261575c565b602082019050919050565b60006148d0601a83614fcb565b91506148db82615785565b602082019050919050565b60006148f3601683614fcb565b91506148fe826157ae565b602082019050919050565b6000614916601583614fcb565b9150614921826157d7565b602082019050919050565b60a08201600082015161494260008501826145a3565b50602082015161495560208501826149b2565b50604082015161496860408501826149b2565b50606082015161497b60608501826149b2565b50608082015161498e6080850182614527565b50505050565b61499d81615217565b82525050565b6149ac8161522e565b82525050565b6149bb81615221565b82525050565b6149ca81615221565b82525050565b60006020820190506149e56000830184614536565b92915050565b6000604082019050614a006000830185614536565b614a0d6020830184614536565b9392505050565b6000606082019050614a296000830186614536565b614a366020830185614536565b614a436040830184614994565b949350505050565b6000604082019050614a606000830185614536565b614a6d60208301846149a3565b9392505050565b60006020820190508181036000830152614a8e8184614545565b905092915050565b600060a082019050614aab60008301886145b2565b614ab860208301876149c1565b614ac560408301866149c1565b614ad260608301856149c1565b614adf6080830184614536565b9695505050505050565b60006020820190508181036000830152614b02816145c1565b9050919050565b60006020820190508181036000830152614b22816145e4565b9050919050565b60006020820190508181036000830152614b4281614607565b9050919050565b60006020820190508181036000830152614b628161462a565b9050919050565b60006020820190508181036000830152614b828161464d565b9050919050565b60006020820190508181036000830152614ba281614670565b9050919050565b60006020820190508181036000830152614bc281614693565b9050919050565b60006020820190508181036000830152614be2816146b6565b9050919050565b60006020820190508181036000830152614c02816146d9565b9050919050565b60006020820190508181036000830152614c22816146fc565b9050919050565b60006020820190508181036000830152614c428161471f565b9050919050565b60006020820190508181036000830152614c6281614742565b9050919050565b60006020820190508181036000830152614c8281614765565b9050919050565b60006020820190508181036000830152614ca281614788565b9050919050565b60006020820190508181036000830152614cc2816147ab565b9050919050565b60006020820190508181036000830152614ce2816147ce565b9050919050565b60006020820190508181036000830152614d02816147f1565b9050919050565b60006020820190508181036000830152614d2281614814565b9050919050565b60006020820190508181036000830152614d4281614837565b9050919050565b60006020820190508181036000830152614d628161485a565b9050919050565b60006020820190508181036000830152614d828161487d565b9050919050565b60006020820190508181036000830152614da2816148a0565b9050919050565b60006020820190508181036000830152614dc2816148c3565b9050919050565b60006020820190508181036000830152614de2816148e6565b9050919050565b60006020820190508181036000830152614e0281614909565b9050919050565b600060a082019050614e1e600083018461492c565b92915050565b6000602082019050614e396000830184614994565b92915050565b6000602082019050614e5460008301846149a3565b92915050565b6000602082019050614e6f60008301846149c1565b92915050565b6000604082019050614e8a60008301856149c1565b614e9760208301846149c1565b9392505050565b6000606082019050614eb360008301866149c1565b614ec060208301856149c1565b614ecd60408301846149c1565b949350505050565b6000608082019050614eea60008301876149c1565b614ef760208301866149c1565b614f0460408301856149c1565b614f1160608301846149c1565b95945050505050565b600060a082019050614f2f60008301886149c1565b614f3c60208301876149c1565b614f4960408301866149c1565b614f5660608301856149c1565b614f6360808301846149c1565b9695505050505050565b6000614f77614f88565b9050614f838282615240565b919050565b6000604051905090565b6000819050602082019050919050565b600081519050919050565b6000602082019050919050565b600082825260208201905092915050565b600082825260208201905092915050565b6000614fe782615217565b9150614ff283615217565b9250827fffffffffffffffffffffffffffffffffffffffffffffffffffffffffffffffff03821115615027576150266152e5565b5b828201905092915050565b600061503d82615221565b915061504883615221565b92508260ff0382111561505e5761505d6152e5565b5b828201905092915050565b600061507482615217565b915061507f83615217565b92508261508f5761508e615314565b5b828204905092915050565b60006150a582615217565b91506150b083615217565b9250817fffffffffffffffffffffffffffffffffffffffffffffffffffffffffffffffff04831182151516156150e9576150e86152e5565b5b828202905092915050565b60006150ff82615221565b915061510a83615221565b92508160ff0483118215151615615124576151236152e5565b5b828202905092915050565b600061513a826151e9565b9150615145836151e9565b925082821015615158576151576152e5565b5b828203905092915050565b600061516e82615217565b915061517983615217565b92508282101561518c5761518b6152e5565b5b828203905092915050565b60006151a282615221565b91506151ad83615221565b9250828210156151c0576151bf6152e5565b5b828203905092915050565b60006151d6826151f7565b9050919050565b60008115159050919050565b600061ffff82169050919050565b600073ffffffffffffffffffffffffffffffffffffffff82169050919050565b6000819050919050565b600060ff82169050919050565b600061523982615221565b9050919050565b615249826153ee565b810181811067ffffffffffffffff82111715615268576152676153a1565b5b80604052505050565b600061527c826151e9565b915061ffff821415615291576152906152e5565b5b600182019050919050565b60006152a782615217565b91507fffffffffffffffffffffffffffffffffffffffffffffffffffffffffffffffff8214156152da576152d96152e5565b5b600182019050919050565b7f4e487b7100000000000000000000000000000000000000000000000000000000600052601160045260246000fd5b7f4e487b7100000000000000000000000000000000000000000000000000000000600052601260045260246000fd5b7f4e487b7100000000000000000000000000000000000000000000000000000000600052602160045260246000fd5b7f4e487b7100000000000000000000000000000000000000000000000000000000600052603260045260246000fd5b7f4e487b7100000000000000000000000000000000000000000000000000000000600052604160045260246000fd5b600080fd5b600080fd5b600080fd5b600080fd5b600080fd5b600080fd5b6000601f19601f8301169050919050565b7f546172676574206f66662d626f756e6473000000000000000000000000000000600082015250565b7f4e6f74207269676874207475726e000000000000000000000000000000000000600082015250565b7f4e6f7420656e6f75676820656e6572677920666f722061747461636b00000000600082015250565b7f43616e27742070757420706c617965722074686973207475726e000000000000600082015250565b7f496e76616c696420636f6c756d6e000000000000000000000000000000000000600082015250565b7f42617365206973206f7574206f662072616e6765000000000000000000000000600082015250565b7f456e6572677920696e73756666696369656e7400000000000000000000000000600082015250565b7f4e6f742061206865616c20636172640000000000000000000000000000000000600082015250565b7f4e6f2062616c616e6365206c65667420746f2075736520676f6420706f776572600082015250565b7f4e6f7420616e2061747461636b20706c61796572000000000000000000000000600082015250565b7f41747461636b696e67206f6e206f776e2063656c6c7300000000000000000000600082015250565b7f57726f6e672074617267657420706c6179657200000000000000000000000000600082015250565b7f4e6f7420656e6f75676820656e65726779000000000000000000000000000000600082015250565b7f4e6f74206f776e696e6720746865207061776e00000000000000000000000000600082015250565b7f43656c6c206973206f6363757069656400000000000000000000000000000000600082015250565b7f456e65726779206e6f7420737566666963656e74000000000000000000000000600082015250565b7f41747461636b696e67206f6e20616e20656d7074792063656c6c000000000000600082015250565b7f4e6f74206120636172642061747461636b000000000000000000000000000000600082015250565b7f57696e6e6572207061796d656e74206661696c65640000000000000000000000600082015250565b7f4e6f74206f776e696e6720746865207461726765740000000000000000000000600082015250565b7f5461726765742063656c6c20697320656d707479000000000000000000000000600082015250565b7f496c6c6567616c206d6f76656d656e7400000000000000000000000000000000600082015250565b7f4172656e61206f776e6572207061796d656e74206661696c6564000000000000600082015250565b7f546172676574206973206f7574206f662072616e676500000000000000000000600082015250565b7f4e6f74206f776e696e6720746865206f726967696e0000000000000000000000600082015250565b615809816151cb565b811461581457600080fd5b50565b615820816151dd565b811461582b57600080fd5b50565b6002811061583b57600080fd5b50565b6007811061584b57600080fd5b50565b61585781615217565b811461586257600080fd5b50565b61586e81615221565b811461587957600080fd5b5056fea264697066735822122017a321c9c0d8a92cadcce559f9dcc63f2386279be413124114e42384f7904aff64736f6c63430008070033a26469706673582212200262c0b425cbcaa2dd13846fabef800046adcedc899b622c2fb2157a05397cd464736f6c63430008070033",
      "opcodes": "PUSH1 0x80 PUSH1 0x40 MSTORE PUSH1 0x0 PUSH1 0x6 SSTORE CALLVALUE DUP1 ISZERO PUSH3 0x16 JUMPI PUSH1 0x0 DUP1 REVERT JUMPDEST POP PUSH1 0x40 MLOAD PUSH3 0x8B4A CODESIZE SUB DUP1 PUSH3 0x8B4A DUP4 CODECOPY DUP2 DUP2 ADD PUSH1 0x40 MSTORE DUP2 ADD SWAP1 PUSH3 0x3C SWAP2 SWAP1 PUSH3 0x2EB JUMP JUMPDEST PUSH3 0x5C PUSH3 0x50 PUSH3 0x1AC PUSH1 0x20 SHL PUSH1 0x20 SHR JUMP JUMPDEST PUSH3 0x1B4 PUSH1 0x20 SHL PUSH1 0x20 SHR JUMP JUMPDEST DUP5 PUSH1 0x1 PUSH1 0x0 PUSH2 0x100 EXP DUP2 SLOAD DUP2 PUSH20 0xFFFFFFFFFFFFFFFFFFFFFFFFFFFFFFFFFFFFFFFF MUL NOT AND SWAP1 DUP4 PUSH20 0xFFFFFFFFFFFFFFFFFFFFFFFFFFFFFFFFFFFFFFFF AND MUL OR SWAP1 SSTORE POP DUP4 PUSH1 0x2 PUSH1 0x0 PUSH2 0x100 EXP DUP2 SLOAD DUP2 PUSH20 0xFFFFFFFFFFFFFFFFFFFFFFFFFFFFFFFFFFFFFFFF MUL NOT AND SWAP1 DUP4 PUSH20 0xFFFFFFFFFFFFFFFFFFFFFFFFFFFFFFFFFFFFFFFF AND MUL OR SWAP1 SSTORE POP DUP3 PUSH1 0x3 PUSH1 0x0 PUSH2 0x100 EXP DUP2 SLOAD DUP2 PUSH20 0xFFFFFFFFFFFFFFFFFFFFFFFFFFFFFFFFFFFFFFFF MUL NOT AND SWAP1 DUP4 PUSH20 0xFFFFFFFFFFFFFFFFFFFFFFFFFFFFFFFFFFFFFFFF AND MUL OR SWAP1 SSTORE POP DUP1 PUSH1 0x4 PUSH1 0x0 PUSH2 0x100 EXP DUP2 SLOAD DUP2 PUSH20 0xFFFFFFFFFFFFFFFFFFFFFFFFFFFFFFFFFFFFFFFF MUL NOT AND SWAP1 DUP4 PUSH20 0xFFFFFFFFFFFFFFFFFFFFFFFFFFFFFFFFFFFFFFFF AND MUL OR SWAP1 SSTORE POP DUP2 PUSH1 0x5 PUSH1 0x0 PUSH2 0x100 EXP DUP2 SLOAD DUP2 PUSH20 0xFFFFFFFFFFFFFFFFFFFFFFFFFFFFFFFFFFFFFFFF MUL NOT AND SWAP1 DUP4 PUSH20 0xFFFFFFFFFFFFFFFFFFFFFFFFFFFFFFFFFFFFFFFF AND MUL OR SWAP1 SSTORE POP POP POP POP POP POP PUSH3 0x492 JUMP JUMPDEST PUSH1 0x0 CALLER SWAP1 POP SWAP1 JUMP JUMPDEST PUSH1 0x0 DUP1 PUSH1 0x0 SWAP1 SLOAD SWAP1 PUSH2 0x100 EXP SWAP1 DIV PUSH20 0xFFFFFFFFFFFFFFFFFFFFFFFFFFFFFFFFFFFFFFFF AND SWAP1 POP DUP2 PUSH1 0x0 DUP1 PUSH2 0x100 EXP DUP2 SLOAD DUP2 PUSH20 0xFFFFFFFFFFFFFFFFFFFFFFFFFFFFFFFFFFFFFFFF MUL NOT AND SWAP1 DUP4 PUSH20 0xFFFFFFFFFFFFFFFFFFFFFFFFFFFFFFFFFFFFFFFF AND MUL OR SWAP1 SSTORE POP DUP2 PUSH20 0xFFFFFFFFFFFFFFFFFFFFFFFFFFFFFFFFFFFFFFFF AND DUP2 PUSH20 0xFFFFFFFFFFFFFFFFFFFFFFFFFFFFFFFFFFFFFFFF AND PUSH32 0x8BE0079C531659141344CD1FD0A4F28419497F9722A3DAAFE3B4186F6B6457E0 PUSH1 0x40 MLOAD PUSH1 0x40 MLOAD DUP1 SWAP2 SUB SWAP1 LOG3 POP POP JUMP JUMPDEST PUSH1 0x0 DUP2 MLOAD SWAP1 POP PUSH3 0x289 DUP2 PUSH3 0x410 JUMP JUMPDEST SWAP3 SWAP2 POP POP JUMP JUMPDEST PUSH1 0x0 DUP2 MLOAD SWAP1 POP PUSH3 0x2A0 DUP2 PUSH3 0x42A JUMP JUMPDEST SWAP3 SWAP2 POP POP JUMP JUMPDEST PUSH1 0x0 DUP2 MLOAD SWAP1 POP PUSH3 0x2B7 DUP2 PUSH3 0x444 JUMP JUMPDEST SWAP3 SWAP2 POP POP JUMP JUMPDEST PUSH1 0x0 DUP2 MLOAD SWAP1 POP PUSH3 0x2CE DUP2 PUSH3 0x45E JUMP JUMPDEST SWAP3 SWAP2 POP POP JUMP JUMPDEST PUSH1 0x0 DUP2 MLOAD SWAP1 POP PUSH3 0x2E5 DUP2 PUSH3 0x478 JUMP JUMPDEST SWAP3 SWAP2 POP POP JUMP JUMPDEST PUSH1 0x0 DUP1 PUSH1 0x0 DUP1 PUSH1 0x0 PUSH1 0xA0 DUP7 DUP9 SUB SLT ISZERO PUSH3 0x30A JUMPI PUSH3 0x309 PUSH3 0x40B JUMP JUMPDEST JUMPDEST PUSH1 0x0 PUSH3 0x31A DUP9 DUP3 DUP10 ADD PUSH3 0x2D4 JUMP JUMPDEST SWAP6 POP POP PUSH1 0x20 PUSH3 0x32D DUP9 DUP3 DUP10 ADD PUSH3 0x278 JUMP JUMPDEST SWAP5 POP POP PUSH1 0x40 PUSH3 0x340 DUP9 DUP3 DUP10 ADD PUSH3 0x2BD JUMP JUMPDEST SWAP4 POP POP PUSH1 0x60 PUSH3 0x353 DUP9 DUP3 DUP10 ADD PUSH3 0x28F JUMP JUMPDEST SWAP3 POP POP PUSH1 0x80 PUSH3 0x366 DUP9 DUP3 DUP10 ADD PUSH3 0x2A6 JUMP JUMPDEST SWAP2 POP POP SWAP3 SWAP6 POP SWAP3 SWAP6 SWAP1 SWAP4 POP JUMP JUMPDEST PUSH1 0x0 PUSH3 0x380 DUP3 PUSH3 0x3EB JUMP JUMPDEST SWAP1 POP SWAP2 SWAP1 POP JUMP JUMPDEST PUSH1 0x0 PUSH3 0x394 DUP3 PUSH3 0x373 JUMP JUMPDEST SWAP1 POP SWAP2 SWAP1 POP JUMP JUMPDEST PUSH1 0x0 PUSH3 0x3A8 DUP3 PUSH3 0x373 JUMP JUMPDEST SWAP1 POP SWAP2 SWAP1 POP JUMP JUMPDEST PUSH1 0x0 PUSH3 0x3BC DUP3 PUSH3 0x373 JUMP JUMPDEST SWAP1 POP SWAP2 SWAP1 POP JUMP JUMPDEST PUSH1 0x0 PUSH3 0x3D0 DUP3 PUSH3 0x373 JUMP JUMPDEST SWAP1 POP SWAP2 SWAP1 POP JUMP JUMPDEST PUSH1 0x0 PUSH3 0x3E4 DUP3 PUSH3 0x373 JUMP JUMPDEST SWAP1 POP SWAP2 SWAP1 POP JUMP JUMPDEST PUSH1 0x0 PUSH20 0xFFFFFFFFFFFFFFFFFFFFFFFFFFFFFFFFFFFFFFFF DUP3 AND SWAP1 POP SWAP2 SWAP1 POP JUMP JUMPDEST PUSH1 0x0 DUP1 REVERT JUMPDEST PUSH3 0x41B DUP2 PUSH3 0x387 JUMP JUMPDEST DUP2 EQ PUSH3 0x427 JUMPI PUSH1 0x0 DUP1 REVERT JUMPDEST POP JUMP JUMPDEST PUSH3 0x435 DUP2 PUSH3 0x39B JUMP JUMPDEST DUP2 EQ PUSH3 0x441 JUMPI PUSH1 0x0 DUP1 REVERT JUMPDEST POP JUMP JUMPDEST PUSH3 0x44F DUP2 PUSH3 0x3AF JUMP JUMPDEST DUP2 EQ PUSH3 0x45B JUMPI PUSH1 0x0 DUP1 REVERT JUMPDEST POP JUMP JUMPDEST PUSH3 0x469 DUP2 PUSH3 0x3C3 JUMP JUMPDEST DUP2 EQ PUSH3 0x475 JUMPI PUSH1 0x0 DUP1 REVERT JUMPDEST POP JUMP JUMPDEST PUSH3 0x483 DUP2 PUSH3 0x3D7 JUMP JUMPDEST DUP2 EQ PUSH3 0x48F JUMPI PUSH1 0x0 DUP1 REVERT JUMPDEST POP JUMP JUMPDEST PUSH2 0x86A8 DUP1 PUSH3 0x4A2 PUSH1 0x0 CODECOPY PUSH1 0x0 RETURN INVALID PUSH1 0x80 PUSH1 0x40 MSTORE CALLVALUE DUP1 ISZERO PUSH3 0x11 JUMPI PUSH1 0x0 DUP1 REVERT JUMPDEST POP PUSH1 0x4 CALLDATASIZE LT PUSH3 0x88 JUMPI PUSH1 0x0 CALLDATALOAD PUSH1 0xE0 SHR DUP1 PUSH4 0x715018A6 GT PUSH3 0x63 JUMPI DUP1 PUSH4 0x715018A6 EQ PUSH3 0x103 JUMPI DUP1 PUSH4 0x7962BF0C EQ PUSH3 0x10F JUMPI DUP1 PUSH4 0x8DA5CB5B EQ PUSH3 0x147 JUMPI DUP1 PUSH4 0xF2FDE38B EQ PUSH3 0x169 JUMPI PUSH3 0x88 JUMP JUMPDEST DUP1 PUSH4 0x721CBB9 EQ PUSH3 0x8D JUMPI DUP1 PUSH4 0x25BC6BE1 EQ PUSH3 0xAD JUMPI DUP1 PUSH4 0x3FEEF58A EQ PUSH3 0xE3 JUMPI JUMPDEST PUSH1 0x0 DUP1 REVERT JUMPDEST PUSH3 0xAB PUSH1 0x4 DUP1 CALLDATASIZE SUB DUP2 ADD SWAP1 PUSH3 0xA5 SWAP2 SWAP1 PUSH3 0x13A3 JUMP JUMPDEST PUSH3 0x189 JUMP JUMPDEST STOP JUMPDEST PUSH3 0xCB PUSH1 0x4 DUP1 CALLDATASIZE SUB DUP2 ADD SWAP1 PUSH3 0xC5 SWAP2 SWAP1 PUSH3 0x12DB JUMP JUMPDEST PUSH3 0xB16 JUMP JUMPDEST PUSH1 0x40 MLOAD PUSH3 0xDA SWAP2 SWAP1 PUSH3 0x17FA JUMP JUMPDEST PUSH1 0x40 MLOAD DUP1 SWAP2 SUB SWAP1 RETURN JUMPDEST PUSH3 0x101 PUSH1 0x4 DUP1 CALLDATASIZE SUB DUP2 ADD SWAP1 PUSH3 0xFB SWAP2 SWAP1 PUSH3 0x1371 JUMP JUMPDEST PUSH3 0xB36 JUMP JUMPDEST STOP JUMPDEST PUSH3 0x10D PUSH3 0xDDE JUMP JUMPDEST STOP JUMPDEST PUSH3 0x12D PUSH1 0x4 DUP1 CALLDATASIZE SUB DUP2 ADD SWAP1 PUSH3 0x127 SWAP2 SWAP1 PUSH3 0x1371 JUMP JUMPDEST PUSH3 0xE6F JUMP JUMPDEST PUSH1 0x40 MLOAD PUSH3 0x13E SWAP4 SWAP3 SWAP2 SWAP1 PUSH3 0x1817 JUMP JUMPDEST PUSH1 0x40 MLOAD DUP1 SWAP2 SUB SWAP1 RETURN JUMPDEST PUSH3 0x151 PUSH3 0xEC6 JUMP JUMPDEST PUSH1 0x40 MLOAD PUSH3 0x160 SWAP2 SWAP1 PUSH3 0x1773 JUMP JUMPDEST PUSH1 0x40 MLOAD DUP1 SWAP2 SUB SWAP1 RETURN JUMPDEST PUSH3 0x187 PUSH1 0x4 DUP1 CALLDATASIZE SUB DUP2 ADD SWAP1 PUSH3 0x181 SWAP2 SWAP1 PUSH3 0x12DB JUMP JUMPDEST PUSH3 0xEEF JUMP JUMPDEST STOP JUMPDEST PUSH1 0x0 PUSH1 0x2 PUSH1 0x0 SWAP1 SLOAD SWAP1 PUSH2 0x100 EXP SWAP1 DIV PUSH20 0xFFFFFFFFFFFFFFFFFFFFFFFFFFFFFFFFFFFFFFFF AND PUSH20 0xFFFFFFFFFFFFFFFFFFFFFFFFFFFFFFFFFFFFFFFF AND PUSH4 0x6352211E DUP6 PUSH1 0x40 MLOAD DUP3 PUSH4 0xFFFFFFFF AND PUSH1 0xE0 SHL DUP2 MSTORE PUSH1 0x4 ADD PUSH3 0x1E8 SWAP2 SWAP1 PUSH3 0x19F4 JUMP JUMPDEST PUSH1 0x20 PUSH1 0x40 MLOAD DUP1 DUP4 SUB DUP2 DUP7 DUP1 EXTCODESIZE ISZERO DUP1 ISZERO PUSH3 0x201 JUMPI PUSH1 0x0 DUP1 REVERT JUMPDEST POP GAS STATICCALL ISZERO DUP1 ISZERO PUSH3 0x216 JUMPI RETURNDATASIZE PUSH1 0x0 DUP1 RETURNDATACOPY RETURNDATASIZE PUSH1 0x0 REVERT JUMPDEST POP POP POP POP PUSH1 0x40 MLOAD RETURNDATASIZE PUSH1 0x1F NOT PUSH1 0x1F DUP3 ADD AND DUP3 ADD DUP1 PUSH1 0x40 MSTORE POP DUP2 ADD SWAP1 PUSH3 0x23C SWAP2 SWAP1 PUSH3 0x130D JUMP JUMPDEST SWAP1 POP PUSH1 0x0 PUSH20 0xFFFFFFFFFFFFFFFFFFFFFFFFFFFFFFFFFFFFFFFF AND DUP2 PUSH20 0xFFFFFFFFFFFFFFFFFFFFFFFFFFFFFFFFFFFFFFFF AND EQ ISZERO PUSH3 0x2B1 JUMPI PUSH1 0x40 MLOAD PUSH32 0x8C379A000000000000000000000000000000000000000000000000000000000 DUP2 MSTORE PUSH1 0x4 ADD PUSH3 0x2A8 SWAP1 PUSH3 0x19B0 JUMP JUMPDEST PUSH1 0x40 MLOAD DUP1 SWAP2 SUB SWAP1 REVERT JUMPDEST PUSH1 0x0 PUSH1 0x7 PUSH1 0x0 DUP7 DUP2 MSTORE PUSH1 0x20 ADD SWAP1 DUP2 MSTORE PUSH1 0x20 ADD PUSH1 0x0 KECCAK256 PUSH1 0x40 MLOAD DUP1 PUSH1 0x80 ADD PUSH1 0x40 MSTORE SWAP1 DUP2 PUSH1 0x0 DUP3 ADD PUSH1 0x0 SWAP1 SLOAD SWAP1 PUSH2 0x100 EXP SWAP1 DIV PUSH1 0xFF AND ISZERO ISZERO ISZERO ISZERO DUP2 MSTORE PUSH1 0x20 ADD PUSH1 0x0 DUP3 ADD PUSH1 0x1 SWAP1 SLOAD SWAP1 PUSH2 0x100 EXP SWAP1 DIV PUSH20 0xFFFFFFFFFFFFFFFFFFFFFFFFFFFFFFFFFFFFFFFF AND PUSH20 0xFFFFFFFFFFFFFFFFFFFFFFFFFFFFFFFFFFFFFFFF AND PUSH20 0xFFFFFFFFFFFFFFFFFFFFFFFFFFFFFFFFFFFFFFFF AND DUP2 MSTORE PUSH1 0x20 ADD PUSH1 0x1 DUP3 ADD SLOAD DUP2 MSTORE PUSH1 0x20 ADD PUSH1 0x2 DUP3 ADD DUP1 SLOAD DUP1 PUSH1 0x20 MUL PUSH1 0x20 ADD PUSH1 0x40 MLOAD SWAP1 DUP2 ADD PUSH1 0x40 MSTORE DUP1 SWAP3 SWAP2 SWAP1 DUP2 DUP2 MSTORE PUSH1 0x20 ADD DUP3 DUP1 SLOAD DUP1 ISZERO PUSH3 0x3C3 JUMPI PUSH1 0x20 MUL DUP3 ADD SWAP2 SWAP1 PUSH1 0x0 MSTORE PUSH1 0x20 PUSH1 0x0 KECCAK256 SWAP1 PUSH1 0x0 SWAP1 JUMPDEST DUP3 DUP3 SWAP1 SLOAD SWAP1 PUSH2 0x100 EXP SWAP1 DIV PUSH1 0xFF AND PUSH1 0xFF AND DUP2 MSTORE PUSH1 0x20 ADD SWAP1 PUSH1 0x1 ADD SWAP1 PUSH1 0x20 DUP3 PUSH1 0x0 ADD DIV SWAP3 DUP4 ADD SWAP3 PUSH1 0x1 SUB DUP3 MUL SWAP2 POP DUP1 DUP5 GT PUSH3 0x38B JUMPI SWAP1 POP JUMPDEST POP POP POP POP POP DUP2 MSTORE POP POP SWAP1 POP PUSH1 0x0 DUP1 PUSH1 0x0 DUP1 PUSH1 0x2 PUSH1 0x0 SWAP1 SLOAD SWAP1 PUSH2 0x100 EXP SWAP1 DIV PUSH20 0xFFFFFFFFFFFFFFFFFFFFFFFFFFFFFFFFFFFFFFFF AND PUSH20 0xFFFFFFFFFFFFFFFFFFFFFFFFFFFFFFFFFFFFFFFF AND PUSH4 0x586A7B71 DUP11 PUSH1 0x40 MLOAD DUP3 PUSH4 0xFFFFFFFF AND PUSH1 0xE0 SHL DUP2 MSTORE PUSH1 0x4 ADD PUSH3 0x431 SWAP2 SWAP1 PUSH3 0x19F4 JUMP JUMPDEST PUSH1 0x80 PUSH1 0x40 MLOAD DUP1 DUP4 SUB DUP2 DUP7 DUP1 EXTCODESIZE ISZERO DUP1 ISZERO PUSH3 0x44A JUMPI PUSH1 0x0 DUP1 REVERT JUMPDEST POP GAS STATICCALL ISZERO DUP1 ISZERO PUSH3 0x45F JUMPI RETURNDATASIZE PUSH1 0x0 DUP1 RETURNDATACOPY RETURNDATASIZE PUSH1 0x0 REVERT JUMPDEST POP POP POP POP PUSH1 0x40 MLOAD RETURNDATASIZE PUSH1 0x1F NOT PUSH1 0x1F DUP3 ADD AND DUP3 ADD DUP1 PUSH1 0x40 MSTORE POP DUP2 ADD SWAP1 PUSH3 0x485 SWAP2 SWAP1 PUSH3 0x140D JUMP JUMPDEST SWAP4 POP SWAP4 POP SWAP4 POP SWAP4 POP PUSH1 0x1 PUSH1 0x2 DUP6 PUSH3 0x49E SWAP2 SWAP1 PUSH3 0x1B19 JUMP JUMPDEST PUSH3 0x4AA SWAP2 SWAP1 PUSH3 0x1B5B JUMP JUMPDEST PUSH1 0xFF AND DUP9 DUP9 SWAP1 POP EQ PUSH3 0x4F4 JUMPI PUSH1 0x40 MLOAD PUSH32 0x8C379A000000000000000000000000000000000000000000000000000000000 DUP2 MSTORE PUSH1 0x4 ADD PUSH3 0x4EB SWAP1 PUSH3 0x1906 JUMP JUMPDEST PUSH1 0x40 MLOAD DUP1 SWAP2 SUB SWAP1 REVERT JUMPDEST PUSH1 0x3 PUSH1 0x0 SWAP1 SLOAD SWAP1 PUSH2 0x100 EXP SWAP1 DIV PUSH20 0xFFFFFFFFFFFFFFFFFFFFFFFFFFFFFFFFFFFFFFFF AND PUSH20 0xFFFFFFFFFFFFFFFFFFFFFFFFFFFFFFFFFFFFFFFF AND PUSH4 0x23B872DD CALLER ADDRESS DUP5 PUSH1 0x40 MLOAD DUP5 PUSH4 0xFFFFFFFF AND PUSH1 0xE0 SHL DUP2 MSTORE PUSH1 0x4 ADD PUSH3 0x555 SWAP4 SWAP3 SWAP2 SWAP1 PUSH3 0x1790 JUMP JUMPDEST PUSH1 0x20 PUSH1 0x40 MLOAD DUP1 DUP4 SUB DUP2 PUSH1 0x0 DUP8 DUP1 EXTCODESIZE ISZERO DUP1 ISZERO PUSH3 0x570 JUMPI PUSH1 0x0 DUP1 REVERT JUMPDEST POP GAS CALL ISZERO DUP1 ISZERO PUSH3 0x585 JUMPI RETURNDATASIZE PUSH1 0x0 DUP1 RETURNDATACOPY RETURNDATASIZE PUSH1 0x0 REVERT JUMPDEST POP POP POP POP PUSH1 0x40 MLOAD RETURNDATASIZE PUSH1 0x1F NOT PUSH1 0x1F DUP3 ADD AND DUP3 ADD DUP1 PUSH1 0x40 MSTORE POP DUP2 ADD SWAP1 PUSH3 0x5AB SWAP2 SWAP1 PUSH3 0x133F JUMP JUMPDEST PUSH3 0x5ED JUMPI PUSH1 0x40 MLOAD PUSH32 0x8C379A000000000000000000000000000000000000000000000000000000000 DUP2 MSTORE PUSH1 0x4 ADD PUSH3 0x5E4 SWAP1 PUSH3 0x194A JUMP JUMPDEST PUSH1 0x40 MLOAD DUP1 SWAP2 SUB SWAP1 REVERT JUMPDEST DUP5 PUSH1 0x0 ADD MLOAD ISZERO PUSH3 0x93E JUMPI PUSH1 0x0 PUSH1 0x1 PUSH1 0x0 SWAP1 SLOAD SWAP1 PUSH2 0x100 EXP SWAP1 DIV PUSH20 0xFFFFFFFFFFFFFFFFFFFFFFFFFFFFFFFFFFFFFFFF AND PUSH1 0x3 PUSH1 0x0 SWAP1 SLOAD SWAP1 PUSH2 0x100 EXP SWAP1 DIV PUSH20 0xFFFFFFFFFFFFFFFFFFFFFFFFFFFFFFFFFFFFFFFF AND PUSH1 0x4 PUSH1 0x0 SWAP1 SLOAD SWAP1 PUSH2 0x100 EXP SWAP1 DIV PUSH20 0xFFFFFFFFFFFFFFFFFFFFFFFFFFFFFFFFFFFFFFFF AND PUSH1 0x40 MLOAD DUP1 PUSH1 0x80 ADD PUSH1 0x40 MSTORE DUP1 DUP10 PUSH1 0xFF AND DUP2 MSTORE PUSH1 0x20 ADD DUP9 PUSH2 0xFFFF AND DUP2 MSTORE PUSH1 0x20 ADD DUP8 PUSH2 0xFFFF AND DUP2 MSTORE PUSH1 0x20 ADD DUP7 DUP2 MSTORE POP DUP11 CALLER DUP12 PUSH1 0x20 ADD MLOAD DUP16 DUP16 DUP15 PUSH1 0x60 ADD MLOAD PUSH1 0x40 MLOAD PUSH3 0x6AB SWAP1 PUSH3 0x10BF JUMP JUMPDEST PUSH3 0x6C0 SWAP11 SWAP10 SWAP9 SWAP8 SWAP7 SWAP6 SWAP5 SWAP4 SWAP3 SWAP2 SWAP1 PUSH3 0x1854 JUMP JUMPDEST PUSH1 0x40 MLOAD DUP1 SWAP2 SUB SWAP1 PUSH1 0x0 CREATE DUP1 ISZERO DUP1 ISZERO PUSH3 0x6DD JUMPI RETURNDATASIZE PUSH1 0x0 DUP1 RETURNDATACOPY RETURNDATASIZE PUSH1 0x0 REVERT JUMPDEST POP SWAP1 POP PUSH1 0x3 PUSH1 0x0 SWAP1 SLOAD SWAP1 PUSH2 0x100 EXP SWAP1 DIV PUSH20 0xFFFFFFFFFFFFFFFFFFFFFFFFFFFFFFFFFFFFFFFF AND PUSH20 0xFFFFFFFFFFFFFFFFFFFFFFFFFFFFFFFFFFFFFFFF AND PUSH4 0x95EA7B3 DUP3 DUP5 PUSH1 0x2 PUSH3 0x72E SWAP2 SWAP1 PUSH3 0x1AB8 JUMP JUMPDEST PUSH1 0x40 MLOAD DUP4 PUSH4 0xFFFFFFFF AND PUSH1 0xE0 SHL DUP2 MSTORE PUSH1 0x4 ADD PUSH3 0x74D SWAP3 SWAP2 SWAP1 PUSH3 0x17CD JUMP JUMPDEST PUSH1 0x20 PUSH1 0x40 MLOAD DUP1 DUP4 SUB DUP2 PUSH1 0x0 DUP8 DUP1 EXTCODESIZE ISZERO DUP1 ISZERO PUSH3 0x768 JUMPI PUSH1 0x0 DUP1 REVERT JUMPDEST POP GAS CALL ISZERO DUP1 ISZERO PUSH3 0x77D JUMPI RETURNDATASIZE PUSH1 0x0 DUP1 RETURNDATACOPY RETURNDATASIZE PUSH1 0x0 REVERT JUMPDEST POP POP POP POP PUSH1 0x40 MLOAD RETURNDATASIZE PUSH1 0x1F NOT PUSH1 0x1F DUP3 ADD AND DUP3 ADD DUP1 PUSH1 0x40 MSTORE POP DUP2 ADD SWAP1 PUSH3 0x7A3 SWAP2 SWAP1 PUSH3 0x133F JUMP JUMPDEST PUSH3 0x7E5 JUMPI PUSH1 0x40 MLOAD PUSH32 0x8C379A000000000000000000000000000000000000000000000000000000000 DUP2 MSTORE PUSH1 0x4 ADD PUSH3 0x7DC SWAP1 PUSH3 0x196C JUMP JUMPDEST PUSH1 0x40 MLOAD DUP1 SWAP2 SUB SWAP1 REVERT JUMPDEST PUSH32 0xFADB9547847A0C2C31F4C02590545E318D33D7AAE99071CAECF3FA4CE3CD7DCA DUP7 PUSH1 0x40 ADD MLOAD DUP3 PUSH1 0x40 MLOAD PUSH3 0x81C SWAP3 SWAP2 SWAP1 PUSH3 0x1A11 JUMP JUMPDEST PUSH1 0x40 MLOAD DUP1 SWAP2 SUB SWAP1 LOG1 PUSH1 0x8 PUSH1 0x0 CALLER PUSH20 0xFFFFFFFFFFFFFFFFFFFFFFFFFFFFFFFFFFFFFFFF AND PUSH20 0xFFFFFFFFFFFFFFFFFFFFFFFFFFFFFFFFFFFFFFFF AND DUP2 MSTORE PUSH1 0x20 ADD SWAP1 DUP2 MSTORE PUSH1 0x20 ADD PUSH1 0x0 KECCAK256 PUSH1 0x0 PUSH2 0x100 EXP DUP2 SLOAD SWAP1 PUSH1 0xFF MUL NOT AND SWAP1 SSTORE PUSH1 0x8 PUSH1 0x0 DUP8 PUSH1 0x20 ADD MLOAD PUSH20 0xFFFFFFFFFFFFFFFFFFFFFFFFFFFFFFFFFFFFFFFF AND PUSH20 0xFFFFFFFFFFFFFFFFFFFFFFFFFFFFFFFFFFFFFFFF AND DUP2 MSTORE PUSH1 0x20 ADD SWAP1 DUP2 MSTORE PUSH1 0x20 ADD PUSH1 0x0 KECCAK256 PUSH1 0x0 PUSH2 0x100 EXP DUP2 SLOAD SWAP1 PUSH1 0xFF MUL NOT AND SWAP1 SSTORE PUSH1 0x7 PUSH1 0x0 DUP12 DUP2 MSTORE PUSH1 0x20 ADD SWAP1 DUP2 MSTORE PUSH1 0x20 ADD PUSH1 0x0 KECCAK256 PUSH1 0x0 DUP1 DUP3 ADD PUSH1 0x0 PUSH2 0x100 EXP DUP2 SLOAD SWAP1 PUSH1 0xFF MUL NOT AND SWAP1 SSTORE PUSH1 0x0 DUP3 ADD PUSH1 0x1 PUSH2 0x100 EXP DUP2 SLOAD SWAP1 PUSH20 0xFFFFFFFFFFFFFFFFFFFFFFFFFFFFFFFFFFFFFFFF MUL NOT AND SWAP1 SSTORE PUSH1 0x1 DUP3 ADD PUSH1 0x0 SWAP1 SSTORE PUSH1 0x2 DUP3 ADD PUSH1 0x0 PUSH3 0x92F SWAP2 SWAP1 PUSH3 0x10CD JUMP JUMPDEST POP POP POP POP POP POP POP POP POP PUSH3 0xB11 JUMP JUMPDEST PUSH1 0x40 MLOAD DUP1 PUSH1 0x80 ADD PUSH1 0x40 MSTORE DUP1 PUSH1 0x1 ISZERO ISZERO DUP2 MSTORE PUSH1 0x20 ADD CALLER PUSH20 0xFFFFFFFFFFFFFFFFFFFFFFFFFFFFFFFFFFFFFFFF AND DUP2 MSTORE PUSH1 0x20 ADD PUSH1 0x6 PUSH1 0x0 DUP2 SLOAD DUP1 SWAP3 SWAP2 SWAP1 PUSH3 0x983 SWAP1 PUSH3 0x1C5F JUMP JUMPDEST SWAP2 SWAP1 POP SSTORE DUP2 MSTORE PUSH1 0x20 ADD DUP10 DUP10 DUP1 DUP1 PUSH1 0x20 MUL PUSH1 0x20 ADD PUSH1 0x40 MLOAD SWAP1 DUP2 ADD PUSH1 0x40 MSTORE DUP1 SWAP4 SWAP3 SWAP2 SWAP1 DUP2 DUP2 MSTORE PUSH1 0x20 ADD DUP4 DUP4 PUSH1 0x20 MUL DUP1 DUP3 DUP5 CALLDATACOPY PUSH1 0x0 DUP2 DUP5 ADD MSTORE PUSH1 0x1F NOT PUSH1 0x1F DUP3 ADD AND SWAP1 POP DUP1 DUP4 ADD SWAP3 POP POP POP POP POP POP POP DUP2 MSTORE POP PUSH1 0x7 PUSH1 0x0 DUP12 DUP2 MSTORE PUSH1 0x20 ADD SWAP1 DUP2 MSTORE PUSH1 0x20 ADD PUSH1 0x0 KECCAK256 PUSH1 0x0 DUP3 ADD MLOAD DUP2 PUSH1 0x0 ADD PUSH1 0x0 PUSH2 0x100 EXP DUP2 SLOAD DUP2 PUSH1 0xFF MUL NOT AND SWAP1 DUP4 ISZERO ISZERO MUL OR SWAP1 SSTORE POP PUSH1 0x20 DUP3 ADD MLOAD DUP2 PUSH1 0x0 ADD PUSH1 0x1 PUSH2 0x100 EXP DUP2 SLOAD DUP2 PUSH20 0xFFFFFFFFFFFFFFFFFFFFFFFFFFFFFFFFFFFFFFFF MUL NOT AND SWAP1 DUP4 PUSH20 0xFFFFFFFFFFFFFFFFFFFFFFFFFFFFFFFFFFFFFFFF AND MUL OR SWAP1 SSTORE POP PUSH1 0x40 DUP3 ADD MLOAD DUP2 PUSH1 0x1 ADD SSTORE PUSH1 0x60 DUP3 ADD MLOAD DUP2 PUSH1 0x2 ADD SWAP1 DUP1 MLOAD SWAP1 PUSH1 0x20 ADD SWAP1 PUSH3 0xA73 SWAP3 SWAP2 SWAP1 PUSH3 0x10F7 JUMP JUMPDEST POP SWAP1 POP POP PUSH1 0x1 PUSH1 0x8 PUSH1 0x0 CALLER PUSH20 0xFFFFFFFFFFFFFFFFFFFFFFFFFFFFFFFFFFFFFFFF AND PUSH20 0xFFFFFFFFFFFFFFFFFFFFFFFFFFFFFFFFFFFFFFFF AND DUP2 MSTORE PUSH1 0x20 ADD SWAP1 DUP2 MSTORE PUSH1 0x20 ADD PUSH1 0x0 KECCAK256 PUSH1 0x0 PUSH2 0x100 EXP DUP2 SLOAD DUP2 PUSH1 0xFF MUL NOT AND SWAP1 DUP4 ISZERO ISZERO MUL OR SWAP1 SSTORE POP PUSH32 0x6BA49772DE98D7CAA0BBC51B24DFEC5673A2F67FC9932E20E1295ECA2947D43B PUSH1 0x6 SLOAD PUSH1 0x40 MLOAD PUSH3 0xB02 SWAP2 SWAP1 PUSH3 0x19F4 JUMP JUMPDEST PUSH1 0x40 MLOAD DUP1 SWAP2 SUB SWAP1 LOG1 POP POP POP POP POP POP JUMPDEST POP POP POP JUMP JUMPDEST PUSH1 0x8 PUSH1 0x20 MSTORE DUP1 PUSH1 0x0 MSTORE PUSH1 0x40 PUSH1 0x0 KECCAK256 PUSH1 0x0 SWAP2 POP SLOAD SWAP1 PUSH2 0x100 EXP SWAP1 DIV PUSH1 0xFF AND DUP2 JUMP JUMPDEST PUSH1 0x0 PUSH1 0x2 PUSH1 0x0 SWAP1 SLOAD SWAP1 PUSH2 0x100 EXP SWAP1 DIV PUSH20 0xFFFFFFFFFFFFFFFFFFFFFFFFFFFFFFFFFFFFFFFF AND PUSH20 0xFFFFFFFFFFFFFFFFFFFFFFFFFFFFFFFFFFFFFFFF AND PUSH4 0x586A7B71 DUP4 PUSH1 0x40 MLOAD DUP3 PUSH4 0xFFFFFFFF AND PUSH1 0xE0 SHL DUP2 MSTORE PUSH1 0x4 ADD PUSH3 0xB95 SWAP2 SWAP1 PUSH3 0x19F4 JUMP JUMPDEST PUSH1 0x80 PUSH1 0x40 MLOAD DUP1 DUP4 SUB DUP2 DUP7 DUP1 EXTCODESIZE ISZERO DUP1 ISZERO PUSH3 0xBAE JUMPI PUSH1 0x0 DUP1 REVERT JUMPDEST POP GAS STATICCALL ISZERO DUP1 ISZERO PUSH3 0xBC3 JUMPI RETURNDATASIZE PUSH1 0x0 DUP1 RETURNDATACOPY RETURNDATASIZE PUSH1 0x0 REVERT JUMPDEST POP POP POP POP PUSH1 0x40 MLOAD RETURNDATASIZE PUSH1 0x1F NOT PUSH1 0x1F DUP3 ADD AND DUP3 ADD DUP1 PUSH1 0x40 MSTORE POP DUP2 ADD SWAP1 PUSH3 0xBE9 SWAP2 SWAP1 PUSH3 0x140D JUMP JUMPDEST SWAP4 POP POP POP POP PUSH1 0x3 PUSH1 0x0 SWAP1 SLOAD SWAP1 PUSH2 0x100 EXP SWAP1 DIV PUSH20 0xFFFFFFFFFFFFFFFFFFFFFFFFFFFFFFFFFFFFFFFF AND PUSH20 0xFFFFFFFFFFFFFFFFFFFFFFFFFFFFFFFFFFFFFFFF AND PUSH4 0x95EA7B3 CALLER DUP4 PUSH1 0x40 MLOAD DUP4 PUSH4 0xFFFFFFFF AND PUSH1 0xE0 SHL DUP2 MSTORE PUSH1 0x4 ADD PUSH3 0xC4D SWAP3 SWAP2 SWAP1 PUSH3 0x17CD JUMP JUMPDEST PUSH1 0x20 PUSH1 0x40 MLOAD DUP1 DUP4 SUB DUP2 PUSH1 0x0 DUP8 DUP1 EXTCODESIZE ISZERO DUP1 ISZERO PUSH3 0xC68 JUMPI PUSH1 0x0 DUP1 REVERT JUMPDEST POP GAS CALL ISZERO DUP1 ISZERO PUSH3 0xC7D JUMPI RETURNDATASIZE PUSH1 0x0 DUP1 RETURNDATACOPY RETURNDATASIZE PUSH1 0x0 REVERT JUMPDEST POP POP POP POP PUSH1 0x40 MLOAD RETURNDATASIZE PUSH1 0x1F NOT PUSH1 0x1F DUP3 ADD AND DUP3 ADD DUP1 PUSH1 0x40 MSTORE POP DUP2 ADD SWAP1 PUSH3 0xCA3 SWAP2 SWAP1 PUSH3 0x133F JUMP JUMPDEST PUSH3 0xCE5 JUMPI PUSH1 0x40 MLOAD PUSH32 0x8C379A000000000000000000000000000000000000000000000000000000000 DUP2 MSTORE PUSH1 0x4 ADD PUSH3 0xCDC SWAP1 PUSH3 0x19D2 JUMP JUMPDEST PUSH1 0x40 MLOAD DUP1 SWAP2 SUB SWAP1 REVERT JUMPDEST PUSH1 0x8 PUSH1 0x0 CALLER PUSH20 0xFFFFFFFFFFFFFFFFFFFFFFFFFFFFFFFFFFFFFFFF AND PUSH20 0xFFFFFFFFFFFFFFFFFFFFFFFFFFFFFFFFFFFFFFFF AND DUP2 MSTORE PUSH1 0x20 ADD SWAP1 DUP2 MSTORE PUSH1 0x20 ADD PUSH1 0x0 KECCAK256 PUSH1 0x0 PUSH2 0x100 EXP DUP2 SLOAD SWAP1 PUSH1 0xFF MUL NOT AND SWAP1 SSTORE PUSH1 0x7 PUSH1 0x0 DUP4 DUP2 MSTORE PUSH1 0x20 ADD SWAP1 DUP2 MSTORE PUSH1 0x20 ADD PUSH1 0x0 KECCAK256 PUSH1 0x0 DUP1 DUP3 ADD PUSH1 0x0 PUSH2 0x100 EXP DUP2 SLOAD SWAP1 PUSH1 0xFF MUL NOT AND SWAP1 SSTORE PUSH1 0x0 DUP3 ADD PUSH1 0x1 PUSH2 0x100 EXP DUP2 SLOAD SWAP1 PUSH20 0xFFFFFFFFFFFFFFFFFFFFFFFFFFFFFFFFFFFFFFFF MUL NOT AND SWAP1 SSTORE PUSH1 0x1 DUP3 ADD PUSH1 0x0 SWAP1 SSTORE PUSH1 0x2 DUP3 ADD PUSH1 0x0 PUSH3 0xD9D SWAP2 SWAP1 PUSH3 0x10CD JUMP JUMPDEST POP POP PUSH32 0x376488118F6C5DDEF80F45989B43F1E286861B6B2187E9DB3965731E4D69A43D DUP3 CALLER PUSH1 0x40 MLOAD PUSH3 0xDD2 SWAP3 SWAP2 SWAP1 PUSH3 0x1A11 JUMP JUMPDEST PUSH1 0x40 MLOAD DUP1 SWAP2 SUB SWAP1 LOG1 POP POP JUMP JUMPDEST PUSH3 0xDE8 PUSH3 0xFF3 JUMP JUMPDEST PUSH20 0xFFFFFFFFFFFFFFFFFFFFFFFFFFFFFFFFFFFFFFFF AND PUSH3 0xE08 PUSH3 0xEC6 JUMP JUMPDEST PUSH20 0xFFFFFFFFFFFFFFFFFFFFFFFFFFFFFFFFFFFFFFFF AND EQ PUSH3 0xE61 JUMPI PUSH1 0x40 MLOAD PUSH32 0x8C379A000000000000000000000000000000000000000000000000000000000 DUP2 MSTORE PUSH1 0x4 ADD PUSH3 0xE58 SWAP1 PUSH3 0x198E JUMP JUMPDEST PUSH1 0x40 MLOAD DUP1 SWAP2 SUB SWAP1 REVERT JUMPDEST PUSH3 0xE6D PUSH1 0x0 PUSH3 0xFFB JUMP JUMPDEST JUMP JUMPDEST PUSH1 0x7 PUSH1 0x20 MSTORE DUP1 PUSH1 0x0 MSTORE PUSH1 0x40 PUSH1 0x0 KECCAK256 PUSH1 0x0 SWAP2 POP SWAP1 POP DUP1 PUSH1 0x0 ADD PUSH1 0x0 SWAP1 SLOAD SWAP1 PUSH2 0x100 EXP SWAP1 DIV PUSH1 0xFF AND SWAP1 DUP1 PUSH1 0x0 ADD PUSH1 0x1 SWAP1 SLOAD SWAP1 PUSH2 0x100 EXP SWAP1 DIV PUSH20 0xFFFFFFFFFFFFFFFFFFFFFFFFFFFFFFFFFFFFFFFF AND SWAP1 DUP1 PUSH1 0x1 ADD SLOAD SWAP1 POP DUP4 JUMP JUMPDEST PUSH1 0x0 DUP1 PUSH1 0x0 SWAP1 SLOAD SWAP1 PUSH2 0x100 EXP SWAP1 DIV PUSH20 0xFFFFFFFFFFFFFFFFFFFFFFFFFFFFFFFFFFFFFFFF AND SWAP1 POP SWAP1 JUMP JUMPDEST PUSH3 0xEF9 PUSH3 0xFF3 JUMP JUMPDEST PUSH20 0xFFFFFFFFFFFFFFFFFFFFFFFFFFFFFFFFFFFFFFFF AND PUSH3 0xF19 PUSH3 0xEC6 JUMP JUMPDEST PUSH20 0xFFFFFFFFFFFFFFFFFFFFFFFFFFFFFFFFFFFFFFFF AND EQ PUSH3 0xF72 JUMPI PUSH1 0x40 MLOAD PUSH32 0x8C379A000000000000000000000000000000000000000000000000000000000 DUP2 MSTORE PUSH1 0x4 ADD PUSH3 0xF69 SWAP1 PUSH3 0x198E JUMP JUMPDEST PUSH1 0x40 MLOAD DUP1 SWAP2 SUB SWAP1 REVERT JUMPDEST PUSH1 0x0 PUSH20 0xFFFFFFFFFFFFFFFFFFFFFFFFFFFFFFFFFFFFFFFF AND DUP2 PUSH20 0xFFFFFFFFFFFFFFFFFFFFFFFFFFFFFFFFFFFFFFFF AND EQ ISZERO PUSH3 0xFE5 JUMPI PUSH1 0x40 MLOAD PUSH32 0x8C379A000000000000000000000000000000000000000000000000000000000 DUP2 MSTORE PUSH1 0x4 ADD PUSH3 0xFDC SWAP1 PUSH3 0x1928 JUMP JUMPDEST PUSH1 0x40 MLOAD DUP1 SWAP2 SUB SWAP1 REVERT JUMPDEST PUSH3 0xFF0 DUP2 PUSH3 0xFFB JUMP JUMPDEST POP JUMP JUMPDEST PUSH1 0x0 CALLER SWAP1 POP SWAP1 JUMP JUMPDEST PUSH1 0x0 DUP1 PUSH1 0x0 SWAP1 SLOAD SWAP1 PUSH2 0x100 EXP SWAP1 DIV PUSH20 0xFFFFFFFFFFFFFFFFFFFFFFFFFFFFFFFFFFFFFFFF AND SWAP1 POP DUP2 PUSH1 0x0 DUP1 PUSH2 0x100 EXP DUP2 SLOAD DUP2 PUSH20 0xFFFFFFFFFFFFFFFFFFFFFFFFFFFFFFFFFFFFFFFF MUL NOT AND SWAP1 DUP4 PUSH20 0xFFFFFFFFFFFFFFFFFFFFFFFFFFFFFFFFFFFFFFFF AND MUL OR SWAP1 SSTORE POP DUP2 PUSH20 0xFFFFFFFFFFFFFFFFFFFFFFFFFFFFFFFFFFFFFFFF AND DUP2 PUSH20 0xFFFFFFFFFFFFFFFFFFFFFFFFFFFFFFFFFFFFFFFF AND PUSH32 0x8BE0079C531659141344CD1FD0A4F28419497F9722A3DAAFE3B4186F6B6457E0 PUSH1 0x40 MLOAD PUSH1 0x40 MLOAD DUP1 SWAP2 SUB SWAP1 LOG3 POP POP JUMP JUMPDEST PUSH2 0x67B6 DUP1 PUSH3 0x1EBD DUP4 CODECOPY ADD SWAP1 JUMP JUMPDEST POP DUP1 SLOAD PUSH1 0x0 DUP3 SSTORE PUSH1 0x1F ADD PUSH1 0x20 SWAP1 DIV SWAP1 PUSH1 0x0 MSTORE PUSH1 0x20 PUSH1 0x0 KECCAK256 SWAP1 DUP2 ADD SWAP1 PUSH3 0x10F4 SWAP2 SWAP1 PUSH3 0x11A5 JUMP JUMPDEST POP JUMP JUMPDEST DUP3 DUP1 SLOAD DUP3 DUP3 SSTORE SWAP1 PUSH1 0x0 MSTORE PUSH1 0x20 PUSH1 0x0 KECCAK256 SWAP1 PUSH1 0x1F ADD PUSH1 0x20 SWAP1 DIV DUP2 ADD SWAP3 DUP3 ISZERO PUSH3 0x1192 JUMPI SWAP2 PUSH1 0x20 MUL DUP3 ADD PUSH1 0x0 JUMPDEST DUP4 DUP3 GT ISZERO PUSH3 0x1161 JUMPI DUP4 MLOAD DUP4 DUP3 PUSH2 0x100 EXP DUP2 SLOAD DUP2 PUSH1 0xFF MUL NOT AND SWAP1 DUP4 PUSH1 0xFF AND MUL OR SWAP1 SSTORE POP SWAP3 PUSH1 0x20 ADD SWAP3 PUSH1 0x1 ADD PUSH1 0x20 DUP2 PUSH1 0x0 ADD DIV SWAP3 DUP4 ADD SWAP3 PUSH1 0x1 SUB MUL PUSH3 0x1121 JUMP JUMPDEST DUP1 ISZERO PUSH3 0x1190 JUMPI DUP3 DUP2 PUSH2 0x100 EXP DUP2 SLOAD SWAP1 PUSH1 0xFF MUL NOT AND SWAP1 SSTORE PUSH1 0x1 ADD PUSH1 0x20 DUP2 PUSH1 0x0 ADD DIV SWAP3 DUP4 ADD SWAP3 PUSH1 0x1 SUB MUL PUSH3 0x1161 JUMP JUMPDEST POP JUMPDEST POP SWAP1 POP PUSH3 0x11A1 SWAP2 SWAP1 PUSH3 0x11A5 JUMP JUMPDEST POP SWAP1 JUMP JUMPDEST JUMPDEST DUP1 DUP3 GT ISZERO PUSH3 0x11C0 JUMPI PUSH1 0x0 DUP2 PUSH1 0x0 SWAP1 SSTORE POP PUSH1 0x1 ADD PUSH3 0x11A6 JUMP JUMPDEST POP SWAP1 JUMP JUMPDEST PUSH1 0x0 DUP2 CALLDATALOAD SWAP1 POP PUSH3 0x11D5 DUP2 PUSH3 0x1E3A JUMP JUMPDEST SWAP3 SWAP2 POP POP JUMP JUMPDEST PUSH1 0x0 DUP2 MLOAD SWAP1 POP PUSH3 0x11EC DUP2 PUSH3 0x1E3A JUMP JUMPDEST SWAP3 SWAP2 POP POP JUMP JUMPDEST PUSH1 0x0 DUP1 DUP4 PUSH1 0x1F DUP5 ADD SLT PUSH3 0x120B JUMPI PUSH3 0x120A PUSH3 0x1CE1 JUMP JUMPDEST JUMPDEST DUP3 CALLDATALOAD SWAP1 POP PUSH8 0xFFFFFFFFFFFFFFFF DUP2 GT ISZERO PUSH3 0x122B JUMPI PUSH3 0x122A PUSH3 0x1CDC JUMP JUMPDEST JUMPDEST PUSH1 0x20 DUP4 ADD SWAP2 POP DUP4 PUSH1 0x20 DUP3 MUL DUP4 ADD GT ISZERO PUSH3 0x124A JUMPI PUSH3 0x1249 PUSH3 0x1CE6 JUMP JUMPDEST JUMPDEST SWAP3 POP SWAP3 SWAP1 POP JUMP JUMPDEST PUSH1 0x0 DUP2 MLOAD SWAP1 POP PUSH3 0x1262 DUP2 PUSH3 0x1E54 JUMP JUMPDEST SWAP3 SWAP2 POP POP JUMP JUMPDEST PUSH1 0x0 DUP2 MLOAD SWAP1 POP PUSH3 0x1279 DUP2 PUSH3 0x1E6E JUMP JUMPDEST SWAP3 SWAP2 POP POP JUMP JUMPDEST PUSH1 0x0 DUP2 CALLDATALOAD SWAP1 POP PUSH3 0x1290 DUP2 PUSH3 0x1E88 JUMP JUMPDEST SWAP3 SWAP2 POP POP JUMP JUMPDEST PUSH1 0x0 DUP2 MLOAD SWAP1 POP PUSH3 0x12A7 DUP2 PUSH3 0x1E88 JUMP JUMPDEST SWAP3 SWAP2 POP POP JUMP JUMPDEST PUSH1 0x0 DUP2 CALLDATALOAD SWAP1 POP PUSH3 0x12BE DUP2 PUSH3 0x1EA2 JUMP JUMPDEST SWAP3 SWAP2 POP POP JUMP JUMPDEST PUSH1 0x0 DUP2 MLOAD SWAP1 POP PUSH3 0x12D5 DUP2 PUSH3 0x1EA2 JUMP JUMPDEST SWAP3 SWAP2 POP POP JUMP JUMPDEST PUSH1 0x0 PUSH1 0x20 DUP3 DUP5 SUB SLT ISZERO PUSH3 0x12F4 JUMPI PUSH3 0x12F3 PUSH3 0x1CF0 JUMP JUMPDEST JUMPDEST PUSH1 0x0 PUSH3 0x1304 DUP5 DUP3 DUP6 ADD PUSH3 0x11C4 JUMP JUMPDEST SWAP2 POP POP SWAP3 SWAP2 POP POP JUMP JUMPDEST PUSH1 0x0 PUSH1 0x20 DUP3 DUP5 SUB SLT ISZERO PUSH3 0x1326 JUMPI PUSH3 0x1325 PUSH3 0x1CF0 JUMP JUMPDEST JUMPDEST PUSH1 0x0 PUSH3 0x1336 DUP5 DUP3 DUP6 ADD PUSH3 0x11DB JUMP JUMPDEST SWAP2 POP POP SWAP3 SWAP2 POP POP JUMP JUMPDEST PUSH1 0x0 PUSH1 0x20 DUP3 DUP5 SUB SLT ISZERO PUSH3 0x1358 JUMPI PUSH3 0x1357 PUSH3 0x1CF0 JUMP JUMPDEST JUMPDEST PUSH1 0x0 PUSH3 0x1368 DUP5 DUP3 DUP6 ADD PUSH3 0x1251 JUMP JUMPDEST SWAP2 POP POP SWAP3 SWAP2 POP POP JUMP JUMPDEST PUSH1 0x0 PUSH1 0x20 DUP3 DUP5 SUB SLT ISZERO PUSH3 0x138A JUMPI PUSH3 0x1389 PUSH3 0x1CF0 JUMP JUMPDEST JUMPDEST PUSH1 0x0 PUSH3 0x139A DUP5 DUP3 DUP6 ADD PUSH3 0x127F JUMP JUMPDEST SWAP2 POP POP SWAP3 SWAP2 POP POP JUMP JUMPDEST PUSH1 0x0 DUP1 PUSH1 0x0 PUSH1 0x40 DUP5 DUP7 SUB SLT ISZERO PUSH3 0x13BF JUMPI PUSH3 0x13BE PUSH3 0x1CF0 JUMP JUMPDEST JUMPDEST PUSH1 0x0 PUSH3 0x13CF DUP7 DUP3 DUP8 ADD PUSH3 0x127F JUMP JUMPDEST SWAP4 POP POP PUSH1 0x20 DUP5 ADD CALLDATALOAD PUSH8 0xFFFFFFFFFFFFFFFF DUP2 GT ISZERO PUSH3 0x13F3 JUMPI PUSH3 0x13F2 PUSH3 0x1CEB JUMP JUMPDEST JUMPDEST PUSH3 0x1401 DUP7 DUP3 DUP8 ADD PUSH3 0x11F2 JUMP JUMPDEST SWAP3 POP SWAP3 POP POP SWAP3 POP SWAP3 POP SWAP3 JUMP JUMPDEST PUSH1 0x0 DUP1 PUSH1 0x0 DUP1 PUSH1 0x80 DUP6 DUP8 SUB SLT ISZERO PUSH3 0x142A JUMPI PUSH3 0x1429 PUSH3 0x1CF0 JUMP JUMPDEST JUMPDEST PUSH1 0x0 PUSH3 0x143A DUP8 DUP3 DUP9 ADD PUSH3 0x12C4 JUMP JUMPDEST SWAP5 POP POP PUSH1 0x20 PUSH3 0x144D DUP8 DUP3 DUP9 ADD PUSH3 0x1268 JUMP JUMPDEST SWAP4 POP POP PUSH1 0x40 PUSH3 0x1460 DUP8 DUP3 DUP9 ADD PUSH3 0x1268 JUMP JUMPDEST SWAP3 POP POP PUSH1 0x60 PUSH3 0x1473 DUP8 DUP3 DUP9 ADD PUSH3 0x1296 JUMP JUMPDEST SWAP2 POP POP SWAP3 SWAP6 SWAP2 SWAP5 POP SWAP3 POP JUMP JUMPDEST PUSH1 0x0 PUSH3 0x148D DUP4 DUP4 PUSH3 0x1762 JUMP JUMPDEST PUSH1 0x20 DUP4 ADD SWAP1 POP SWAP3 SWAP2 POP POP JUMP JUMPDEST PUSH3 0x14A4 DUP2 PUSH3 0x1B96 JUMP JUMPDEST DUP3 MSTORE POP POP JUMP JUMPDEST PUSH1 0x0 PUSH3 0x14B8 DUP4 DUP6 PUSH3 0x1A7D JUMP JUMPDEST SWAP4 POP PUSH3 0x14C5 DUP3 PUSH3 0x1A3E JUMP JUMPDEST DUP1 PUSH1 0x0 JUMPDEST DUP6 DUP2 LT ISZERO PUSH3 0x1506 JUMPI PUSH3 0x14DE DUP3 DUP5 PUSH3 0x1A9F JUMP JUMPDEST PUSH3 0x14EA DUP9 DUP3 PUSH3 0x147F JUMP JUMPDEST SWAP8 POP PUSH3 0x14F7 DUP4 PUSH3 0x1A63 JUMP JUMPDEST SWAP3 POP POP PUSH1 0x1 DUP2 ADD SWAP1 POP PUSH3 0x14C9 JUMP JUMPDEST POP DUP6 SWAP3 POP POP POP SWAP4 SWAP3 POP POP POP JUMP JUMPDEST PUSH1 0x0 PUSH3 0x1520 DUP3 PUSH3 0x1A58 JUMP JUMPDEST PUSH3 0x152C DUP2 DUP6 PUSH3 0x1A7D JUMP JUMPDEST SWAP4 POP PUSH3 0x1539 DUP4 PUSH3 0x1A48 JUMP JUMPDEST DUP1 PUSH1 0x0 JUMPDEST DUP4 DUP2 LT ISZERO PUSH3 0x1570 JUMPI DUP2 MLOAD PUSH3 0x1554 DUP9 DUP3 PUSH3 0x147F JUMP JUMPDEST SWAP8 POP PUSH3 0x1561 DUP4 PUSH3 0x1A70 JUMP JUMPDEST SWAP3 POP POP PUSH1 0x1 DUP2 ADD SWAP1 POP PUSH3 0x153D JUMP JUMPDEST POP DUP6 SWAP4 POP POP POP POP SWAP3 SWAP2 POP POP JUMP JUMPDEST PUSH3 0x1588 DUP2 PUSH3 0x1BAA JUMP JUMPDEST DUP3 MSTORE POP POP JUMP JUMPDEST PUSH3 0x1599 DUP2 PUSH3 0x1BFB JUMP JUMPDEST DUP3 MSTORE POP POP JUMP JUMPDEST PUSH3 0x15AA DUP2 PUSH3 0x1C0F JUMP JUMPDEST DUP3 MSTORE POP POP JUMP JUMPDEST PUSH3 0x15BB DUP2 PUSH3 0x1C23 JUMP JUMPDEST DUP3 MSTORE POP POP JUMP JUMPDEST PUSH1 0x0 PUSH3 0x15D0 PUSH1 0x1A DUP4 PUSH3 0x1A8E JUMP JUMPDEST SWAP2 POP PUSH3 0x15DD DUP3 PUSH3 0x1CF5 JUMP JUMPDEST PUSH1 0x20 DUP3 ADD SWAP1 POP SWAP2 SWAP1 POP JUMP JUMPDEST PUSH1 0x0 PUSH3 0x15F7 PUSH1 0x26 DUP4 PUSH3 0x1A8E JUMP JUMPDEST SWAP2 POP PUSH3 0x1604 DUP3 PUSH3 0x1D1E JUMP JUMPDEST PUSH1 0x40 DUP3 ADD SWAP1 POP SWAP2 SWAP1 POP JUMP JUMPDEST PUSH1 0x0 PUSH3 0x161E PUSH1 0x12 DUP4 PUSH3 0x1A8E JUMP JUMPDEST SWAP2 POP PUSH3 0x162B DUP3 PUSH3 0x1D6D JUMP JUMPDEST PUSH1 0x20 DUP3 ADD SWAP1 POP SWAP2 SWAP1 POP JUMP JUMPDEST PUSH1 0x0 PUSH3 0x1645 PUSH1 0x19 DUP4 PUSH3 0x1A8E JUMP JUMPDEST SWAP2 POP PUSH3 0x1652 DUP3 PUSH3 0x1D96 JUMP JUMPDEST PUSH1 0x20 DUP3 ADD SWAP1 POP SWAP2 SWAP1 POP JUMP JUMPDEST PUSH1 0x0 PUSH3 0x166C PUSH1 0x20 DUP4 PUSH3 0x1A8E JUMP JUMPDEST SWAP2 POP PUSH3 0x1679 DUP3 PUSH3 0x1DBF JUMP JUMPDEST PUSH1 0x20 DUP3 ADD SWAP1 POP SWAP2 SWAP1 POP JUMP JUMPDEST PUSH1 0x0 PUSH3 0x1693 PUSH1 0x1B DUP4 PUSH3 0x1A8E JUMP JUMPDEST SWAP2 POP PUSH3 0x16A0 DUP3 PUSH3 0x1DE8 JUMP JUMPDEST PUSH1 0x20 DUP3 ADD SWAP1 POP SWAP2 SWAP1 POP JUMP JUMPDEST PUSH1 0x0 PUSH3 0x16BA PUSH1 0x1B DUP4 PUSH3 0x1A8E JUMP JUMPDEST SWAP2 POP PUSH3 0x16C7 DUP3 PUSH3 0x1E11 JUMP JUMPDEST PUSH1 0x20 DUP3 ADD SWAP1 POP SWAP2 SWAP1 POP JUMP JUMPDEST PUSH1 0x80 DUP3 ADD PUSH1 0x0 DUP3 ADD MLOAD PUSH3 0x16EA PUSH1 0x0 DUP6 ADD DUP3 PUSH3 0x1762 JUMP JUMPDEST POP PUSH1 0x20 DUP3 ADD MLOAD PUSH3 0x16FF PUSH1 0x20 DUP6 ADD DUP3 PUSH3 0x172F JUMP JUMPDEST POP PUSH1 0x40 DUP3 ADD MLOAD PUSH3 0x1714 PUSH1 0x40 DUP6 ADD DUP3 PUSH3 0x172F JUMP JUMPDEST POP PUSH1 0x60 DUP3 ADD MLOAD PUSH3 0x1729 PUSH1 0x60 DUP6 ADD DUP3 PUSH3 0x1740 JUMP JUMPDEST POP POP POP POP JUMP JUMPDEST PUSH3 0x173A DUP2 PUSH3 0x1BB6 JUMP JUMPDEST DUP3 MSTORE POP POP JUMP JUMPDEST PUSH3 0x174B DUP2 PUSH3 0x1BE4 JUMP JUMPDEST DUP3 MSTORE POP POP JUMP JUMPDEST PUSH3 0x175C DUP2 PUSH3 0x1BE4 JUMP JUMPDEST DUP3 MSTORE POP POP JUMP JUMPDEST PUSH3 0x176D DUP2 PUSH3 0x1BEE JUMP JUMPDEST DUP3 MSTORE POP POP JUMP JUMPDEST PUSH1 0x0 PUSH1 0x20 DUP3 ADD SWAP1 POP PUSH3 0x178A PUSH1 0x0 DUP4 ADD DUP5 PUSH3 0x1499 JUMP JUMPDEST SWAP3 SWAP2 POP POP JUMP JUMPDEST PUSH1 0x0 PUSH1 0x60 DUP3 ADD SWAP1 POP PUSH3 0x17A7 PUSH1 0x0 DUP4 ADD DUP7 PUSH3 0x1499 JUMP JUMPDEST PUSH3 0x17B6 PUSH1 0x20 DUP4 ADD DUP6 PUSH3 0x1499 JUMP JUMPDEST PUSH3 0x17C5 PUSH1 0x40 DUP4 ADD DUP5 PUSH3 0x1751 JUMP JUMPDEST SWAP5 SWAP4 POP POP POP POP JUMP JUMPDEST PUSH1 0x0 PUSH1 0x40 DUP3 ADD SWAP1 POP PUSH3 0x17E4 PUSH1 0x0 DUP4 ADD DUP6 PUSH3 0x1499 JUMP JUMPDEST PUSH3 0x17F3 PUSH1 0x20 DUP4 ADD DUP5 PUSH3 0x1751 JUMP JUMPDEST SWAP4 SWAP3 POP POP POP JUMP JUMPDEST PUSH1 0x0 PUSH1 0x20 DUP3 ADD SWAP1 POP PUSH3 0x1811 PUSH1 0x0 DUP4 ADD DUP5 PUSH3 0x157D JUMP JUMPDEST SWAP3 SWAP2 POP POP JUMP JUMPDEST PUSH1 0x0 PUSH1 0x60 DUP3 ADD SWAP1 POP PUSH3 0x182E PUSH1 0x0 DUP4 ADD DUP7 PUSH3 0x157D JUMP JUMPDEST PUSH3 0x183D PUSH1 0x20 DUP4 ADD DUP6 PUSH3 0x1499 JUMP JUMPDEST PUSH3 0x184C PUSH1 0x40 DUP4 ADD DUP5 PUSH3 0x1751 JUMP JUMPDEST SWAP5 SWAP4 POP POP POP POP JUMP JUMPDEST PUSH1 0x0 PUSH2 0x180 DUP3 ADD SWAP1 POP PUSH3 0x186C PUSH1 0x0 DUP4 ADD DUP14 PUSH3 0x15B0 JUMP JUMPDEST PUSH3 0x187B PUSH1 0x20 DUP4 ADD DUP13 PUSH3 0x159F JUMP JUMPDEST PUSH3 0x188A PUSH1 0x40 DUP4 ADD DUP12 PUSH3 0x158E JUMP JUMPDEST PUSH3 0x1899 PUSH1 0x60 DUP4 ADD DUP11 PUSH3 0x16D2 JUMP JUMPDEST PUSH3 0x18A8 PUSH1 0xE0 DUP4 ADD DUP10 PUSH3 0x1499 JUMP JUMPDEST PUSH3 0x18B8 PUSH2 0x100 DUP4 ADD DUP9 PUSH3 0x1499 JUMP JUMPDEST PUSH3 0x18C8 PUSH2 0x120 DUP4 ADD DUP8 PUSH3 0x1499 JUMP JUMPDEST DUP2 DUP2 SUB PUSH2 0x140 DUP4 ADD MSTORE PUSH3 0x18DE DUP2 DUP6 DUP8 PUSH3 0x14AA JUMP JUMPDEST SWAP1 POP DUP2 DUP2 SUB PUSH2 0x160 DUP4 ADD MSTORE PUSH3 0x18F5 DUP2 DUP5 PUSH3 0x1513 JUMP JUMPDEST SWAP1 POP SWAP12 SWAP11 POP POP POP POP POP POP POP POP POP POP POP JUMP JUMPDEST PUSH1 0x0 PUSH1 0x20 DUP3 ADD SWAP1 POP DUP2 DUP2 SUB PUSH1 0x0 DUP4 ADD MSTORE PUSH3 0x1921 DUP2 PUSH3 0x15C1 JUMP JUMPDEST SWAP1 POP SWAP2 SWAP1 POP JUMP JUMPDEST PUSH1 0x0 PUSH1 0x20 DUP3 ADD SWAP1 POP DUP2 DUP2 SUB PUSH1 0x0 DUP4 ADD MSTORE PUSH3 0x1943 DUP2 PUSH3 0x15E8 JUMP JUMPDEST SWAP1 POP SWAP2 SWAP1 POP JUMP JUMPDEST PUSH1 0x0 PUSH1 0x20 DUP3 ADD SWAP1 POP DUP2 DUP2 SUB PUSH1 0x0 DUP4 ADD MSTORE PUSH3 0x1965 DUP2 PUSH3 0x160F JUMP JUMPDEST SWAP1 POP SWAP2 SWAP1 POP JUMP JUMPDEST PUSH1 0x0 PUSH1 0x20 DUP3 ADD SWAP1 POP DUP2 DUP2 SUB PUSH1 0x0 DUP4 ADD MSTORE PUSH3 0x1987 DUP2 PUSH3 0x1636 JUMP JUMPDEST SWAP1 POP SWAP2 SWAP1 POP JUMP JUMPDEST PUSH1 0x0 PUSH1 0x20 DUP3 ADD SWAP1 POP DUP2 DUP2 SUB PUSH1 0x0 DUP4 ADD MSTORE PUSH3 0x19A9 DUP2 PUSH3 0x165D JUMP JUMPDEST SWAP1 POP SWAP2 SWAP1 POP JUMP JUMPDEST PUSH1 0x0 PUSH1 0x20 DUP3 ADD SWAP1 POP DUP2 DUP2 SUB PUSH1 0x0 DUP4 ADD MSTORE PUSH3 0x19CB DUP2 PUSH3 0x1684 JUMP JUMPDEST SWAP1 POP SWAP2 SWAP1 POP JUMP JUMPDEST PUSH1 0x0 PUSH1 0x20 DUP3 ADD SWAP1 POP DUP2 DUP2 SUB PUSH1 0x0 DUP4 ADD MSTORE PUSH3 0x19ED DUP2 PUSH3 0x16AB JUMP JUMPDEST SWAP1 POP SWAP2 SWAP1 POP JUMP JUMPDEST PUSH1 0x0 PUSH1 0x20 DUP3 ADD SWAP1 POP PUSH3 0x1A0B PUSH1 0x0 DUP4 ADD DUP5 PUSH3 0x1751 JUMP JUMPDEST SWAP3 SWAP2 POP POP JUMP JUMPDEST PUSH1 0x0 PUSH1 0x40 DUP3 ADD SWAP1 POP PUSH3 0x1A28 PUSH1 0x0 DUP4 ADD DUP6 PUSH3 0x1751 JUMP JUMPDEST PUSH3 0x1A37 PUSH1 0x20 DUP4 ADD DUP5 PUSH3 0x1499 JUMP JUMPDEST SWAP4 SWAP3 POP POP POP JUMP JUMPDEST PUSH1 0x0 DUP2 SWAP1 POP SWAP2 SWAP1 POP JUMP JUMPDEST PUSH1 0x0 DUP2 SWAP1 POP PUSH1 0x20 DUP3 ADD SWAP1 POP SWAP2 SWAP1 POP JUMP JUMPDEST PUSH1 0x0 DUP2 MLOAD SWAP1 POP SWAP2 SWAP1 POP JUMP JUMPDEST PUSH1 0x0 PUSH1 0x20 DUP3 ADD SWAP1 POP SWAP2 SWAP1 POP JUMP JUMPDEST PUSH1 0x0 PUSH1 0x20 DUP3 ADD SWAP1 POP SWAP2 SWAP1 POP JUMP JUMPDEST PUSH1 0x0 DUP3 DUP3 MSTORE PUSH1 0x20 DUP3 ADD SWAP1 POP SWAP3 SWAP2 POP POP JUMP JUMPDEST PUSH1 0x0 DUP3 DUP3 MSTORE PUSH1 0x20 DUP3 ADD SWAP1 POP SWAP3 SWAP2 POP POP JUMP JUMPDEST PUSH1 0x0 PUSH3 0x1AB0 PUSH1 0x20 DUP5 ADD DUP5 PUSH3 0x12AD JUMP JUMPDEST SWAP1 POP SWAP3 SWAP2 POP POP JUMP JUMPDEST PUSH1 0x0 PUSH3 0x1AC5 DUP3 PUSH3 0x1BE4 JUMP JUMPDEST SWAP2 POP PUSH3 0x1AD2 DUP4 PUSH3 0x1BE4 JUMP JUMPDEST SWAP3 POP DUP2 PUSH32 0xFFFFFFFFFFFFFFFFFFFFFFFFFFFFFFFFFFFFFFFFFFFFFFFFFFFFFFFFFFFFFFFF DIV DUP4 GT DUP3 ISZERO ISZERO AND ISZERO PUSH3 0x1B0E JUMPI PUSH3 0x1B0D PUSH3 0x1CAD JUMP JUMPDEST JUMPDEST DUP3 DUP3 MUL SWAP1 POP SWAP3 SWAP2 POP POP JUMP JUMPDEST PUSH1 0x0 PUSH3 0x1B26 DUP3 PUSH3 0x1BEE JUMP JUMPDEST SWAP2 POP PUSH3 0x1B33 DUP4 PUSH3 0x1BEE JUMP JUMPDEST SWAP3 POP DUP2 PUSH1 0xFF DIV DUP4 GT DUP3 ISZERO ISZERO AND ISZERO PUSH3 0x1B50 JUMPI PUSH3 0x1B4F PUSH3 0x1CAD JUMP JUMPDEST JUMPDEST DUP3 DUP3 MUL SWAP1 POP SWAP3 SWAP2 POP POP JUMP JUMPDEST PUSH1 0x0 PUSH3 0x1B68 DUP3 PUSH3 0x1BEE JUMP JUMPDEST SWAP2 POP PUSH3 0x1B75 DUP4 PUSH3 0x1BEE JUMP JUMPDEST SWAP3 POP DUP3 DUP3 LT ISZERO PUSH3 0x1B8B JUMPI PUSH3 0x1B8A PUSH3 0x1CAD JUMP JUMPDEST JUMPDEST DUP3 DUP3 SUB SWAP1 POP SWAP3 SWAP2 POP POP JUMP JUMPDEST PUSH1 0x0 PUSH3 0x1BA3 DUP3 PUSH3 0x1BC4 JUMP JUMPDEST SWAP1 POP SWAP2 SWAP1 POP JUMP JUMPDEST PUSH1 0x0 DUP2 ISZERO ISZERO SWAP1 POP SWAP2 SWAP1 POP JUMP JUMPDEST PUSH1 0x0 PUSH2 0xFFFF DUP3 AND SWAP1 POP SWAP2 SWAP1 POP JUMP JUMPDEST PUSH1 0x0 PUSH20 0xFFFFFFFFFFFFFFFFFFFFFFFFFFFFFFFFFFFFFFFF DUP3 AND SWAP1 POP SWAP2 SWAP1 POP JUMP JUMPDEST PUSH1 0x0 DUP2 SWAP1 POP SWAP2 SWAP1 POP JUMP JUMPDEST PUSH1 0x0 PUSH1 0xFF DUP3 AND SWAP1 POP SWAP2 SWAP1 POP JUMP JUMPDEST PUSH1 0x0 PUSH3 0x1C08 DUP3 PUSH3 0x1C37 JUMP JUMPDEST SWAP1 POP SWAP2 SWAP1 POP JUMP JUMPDEST PUSH1 0x0 PUSH3 0x1C1C DUP3 PUSH3 0x1C37 JUMP JUMPDEST SWAP1 POP SWAP2 SWAP1 POP JUMP JUMPDEST PUSH1 0x0 PUSH3 0x1C30 DUP3 PUSH3 0x1C37 JUMP JUMPDEST SWAP1 POP SWAP2 SWAP1 POP JUMP JUMPDEST PUSH1 0x0 PUSH3 0x1C44 DUP3 PUSH3 0x1C4B JUMP JUMPDEST SWAP1 POP SWAP2 SWAP1 POP JUMP JUMPDEST PUSH1 0x0 PUSH3 0x1C58 DUP3 PUSH3 0x1BC4 JUMP JUMPDEST SWAP1 POP SWAP2 SWAP1 POP JUMP JUMPDEST PUSH1 0x0 PUSH3 0x1C6C DUP3 PUSH3 0x1BE4 JUMP JUMPDEST SWAP2 POP PUSH32 0xFFFFFFFFFFFFFFFFFFFFFFFFFFFFFFFFFFFFFFFFFFFFFFFFFFFFFFFFFFFFFFFF DUP3 EQ ISZERO PUSH3 0x1CA2 JUMPI PUSH3 0x1CA1 PUSH3 0x1CAD JUMP JUMPDEST JUMPDEST PUSH1 0x1 DUP3 ADD SWAP1 POP SWAP2 SWAP1 POP JUMP JUMPDEST PUSH32 0x4E487B7100000000000000000000000000000000000000000000000000000000 PUSH1 0x0 MSTORE PUSH1 0x11 PUSH1 0x4 MSTORE PUSH1 0x24 PUSH1 0x0 REVERT JUMPDEST PUSH1 0x0 DUP1 REVERT JUMPDEST PUSH1 0x0 DUP1 REVERT JUMPDEST PUSH1 0x0 DUP1 REVERT JUMPDEST PUSH1 0x0 DUP1 REVERT JUMPDEST PUSH1 0x0 DUP1 REVERT JUMPDEST PUSH32 0x4465636B206973206E6F74207468652072696768742073697A65000000000000 PUSH1 0x0 DUP3 ADD MSTORE POP JUMP JUMPDEST PUSH32 0x4F776E61626C653A206E6577206F776E657220697320746865207A65726F2061 PUSH1 0x0 DUP3 ADD MSTORE PUSH32 0x6464726573730000000000000000000000000000000000000000000000000000 PUSH1 0x20 DUP3 ADD MSTORE POP JUMP JUMPDEST PUSH32 0x466565207061796D656E74206661696C65640000000000000000000000000000 PUSH1 0x0 DUP3 ADD MSTORE POP JUMP JUMPDEST PUSH32 0x47616D6520746F6B656E20617070726F7665206661696C656400000000000000 PUSH1 0x0 DUP3 ADD MSTORE POP JUMP JUMPDEST PUSH32 0x4F776E61626C653A2063616C6C6572206973206E6F7420746865206F776E6572 PUSH1 0x0 DUP3 ADD MSTORE POP JUMP JUMPDEST PUSH32 0x426F6172642069736E2774206F776E656420627920616E796F6E650000000000 PUSH1 0x0 DUP3 ADD MSTORE POP JUMP JUMPDEST PUSH32 0x456E7472616E63652066656520617070726F7665206661696C65640000000000 PUSH1 0x0 DUP3 ADD MSTORE POP JUMP JUMPDEST PUSH3 0x1E45 DUP2 PUSH3 0x1B96 JUMP JUMPDEST DUP2 EQ PUSH3 0x1E51 JUMPI PUSH1 0x0 DUP1 REVERT JUMPDEST POP JUMP JUMPDEST PUSH3 0x1E5F DUP2 PUSH3 0x1BAA JUMP JUMPDEST DUP2 EQ PUSH3 0x1E6B JUMPI PUSH1 0x0 DUP1 REVERT JUMPDEST POP JUMP JUMPDEST PUSH3 0x1E79 DUP2 PUSH3 0x1BB6 JUMP JUMPDEST DUP2 EQ PUSH3 0x1E85 JUMPI PUSH1 0x0 DUP1 REVERT JUMPDEST POP JUMP JUMPDEST PUSH3 0x1E93 DUP2 PUSH3 0x1BE4 JUMP JUMPDEST DUP2 EQ PUSH3 0x1E9F JUMPI PUSH1 0x0 DUP1 REVERT JUMPDEST POP JUMP JUMPDEST PUSH3 0x1EAD DUP2 PUSH3 0x1BEE JUMP JUMPDEST DUP2 EQ PUSH3 0x1EB9 JUMPI PUSH1 0x0 DUP1 REVERT JUMPDEST POP JUMP INVALID PUSH2 0x140 PUSH1 0x40 MSTORE PUSH1 0x0 DUP1 PUSH1 0x0 PUSH2 0x100 EXP DUP2 SLOAD DUP2 PUSH1 0xFF MUL NOT AND SWAP1 DUP4 PUSH1 0x1 DUP2 GT ISZERO PUSH3 0x2D JUMPI PUSH3 0x2C PUSH3 0xCD6 JUMP JUMPDEST JUMPDEST MUL OR SWAP1 SSTORE POP PUSH1 0x0 DUP1 PUSH1 0x1 PUSH2 0x100 EXP DUP2 SLOAD DUP2 PUSH2 0xFFFF MUL NOT AND SWAP1 DUP4 PUSH2 0xFFFF AND MUL OR SWAP1 SSTORE POP CALLVALUE DUP1 ISZERO PUSH3 0x5C JUMPI PUSH1 0x0 DUP1 REVERT JUMPDEST POP PUSH1 0x40 MLOAD PUSH3 0x67B6 CODESIZE SUB DUP1 PUSH3 0x67B6 DUP4 CODECOPY DUP2 DUP2 ADD PUSH1 0x40 MSTORE DUP2 ADD SWAP1 PUSH3 0x82 SWAP2 SWAP1 PUSH3 0x92D JUMP JUMPDEST PUSH1 0x1 PUSH1 0x2 DUP8 PUSH1 0x0 ADD MLOAD PUSH3 0x97 SWAP2 SWAP1 PUSH3 0xB5F JUMP JUMPDEST PUSH3 0xA3 SWAP2 SWAP1 PUSH3 0xBA1 JUMP JUMPDEST PUSH1 0xFF AND DUP3 MLOAD EQ DUP1 ISZERO PUSH3 0xD9 JUMPI POP PUSH1 0x1 PUSH1 0x2 DUP8 PUSH1 0x0 ADD MLOAD PUSH3 0xC6 SWAP2 SWAP1 PUSH3 0xB5F JUMP JUMPDEST PUSH3 0xD2 SWAP2 SWAP1 PUSH3 0xBA1 JUMP JUMPDEST PUSH1 0xFF AND DUP2 MLOAD EQ JUMPDEST PUSH3 0x11B JUMPI PUSH1 0x40 MLOAD PUSH32 0x8C379A000000000000000000000000000000000000000000000000000000000 DUP2 MSTORE PUSH1 0x4 ADD PUSH3 0x112 SWAP1 PUSH3 0xAD4 JUMP JUMPDEST PUSH1 0x40 MLOAD DUP1 SWAP2 SUB SWAP1 REVERT JUMPDEST DUP9 PUSH1 0x1 PUSH1 0x0 PUSH2 0x100 EXP DUP2 SLOAD DUP2 PUSH20 0xFFFFFFFFFFFFFFFFFFFFFFFFFFFFFFFFFFFFFFFF MUL NOT AND SWAP1 DUP4 PUSH20 0xFFFFFFFFFFFFFFFFFFFFFFFFFFFFFFFFFFFFFFFF AND MUL OR SWAP1 SSTORE POP DUP8 PUSH1 0x2 PUSH1 0x0 PUSH2 0x100 EXP DUP2 SLOAD DUP2 PUSH20 0xFFFFFFFFFFFFFFFFFFFFFFFFFFFFFFFFFFFFFFFF MUL NOT AND SWAP1 DUP4 PUSH20 0xFFFFFFFFFFFFFFFFFFFFFFFFFFFFFFFFFFFFFFFF AND MUL OR SWAP1 SSTORE POP DUP7 PUSH1 0x3 PUSH1 0x0 PUSH2 0x100 EXP DUP2 SLOAD DUP2 PUSH20 0xFFFFFFFFFFFFFFFFFFFFFFFFFFFFFFFFFFFFFFFF MUL NOT AND SWAP1 DUP4 PUSH20 0xFFFFFFFFFFFFFFFFFFFFFFFFFFFFFFFFFFFFFFFF AND MUL OR SWAP1 SSTORE POP PUSH1 0x40 MLOAD DUP1 PUSH1 0x80 ADD PUSH1 0x40 MSTORE DUP1 PUSH3 0x2AA PUSH1 0x1 PUSH1 0x0 SWAP1 SLOAD SWAP1 PUSH2 0x100 EXP SWAP1 DIV PUSH20 0xFFFFFFFFFFFFFFFFFFFFFFFFFFFFFFFFFFFFFFFF AND PUSH20 0xFFFFFFFFFFFFFFFFFFFFFFFFFFFFFFFFFFFFFFFF AND PUSH4 0x27E235E3 DUP9 PUSH1 0x40 MLOAD DUP3 PUSH4 0xFFFFFFFF AND PUSH1 0xE0 SHL DUP2 MSTORE PUSH1 0x4 ADD PUSH3 0x24A SWAP2 SWAP1 PUSH3 0xAB7 JUMP JUMPDEST PUSH1 0x20 PUSH1 0x40 MLOAD DUP1 DUP4 SUB DUP2 DUP7 DUP1 EXTCODESIZE ISZERO DUP1 ISZERO PUSH3 0x263 JUMPI PUSH1 0x0 DUP1 REVERT JUMPDEST POP GAS STATICCALL ISZERO DUP1 ISZERO PUSH3 0x278 JUMPI RETURNDATASIZE PUSH1 0x0 DUP1 RETURNDATACOPY RETURNDATASIZE PUSH1 0x0 REVERT JUMPDEST POP POP POP POP PUSH1 0x40 MLOAD RETURNDATASIZE PUSH1 0x1F NOT PUSH1 0x1F DUP3 ADD AND DUP3 ADD DUP1 PUSH1 0x40 MSTORE POP DUP2 ADD SWAP1 PUSH3 0x29E SWAP2 SWAP1 PUSH3 0xA4D JUMP JUMPDEST PUSH3 0x62D PUSH1 0x20 SHL PUSH1 0x20 SHR JUMP JUMPDEST PUSH1 0xFF AND DUP2 MSTORE PUSH1 0x20 ADD DUP8 PUSH1 0x0 ADD MLOAD PUSH1 0xFF AND DUP2 MSTORE PUSH1 0x20 ADD DUP6 PUSH20 0xFFFFFFFFFFFFFFFFFFFFFFFFFFFFFFFFFFFFFFFF AND DUP2 MSTORE PUSH1 0x20 ADD DUP4 DUP2 MSTORE POP PUSH1 0x4 PUSH1 0x0 DUP3 ADD MLOAD DUP2 PUSH1 0x0 ADD PUSH1 0x0 PUSH2 0x100 EXP DUP2 SLOAD DUP2 PUSH1 0xFF MUL NOT AND SWAP1 DUP4 PUSH1 0xFF AND MUL OR SWAP1 SSTORE POP PUSH1 0x20 DUP3 ADD MLOAD DUP2 PUSH1 0x0 ADD PUSH1 0x1 PUSH2 0x100 EXP DUP2 SLOAD DUP2 PUSH1 0xFF MUL NOT AND SWAP1 DUP4 PUSH1 0xFF AND MUL OR SWAP1 SSTORE POP PUSH1 0x40 DUP3 ADD MLOAD DUP2 PUSH1 0x0 ADD PUSH1 0x2 PUSH2 0x100 EXP DUP2 SLOAD DUP2 PUSH20 0xFFFFFFFFFFFFFFFFFFFFFFFFFFFFFFFFFFFFFFFF MUL NOT AND SWAP1 DUP4 PUSH20 0xFFFFFFFFFFFFFFFFFFFFFFFFFFFFFFFFFFFFFFFF AND MUL OR SWAP1 SSTORE POP PUSH1 0x60 DUP3 ADD MLOAD DUP2 PUSH1 0x1 ADD SWAP1 DUP1 MLOAD SWAP1 PUSH1 0x20 ADD SWAP1 PUSH3 0x388 SWAP3 SWAP2 SWAP1 PUSH3 0x68C JUMP JUMPDEST POP SWAP1 POP POP PUSH1 0x40 MLOAD DUP1 PUSH1 0x80 ADD PUSH1 0x40 MSTORE DUP1 PUSH3 0x458 PUSH1 0x1 PUSH1 0x0 SWAP1 SLOAD SWAP1 PUSH2 0x100 EXP SWAP1 DIV PUSH20 0xFFFFFFFFFFFFFFFFFFFFFFFFFFFFFFFFFFFFFFFF AND PUSH20 0xFFFFFFFFFFFFFFFFFFFFFFFFFFFFFFFFFFFFFFFF AND PUSH4 0x27E235E3 DUP8 PUSH1 0x40 MLOAD DUP3 PUSH4 0xFFFFFFFF AND PUSH1 0xE0 SHL DUP2 MSTORE PUSH1 0x4 ADD PUSH3 0x3F8 SWAP2 SWAP1 PUSH3 0xAB7 JUMP JUMPDEST PUSH1 0x20 PUSH1 0x40 MLOAD DUP1 DUP4 SUB DUP2 DUP7 DUP1 EXTCODESIZE ISZERO DUP1 ISZERO PUSH3 0x411 JUMPI PUSH1 0x0 DUP1 REVERT JUMPDEST POP GAS STATICCALL ISZERO DUP1 ISZERO PUSH3 0x426 JUMPI RETURNDATASIZE PUSH1 0x0 DUP1 RETURNDATACOPY RETURNDATASIZE PUSH1 0x0 REVERT JUMPDEST POP POP POP POP PUSH1 0x40 MLOAD RETURNDATASIZE PUSH1 0x1F NOT PUSH1 0x1F DUP3 ADD AND DUP3 ADD DUP1 PUSH1 0x40 MSTORE POP DUP2 ADD SWAP1 PUSH3 0x44C SWAP2 SWAP1 PUSH3 0xA4D JUMP JUMPDEST PUSH3 0x62D PUSH1 0x20 SHL PUSH1 0x20 SHR JUMP JUMPDEST PUSH1 0xFF AND DUP2 MSTORE PUSH1 0x20 ADD DUP8 PUSH1 0x0 ADD MLOAD PUSH1 0xFF AND DUP2 MSTORE PUSH1 0x20 ADD DUP5 PUSH20 0xFFFFFFFFFFFFFFFFFFFFFFFFFFFFFFFFFFFFFFFF AND DUP2 MSTORE PUSH1 0x20 ADD DUP3 DUP2 MSTORE POP PUSH1 0x6 PUSH1 0x0 DUP3 ADD MLOAD DUP2 PUSH1 0x0 ADD PUSH1 0x0 PUSH2 0x100 EXP DUP2 SLOAD DUP2 PUSH1 0xFF MUL NOT AND SWAP1 DUP4 PUSH1 0xFF AND MUL OR SWAP1 SSTORE POP PUSH1 0x20 DUP3 ADD MLOAD DUP2 PUSH1 0x0 ADD PUSH1 0x1 PUSH2 0x100 EXP DUP2 SLOAD DUP2 PUSH1 0xFF MUL NOT AND SWAP1 DUP4 PUSH1 0xFF AND MUL OR SWAP1 SSTORE POP PUSH1 0x40 DUP3 ADD MLOAD DUP2 PUSH1 0x0 ADD PUSH1 0x2 PUSH2 0x100 EXP DUP2 SLOAD DUP2 PUSH20 0xFFFFFFFFFFFFFFFFFFFFFFFFFFFFFFFFFFFFFFFF MUL NOT AND SWAP1 DUP4 PUSH20 0xFFFFFFFFFFFFFFFFFFFFFFFFFFFFFFFFFFFFFFFF AND MUL OR SWAP1 SSTORE POP PUSH1 0x60 DUP3 ADD MLOAD DUP2 PUSH1 0x1 ADD SWAP1 DUP1 MLOAD SWAP1 PUSH1 0x20 ADD SWAP1 PUSH3 0x536 SWAP3 SWAP2 SWAP1 PUSH3 0x68C JUMP JUMPDEST POP SWAP1 POP POP CALLER PUSH20 0xFFFFFFFFFFFFFFFFFFFFFFFFFFFFFFFFFFFFFFFF AND PUSH2 0x120 DUP2 PUSH20 0xFFFFFFFFFFFFFFFFFFFFFFFFFFFFFFFFFFFFFFFF AND PUSH1 0x60 SHL DUP2 MSTORE POP POP DUP5 PUSH20 0xFFFFFFFFFFFFFFFFFFFFFFFFFFFFFFFFFFFFFFFF AND PUSH2 0x100 DUP2 PUSH20 0xFFFFFFFFFFFFFFFFFFFFFFFFFFFFFFFFFFFFFFFF AND PUSH1 0x60 SHL DUP2 MSTORE POP POP DUP6 PUSH1 0x40 ADD MLOAD PUSH2 0xFFFF AND PUSH1 0xE0 DUP2 PUSH2 0xFFFF AND PUSH1 0xF0 SHL DUP2 MSTORE POP POP DUP6 PUSH1 0x20 ADD MLOAD PUSH2 0xFFFF AND PUSH1 0xC0 DUP2 PUSH2 0xFFFF AND PUSH1 0xF0 SHL DUP2 MSTORE POP POP DUP6 PUSH1 0x0 ADD MLOAD PUSH1 0xFF AND PUSH1 0xA0 DUP2 PUSH1 0xFF AND PUSH1 0xF8 SHL DUP2 MSTORE POP POP PUSH1 0x1 PUSH1 0x2 DUP8 PUSH1 0x0 ADD MLOAD PUSH3 0x602 SWAP2 SWAP1 PUSH3 0xB5F JUMP JUMPDEST PUSH3 0x60E SWAP2 SWAP1 PUSH3 0xBA1 JUMP JUMPDEST PUSH1 0xFF AND PUSH1 0x80 DUP2 PUSH1 0xFF AND PUSH1 0xF8 SHL DUP2 MSTORE POP POP POP POP POP POP POP POP POP POP POP PUSH3 0xE63 JUMP JUMPDEST PUSH1 0x0 PUSH1 0x64 DUP3 LT ISZERO PUSH3 0x643 JUMPI PUSH1 0xA SWAP1 POP PUSH3 0x687 JUMP JUMPDEST PUSH2 0x1C2 DUP3 LT ISZERO PUSH3 0x658 JUMPI PUSH1 0xF SWAP1 POP PUSH3 0x687 JUMP JUMPDEST PUSH2 0x41A DUP3 LT ISZERO PUSH3 0x66D JUMPI PUSH1 0x14 SWAP1 POP PUSH3 0x687 JUMP JUMPDEST PUSH2 0x10FE DUP3 LT ISZERO PUSH3 0x682 JUMPI PUSH1 0x19 SWAP1 POP PUSH3 0x687 JUMP JUMPDEST PUSH1 0x1E SWAP1 POP JUMPDEST SWAP2 SWAP1 POP JUMP JUMPDEST DUP3 DUP1 SLOAD DUP3 DUP3 SSTORE SWAP1 PUSH1 0x0 MSTORE PUSH1 0x20 PUSH1 0x0 KECCAK256 SWAP1 PUSH1 0x1F ADD PUSH1 0x20 SWAP1 DIV DUP2 ADD SWAP3 DUP3 ISZERO PUSH3 0x727 JUMPI SWAP2 PUSH1 0x20 MUL DUP3 ADD PUSH1 0x0 JUMPDEST DUP4 DUP3 GT ISZERO PUSH3 0x6F6 JUMPI DUP4 MLOAD DUP4 DUP3 PUSH2 0x100 EXP DUP2 SLOAD DUP2 PUSH1 0xFF MUL NOT AND SWAP1 DUP4 PUSH1 0xFF AND MUL OR SWAP1 SSTORE POP SWAP3 PUSH1 0x20 ADD SWAP3 PUSH1 0x1 ADD PUSH1 0x20 DUP2 PUSH1 0x0 ADD DIV SWAP3 DUP4 ADD SWAP3 PUSH1 0x1 SUB MUL PUSH3 0x6B6 JUMP JUMPDEST DUP1 ISZERO PUSH3 0x725 JUMPI DUP3 DUP2 PUSH2 0x100 EXP DUP2 SLOAD SWAP1 PUSH1 0xFF MUL NOT AND SWAP1 SSTORE PUSH1 0x1 ADD PUSH1 0x20 DUP2 PUSH1 0x0 ADD DIV SWAP3 DUP4 ADD SWAP3 PUSH1 0x1 SUB MUL PUSH3 0x6F6 JUMP JUMPDEST POP JUMPDEST POP SWAP1 POP PUSH3 0x736 SWAP2 SWAP1 PUSH3 0x73A JUMP JUMPDEST POP SWAP1 JUMP JUMPDEST JUMPDEST DUP1 DUP3 GT ISZERO PUSH3 0x755 JUMPI PUSH1 0x0 DUP2 PUSH1 0x0 SWAP1 SSTORE POP PUSH1 0x1 ADD PUSH3 0x73B JUMP JUMPDEST POP SWAP1 JUMP JUMPDEST PUSH1 0x0 PUSH3 0x770 PUSH3 0x76A DUP5 PUSH3 0xB1F JUMP JUMPDEST PUSH3 0xAF6 JUMP JUMPDEST SWAP1 POP DUP1 DUP4 DUP3 MSTORE PUSH1 0x20 DUP3 ADD SWAP1 POP DUP3 DUP6 PUSH1 0x20 DUP7 MUL DUP3 ADD GT ISZERO PUSH3 0x796 JUMPI PUSH3 0x795 PUSH3 0xD3E JUMP JUMPDEST JUMPDEST PUSH1 0x0 JUMPDEST DUP6 DUP2 LT ISZERO PUSH3 0x7CA JUMPI DUP2 PUSH3 0x7AF DUP9 DUP3 PUSH3 0x916 JUMP JUMPDEST DUP5 MSTORE PUSH1 0x20 DUP5 ADD SWAP4 POP PUSH1 0x20 DUP4 ADD SWAP3 POP POP PUSH1 0x1 DUP2 ADD SWAP1 POP PUSH3 0x799 JUMP JUMPDEST POP POP POP SWAP4 SWAP3 POP POP POP JUMP JUMPDEST PUSH1 0x0 DUP2 MLOAD SWAP1 POP PUSH3 0x7E5 DUP2 PUSH3 0xDAD JUMP JUMPDEST SWAP3 SWAP2 POP POP JUMP JUMPDEST PUSH1 0x0 DUP3 PUSH1 0x1F DUP4 ADD SLT PUSH3 0x803 JUMPI PUSH3 0x802 PUSH3 0xD34 JUMP JUMPDEST JUMPDEST DUP2 MLOAD PUSH3 0x815 DUP5 DUP3 PUSH1 0x20 DUP7 ADD PUSH3 0x759 JUMP JUMPDEST SWAP2 POP POP SWAP3 SWAP2 POP POP JUMP JUMPDEST PUSH1 0x0 DUP2 MLOAD SWAP1 POP PUSH3 0x82F DUP2 PUSH3 0xDC7 JUMP JUMPDEST SWAP3 SWAP2 POP POP JUMP JUMPDEST PUSH1 0x0 DUP2 MLOAD SWAP1 POP PUSH3 0x846 DUP2 PUSH3 0xDE1 JUMP JUMPDEST SWAP3 SWAP2 POP POP JUMP JUMPDEST PUSH1 0x0 DUP2 MLOAD SWAP1 POP PUSH3 0x85D DUP2 PUSH3 0xDFB JUMP JUMPDEST SWAP3 SWAP2 POP POP JUMP JUMPDEST PUSH1 0x0 PUSH1 0x80 DUP3 DUP5 SUB SLT ISZERO PUSH3 0x87C JUMPI PUSH3 0x87B PUSH3 0xD39 JUMP JUMPDEST JUMPDEST PUSH3 0x888 PUSH1 0x80 PUSH3 0xAF6 JUMP JUMPDEST SWAP1 POP PUSH1 0x0 PUSH3 0x89A DUP5 DUP3 DUP6 ADD PUSH3 0x916 JUMP JUMPDEST PUSH1 0x0 DUP4 ADD MSTORE POP PUSH1 0x20 PUSH3 0x8B0 DUP5 DUP3 DUP6 ADD PUSH3 0x8E8 JUMP JUMPDEST PUSH1 0x20 DUP4 ADD MSTORE POP PUSH1 0x40 PUSH3 0x8C6 DUP5 DUP3 DUP6 ADD PUSH3 0x8E8 JUMP JUMPDEST PUSH1 0x40 DUP4 ADD MSTORE POP PUSH1 0x60 PUSH3 0x8DC DUP5 DUP3 DUP6 ADD PUSH3 0x8FF JUMP JUMPDEST PUSH1 0x60 DUP4 ADD MSTORE POP SWAP3 SWAP2 POP POP JUMP JUMPDEST PUSH1 0x0 DUP2 MLOAD SWAP1 POP PUSH3 0x8F9 DUP2 PUSH3 0xE15 JUMP JUMPDEST SWAP3 SWAP2 POP POP JUMP JUMPDEST PUSH1 0x0 DUP2 MLOAD SWAP1 POP PUSH3 0x910 DUP2 PUSH3 0xE2F JUMP JUMPDEST SWAP3 SWAP2 POP POP JUMP JUMPDEST PUSH1 0x0 DUP2 MLOAD SWAP1 POP PUSH3 0x927 DUP2 PUSH3 0xE49 JUMP JUMPDEST SWAP3 SWAP2 POP POP JUMP JUMPDEST PUSH1 0x0 DUP1 PUSH1 0x0 DUP1 PUSH1 0x0 DUP1 PUSH1 0x0 DUP1 PUSH1 0x0 PUSH2 0x180 DUP11 DUP13 SUB SLT ISZERO PUSH3 0x953 JUMPI PUSH3 0x952 PUSH3 0xD48 JUMP JUMPDEST JUMPDEST PUSH1 0x0 PUSH3 0x963 DUP13 DUP3 DUP14 ADD PUSH3 0x84C JUMP JUMPDEST SWAP10 POP POP PUSH1 0x20 PUSH3 0x976 DUP13 DUP3 DUP14 ADD PUSH3 0x835 JUMP JUMPDEST SWAP9 POP POP PUSH1 0x40 PUSH3 0x989 DUP13 DUP3 DUP14 ADD PUSH3 0x81E JUMP JUMPDEST SWAP8 POP POP PUSH1 0x60 PUSH3 0x99C DUP13 DUP3 DUP14 ADD PUSH3 0x863 JUMP JUMPDEST SWAP7 POP POP PUSH1 0xE0 PUSH3 0x9AF DUP13 DUP3 DUP14 ADD PUSH3 0x7D4 JUMP JUMPDEST SWAP6 POP POP PUSH2 0x100 PUSH3 0x9C3 DUP13 DUP3 DUP14 ADD PUSH3 0x7D4 JUMP JUMPDEST SWAP5 POP POP PUSH2 0x120 PUSH3 0x9D7 DUP13 DUP3 DUP14 ADD PUSH3 0x7D4 JUMP JUMPDEST SWAP4 POP POP PUSH2 0x140 DUP11 ADD MLOAD PUSH8 0xFFFFFFFFFFFFFFFF DUP2 GT ISZERO PUSH3 0x9FC JUMPI PUSH3 0x9FB PUSH3 0xD43 JUMP JUMPDEST JUMPDEST PUSH3 0xA0A DUP13 DUP3 DUP14 ADD PUSH3 0x7EB JUMP JUMPDEST SWAP3 POP POP PUSH2 0x160 DUP11 ADD MLOAD PUSH8 0xFFFFFFFFFFFFFFFF DUP2 GT ISZERO PUSH3 0xA2F JUMPI PUSH3 0xA2E PUSH3 0xD43 JUMP JUMPDEST JUMPDEST PUSH3 0xA3D DUP13 DUP3 DUP14 ADD PUSH3 0x7EB JUMP JUMPDEST SWAP2 POP POP SWAP3 SWAP6 SWAP9 POP SWAP3 SWAP6 SWAP9 POP SWAP3 SWAP6 SWAP9 JUMP JUMPDEST PUSH1 0x0 PUSH1 0x20 DUP3 DUP5 SUB SLT ISZERO PUSH3 0xA66 JUMPI PUSH3 0xA65 PUSH3 0xD48 JUMP JUMPDEST JUMPDEST PUSH1 0x0 PUSH3 0xA76 DUP5 DUP3 DUP6 ADD PUSH3 0x8FF JUMP JUMPDEST SWAP2 POP POP SWAP3 SWAP2 POP POP JUMP JUMPDEST PUSH3 0xA8A DUP2 PUSH3 0xBDC JUMP JUMPDEST DUP3 MSTORE POP POP JUMP JUMPDEST PUSH1 0x0 PUSH3 0xA9F PUSH1 0x29 DUP4 PUSH3 0xB4E JUMP JUMPDEST SWAP2 POP PUSH3 0xAAC DUP3 PUSH3 0xD5E JUMP JUMPDEST PUSH1 0x40 DUP3 ADD SWAP1 POP SWAP2 SWAP1 POP JUMP JUMPDEST PUSH1 0x0 PUSH1 0x20 DUP3 ADD SWAP1 POP PUSH3 0xACE PUSH1 0x0 DUP4 ADD DUP5 PUSH3 0xA7F JUMP JUMPDEST SWAP3 SWAP2 POP POP JUMP JUMPDEST PUSH1 0x0 PUSH1 0x20 DUP3 ADD SWAP1 POP DUP2 DUP2 SUB PUSH1 0x0 DUP4 ADD MSTORE PUSH3 0xAEF DUP2 PUSH3 0xA90 JUMP JUMPDEST SWAP1 POP SWAP2 SWAP1 POP JUMP JUMPDEST PUSH1 0x0 PUSH3 0xB02 PUSH3 0xB15 JUMP JUMPDEST SWAP1 POP PUSH3 0xB10 DUP3 DUP3 PUSH3 0xC71 JUMP JUMPDEST SWAP2 SWAP1 POP JUMP JUMPDEST PUSH1 0x0 PUSH1 0x40 MLOAD SWAP1 POP SWAP1 JUMP JUMPDEST PUSH1 0x0 PUSH8 0xFFFFFFFFFFFFFFFF DUP3 GT ISZERO PUSH3 0xB3D JUMPI PUSH3 0xB3C PUSH3 0xD05 JUMP JUMPDEST JUMPDEST PUSH1 0x20 DUP3 MUL SWAP1 POP PUSH1 0x20 DUP2 ADD SWAP1 POP SWAP2 SWAP1 POP JUMP JUMPDEST PUSH1 0x0 DUP3 DUP3 MSTORE PUSH1 0x20 DUP3 ADD SWAP1 POP SWAP3 SWAP2 POP POP JUMP JUMPDEST PUSH1 0x0 PUSH3 0xB6C DUP3 PUSH3 0xC64 JUMP JUMPDEST SWAP2 POP PUSH3 0xB79 DUP4 PUSH3 0xC64 JUMP JUMPDEST SWAP3 POP DUP2 PUSH1 0xFF DIV DUP4 GT DUP3 ISZERO ISZERO AND ISZERO PUSH3 0xB96 JUMPI PUSH3 0xB95 PUSH3 0xCA7 JUMP JUMPDEST JUMPDEST DUP3 DUP3 MUL SWAP1 POP SWAP3 SWAP2 POP POP JUMP JUMPDEST PUSH1 0x0 PUSH3 0xBAE DUP3 PUSH3 0xC64 JUMP JUMPDEST SWAP2 POP PUSH3 0xBBB DUP4 PUSH3 0xC64 JUMP JUMPDEST SWAP3 POP DUP3 DUP3 LT ISZERO PUSH3 0xBD1 JUMPI PUSH3 0xBD0 PUSH3 0xCA7 JUMP JUMPDEST JUMPDEST DUP3 DUP3 SUB SWAP1 POP SWAP3 SWAP2 POP POP JUMP JUMPDEST PUSH1 0x0 PUSH3 0xBE9 DUP3 PUSH3 0xC3A JUMP JUMPDEST SWAP1 POP SWAP2 SWAP1 POP JUMP JUMPDEST PUSH1 0x0 PUSH3 0xBFD DUP3 PUSH3 0xBDC JUMP JUMPDEST SWAP1 POP SWAP2 SWAP1 POP JUMP JUMPDEST PUSH1 0x0 PUSH3 0xC11 DUP3 PUSH3 0xBDC JUMP JUMPDEST SWAP1 POP SWAP2 SWAP1 POP JUMP JUMPDEST PUSH1 0x0 PUSH3 0xC25 DUP3 PUSH3 0xBDC JUMP JUMPDEST SWAP1 POP SWAP2 SWAP1 POP JUMP JUMPDEST PUSH1 0x0 PUSH2 0xFFFF DUP3 AND SWAP1 POP SWAP2 SWAP1 POP JUMP JUMPDEST PUSH1 0x0 PUSH20 0xFFFFFFFFFFFFFFFFFFFFFFFFFFFFFFFFFFFFFFFF DUP3 AND SWAP1 POP SWAP2 SWAP1 POP JUMP JUMPDEST PUSH1 0x0 DUP2 SWAP1 POP SWAP2 SWAP1 POP JUMP JUMPDEST PUSH1 0x0 PUSH1 0xFF DUP3 AND SWAP1 POP SWAP2 SWAP1 POP JUMP JUMPDEST PUSH3 0xC7C DUP3 PUSH3 0xD4D JUMP JUMPDEST DUP2 ADD DUP2 DUP2 LT PUSH8 0xFFFFFFFFFFFFFFFF DUP3 GT OR ISZERO PUSH3 0xC9E JUMPI PUSH3 0xC9D PUSH3 0xD05 JUMP JUMPDEST JUMPDEST DUP1 PUSH1 0x40 MSTORE POP POP POP JUMP JUMPDEST PUSH32 0x4E487B7100000000000000000000000000000000000000000000000000000000 PUSH1 0x0 MSTORE PUSH1 0x11 PUSH1 0x4 MSTORE PUSH1 0x24 PUSH1 0x0 REVERT JUMPDEST PUSH32 0x4E487B7100000000000000000000000000000000000000000000000000000000 PUSH1 0x0 MSTORE PUSH1 0x21 PUSH1 0x4 MSTORE PUSH1 0x24 PUSH1 0x0 REVERT JUMPDEST PUSH32 0x4E487B7100000000000000000000000000000000000000000000000000000000 PUSH1 0x0 MSTORE PUSH1 0x41 PUSH1 0x4 MSTORE PUSH1 0x24 PUSH1 0x0 REVERT JUMPDEST PUSH1 0x0 DUP1 REVERT JUMPDEST PUSH1 0x0 DUP1 REVERT JUMPDEST PUSH1 0x0 DUP1 REVERT JUMPDEST PUSH1 0x0 DUP1 REVERT JUMPDEST PUSH1 0x0 DUP1 REVERT JUMPDEST PUSH1 0x0 PUSH1 0x1F NOT PUSH1 0x1F DUP4 ADD AND SWAP1 POP SWAP2 SWAP1 POP JUMP JUMPDEST PUSH32 0x4465636B2073697A6520646F65736E2774206D617463682067616D6520726571 PUSH1 0x0 DUP3 ADD MSTORE PUSH32 0x756972656D656E74730000000000000000000000000000000000000000000000 PUSH1 0x20 DUP3 ADD MSTORE POP JUMP JUMPDEST PUSH3 0xDB8 DUP2 PUSH3 0xBDC JUMP JUMPDEST DUP2 EQ PUSH3 0xDC4 JUMPI PUSH1 0x0 DUP1 REVERT JUMPDEST POP JUMP JUMPDEST PUSH3 0xDD2 DUP2 PUSH3 0xBF0 JUMP JUMPDEST DUP2 EQ PUSH3 0xDDE JUMPI PUSH1 0x0 DUP1 REVERT JUMPDEST POP JUMP JUMPDEST PUSH3 0xDEC DUP2 PUSH3 0xC04 JUMP JUMPDEST DUP2 EQ PUSH3 0xDF8 JUMPI PUSH1 0x0 DUP1 REVERT JUMPDEST POP JUMP JUMPDEST PUSH3 0xE06 DUP2 PUSH3 0xC18 JUMP JUMPDEST DUP2 EQ PUSH3 0xE12 JUMPI PUSH1 0x0 DUP1 REVERT JUMPDEST POP JUMP JUMPDEST PUSH3 0xE20 DUP2 PUSH3 0xC2C JUMP JUMPDEST DUP2 EQ PUSH3 0xE2C JUMPI PUSH1 0x0 DUP1 REVERT JUMPDEST POP JUMP JUMPDEST PUSH3 0xE3A DUP2 PUSH3 0xC5A JUMP JUMPDEST DUP2 EQ PUSH3 0xE46 JUMPI PUSH1 0x0 DUP1 REVERT JUMPDEST POP JUMP JUMPDEST PUSH3 0xE54 DUP2 PUSH3 0xC64 JUMP JUMPDEST DUP2 EQ PUSH3 0xE60 JUMPI PUSH1 0x0 DUP1 REVERT JUMPDEST POP JUMP JUMPDEST PUSH1 0x80 MLOAD PUSH1 0xF8 SHR PUSH1 0xA0 MLOAD PUSH1 0xF8 SHR PUSH1 0xC0 MLOAD PUSH1 0xF0 SHR PUSH1 0xE0 MLOAD PUSH1 0xF0 SHR PUSH2 0x100 MLOAD PUSH1 0x60 SHR PUSH2 0x120 MLOAD PUSH1 0x60 SHR PUSH2 0x58B2 PUSH3 0xF04 PUSH1 0x0 CODECOPY PUSH1 0x0 DUP2 DUP2 PUSH2 0x281A ADD MSTORE DUP2 DUP2 PUSH2 0x383B ADD MSTORE DUP2 DUP2 PUSH2 0x3C45 ADD MSTORE DUP2 DUP2 PUSH2 0x3D14 ADD MSTORE PUSH2 0x3EAA ADD MSTORE PUSH1 0x0 PUSH2 0x3ECB ADD MSTORE PUSH1 0x0 PUSH2 0x3EEF ADD MSTORE PUSH1 0x0 DUP2 DUP2 PUSH2 0x27B7 ADD MSTORE DUP2 DUP2 PUSH2 0x37D8 ADD MSTORE PUSH2 0x3D79 ADD MSTORE PUSH1 0x0 PUSH2 0x767 ADD MSTORE PUSH1 0x0 DUP2 DUP2 PUSH2 0x9AA ADD MSTORE DUP2 DUP2 PUSH2 0xF9D ADD MSTORE DUP2 DUP2 PUSH2 0xFDF ADD MSTORE PUSH2 0x2362 ADD MSTORE PUSH2 0x58B2 PUSH1 0x0 RETURN INVALID PUSH1 0x80 PUSH1 0x40 MSTORE CALLVALUE DUP1 ISZERO PUSH2 0x10 JUMPI PUSH1 0x0 DUP1 REVERT JUMPDEST POP PUSH1 0x4 CALLDATASIZE LT PUSH2 0x57 JUMPI PUSH1 0x0 CALLDATALOAD PUSH1 0xE0 SHR DUP1 PUSH4 0x1BE80D55 EQ PUSH2 0x5C JUMPI DUP1 PUSH4 0x3F312752 EQ PUSH2 0x90 JUMPI DUP1 PUSH4 0x4F033FA0 EQ PUSH2 0xAC JUMPI DUP1 PUSH4 0x4F4FDF80 EQ PUSH2 0xDC JUMPI DUP1 PUSH4 0xD9D881E3 EQ PUSH2 0x10C JUMPI JUMPDEST PUSH1 0x0 DUP1 REVERT JUMPDEST PUSH2 0x76 PUSH1 0x4 DUP1 CALLDATASIZE SUB DUP2 ADD SWAP1 PUSH2 0x71 SWAP2 SWAP1 PUSH2 0x4462 JUMP JUMPDEST PUSH2 0x12A JUMP JUMPDEST PUSH1 0x40 MLOAD PUSH2 0x87 SWAP6 SWAP5 SWAP4 SWAP3 SWAP2 SWAP1 PUSH2 0x4A96 JUMP JUMPDEST PUSH1 0x40 MLOAD DUP1 SWAP2 SUB SWAP1 RETURN JUMPDEST PUSH2 0xAA PUSH1 0x4 DUP1 CALLDATASIZE SUB DUP2 ADD SWAP1 PUSH2 0xA5 SWAP2 SWAP1 PUSH2 0x4361 JUMP JUMPDEST PUSH2 0x1D9 JUMP JUMPDEST STOP JUMPDEST PUSH2 0xC6 PUSH1 0x4 DUP1 CALLDATASIZE SUB DUP2 ADD SWAP1 PUSH2 0xC1 SWAP2 SWAP1 PUSH2 0x4334 JUMP JUMPDEST PUSH2 0x2BB JUMP JUMPDEST PUSH1 0x40 MLOAD PUSH2 0xD3 SWAP2 SWAP1 PUSH2 0x4E24 JUMP JUMPDEST PUSH1 0x40 MLOAD DUP1 SWAP2 SUB SWAP1 RETURN JUMPDEST PUSH2 0xF6 PUSH1 0x4 DUP1 CALLDATASIZE SUB DUP2 ADD SWAP1 PUSH2 0xF1 SWAP2 SWAP1 PUSH2 0x44CF JUMP JUMPDEST PUSH2 0x2D3 JUMP JUMPDEST PUSH1 0x40 MLOAD PUSH2 0x103 SWAP2 SWAP1 PUSH2 0x4E09 JUMP JUMPDEST PUSH1 0x40 MLOAD DUP1 SWAP2 SUB SWAP1 RETURN JUMPDEST PUSH2 0x114 PUSH2 0x3F6 JUMP JUMPDEST PUSH1 0x40 MLOAD PUSH2 0x121 SWAP2 SWAP1 PUSH2 0x4A74 JUMP JUMPDEST PUSH1 0x40 MLOAD DUP1 SWAP2 SUB SWAP1 RETURN JUMPDEST PUSH1 0xC DUP3 DUP2 SLOAD DUP2 LT PUSH2 0x13A JUMPI PUSH1 0x0 DUP1 REVERT JUMPDEST SWAP1 PUSH1 0x0 MSTORE PUSH1 0x20 PUSH1 0x0 KECCAK256 ADD DUP2 DUP2 SLOAD DUP2 LT PUSH2 0x152 JUMPI PUSH1 0x0 DUP1 REVERT JUMPDEST SWAP1 PUSH1 0x0 MSTORE PUSH1 0x20 PUSH1 0x0 KECCAK256 ADD PUSH1 0x0 SWAP2 POP SWAP2 POP POP DUP1 PUSH1 0x0 ADD PUSH1 0x0 SWAP1 SLOAD SWAP1 PUSH2 0x100 EXP SWAP1 DIV PUSH1 0xFF AND SWAP1 DUP1 PUSH1 0x0 ADD PUSH1 0x1 SWAP1 SLOAD SWAP1 PUSH2 0x100 EXP SWAP1 DIV PUSH1 0xFF AND SWAP1 DUP1 PUSH1 0x0 ADD PUSH1 0x2 SWAP1 SLOAD SWAP1 PUSH2 0x100 EXP SWAP1 DIV PUSH1 0xFF AND SWAP1 DUP1 PUSH1 0x0 ADD PUSH1 0x3 SWAP1 SLOAD SWAP1 PUSH2 0x100 EXP SWAP1 DIV PUSH1 0xFF AND SWAP1 DUP1 PUSH1 0x0 ADD PUSH1 0x4 SWAP1 SLOAD SWAP1 PUSH2 0x100 EXP SWAP1 DIV PUSH20 0xFFFFFFFFFFFFFFFFFFFFFFFFFFFFFFFFFFFFFFFF AND SWAP1 POP DUP6 JUMP JUMPDEST PUSH1 0x8 PUSH1 0x0 ADD PUSH1 0x2 SWAP1 SLOAD SWAP1 PUSH2 0x100 EXP SWAP1 DIV PUSH20 0xFFFFFFFFFFFFFFFFFFFFFFFFFFFFFFFFFFFFFFFF AND PUSH20 0xFFFFFFFFFFFFFFFFFFFFFFFFFFFFFFFFFFFFFFFF AND CALLER PUSH20 0xFFFFFFFFFFFFFFFFFFFFFFFFFFFFFFFFFFFFFFFF AND EQ PUSH2 0x26C JUMPI PUSH1 0x40 MLOAD PUSH32 0x8C379A000000000000000000000000000000000000000000000000000000000 DUP2 MSTORE PUSH1 0x4 ADD PUSH2 0x263 SWAP1 PUSH2 0x4B09 JUMP JUMPDEST PUSH1 0x40 MLOAD DUP1 SWAP2 SUB SWAP1 REVERT JUMPDEST PUSH1 0x0 JUMPDEST DUP3 DUP3 SWAP1 POP DUP2 LT ISZERO PUSH2 0x2AE JUMPI PUSH2 0x29B DUP4 DUP4 DUP4 DUP2 DUP2 LT PUSH2 0x290 JUMPI PUSH2 0x28F PUSH2 0x5372 JUMP JUMPDEST JUMPDEST SWAP1 POP PUSH1 0xC0 MUL ADD PUSH2 0x4DA JUMP JUMPDEST DUP1 DUP1 PUSH2 0x2A6 SWAP1 PUSH2 0x529C JUMP JUMPDEST SWAP2 POP POP PUSH2 0x26F JUMP JUMPDEST POP PUSH2 0x2B7 PUSH2 0x765 JUMP JUMPDEST POP POP JUMP JUMPDEST PUSH1 0xB PUSH1 0x20 MSTORE DUP1 PUSH1 0x0 MSTORE PUSH1 0x40 PUSH1 0x0 KECCAK256 PUSH1 0x0 SWAP2 POP SWAP1 POP SLOAD DUP2 JUMP JUMPDEST PUSH2 0x2DB PUSH2 0x4132 JUMP JUMPDEST PUSH1 0xC DUP4 PUSH1 0xFF AND DUP2 SLOAD DUP2 LT PUSH2 0x2F2 JUMPI PUSH2 0x2F1 PUSH2 0x5372 JUMP JUMPDEST JUMPDEST SWAP1 PUSH1 0x0 MSTORE PUSH1 0x20 PUSH1 0x0 KECCAK256 ADD DUP3 PUSH1 0xFF AND DUP2 SLOAD DUP2 LT PUSH2 0x311 JUMPI PUSH2 0x310 PUSH2 0x5372 JUMP JUMPDEST JUMPDEST SWAP1 PUSH1 0x0 MSTORE PUSH1 0x20 PUSH1 0x0 KECCAK256 ADD PUSH1 0x40 MLOAD DUP1 PUSH1 0xA0 ADD PUSH1 0x40 MSTORE SWAP1 DUP2 PUSH1 0x0 DUP3 ADD PUSH1 0x0 SWAP1 SLOAD SWAP1 PUSH2 0x100 EXP SWAP1 DIV PUSH1 0xFF AND ISZERO ISZERO ISZERO ISZERO DUP2 MSTORE PUSH1 0x20 ADD PUSH1 0x0 DUP3 ADD PUSH1 0x1 SWAP1 SLOAD SWAP1 PUSH2 0x100 EXP SWAP1 DIV PUSH1 0xFF AND PUSH1 0xFF AND PUSH1 0xFF AND DUP2 MSTORE PUSH1 0x20 ADD PUSH1 0x0 DUP3 ADD PUSH1 0x2 SWAP1 SLOAD SWAP1 PUSH2 0x100 EXP SWAP1 DIV PUSH1 0xFF AND PUSH1 0xFF AND PUSH1 0xFF AND DUP2 MSTORE PUSH1 0x20 ADD PUSH1 0x0 DUP3 ADD PUSH1 0x3 SWAP1 SLOAD SWAP1 PUSH2 0x100 EXP SWAP1 DIV PUSH1 0xFF AND PUSH1 0xFF AND PUSH1 0xFF AND DUP2 MSTORE PUSH1 0x20 ADD PUSH1 0x0 DUP3 ADD PUSH1 0x4 SWAP1 SLOAD SWAP1 PUSH2 0x100 EXP SWAP1 DIV PUSH20 0xFFFFFFFFFFFFFFFFFFFFFFFFFFFFFFFFFFFFFFFF AND PUSH20 0xFFFFFFFFFFFFFFFFFFFFFFFFFFFFFFFFFFFFFFFF AND PUSH20 0xFFFFFFFFFFFFFFFFFFFFFFFFFFFFFFFFFFFFFFFF AND DUP2 MSTORE POP POP SWAP1 POP SWAP3 SWAP2 POP POP JUMP JUMPDEST PUSH1 0x60 PUSH1 0x4 PUSH1 0x0 ADD PUSH1 0x2 SWAP1 SLOAD SWAP1 PUSH2 0x100 EXP SWAP1 DIV PUSH20 0xFFFFFFFFFFFFFFFFFFFFFFFFFFFFFFFFFFFFFFFF AND PUSH20 0xFFFFFFFFFFFFFFFFFFFFFFFFFFFFFFFFFFFFFFFF AND CALLER PUSH20 0xFFFFFFFFFFFFFFFFFFFFFFFFFFFFFFFFFFFFFFFF AND EQ PUSH2 0x45A JUMPI PUSH1 0x4 PUSH1 0x1 ADD PUSH2 0x460 JUMP JUMPDEST PUSH1 0x6 PUSH1 0x1 ADD JUMPDEST DUP1 SLOAD DUP1 PUSH1 0x20 MUL PUSH1 0x20 ADD PUSH1 0x40 MLOAD SWAP1 DUP2 ADD PUSH1 0x40 MSTORE DUP1 SWAP3 SWAP2 SWAP1 DUP2 DUP2 MSTORE PUSH1 0x20 ADD DUP3 DUP1 SLOAD DUP1 ISZERO PUSH2 0x4D0 JUMPI PUSH1 0x20 MUL DUP3 ADD SWAP2 SWAP1 PUSH1 0x0 MSTORE PUSH1 0x20 PUSH1 0x0 KECCAK256 SWAP1 PUSH1 0x0 SWAP1 JUMPDEST DUP3 DUP3 SWAP1 SLOAD SWAP1 PUSH2 0x100 EXP SWAP1 DIV PUSH1 0xFF AND PUSH1 0xFF AND DUP2 MSTORE PUSH1 0x20 ADD SWAP1 PUSH1 0x1 ADD SWAP1 PUSH1 0x20 DUP3 PUSH1 0x0 ADD DIV SWAP3 DUP4 ADD SWAP3 PUSH1 0x1 SUB DUP3 MUL SWAP2 POP DUP1 DUP5 GT PUSH2 0x499 JUMPI SWAP1 POP JUMPDEST POP POP POP POP POP SWAP1 POP SWAP1 JUMP JUMPDEST PUSH1 0x0 PUSH1 0x6 DUP2 GT ISZERO PUSH2 0x4EE JUMPI PUSH2 0x4ED PUSH2 0x5343 JUMP JUMPDEST JUMPDEST DUP2 PUSH1 0x0 ADD PUSH1 0x20 DUP2 ADD SWAP1 PUSH2 0x501 SWAP2 SWAP1 PUSH2 0x43DB JUMP JUMPDEST PUSH1 0x6 DUP2 GT ISZERO PUSH2 0x513 JUMPI PUSH2 0x512 PUSH2 0x5343 JUMP JUMPDEST JUMPDEST EQ ISZERO PUSH2 0x54F JUMPI PUSH2 0x54A DUP2 PUSH1 0x20 ADD PUSH1 0x20 DUP2 ADD SWAP1 PUSH2 0x52F SWAP2 SWAP1 PUSH2 0x44A2 JUMP JUMPDEST DUP3 PUSH1 0x40 ADD PUSH1 0x20 ADD PUSH1 0x20 DUP2 ADD SWAP1 PUSH2 0x545 SWAP2 SWAP1 PUSH2 0x44A2 JUMP JUMPDEST PUSH2 0x8BC JUMP JUMPDEST PUSH2 0x762 JUMP JUMPDEST PUSH1 0x1 PUSH1 0x6 DUP2 GT ISZERO PUSH2 0x563 JUMPI PUSH2 0x562 PUSH2 0x5343 JUMP JUMPDEST JUMPDEST DUP2 PUSH1 0x0 ADD PUSH1 0x20 DUP2 ADD SWAP1 PUSH2 0x576 SWAP2 SWAP1 PUSH2 0x43DB JUMP JUMPDEST PUSH1 0x6 DUP2 GT ISZERO PUSH2 0x588 JUMPI PUSH2 0x587 PUSH2 0x5343 JUMP JUMPDEST JUMPDEST EQ ISZERO PUSH2 0x5A3 JUMPI PUSH2 0x59E DUP2 PUSH1 0x40 ADD DUP3 PUSH1 0x80 ADD PUSH2 0xDE3 JUMP JUMPDEST PUSH2 0x761 JUMP JUMPDEST PUSH1 0x2 PUSH1 0x6 DUP2 GT ISZERO PUSH2 0x5B7 JUMPI PUSH2 0x5B6 PUSH2 0x5343 JUMP JUMPDEST JUMPDEST DUP2 PUSH1 0x0 ADD PUSH1 0x20 DUP2 ADD SWAP1 PUSH2 0x5CA SWAP2 SWAP1 PUSH2 0x43DB JUMP JUMPDEST PUSH1 0x6 DUP2 GT ISZERO PUSH2 0x5DC JUMPI PUSH2 0x5DB PUSH2 0x5343 JUMP JUMPDEST JUMPDEST EQ ISZERO PUSH2 0x5F7 JUMPI PUSH2 0x5F2 DUP2 PUSH1 0x40 ADD DUP3 PUSH1 0x80 ADD PUSH2 0x155B JUMP JUMPDEST PUSH2 0x760 JUMP JUMPDEST PUSH1 0x3 PUSH1 0x6 DUP2 GT ISZERO PUSH2 0x60B JUMPI PUSH2 0x60A PUSH2 0x5343 JUMP JUMPDEST JUMPDEST DUP2 PUSH1 0x0 ADD PUSH1 0x20 DUP2 ADD SWAP1 PUSH2 0x61E SWAP2 SWAP1 PUSH2 0x43DB JUMP JUMPDEST PUSH1 0x6 DUP2 GT ISZERO PUSH2 0x630 JUMPI PUSH2 0x62F PUSH2 0x5343 JUMP JUMPDEST JUMPDEST EQ ISZERO PUSH2 0x647 JUMPI PUSH2 0x642 DUP2 PUSH1 0x40 ADD PUSH2 0x1F4E JUMP JUMPDEST PUSH2 0x75F JUMP JUMPDEST PUSH1 0x4 PUSH1 0x6 DUP2 GT ISZERO PUSH2 0x65B JUMPI PUSH2 0x65A PUSH2 0x5343 JUMP JUMPDEST JUMPDEST DUP2 PUSH1 0x0 ADD PUSH1 0x20 DUP2 ADD SWAP1 PUSH2 0x66E SWAP2 SWAP1 PUSH2 0x43DB JUMP JUMPDEST PUSH1 0x6 DUP2 GT ISZERO PUSH2 0x680 JUMPI PUSH2 0x67F PUSH2 0x5343 JUMP JUMPDEST JUMPDEST EQ ISZERO PUSH2 0x6AA JUMPI PUSH2 0x6A5 DUP2 PUSH1 0x20 ADD PUSH1 0x20 DUP2 ADD SWAP1 PUSH2 0x69C SWAP2 SWAP1 PUSH2 0x44A2 JUMP JUMPDEST DUP3 PUSH1 0x80 ADD PUSH2 0x2547 JUMP JUMPDEST PUSH2 0x75E JUMP JUMPDEST PUSH1 0x5 PUSH1 0x6 DUP2 GT ISZERO PUSH2 0x6BE JUMPI PUSH2 0x6BD PUSH2 0x5343 JUMP JUMPDEST JUMPDEST DUP2 PUSH1 0x0 ADD PUSH1 0x20 DUP2 ADD SWAP1 PUSH2 0x6D1 SWAP2 SWAP1 PUSH2 0x43DB JUMP JUMPDEST PUSH1 0x6 DUP2 GT ISZERO PUSH2 0x6E3 JUMPI PUSH2 0x6E2 PUSH2 0x5343 JUMP JUMPDEST JUMPDEST EQ ISZERO PUSH2 0x6FE JUMPI PUSH2 0x6F9 DUP2 PUSH1 0x40 ADD DUP3 PUSH1 0x80 ADD PUSH2 0x2D3F JUMP JUMPDEST PUSH2 0x75D JUMP JUMPDEST PUSH1 0x6 DUP1 DUP2 GT ISZERO PUSH2 0x711 JUMPI PUSH2 0x710 PUSH2 0x5343 JUMP JUMPDEST JUMPDEST DUP2 PUSH1 0x0 ADD PUSH1 0x20 DUP2 ADD SWAP1 PUSH2 0x724 SWAP2 SWAP1 PUSH2 0x43DB JUMP JUMPDEST PUSH1 0x6 DUP2 GT ISZERO PUSH2 0x736 JUMPI PUSH2 0x735 PUSH2 0x5343 JUMP JUMPDEST JUMPDEST EQ ISZERO PUSH2 0x75C JUMPI PUSH2 0x75B DUP2 PUSH1 0x20 ADD PUSH1 0x20 DUP2 ADD SWAP1 PUSH2 0x752 SWAP2 SWAP1 PUSH2 0x44A2 JUMP JUMPDEST DUP3 PUSH1 0x80 ADD PUSH2 0x35AE JUMP JUMPDEST JUMPDEST JUMPDEST JUMPDEST JUMPDEST JUMPDEST JUMPDEST JUMPDEST POP JUMP JUMPDEST PUSH32 0x0 PUSH1 0x8 PUSH1 0x0 ADD PUSH1 0x1 DUP3 DUP3 DUP3 SWAP1 SLOAD SWAP1 PUSH2 0x100 EXP SWAP1 DIV PUSH1 0xFF AND PUSH2 0x7A6 SWAP2 SWAP1 PUSH2 0x5032 JUMP JUMPDEST SWAP3 POP PUSH2 0x100 EXP DUP2 SLOAD DUP2 PUSH1 0xFF MUL NOT AND SWAP1 DUP4 PUSH1 0xFF AND MUL OR SWAP1 SSTORE POP PUSH1 0x0 PUSH1 0x1 DUP2 GT ISZERO PUSH2 0x7D2 JUMPI PUSH2 0x7D1 PUSH2 0x5343 JUMP JUMPDEST JUMPDEST PUSH1 0x0 DUP1 SLOAD SWAP1 PUSH2 0x100 EXP SWAP1 DIV PUSH1 0xFF AND PUSH1 0x1 DUP2 GT ISZERO PUSH2 0x7F2 JUMPI PUSH2 0x7F1 PUSH2 0x5343 JUMP JUMPDEST JUMPDEST EQ PUSH2 0x7FE JUMPI PUSH1 0x0 PUSH2 0x801 JUMP JUMPDEST PUSH1 0x1 JUMPDEST PUSH1 0x0 DUP1 PUSH2 0x100 EXP DUP2 SLOAD DUP2 PUSH1 0xFF MUL NOT AND SWAP1 DUP4 PUSH1 0x1 DUP2 GT ISZERO PUSH2 0x824 JUMPI PUSH2 0x823 PUSH2 0x5343 JUMP JUMPDEST JUMPDEST MUL OR SWAP1 SSTORE POP PUSH1 0x0 PUSH1 0x1 DUP2 DUP2 SWAP1 SLOAD SWAP1 PUSH2 0x100 EXP SWAP1 DIV PUSH2 0xFFFF AND DUP1 SWAP3 SWAP2 SWAP1 PUSH2 0x849 SWAP1 PUSH2 0x5271 JUMP JUMPDEST SWAP2 SWAP1 PUSH2 0x100 EXP DUP2 SLOAD DUP2 PUSH2 0xFFFF MUL NOT AND SWAP1 DUP4 PUSH2 0xFFFF AND MUL OR SWAP1 SSTORE POP POP PUSH32 0xB2A5F112F4EF2B6D1AB7A886557835D90F7826318E7A0A40A34673A7248BA8DE PUSH1 0x0 DUP1 SLOAD SWAP1 PUSH2 0x100 EXP SWAP1 DIV PUSH1 0xFF AND PUSH1 0x1 DUP2 GT ISZERO PUSH2 0x8A5 JUMPI PUSH2 0x8A4 PUSH2 0x5343 JUMP JUMPDEST JUMPDEST PUSH1 0x40 MLOAD PUSH2 0x8B2 SWAP2 SWAP1 PUSH2 0x4E5A JUMP JUMPDEST PUSH1 0x40 MLOAD DUP1 SWAP2 SUB SWAP1 LOG1 JUMP JUMPDEST PUSH1 0x2 PUSH1 0xA PUSH1 0x0 PUSH1 0x8 PUSH1 0x0 ADD PUSH1 0x2 SWAP1 SLOAD SWAP1 PUSH2 0x100 EXP SWAP1 DIV PUSH20 0xFFFFFFFFFFFFFFFFFFFFFFFFFFFFFFFFFFFFFFFF AND PUSH20 0xFFFFFFFFFFFFFFFFFFFFFFFFFFFFFFFFFFFFFFFF AND PUSH20 0xFFFFFFFFFFFFFFFFFFFFFFFFFFFFFFFFFFFFFFFF AND DUP2 MSTORE PUSH1 0x20 ADD SWAP1 DUP2 MSTORE PUSH1 0x20 ADD PUSH1 0x0 KECCAK256 PUSH1 0x0 DUP5 PUSH1 0xFF AND PUSH1 0xFF AND DUP2 MSTORE PUSH1 0x20 ADD SWAP1 DUP2 MSTORE PUSH1 0x20 ADD PUSH1 0x0 KECCAK256 PUSH1 0x0 SWAP1 SLOAD SWAP1 PUSH2 0x100 EXP SWAP1 DIV PUSH2 0xFFFF AND PUSH1 0x0 PUSH1 0x1 SWAP1 SLOAD SWAP1 PUSH2 0x100 EXP SWAP1 DIV PUSH2 0xFFFF AND PUSH2 0x963 SWAP2 SWAP1 PUSH2 0x512F JUMP JUMPDEST PUSH2 0xFFFF AND LT ISZERO PUSH2 0x9A8 JUMPI PUSH1 0x40 MLOAD PUSH32 0x8C379A000000000000000000000000000000000000000000000000000000000 DUP2 MSTORE PUSH1 0x4 ADD PUSH2 0x99F SWAP1 PUSH2 0x4B49 JUMP JUMPDEST PUSH1 0x40 MLOAD DUP1 SWAP2 SUB SWAP1 REVERT JUMPDEST PUSH32 0x0 PUSH1 0xFF AND DUP2 PUSH1 0xFF AND LT PUSH2 0xA10 JUMPI PUSH1 0x40 MLOAD PUSH32 0x8C379A000000000000000000000000000000000000000000000000000000000 DUP2 MSTORE PUSH1 0x4 ADD PUSH2 0xA07 SWAP1 PUSH2 0x4B69 JUMP JUMPDEST PUSH1 0x40 MLOAD DUP1 SWAP2 SUB SWAP1 REVERT JUMPDEST PUSH1 0xC PUSH1 0x0 DUP2 SLOAD DUP2 LT PUSH2 0xA25 JUMPI PUSH2 0xA24 PUSH2 0x5372 JUMP JUMPDEST JUMPDEST SWAP1 PUSH1 0x0 MSTORE PUSH1 0x20 PUSH1 0x0 KECCAK256 ADD DUP2 PUSH1 0xFF AND DUP2 SLOAD DUP2 LT PUSH2 0xA44 JUMPI PUSH2 0xA43 PUSH2 0x5372 JUMP JUMPDEST JUMPDEST SWAP1 PUSH1 0x0 MSTORE PUSH1 0x20 PUSH1 0x0 KECCAK256 ADD PUSH1 0x0 ADD PUSH1 0x0 SWAP1 SLOAD SWAP1 PUSH2 0x100 EXP SWAP1 DIV PUSH1 0xFF AND ISZERO PUSH2 0xA9F JUMPI PUSH1 0x40 MLOAD PUSH32 0x8C379A000000000000000000000000000000000000000000000000000000000 DUP2 MSTORE PUSH1 0x4 ADD PUSH2 0xA96 SWAP1 PUSH2 0x4CA9 JUMP JUMPDEST PUSH1 0x40 MLOAD DUP1 SWAP2 SUB SWAP1 REVERT JUMPDEST PUSH1 0x0 PUSH1 0x8 PUSH1 0x1 ADD DUP4 PUSH1 0xFF AND DUP2 SLOAD DUP2 LT PUSH2 0xABB JUMPI PUSH2 0xABA PUSH2 0x5372 JUMP JUMPDEST JUMPDEST SWAP1 PUSH1 0x0 MSTORE PUSH1 0x20 PUSH1 0x0 KECCAK256 SWAP1 PUSH1 0x20 SWAP2 DUP3 DUP3 DIV ADD SWAP2 SWAP1 MOD SWAP1 SLOAD SWAP1 PUSH2 0x100 EXP SWAP1 DIV PUSH1 0xFF AND SWAP1 POP PUSH1 0x0 PUSH1 0x3 PUSH1 0x0 SWAP1 SLOAD SWAP1 PUSH2 0x100 EXP SWAP1 DIV PUSH20 0xFFFFFFFFFFFFFFFFFFFFFFFFFFFFFFFFFFFFFFFF AND PUSH20 0xFFFFFFFFFFFFFFFFFFFFFFFFFFFFFFFFFFFFFFFF AND PUSH4 0x9188D312 DUP4 PUSH1 0x40 MLOAD DUP3 PUSH4 0xFFFFFFFF AND PUSH1 0xE0 SHL DUP2 MSTORE PUSH1 0x4 ADD PUSH2 0xB3A SWAP2 SWAP1 PUSH2 0x4E3F JUMP JUMPDEST PUSH1 0xE0 PUSH1 0x40 MLOAD DUP1 DUP4 SUB DUP2 DUP7 DUP1 EXTCODESIZE ISZERO DUP1 ISZERO PUSH2 0xB52 JUMPI PUSH1 0x0 DUP1 REVERT JUMPDEST POP GAS STATICCALL ISZERO DUP1 ISZERO PUSH2 0xB66 JUMPI RETURNDATASIZE PUSH1 0x0 DUP1 RETURNDATACOPY RETURNDATASIZE PUSH1 0x0 REVERT JUMPDEST POP POP POP POP PUSH1 0x40 MLOAD RETURNDATASIZE PUSH1 0x1F NOT PUSH1 0x1F DUP3 ADD AND DUP3 ADD DUP1 PUSH1 0x40 MSTORE POP DUP2 ADD SWAP1 PUSH2 0xB8A SWAP2 SWAP1 PUSH2 0x4408 JUMP JUMPDEST SWAP1 POP DUP1 PUSH1 0x80 ADD MLOAD PUSH1 0xFF AND PUSH1 0x8 PUSH1 0x0 ADD PUSH1 0x1 SWAP1 SLOAD SWAP1 PUSH2 0x100 EXP SWAP1 DIV PUSH1 0xFF AND PUSH1 0xFF AND GT PUSH2 0xBEA JUMPI PUSH1 0x40 MLOAD PUSH32 0x8C379A000000000000000000000000000000000000000000000000000000000 DUP2 MSTORE PUSH1 0x4 ADD PUSH2 0xBE1 SWAP1 PUSH2 0x4CC9 JUMP JUMPDEST PUSH1 0x40 MLOAD DUP1 SWAP2 SUB SWAP1 REVERT JUMPDEST DUP1 PUSH1 0x80 ADD MLOAD PUSH1 0x8 PUSH1 0x0 ADD PUSH1 0x1 DUP3 DUP3 DUP3 SWAP1 SLOAD SWAP1 PUSH2 0x100 EXP SWAP1 DIV PUSH1 0xFF AND PUSH2 0xC0F SWAP2 SWAP1 PUSH2 0x5197 JUMP JUMPDEST SWAP3 POP PUSH2 0x100 EXP DUP2 SLOAD DUP2 PUSH1 0xFF MUL NOT AND SWAP1 DUP4 PUSH1 0xFF AND MUL OR SWAP1 SSTORE POP PUSH1 0x40 MLOAD DUP1 PUSH1 0xA0 ADD PUSH1 0x40 MSTORE DUP1 PUSH1 0x1 ISZERO ISZERO DUP2 MSTORE PUSH1 0x20 ADD DUP6 PUSH1 0xFF AND DUP2 MSTORE PUSH1 0x20 ADD DUP3 PUSH1 0xA0 ADD MLOAD PUSH1 0xFF AND DUP2 MSTORE PUSH1 0x20 ADD DUP4 PUSH1 0xFF AND DUP2 MSTORE PUSH1 0x20 ADD PUSH1 0x8 PUSH1 0x0 ADD PUSH1 0x2 SWAP1 SLOAD SWAP1 PUSH2 0x100 EXP SWAP1 DIV PUSH20 0xFFFFFFFFFFFFFFFFFFFFFFFFFFFFFFFFFFFFFFFF AND PUSH20 0xFFFFFFFFFFFFFFFFFFFFFFFFFFFFFFFFFFFFFFFF AND DUP2 MSTORE POP PUSH1 0xC PUSH1 0x0 DUP2 SLOAD DUP2 LT PUSH2 0xCAE JUMPI PUSH2 0xCAD PUSH2 0x5372 JUMP JUMPDEST JUMPDEST SWAP1 PUSH1 0x0 MSTORE PUSH1 0x20 PUSH1 0x0 KECCAK256 ADD DUP5 PUSH1 0xFF AND DUP2 SLOAD DUP2 LT PUSH2 0xCCD JUMPI PUSH2 0xCCC PUSH2 0x5372 JUMP JUMPDEST JUMPDEST SWAP1 PUSH1 0x0 MSTORE PUSH1 0x20 PUSH1 0x0 KECCAK256 ADD PUSH1 0x0 DUP3 ADD MLOAD DUP2 PUSH1 0x0 ADD PUSH1 0x0 PUSH2 0x100 EXP DUP2 SLOAD DUP2 PUSH1 0xFF MUL NOT AND SWAP1 DUP4 ISZERO ISZERO MUL OR SWAP1 SSTORE POP PUSH1 0x20 DUP3 ADD MLOAD DUP2 PUSH1 0x0 ADD PUSH1 0x1 PUSH2 0x100 EXP DUP2 SLOAD DUP2 PUSH1 0xFF MUL NOT AND SWAP1 DUP4 PUSH1 0xFF AND MUL OR SWAP1 SSTORE POP PUSH1 0x40 DUP3 ADD MLOAD DUP2 PUSH1 0x0 ADD PUSH1 0x2 PUSH2 0x100 EXP DUP2 SLOAD DUP2 PUSH1 0xFF MUL NOT AND SWAP1 DUP4 PUSH1 0xFF AND MUL OR SWAP1 SSTORE POP PUSH1 0x60 DUP3 ADD MLOAD DUP2 PUSH1 0x0 ADD PUSH1 0x3 PUSH2 0x100 EXP DUP2 SLOAD DUP2 PUSH1 0xFF MUL NOT AND SWAP1 DUP4 PUSH1 0xFF AND MUL OR SWAP1 SSTORE POP PUSH1 0x80 DUP3 ADD MLOAD DUP2 PUSH1 0x0 ADD PUSH1 0x4 PUSH2 0x100 EXP DUP2 SLOAD DUP2 PUSH20 0xFFFFFFFFFFFFFFFFFFFFFFFFFFFFFFFFFFFFFFFF MUL NOT AND SWAP1 DUP4 PUSH20 0xFFFFFFFFFFFFFFFFFFFFFFFFFFFFFFFFFFFFFFFF AND MUL OR SWAP1 SSTORE POP SWAP1 POP POP PUSH32 0x2A102DE3851F9D59B8D145C1CE90B60CB023D819273A14FD3B25E7F0CEC7ED4E DUP4 DUP4 PUSH1 0x40 MLOAD PUSH2 0xDD5 SWAP3 SWAP2 SWAP1 PUSH2 0x4E75 JUMP JUMPDEST PUSH1 0x40 MLOAD DUP1 SWAP2 SUB SWAP1 LOG1 POP POP POP POP JUMP JUMPDEST PUSH1 0x0 PUSH1 0xC DUP4 PUSH1 0x0 ADD PUSH1 0x20 DUP2 ADD SWAP1 PUSH2 0xDFA SWAP2 SWAP1 PUSH2 0x44A2 JUMP JUMPDEST PUSH1 0xFF AND DUP2 SLOAD DUP2 LT PUSH2 0xE0E JUMPI PUSH2 0xE0D PUSH2 0x5372 JUMP JUMPDEST JUMPDEST SWAP1 PUSH1 0x0 MSTORE PUSH1 0x20 PUSH1 0x0 KECCAK256 ADD DUP4 PUSH1 0x20 ADD PUSH1 0x20 DUP2 ADD SWAP1 PUSH2 0xE2B SWAP2 SWAP1 PUSH2 0x44A2 JUMP JUMPDEST PUSH1 0xFF AND DUP2 SLOAD DUP2 LT PUSH2 0xE3F JUMPI PUSH2 0xE3E PUSH2 0x5372 JUMP JUMPDEST JUMPDEST SWAP1 PUSH1 0x0 MSTORE PUSH1 0x20 PUSH1 0x0 KECCAK256 ADD PUSH1 0x40 MLOAD DUP1 PUSH1 0xA0 ADD PUSH1 0x40 MSTORE SWAP1 DUP2 PUSH1 0x0 DUP3 ADD PUSH1 0x0 SWAP1 SLOAD SWAP1 PUSH2 0x100 EXP SWAP1 DIV PUSH1 0xFF AND ISZERO ISZERO ISZERO ISZERO DUP2 MSTORE PUSH1 0x20 ADD PUSH1 0x0 DUP3 ADD PUSH1 0x1 SWAP1 SLOAD SWAP1 PUSH2 0x100 EXP SWAP1 DIV PUSH1 0xFF AND PUSH1 0xFF AND PUSH1 0xFF AND DUP2 MSTORE PUSH1 0x20 ADD PUSH1 0x0 DUP3 ADD PUSH1 0x2 SWAP1 SLOAD SWAP1 PUSH2 0x100 EXP SWAP1 DIV PUSH1 0xFF AND PUSH1 0xFF AND PUSH1 0xFF AND DUP2 MSTORE PUSH1 0x20 ADD PUSH1 0x0 DUP3 ADD PUSH1 0x3 SWAP1 SLOAD SWAP1 PUSH2 0x100 EXP SWAP1 DIV PUSH1 0xFF AND PUSH1 0xFF AND PUSH1 0xFF AND DUP2 MSTORE PUSH1 0x20 ADD PUSH1 0x0 DUP3 ADD PUSH1 0x4 SWAP1 SLOAD SWAP1 PUSH2 0x100 EXP SWAP1 DIV PUSH20 0xFFFFFFFFFFFFFFFFFFFFFFFFFFFFFFFFFFFFFFFF AND PUSH20 0xFFFFFFFFFFFFFFFFFFFFFFFFFFFFFFFFFFFFFFFF AND PUSH20 0xFFFFFFFFFFFFFFFFFFFFFFFFFFFFFFFFFFFFFFFF AND DUP2 MSTORE POP POP SWAP1 POP PUSH1 0x0 PUSH1 0x4 PUSH1 0x0 ADD PUSH1 0x2 SWAP1 SLOAD SWAP1 PUSH2 0x100 EXP SWAP1 DIV PUSH20 0xFFFFFFFFFFFFFFFFFFFFFFFFFFFFFFFFFFFFFFFF AND PUSH20 0xFFFFFFFFFFFFFFFFFFFFFFFFFFFFFFFFFFFFFFFF AND PUSH1 0x8 PUSH1 0x0 ADD PUSH1 0x2 SWAP1 SLOAD SWAP1 PUSH2 0x100 EXP SWAP1 DIV PUSH20 0xFFFFFFFFFFFFFFFFFFFFFFFFFFFFFFFFFFFFFFFF AND PUSH20 0xFFFFFFFFFFFFFFFFFFFFFFFFFFFFFFFFFFFFFFFF AND EQ SWAP1 POP PUSH32 0x0 PUSH1 0xFF AND DUP4 PUSH1 0x0 ADD PUSH1 0x20 DUP2 ADD SWAP1 PUSH2 0xFD2 SWAP2 SWAP1 PUSH2 0x44A2 JUMP JUMPDEST PUSH1 0xFF AND LT DUP1 ISZERO PUSH2 0x1019 JUMPI POP PUSH32 0x0 PUSH1 0xFF AND DUP4 PUSH1 0x20 ADD PUSH1 0x20 DUP2 ADD SWAP1 PUSH2 0x1014 SWAP2 SWAP1 PUSH2 0x44A2 JUMP JUMPDEST PUSH1 0xFF AND LT JUMPDEST PUSH2 0x1058 JUMPI PUSH1 0x40 MLOAD PUSH32 0x8C379A000000000000000000000000000000000000000000000000000000000 DUP2 MSTORE PUSH1 0x4 ADD PUSH2 0x104F SWAP1 PUSH2 0x4AE9 JUMP JUMPDEST PUSH1 0x40 MLOAD DUP1 SWAP2 SUB SWAP1 REVERT JUMPDEST CALLER PUSH20 0xFFFFFFFFFFFFFFFFFFFFFFFFFFFFFFFFFFFFFFFF AND DUP3 PUSH1 0x80 ADD MLOAD PUSH20 0xFFFFFFFFFFFFFFFFFFFFFFFFFFFFFFFFFFFFFFFF AND EQ PUSH2 0x10CA JUMPI PUSH1 0x40 MLOAD PUSH32 0x8C379A000000000000000000000000000000000000000000000000000000000 DUP2 MSTORE PUSH1 0x4 ADD PUSH2 0x10C1 SWAP1 PUSH2 0x4DE9 JUMP JUMPDEST PUSH1 0x40 MLOAD DUP1 SWAP2 SUB SWAP1 REVERT JUMPDEST PUSH1 0x1 PUSH1 0xFF AND PUSH1 0x8 PUSH1 0x0 ADD PUSH1 0x1 SWAP1 SLOAD SWAP1 PUSH2 0x100 EXP SWAP1 DIV PUSH1 0xFF AND PUSH1 0xFF AND GT PUSH2 0x1125 JUMPI PUSH1 0x40 MLOAD PUSH32 0x8C379A000000000000000000000000000000000000000000000000000000000 DUP2 MSTORE PUSH1 0x4 ADD PUSH2 0x111C SWAP1 PUSH2 0x4BA9 JUMP JUMPDEST PUSH1 0x40 MLOAD DUP1 SWAP2 SUB SWAP1 REVERT JUMPDEST PUSH1 0x0 DUP2 PUSH2 0x1161 JUMPI DUP4 PUSH1 0x0 ADD PUSH1 0x20 DUP2 ADD SWAP1 PUSH2 0x113F SWAP2 SWAP1 PUSH2 0x44A2 JUMP JUMPDEST DUP6 PUSH1 0x0 ADD PUSH1 0x20 DUP2 ADD SWAP1 PUSH2 0x1152 SWAP2 SWAP1 PUSH2 0x44A2 JUMP JUMPDEST PUSH2 0x115C SWAP2 SWAP1 PUSH2 0x5197 JUMP JUMPDEST PUSH2 0x1192 JUMP JUMPDEST DUP5 PUSH1 0x0 ADD PUSH1 0x20 DUP2 ADD SWAP1 PUSH2 0x1174 SWAP2 SWAP1 PUSH2 0x44A2 JUMP JUMPDEST DUP5 PUSH1 0x0 ADD PUSH1 0x20 DUP2 ADD SWAP1 PUSH2 0x1187 SWAP2 SWAP1 PUSH2 0x44A2 JUMP JUMPDEST PUSH2 0x1191 SWAP2 SWAP1 PUSH2 0x5197 JUMP JUMPDEST JUMPDEST SWAP1 POP PUSH1 0x0 DUP6 PUSH1 0x20 ADD PUSH1 0x20 DUP2 ADD SWAP1 PUSH2 0x11A9 SWAP2 SWAP1 PUSH2 0x44A2 JUMP JUMPDEST PUSH1 0xFF AND DUP6 PUSH1 0x20 ADD PUSH1 0x20 DUP2 ADD SWAP1 PUSH2 0x11BF SWAP2 SWAP1 PUSH2 0x44A2 JUMP JUMPDEST PUSH1 0xFF AND LT ISZERO PUSH2 0x11FD JUMPI DUP5 PUSH1 0x20 ADD PUSH1 0x20 DUP2 ADD SWAP1 PUSH2 0x11DB SWAP2 SWAP1 PUSH2 0x44A2 JUMP JUMPDEST DUP7 PUSH1 0x20 ADD PUSH1 0x20 DUP2 ADD SWAP1 PUSH2 0x11EE SWAP2 SWAP1 PUSH2 0x44A2 JUMP JUMPDEST PUSH2 0x11F8 SWAP2 SWAP1 PUSH2 0x5197 JUMP JUMPDEST PUSH2 0x122E JUMP JUMPDEST DUP6 PUSH1 0x20 ADD PUSH1 0x20 DUP2 ADD SWAP1 PUSH2 0x1210 SWAP2 SWAP1 PUSH2 0x44A2 JUMP JUMPDEST DUP6 PUSH1 0x20 ADD PUSH1 0x20 DUP2 ADD SWAP1 PUSH2 0x1223 SWAP2 SWAP1 PUSH2 0x44A2 JUMP JUMPDEST PUSH2 0x122D SWAP2 SWAP1 PUSH2 0x5197 JUMP JUMPDEST JUMPDEST SWAP1 POP PUSH1 0x1 DUP3 PUSH1 0xFF AND EQ DUP1 PUSH2 0x1245 JUMPI POP PUSH1 0x1 DUP2 PUSH1 0xFF AND EQ JUMPDEST PUSH2 0x1284 JUMPI PUSH1 0x40 MLOAD PUSH32 0x8C379A000000000000000000000000000000000000000000000000000000000 DUP2 MSTORE PUSH1 0x4 ADD PUSH2 0x127B SWAP1 PUSH2 0x4D89 JUMP JUMPDEST PUSH1 0x40 MLOAD DUP1 SWAP2 SUB SWAP1 REVERT JUMPDEST PUSH1 0x1 PUSH1 0x8 PUSH1 0x0 ADD PUSH1 0x1 DUP3 DUP3 DUP3 SWAP1 SLOAD SWAP1 PUSH2 0x100 EXP SWAP1 DIV PUSH1 0xFF AND PUSH2 0x12A6 SWAP2 SWAP1 PUSH2 0x5197 JUMP JUMPDEST SWAP3 POP PUSH2 0x100 EXP DUP2 SLOAD DUP2 PUSH1 0xFF MUL NOT AND SWAP1 DUP4 PUSH1 0xFF AND MUL OR SWAP1 SSTORE POP DUP4 PUSH1 0xC DUP7 PUSH1 0x0 ADD PUSH1 0x20 DUP2 ADD SWAP1 PUSH2 0x12D4 SWAP2 SWAP1 PUSH2 0x44A2 JUMP JUMPDEST PUSH1 0xFF AND DUP2 SLOAD DUP2 LT PUSH2 0x12E8 JUMPI PUSH2 0x12E7 PUSH2 0x5372 JUMP JUMPDEST JUMPDEST SWAP1 PUSH1 0x0 MSTORE PUSH1 0x20 PUSH1 0x0 KECCAK256 ADD DUP7 PUSH1 0x20 ADD PUSH1 0x20 DUP2 ADD SWAP1 PUSH2 0x1305 SWAP2 SWAP1 PUSH2 0x44A2 JUMP JUMPDEST PUSH1 0xFF AND DUP2 SLOAD DUP2 LT PUSH2 0x1319 JUMPI PUSH2 0x1318 PUSH2 0x5372 JUMP JUMPDEST JUMPDEST SWAP1 PUSH1 0x0 MSTORE PUSH1 0x20 PUSH1 0x0 KECCAK256 ADD PUSH1 0x0 DUP3 ADD MLOAD DUP2 PUSH1 0x0 ADD PUSH1 0x0 PUSH2 0x100 EXP DUP2 SLOAD DUP2 PUSH1 0xFF MUL NOT AND SWAP1 DUP4 ISZERO ISZERO MUL OR SWAP1 SSTORE POP PUSH1 0x20 DUP3 ADD MLOAD DUP2 PUSH1 0x0 ADD PUSH1 0x1 PUSH2 0x100 EXP DUP2 SLOAD DUP2 PUSH1 0xFF MUL NOT AND SWAP1 DUP4 PUSH1 0xFF AND MUL OR SWAP1 SSTORE POP PUSH1 0x40 DUP3 ADD MLOAD DUP2 PUSH1 0x0 ADD PUSH1 0x2 PUSH2 0x100 EXP DUP2 SLOAD DUP2 PUSH1 0xFF MUL NOT AND SWAP1 DUP4 PUSH1 0xFF AND MUL OR SWAP1 SSTORE POP PUSH1 0x60 DUP3 ADD MLOAD DUP2 PUSH1 0x0 ADD PUSH1 0x3 PUSH2 0x100 EXP DUP2 SLOAD DUP2 PUSH1 0xFF MUL NOT AND SWAP1 DUP4 PUSH1 0xFF AND MUL OR SWAP1 SSTORE POP PUSH1 0x80 DUP3 ADD MLOAD DUP2 PUSH1 0x0 ADD PUSH1 0x4 PUSH2 0x100 EXP DUP2 SLOAD DUP2 PUSH20 0xFFFFFFFFFFFFFFFFFFFFFFFFFFFFFFFFFFFFFFFF MUL NOT AND SWAP1 DUP4 PUSH20 0xFFFFFFFFFFFFFFFFFFFFFFFFFFFFFFFFFFFFFFFF AND MUL OR SWAP1 SSTORE POP SWAP1 POP POP PUSH1 0xC DUP7 PUSH1 0x0 ADD PUSH1 0x20 DUP2 ADD SWAP1 PUSH2 0x1405 SWAP2 SWAP1 PUSH2 0x44A2 JUMP JUMPDEST PUSH1 0xFF AND DUP2 SLOAD DUP2 LT PUSH2 0x1419 JUMPI PUSH2 0x1418 PUSH2 0x5372 JUMP JUMPDEST JUMPDEST SWAP1 PUSH1 0x0 MSTORE PUSH1 0x20 PUSH1 0x0 KECCAK256 ADD DUP7 PUSH1 0x20 ADD PUSH1 0x20 DUP2 ADD SWAP1 PUSH2 0x1436 SWAP2 SWAP1 PUSH2 0x44A2 JUMP JUMPDEST PUSH1 0xFF AND DUP2 SLOAD DUP2 LT PUSH2 0x144A JUMPI PUSH2 0x1449 PUSH2 0x5372 JUMP JUMPDEST JUMPDEST SWAP1 PUSH1 0x0 MSTORE PUSH1 0x20 PUSH1 0x0 KECCAK256 ADD PUSH1 0x0 DUP1 DUP3 ADD PUSH1 0x0 PUSH2 0x100 EXP DUP2 SLOAD SWAP1 PUSH1 0xFF MUL NOT AND SWAP1 SSTORE PUSH1 0x0 DUP3 ADD PUSH1 0x1 PUSH2 0x100 EXP DUP2 SLOAD SWAP1 PUSH1 0xFF MUL NOT AND SWAP1 SSTORE PUSH1 0x0 DUP3 ADD PUSH1 0x2 PUSH2 0x100 EXP DUP2 SLOAD SWAP1 PUSH1 0xFF MUL NOT AND SWAP1 SSTORE PUSH1 0x0 DUP3 ADD PUSH1 0x3 PUSH2 0x100 EXP DUP2 SLOAD SWAP1 PUSH1 0xFF MUL NOT AND SWAP1 SSTORE PUSH1 0x0 DUP3 ADD PUSH1 0x4 PUSH2 0x100 EXP DUP2 SLOAD SWAP1 PUSH20 0xFFFFFFFFFFFFFFFFFFFFFFFFFFFFFFFFFFFFFFFF MUL NOT AND SWAP1 SSTORE POP POP PUSH32 0xD46E1B079F3442F942E1744A9C599B87A4A96C160CDA79CAA418BD5E4632A1C2 DUP7 PUSH1 0x0 ADD PUSH1 0x20 DUP2 ADD SWAP1 PUSH2 0x1502 SWAP2 SWAP1 PUSH2 0x44A2 JUMP JUMPDEST DUP8 PUSH1 0x20 ADD PUSH1 0x20 DUP2 ADD SWAP1 PUSH2 0x1515 SWAP2 SWAP1 PUSH2 0x44A2 JUMP JUMPDEST DUP8 PUSH1 0x0 ADD PUSH1 0x20 DUP2 ADD SWAP1 PUSH2 0x1528 SWAP2 SWAP1 PUSH2 0x44A2 JUMP JUMPDEST DUP9 PUSH1 0x20 ADD PUSH1 0x20 DUP2 ADD SWAP1 PUSH2 0x153B SWAP2 SWAP1 PUSH2 0x44A2 JUMP JUMPDEST PUSH1 0x40 MLOAD PUSH2 0x154B SWAP5 SWAP4 SWAP3 SWAP2 SWAP1 PUSH2 0x4ED5 JUMP JUMPDEST PUSH1 0x40 MLOAD DUP1 SWAP2 SUB SWAP1 LOG1 POP POP POP POP POP POP JUMP JUMPDEST PUSH1 0x0 PUSH1 0xC DUP4 PUSH1 0x0 ADD PUSH1 0x20 DUP2 ADD SWAP1 PUSH2 0x1572 SWAP2 SWAP1 PUSH2 0x44A2 JUMP JUMPDEST PUSH1 0xFF AND DUP2 SLOAD DUP2 LT PUSH2 0x1586 JUMPI PUSH2 0x1585 PUSH2 0x5372 JUMP JUMPDEST JUMPDEST SWAP1 PUSH1 0x0 MSTORE PUSH1 0x20 PUSH1 0x0 KECCAK256 ADD DUP4 PUSH1 0x20 ADD PUSH1 0x20 DUP2 ADD SWAP1 PUSH2 0x15A3 SWAP2 SWAP1 PUSH2 0x44A2 JUMP JUMPDEST PUSH1 0xFF AND DUP2 SLOAD DUP2 LT PUSH2 0x15B7 JUMPI PUSH2 0x15B6 PUSH2 0x5372 JUMP JUMPDEST JUMPDEST SWAP1 PUSH1 0x0 MSTORE PUSH1 0x20 PUSH1 0x0 KECCAK256 ADD PUSH1 0x40 MLOAD DUP1 PUSH1 0xA0 ADD PUSH1 0x40 MSTORE SWAP1 DUP2 PUSH1 0x0 DUP3 ADD PUSH1 0x0 SWAP1 SLOAD SWAP1 PUSH2 0x100 EXP SWAP1 DIV PUSH1 0xFF AND ISZERO ISZERO ISZERO ISZERO DUP2 MSTORE PUSH1 0x20 ADD PUSH1 0x0 DUP3 ADD PUSH1 0x1 SWAP1 SLOAD SWAP1 PUSH2 0x100 EXP SWAP1 DIV PUSH1 0xFF AND PUSH1 0xFF AND PUSH1 0xFF AND DUP2 MSTORE PUSH1 0x20 ADD PUSH1 0x0 DUP3 ADD PUSH1 0x2 SWAP1 SLOAD SWAP1 PUSH2 0x100 EXP SWAP1 DIV PUSH1 0xFF AND PUSH1 0xFF AND PUSH1 0xFF AND DUP2 MSTORE PUSH1 0x20 ADD PUSH1 0x0 DUP3 ADD PUSH1 0x3 SWAP1 SLOAD SWAP1 PUSH2 0x100 EXP SWAP1 DIV PUSH1 0xFF AND PUSH1 0xFF AND PUSH1 0xFF AND DUP2 MSTORE PUSH1 0x20 ADD PUSH1 0x0 DUP3 ADD PUSH1 0x4 SWAP1 SLOAD SWAP1 PUSH2 0x100 EXP SWAP1 DIV PUSH20 0xFFFFFFFFFFFFFFFFFFFFFFFFFFFFFFFFFFFFFFFF AND PUSH20 0xFFFFFFFFFFFFFFFFFFFFFFFFFFFFFFFFFFFFFFFF AND PUSH20 0xFFFFFFFFFFFFFFFFFFFFFFFFFFFFFFFFFFFFFFFF AND DUP2 MSTORE POP POP SWAP1 POP PUSH1 0x0 PUSH1 0xC DUP4 PUSH1 0x0 ADD PUSH1 0x20 DUP2 ADD SWAP1 PUSH2 0x16AD SWAP2 SWAP1 PUSH2 0x44A2 JUMP JUMPDEST PUSH1 0xFF AND DUP2 SLOAD DUP2 LT PUSH2 0x16C1 JUMPI PUSH2 0x16C0 PUSH2 0x5372 JUMP JUMPDEST JUMPDEST SWAP1 PUSH1 0x0 MSTORE PUSH1 0x20 PUSH1 0x0 KECCAK256 ADD DUP4 PUSH1 0x20 ADD PUSH1 0x20 DUP2 ADD SWAP1 PUSH2 0x16DE SWAP2 SWAP1 PUSH2 0x44A2 JUMP JUMPDEST PUSH1 0xFF AND DUP2 SLOAD DUP2 LT PUSH2 0x16F2 JUMPI PUSH2 0x16F1 PUSH2 0x5372 JUMP JUMPDEST JUMPDEST SWAP1 PUSH1 0x0 MSTORE PUSH1 0x20 PUSH1 0x0 KECCAK256 ADD PUSH1 0x40 MLOAD DUP1 PUSH1 0xA0 ADD PUSH1 0x40 MSTORE SWAP1 DUP2 PUSH1 0x0 DUP3 ADD PUSH1 0x0 SWAP1 SLOAD SWAP1 PUSH2 0x100 EXP SWAP1 DIV PUSH1 0xFF AND ISZERO ISZERO ISZERO ISZERO DUP2 MSTORE PUSH1 0x20 ADD PUSH1 0x0 DUP3 ADD PUSH1 0x1 SWAP1 SLOAD SWAP1 PUSH2 0x100 EXP SWAP1 DIV PUSH1 0xFF AND PUSH1 0xFF AND PUSH1 0xFF AND DUP2 MSTORE PUSH1 0x20 ADD PUSH1 0x0 DUP3 ADD PUSH1 0x2 SWAP1 SLOAD SWAP1 PUSH2 0x100 EXP SWAP1 DIV PUSH1 0xFF AND PUSH1 0xFF AND PUSH1 0xFF AND DUP2 MSTORE PUSH1 0x20 ADD PUSH1 0x0 DUP3 ADD PUSH1 0x3 SWAP1 SLOAD SWAP1 PUSH2 0x100 EXP SWAP1 DIV PUSH1 0xFF AND PUSH1 0xFF AND PUSH1 0xFF AND DUP2 MSTORE PUSH1 0x20 ADD PUSH1 0x0 DUP3 ADD PUSH1 0x4 SWAP1 SLOAD SWAP1 PUSH2 0x100 EXP SWAP1 DIV PUSH20 0xFFFFFFFFFFFFFFFFFFFFFFFFFFFFFFFFFFFFFFFF AND PUSH20 0xFFFFFFFFFFFFFFFFFFFFFFFFFFFFFFFFFFFFFFFF AND PUSH20 0xFFFFFFFFFFFFFFFFFFFFFFFFFFFFFFFFFFFFFFFF AND DUP2 MSTORE POP POP SWAP1 POP CALLER PUSH20 0xFFFFFFFFFFFFFFFFFFFFFFFFFFFFFFFFFFFFFFFF AND DUP3 PUSH1 0x80 ADD MLOAD PUSH20 0xFFFFFFFFFFFFFFFFFFFFFFFFFFFFFFFFFFFFFFFF AND EQ PUSH2 0x1843 JUMPI PUSH1 0x40 MLOAD PUSH32 0x8C379A000000000000000000000000000000000000000000000000000000000 DUP2 MSTORE PUSH1 0x4 ADD PUSH2 0x183A SWAP1 PUSH2 0x4C89 JUMP JUMPDEST PUSH1 0x40 MLOAD DUP1 SWAP2 SUB SWAP1 REVERT JUMPDEST DUP1 PUSH1 0x0 ADD MLOAD PUSH2 0x1887 JUMPI PUSH1 0x40 MLOAD PUSH32 0x8C379A000000000000000000000000000000000000000000000000000000000 DUP2 MSTORE PUSH1 0x4 ADD PUSH2 0x187E SWAP1 PUSH2 0x4CE9 JUMP JUMPDEST PUSH1 0x40 MLOAD DUP1 SWAP2 SUB SWAP1 REVERT JUMPDEST CALLER PUSH20 0xFFFFFFFFFFFFFFFFFFFFFFFFFFFFFFFFFFFFFFFF AND DUP2 PUSH1 0x80 ADD MLOAD PUSH20 0xFFFFFFFFFFFFFFFFFFFFFFFFFFFFFFFFFFFFFFFF AND EQ ISZERO PUSH2 0x18FA JUMPI PUSH1 0x40 MLOAD PUSH32 0x8C379A000000000000000000000000000000000000000000000000000000000 DUP2 MSTORE PUSH1 0x4 ADD PUSH2 0x18F1 SWAP1 PUSH2 0x4C29 JUMP JUMPDEST PUSH1 0x40 MLOAD DUP1 SWAP2 SUB SWAP1 REVERT JUMPDEST PUSH1 0x0 PUSH1 0x3 PUSH1 0x0 SWAP1 SLOAD SWAP1 PUSH2 0x100 EXP SWAP1 DIV PUSH20 0xFFFFFFFFFFFFFFFFFFFFFFFFFFFFFFFFFFFFFFFF AND PUSH20 0xFFFFFFFFFFFFFFFFFFFFFFFFFFFFFFFFFFFFFFFF AND PUSH4 0x9188D312 DUP5 PUSH1 0x60 ADD MLOAD PUSH1 0x40 MLOAD DUP3 PUSH4 0xFFFFFFFF AND PUSH1 0xE0 SHL DUP2 MSTORE PUSH1 0x4 ADD PUSH2 0x195B SWAP2 SWAP1 PUSH2 0x4E3F JUMP JUMPDEST PUSH1 0xE0 PUSH1 0x40 MLOAD DUP1 DUP4 SUB DUP2 DUP7 DUP1 EXTCODESIZE ISZERO DUP1 ISZERO PUSH2 0x1973 JUMPI PUSH1 0x0 DUP1 REVERT JUMPDEST POP GAS STATICCALL ISZERO DUP1 ISZERO PUSH2 0x1987 JUMPI RETURNDATASIZE PUSH1 0x0 DUP1 RETURNDATACOPY RETURNDATASIZE PUSH1 0x0 REVERT JUMPDEST POP POP POP POP PUSH1 0x40 MLOAD RETURNDATASIZE PUSH1 0x1F NOT PUSH1 0x1F DUP3 ADD AND DUP3 ADD DUP1 PUSH1 0x40 MSTORE POP DUP2 ADD SWAP1 PUSH2 0x19AB SWAP2 SWAP1 PUSH2 0x4408 JUMP JUMPDEST SWAP1 POP PUSH1 0x0 PUSH1 0x1 DUP2 GT ISZERO PUSH2 0x19C1 JUMPI PUSH2 0x19C0 PUSH2 0x5343 JUMP JUMPDEST JUMPDEST DUP2 PUSH1 0x20 ADD MLOAD PUSH1 0x1 DUP2 GT ISZERO PUSH2 0x19D8 JUMPI PUSH2 0x19D7 PUSH2 0x5343 JUMP JUMPDEST JUMPDEST EQ PUSH2 0x1A18 JUMPI PUSH1 0x40 MLOAD PUSH32 0x8C379A000000000000000000000000000000000000000000000000000000000 DUP2 MSTORE PUSH1 0x4 ADD PUSH2 0x1A0F SWAP1 PUSH2 0x4D09 JUMP JUMPDEST PUSH1 0x40 MLOAD DUP1 SWAP2 SUB SWAP1 REVERT JUMPDEST PUSH1 0x0 PUSH1 0x4 PUSH1 0x0 ADD PUSH1 0x2 SWAP1 SLOAD SWAP1 PUSH2 0x100 EXP SWAP1 DIV PUSH20 0xFFFFFFFFFFFFFFFFFFFFFFFFFFFFFFFFFFFFFFFF AND PUSH20 0xFFFFFFFFFFFFFFFFFFFFFFFFFFFFFFFFFFFFFFFF AND PUSH1 0x8 PUSH1 0x0 ADD PUSH1 0x2 SWAP1 SLOAD SWAP1 PUSH2 0x100 EXP SWAP1 DIV PUSH20 0xFFFFFFFFFFFFFFFFFFFFFFFFFFFFFFFFFFFFFFFF AND PUSH20 0xFFFFFFFFFFFFFFFFFFFFFFFFFFFFFFFFFFFFFFFF AND EQ SWAP1 POP PUSH1 0x0 DUP2 PUSH2 0x1AD1 JUMPI DUP6 PUSH1 0x0 ADD PUSH1 0x20 DUP2 ADD SWAP1 PUSH2 0x1AAF SWAP2 SWAP1 PUSH2 0x44A2 JUMP JUMPDEST DUP8 PUSH1 0x0 ADD PUSH1 0x20 DUP2 ADD SWAP1 PUSH2 0x1AC2 SWAP2 SWAP1 PUSH2 0x44A2 JUMP JUMPDEST PUSH2 0x1ACC SWAP2 SWAP1 PUSH2 0x5197 JUMP JUMPDEST PUSH2 0x1B02 JUMP JUMPDEST DUP7 PUSH1 0x0 ADD PUSH1 0x20 DUP2 ADD SWAP1 PUSH2 0x1AE4 SWAP2 SWAP1 PUSH2 0x44A2 JUMP JUMPDEST DUP7 PUSH1 0x0 ADD PUSH1 0x20 DUP2 ADD SWAP1 PUSH2 0x1AF7 SWAP2 SWAP1 PUSH2 0x44A2 JUMP JUMPDEST PUSH2 0x1B01 SWAP2 SWAP1 PUSH2 0x5197 JUMP JUMPDEST JUMPDEST SWAP1 POP PUSH1 0x0 DUP8 PUSH1 0x20 ADD PUSH1 0x20 DUP2 ADD SWAP1 PUSH2 0x1B19 SWAP2 SWAP1 PUSH2 0x44A2 JUMP JUMPDEST PUSH1 0xFF AND DUP8 PUSH1 0x20 ADD PUSH1 0x20 DUP2 ADD SWAP1 PUSH2 0x1B2F SWAP2 SWAP1 PUSH2 0x44A2 JUMP JUMPDEST PUSH1 0xFF AND LT ISZERO PUSH2 0x1B6D JUMPI DUP7 PUSH1 0x20 ADD PUSH1 0x20 DUP2 ADD SWAP1 PUSH2 0x1B4B SWAP2 SWAP1 PUSH2 0x44A2 JUMP JUMPDEST DUP9 PUSH1 0x20 ADD PUSH1 0x20 DUP2 ADD SWAP1 PUSH2 0x1B5E SWAP2 SWAP1 PUSH2 0x44A2 JUMP JUMPDEST PUSH2 0x1B68 SWAP2 SWAP1 PUSH2 0x5197 JUMP JUMPDEST PUSH2 0x1B9E JUMP JUMPDEST DUP8 PUSH1 0x20 ADD PUSH1 0x20 DUP2 ADD SWAP1 PUSH2 0x1B80 SWAP2 SWAP1 PUSH2 0x44A2 JUMP JUMPDEST DUP8 PUSH1 0x20 ADD PUSH1 0x20 DUP2 ADD SWAP1 PUSH2 0x1B93 SWAP2 SWAP1 PUSH2 0x44A2 JUMP JUMPDEST PUSH2 0x1B9D SWAP2 SWAP1 PUSH2 0x5197 JUMP JUMPDEST JUMPDEST SWAP1 POP DUP4 PUSH1 0x60 ADD MLOAD PUSH1 0xFF AND DUP3 PUSH1 0xFF AND GT ISZERO DUP1 ISZERO PUSH2 0x1BC4 JUMPI POP DUP4 PUSH1 0x40 ADD MLOAD PUSH1 0xFF AND DUP2 PUSH1 0xFF AND GT ISZERO JUMPDEST PUSH2 0x1C03 JUMPI PUSH1 0x40 MLOAD PUSH32 0x8C379A000000000000000000000000000000000000000000000000000000000 DUP2 MSTORE PUSH1 0x4 ADD PUSH2 0x1BFA SWAP1 PUSH2 0x4DC9 JUMP JUMPDEST PUSH1 0x40 MLOAD DUP1 SWAP2 SUB SWAP1 REVERT JUMPDEST PUSH1 0x1 PUSH1 0xFF AND PUSH1 0x8 PUSH1 0x0 ADD PUSH1 0x1 SWAP1 SLOAD SWAP1 PUSH2 0x100 EXP SWAP1 DIV PUSH1 0xFF AND PUSH1 0xFF AND GT PUSH2 0x1C5E JUMPI PUSH1 0x40 MLOAD PUSH32 0x8C379A000000000000000000000000000000000000000000000000000000000 DUP2 MSTORE PUSH1 0x4 ADD PUSH2 0x1C55 SWAP1 PUSH2 0x4B29 JUMP JUMPDEST PUSH1 0x40 MLOAD DUP1 SWAP2 SUB SWAP1 REVERT JUMPDEST PUSH1 0x1 PUSH1 0x8 PUSH1 0x0 ADD PUSH1 0x1 DUP3 DUP3 DUP3 SWAP1 SLOAD SWAP1 PUSH2 0x100 EXP SWAP1 DIV PUSH1 0xFF AND PUSH2 0x1C80 SWAP2 SWAP1 PUSH2 0x5197 JUMP JUMPDEST SWAP3 POP PUSH2 0x100 EXP DUP2 SLOAD DUP2 PUSH1 0xFF MUL NOT AND SWAP1 DUP4 PUSH1 0xFF AND MUL OR SWAP1 SSTORE POP DUP4 PUSH1 0xC0 ADD MLOAD PUSH1 0xFF AND DUP6 PUSH1 0x40 ADD MLOAD PUSH1 0xFF AND GT PUSH2 0x1E19 JUMPI PUSH1 0x0 PUSH1 0x1 SWAP1 SLOAD SWAP1 PUSH2 0x100 EXP SWAP1 DIV PUSH2 0xFFFF AND PUSH1 0xA PUSH1 0x0 DUP8 PUSH1 0x80 ADD MLOAD PUSH20 0xFFFFFFFFFFFFFFFFFFFFFFFFFFFFFFFFFFFFFFFF AND PUSH20 0xFFFFFFFFFFFFFFFFFFFFFFFFFFFFFFFFFFFFFFFF AND DUP2 MSTORE PUSH1 0x20 ADD SWAP1 DUP2 MSTORE PUSH1 0x20 ADD PUSH1 0x0 KECCAK256 PUSH1 0x0 DUP8 PUSH1 0x20 ADD MLOAD PUSH1 0xFF AND PUSH1 0xFF AND DUP2 MSTORE PUSH1 0x20 ADD SWAP1 DUP2 MSTORE PUSH1 0x20 ADD PUSH1 0x0 KECCAK256 PUSH1 0x0 PUSH2 0x100 EXP DUP2 SLOAD DUP2 PUSH2 0xFFFF MUL NOT AND SWAP1 DUP4 PUSH2 0xFFFF AND MUL OR SWAP1 SSTORE POP PUSH1 0xC DUP8 PUSH1 0x0 ADD PUSH1 0x20 DUP2 ADD SWAP1 PUSH2 0x1D4B SWAP2 SWAP1 PUSH2 0x44A2 JUMP JUMPDEST PUSH1 0xFF AND DUP2 SLOAD DUP2 LT PUSH2 0x1D5F JUMPI PUSH2 0x1D5E PUSH2 0x5372 JUMP JUMPDEST JUMPDEST SWAP1 PUSH1 0x0 MSTORE PUSH1 0x20 PUSH1 0x0 KECCAK256 ADD DUP8 PUSH1 0x20 ADD PUSH1 0x20 DUP2 ADD SWAP1 PUSH2 0x1D7C SWAP2 SWAP1 PUSH2 0x44A2 JUMP JUMPDEST PUSH1 0xFF AND DUP2 SLOAD DUP2 LT PUSH2 0x1D90 JUMPI PUSH2 0x1D8F PUSH2 0x5372 JUMP JUMPDEST JUMPDEST SWAP1 PUSH1 0x0 MSTORE PUSH1 0x20 PUSH1 0x0 KECCAK256 ADD PUSH1 0x0 DUP1 DUP3 ADD PUSH1 0x0 PUSH2 0x100 EXP DUP2 SLOAD SWAP1 PUSH1 0xFF MUL NOT AND SWAP1 SSTORE PUSH1 0x0 DUP3 ADD PUSH1 0x1 PUSH2 0x100 EXP DUP2 SLOAD SWAP1 PUSH1 0xFF MUL NOT AND SWAP1 SSTORE PUSH1 0x0 DUP3 ADD PUSH1 0x2 PUSH2 0x100 EXP DUP2 SLOAD SWAP1 PUSH1 0xFF MUL NOT AND SWAP1 SSTORE PUSH1 0x0 DUP3 ADD PUSH1 0x3 PUSH2 0x100 EXP DUP2 SLOAD SWAP1 PUSH1 0xFF MUL NOT AND SWAP1 SSTORE PUSH1 0x0 DUP3 ADD PUSH1 0x4 PUSH2 0x100 EXP DUP2 SLOAD SWAP1 PUSH20 0xFFFFFFFFFFFFFFFFFFFFFFFFFFFFFFFFFFFFFFFF MUL NOT AND SWAP1 SSTORE POP POP PUSH2 0x1EB9 JUMP JUMPDEST DUP4 PUSH1 0xC0 ADD MLOAD PUSH1 0xC DUP9 PUSH1 0x0 ADD PUSH1 0x20 DUP2 ADD SWAP1 PUSH2 0x1E33 SWAP2 SWAP1 PUSH2 0x44A2 JUMP JUMPDEST PUSH1 0xFF AND DUP2 SLOAD DUP2 LT PUSH2 0x1E47 JUMPI PUSH2 0x1E46 PUSH2 0x5372 JUMP JUMPDEST JUMPDEST SWAP1 PUSH1 0x0 MSTORE PUSH1 0x20 PUSH1 0x0 KECCAK256 ADD DUP9 PUSH1 0x20 ADD PUSH1 0x20 DUP2 ADD SWAP1 PUSH2 0x1E64 SWAP2 SWAP1 PUSH2 0x44A2 JUMP JUMPDEST PUSH1 0xFF AND DUP2 SLOAD DUP2 LT PUSH2 0x1E78 JUMPI PUSH2 0x1E77 PUSH2 0x5372 JUMP JUMPDEST JUMPDEST SWAP1 PUSH1 0x0 MSTORE PUSH1 0x20 PUSH1 0x0 KECCAK256 ADD PUSH1 0x0 ADD PUSH1 0x2 DUP3 DUP3 DUP3 SWAP1 SLOAD SWAP1 PUSH2 0x100 EXP SWAP1 DIV PUSH1 0xFF AND PUSH2 0x1EA0 SWAP2 SWAP1 PUSH2 0x5197 JUMP JUMPDEST SWAP3 POP PUSH2 0x100 EXP DUP2 SLOAD DUP2 PUSH1 0xFF MUL NOT AND SWAP1 DUP4 PUSH1 0xFF AND MUL OR SWAP1 SSTORE POP JUMPDEST PUSH32 0x821FA0D3357CAF1ED6E818F6AF88D667DBB5E5AFC86FD1DD63C43C5D9CB668DE DUP9 PUSH1 0x0 ADD PUSH1 0x20 DUP2 ADD SWAP1 PUSH2 0x1EED SWAP2 SWAP1 PUSH2 0x44A2 JUMP JUMPDEST DUP10 PUSH1 0x20 ADD PUSH1 0x20 DUP2 ADD SWAP1 PUSH2 0x1F00 SWAP2 SWAP1 PUSH2 0x44A2 JUMP JUMPDEST DUP10 PUSH1 0x0 ADD PUSH1 0x20 DUP2 ADD SWAP1 PUSH2 0x1F13 SWAP2 SWAP1 PUSH2 0x44A2 JUMP JUMPDEST DUP11 PUSH1 0x20 ADD PUSH1 0x20 DUP2 ADD SWAP1 PUSH2 0x1F26 SWAP2 SWAP1 PUSH2 0x44A2 JUMP JUMPDEST DUP9 PUSH1 0xC0 ADD MLOAD PUSH1 0x40 MLOAD PUSH2 0x1F3C SWAP6 SWAP5 SWAP4 SWAP3 SWAP2 SWAP1 PUSH2 0x4F1A JUMP JUMPDEST PUSH1 0x40 MLOAD DUP1 SWAP2 SUB SWAP1 LOG1 POP POP POP POP POP POP POP POP JUMP JUMPDEST PUSH1 0x0 DUP1 PUSH1 0x1 DUP2 GT ISZERO PUSH2 0x1F63 JUMPI PUSH2 0x1F62 PUSH2 0x5343 JUMP JUMPDEST JUMPDEST PUSH1 0x0 DUP1 SLOAD SWAP1 PUSH2 0x100 EXP SWAP1 DIV PUSH1 0xFF AND PUSH1 0x1 DUP2 GT ISZERO PUSH2 0x1F83 JUMPI PUSH2 0x1F82 PUSH2 0x5343 JUMP JUMPDEST JUMPDEST EQ PUSH2 0x1F8F JUMPI PUSH1 0x4 PUSH2 0x1F92 JUMP JUMPDEST PUSH1 0x6 JUMPDEST SWAP1 POP PUSH1 0x0 PUSH1 0xC DUP4 PUSH1 0x0 ADD PUSH1 0x20 DUP2 ADD SWAP1 PUSH2 0x1FAB SWAP2 SWAP1 PUSH2 0x44A2 JUMP JUMPDEST PUSH1 0xFF AND DUP2 SLOAD DUP2 LT PUSH2 0x1FBF JUMPI PUSH2 0x1FBE PUSH2 0x5372 JUMP JUMPDEST JUMPDEST SWAP1 PUSH1 0x0 MSTORE PUSH1 0x20 PUSH1 0x0 KECCAK256 ADD DUP4 PUSH1 0x20 ADD PUSH1 0x20 DUP2 ADD SWAP1 PUSH2 0x1FDC SWAP2 SWAP1 PUSH2 0x44A2 JUMP JUMPDEST PUSH1 0xFF AND DUP2 SLOAD DUP2 LT PUSH2 0x1FF0 JUMPI PUSH2 0x1FEF PUSH2 0x5372 JUMP JUMPDEST JUMPDEST SWAP1 PUSH1 0x0 MSTORE PUSH1 0x20 PUSH1 0x0 KECCAK256 ADD PUSH1 0x40 MLOAD DUP1 PUSH1 0xA0 ADD PUSH1 0x40 MSTORE SWAP1 DUP2 PUSH1 0x0 DUP3 ADD PUSH1 0x0 SWAP1 SLOAD SWAP1 PUSH2 0x100 EXP SWAP1 DIV PUSH1 0xFF AND ISZERO ISZERO ISZERO ISZERO DUP2 MSTORE PUSH1 0x20 ADD PUSH1 0x0 DUP3 ADD PUSH1 0x1 SWAP1 SLOAD SWAP1 PUSH2 0x100 EXP SWAP1 DIV PUSH1 0xFF AND PUSH1 0xFF AND PUSH1 0xFF AND DUP2 MSTORE PUSH1 0x20 ADD PUSH1 0x0 DUP3 ADD PUSH1 0x2 SWAP1 SLOAD SWAP1 PUSH2 0x100 EXP SWAP1 DIV PUSH1 0xFF AND PUSH1 0xFF AND PUSH1 0xFF AND DUP2 MSTORE PUSH1 0x20 ADD PUSH1 0x0 DUP3 ADD PUSH1 0x3 SWAP1 SLOAD SWAP1 PUSH2 0x100 EXP SWAP1 DIV PUSH1 0xFF AND PUSH1 0xFF AND PUSH1 0xFF AND DUP2 MSTORE PUSH1 0x20 ADD PUSH1 0x0 DUP3 ADD PUSH1 0x4 SWAP1 SLOAD SWAP1 PUSH2 0x100 EXP SWAP1 DIV PUSH20 0xFFFFFFFFFFFFFFFFFFFFFFFFFFFFFFFFFFFFFFFF AND PUSH20 0xFFFFFFFFFFFFFFFFFFFFFFFFFFFFFFFFFFFFFFFF AND PUSH20 0xFFFFFFFFFFFFFFFFFFFFFFFFFFFFFFFFFFFFFFFF AND DUP2 MSTORE POP POP SWAP1 POP PUSH1 0x0 PUSH1 0x3 PUSH1 0x0 SWAP1 SLOAD SWAP1 PUSH2 0x100 EXP SWAP1 DIV PUSH20 0xFFFFFFFFFFFFFFFFFFFFFFFFFFFFFFFFFFFFFFFF AND PUSH20 0xFFFFFFFFFFFFFFFFFFFFFFFFFFFFFFFFFFFFFFFF AND PUSH4 0x9188D312 DUP4 PUSH1 0x60 ADD MLOAD PUSH1 0x40 MLOAD DUP3 PUSH4 0xFFFFFFFF AND PUSH1 0xE0 SHL DUP2 MSTORE PUSH1 0x4 ADD PUSH2 0x2130 SWAP2 SWAP1 PUSH2 0x4E3F JUMP JUMPDEST PUSH1 0xE0 PUSH1 0x40 MLOAD DUP1 DUP4 SUB DUP2 DUP7 DUP1 EXTCODESIZE ISZERO DUP1 ISZERO PUSH2 0x2148 JUMPI PUSH1 0x0 DUP1 REVERT JUMPDEST POP GAS STATICCALL ISZERO DUP1 ISZERO PUSH2 0x215C JUMPI RETURNDATASIZE PUSH1 0x0 DUP1 RETURNDATACOPY RETURNDATASIZE PUSH1 0x0 REVERT JUMPDEST POP POP POP POP PUSH1 0x40 MLOAD RETURNDATASIZE PUSH1 0x1F NOT PUSH1 0x1F DUP3 ADD AND DUP3 ADD DUP1 PUSH1 0x40 MSTORE POP DUP2 ADD SWAP1 PUSH2 0x2180 SWAP2 SWAP1 PUSH2 0x4408 JUMP JUMPDEST SWAP1 POP CALLER PUSH20 0xFFFFFFFFFFFFFFFFFFFFFFFFFFFFFFFFFFFFFFFF AND DUP3 PUSH1 0x80 ADD MLOAD PUSH20 0xFFFFFFFFFFFFFFFFFFFFFFFFFFFFFFFFFFFFFFFF AND EQ PUSH2 0x21F4 JUMPI PUSH1 0x40 MLOAD PUSH32 0x8C379A000000000000000000000000000000000000000000000000000000000 DUP2 MSTORE PUSH1 0x4 ADD PUSH2 0x21EB SWAP1 PUSH2 0x4C89 JUMP JUMPDEST PUSH1 0x40 MLOAD DUP1 SWAP2 SUB SWAP1 REVERT JUMPDEST PUSH1 0x0 PUSH1 0x1 DUP2 GT ISZERO PUSH2 0x2208 JUMPI PUSH2 0x2207 PUSH2 0x5343 JUMP JUMPDEST JUMPDEST DUP2 PUSH1 0x20 ADD MLOAD PUSH1 0x1 DUP2 GT ISZERO PUSH2 0x221F JUMPI PUSH2 0x221E PUSH2 0x5343 JUMP JUMPDEST JUMPDEST EQ PUSH2 0x225F JUMPI PUSH1 0x40 MLOAD PUSH32 0x8C379A000000000000000000000000000000000000000000000000000000000 DUP2 MSTORE PUSH1 0x4 ADD PUSH2 0x2256 SWAP1 PUSH2 0x4C09 JUMP JUMPDEST PUSH1 0x40 MLOAD DUP1 SWAP2 SUB SWAP1 REVERT JUMPDEST PUSH1 0x1 PUSH1 0xFF AND PUSH1 0x8 PUSH1 0x0 ADD PUSH1 0x1 SWAP1 SLOAD SWAP1 PUSH2 0x100 EXP SWAP1 DIV PUSH1 0xFF AND PUSH1 0xFF AND GT PUSH2 0x22BA JUMPI PUSH1 0x40 MLOAD PUSH32 0x8C379A000000000000000000000000000000000000000000000000000000000 DUP2 MSTORE PUSH1 0x4 ADD PUSH2 0x22B1 SWAP1 PUSH2 0x4C69 JUMP JUMPDEST PUSH1 0x40 MLOAD DUP1 SWAP2 SUB SWAP1 REVERT JUMPDEST PUSH1 0x0 PUSH1 0x4 PUSH1 0x0 ADD PUSH1 0x2 SWAP1 SLOAD SWAP1 PUSH2 0x100 EXP SWAP1 DIV PUSH20 0xFFFFFFFFFFFFFFFFFFFFFFFFFFFFFFFFFFFFFFFF AND PUSH20 0xFFFFFFFFFFFFFFFFFFFFFFFFFFFFFFFFFFFFFFFF AND PUSH1 0x8 PUSH1 0x0 ADD PUSH1 0x2 SWAP1 SLOAD SWAP1 PUSH2 0x100 EXP SWAP1 DIV PUSH20 0xFFFFFFFFFFFFFFFFFFFFFFFFFFFFFFFFFFFFFFFF AND PUSH20 0xFFFFFFFFFFFFFFFFFFFFFFFFFFFFFFFFFFFFFFFF AND EQ SWAP1 POP DUP1 PUSH2 0x2360 JUMPI DUP2 PUSH1 0x60 ADD MLOAD PUSH1 0xFF AND DUP6 PUSH1 0x0 ADD PUSH1 0x20 DUP2 ADD SWAP1 PUSH2 0x2357 SWAP2 SWAP1 PUSH2 0x44A2 JUMP JUMPDEST PUSH1 0xFF AND LT PUSH2 0x23AC JUMP JUMPDEST PUSH32 0x0 PUSH1 0xFF AND DUP3 PUSH1 0x60 ADD MLOAD DUP7 PUSH1 0x0 ADD PUSH1 0x20 DUP2 ADD SWAP1 PUSH2 0x239C SWAP2 SWAP1 PUSH2 0x44A2 JUMP JUMPDEST PUSH2 0x23A6 SWAP2 SWAP1 PUSH2 0x5032 JUMP JUMPDEST PUSH1 0xFF AND LT ISZERO JUMPDEST PUSH2 0x23EB JUMPI PUSH1 0x40 MLOAD PUSH32 0x8C379A000000000000000000000000000000000000000000000000000000000 DUP2 MSTORE PUSH1 0x4 ADD PUSH2 0x23E2 SWAP1 PUSH2 0x4B89 JUMP JUMPDEST PUSH1 0x40 MLOAD DUP1 SWAP2 SUB SWAP1 REVERT JUMPDEST PUSH1 0x1 PUSH1 0x8 PUSH1 0x0 ADD PUSH1 0x1 DUP3 DUP3 DUP3 SWAP1 SLOAD SWAP1 PUSH2 0x100 EXP SWAP1 DIV PUSH1 0xFF AND PUSH2 0x240D SWAP2 SWAP1 PUSH2 0x5197 JUMP JUMPDEST SWAP3 POP PUSH2 0x100 EXP DUP2 SLOAD DUP2 PUSH1 0xFF MUL NOT AND SWAP1 DUP4 PUSH1 0xFF AND MUL OR SWAP1 SSTORE POP DUP4 PUSH1 0x0 ADD PUSH1 0x0 SWAP1 SLOAD SWAP1 PUSH2 0x100 EXP SWAP1 DIV PUSH1 0xFF AND PUSH1 0xFF AND DUP3 PUSH1 0xC0 ADD MLOAD PUSH1 0xFF AND GT ISZERO PUSH2 0x24A0 JUMPI PUSH2 0x249B PUSH1 0x8 PUSH1 0x0 ADD PUSH1 0x2 SWAP1 SLOAD SWAP1 PUSH2 0x100 EXP SWAP1 DIV PUSH20 0xFFFFFFFFFFFFFFFFFFFFFFFFFFFFFFFFFFFFFFFF AND DUP6 PUSH1 0x0 ADD PUSH1 0x2 SWAP1 SLOAD SWAP1 PUSH2 0x100 EXP SWAP1 DIV PUSH20 0xFFFFFFFFFFFFFFFFFFFFFFFFFFFFFFFFFFFFFFFF AND PUSH2 0x3C03 JUMP JUMPDEST PUSH2 0x24DD JUMP JUMPDEST DUP2 PUSH1 0xC0 ADD MLOAD DUP5 PUSH1 0x0 ADD PUSH1 0x0 DUP3 DUP3 DUP3 SWAP1 SLOAD SWAP1 PUSH2 0x100 EXP SWAP1 DIV PUSH1 0xFF AND PUSH2 0x24C4 SWAP2 SWAP1 PUSH2 0x5197 JUMP JUMPDEST SWAP3 POP PUSH2 0x100 EXP DUP2 SLOAD DUP2 PUSH1 0xFF MUL NOT AND SWAP1 DUP4 PUSH1 0xFF AND MUL OR SWAP1 SSTORE POP JUMPDEST PUSH32 0x9514B0A645AB311710078885B3D1AA7B7C941ADE5DBA24715646519E625EC858 DUP6 PUSH1 0x0 ADD PUSH1 0x20 DUP2 ADD SWAP1 PUSH2 0x2511 SWAP2 SWAP1 PUSH2 0x44A2 JUMP JUMPDEST DUP7 PUSH1 0x20 ADD PUSH1 0x20 DUP2 ADD SWAP1 PUSH2 0x2524 SWAP2 SWAP1 PUSH2 0x44A2 JUMP JUMPDEST DUP5 PUSH1 0xC0 ADD MLOAD PUSH1 0x40 MLOAD PUSH2 0x2538 SWAP4 SWAP3 SWAP2 SWAP1 PUSH2 0x4E9E JUMP JUMPDEST PUSH1 0x40 MLOAD DUP1 SWAP2 SUB SWAP1 LOG1 POP POP POP POP POP JUMP JUMPDEST PUSH1 0x0 DUP1 PUSH1 0x1 DUP2 GT ISZERO PUSH2 0x255C JUMPI PUSH2 0x255B PUSH2 0x5343 JUMP JUMPDEST JUMPDEST PUSH1 0x0 DUP1 SLOAD SWAP1 PUSH2 0x100 EXP SWAP1 DIV PUSH1 0xFF AND PUSH1 0x1 DUP2 GT ISZERO PUSH2 0x257C JUMPI PUSH2 0x257B PUSH2 0x5343 JUMP JUMPDEST JUMPDEST EQ PUSH2 0x2588 JUMPI PUSH1 0x4 PUSH2 0x258B JUMP JUMPDEST PUSH1 0x6 JUMPDEST SWAP1 POP PUSH1 0x0 PUSH1 0xC DUP4 PUSH1 0x0 ADD PUSH1 0x20 DUP2 ADD SWAP1 PUSH2 0x25A4 SWAP2 SWAP1 PUSH2 0x44A2 JUMP JUMPDEST PUSH1 0xFF AND DUP2 SLOAD DUP2 LT PUSH2 0x25B8 JUMPI PUSH2 0x25B7 PUSH2 0x5372 JUMP JUMPDEST JUMPDEST SWAP1 PUSH1 0x0 MSTORE PUSH1 0x20 PUSH1 0x0 KECCAK256 ADD DUP4 PUSH1 0x20 ADD PUSH1 0x20 DUP2 ADD SWAP1 PUSH2 0x25D5 SWAP2 SWAP1 PUSH2 0x44A2 JUMP JUMPDEST PUSH1 0xFF AND DUP2 SLOAD DUP2 LT PUSH2 0x25E9 JUMPI PUSH2 0x25E8 PUSH2 0x5372 JUMP JUMPDEST JUMPDEST SWAP1 PUSH1 0x0 MSTORE PUSH1 0x20 PUSH1 0x0 KECCAK256 ADD PUSH1 0x40 MLOAD DUP1 PUSH1 0xA0 ADD PUSH1 0x40 MSTORE SWAP1 DUP2 PUSH1 0x0 DUP3 ADD PUSH1 0x0 SWAP1 SLOAD SWAP1 PUSH2 0x100 EXP SWAP1 DIV PUSH1 0xFF AND ISZERO ISZERO ISZERO ISZERO DUP2 MSTORE PUSH1 0x20 ADD PUSH1 0x0 DUP3 ADD PUSH1 0x1 SWAP1 SLOAD SWAP1 PUSH2 0x100 EXP SWAP1 DIV PUSH1 0xFF AND PUSH1 0xFF AND PUSH1 0xFF AND DUP2 MSTORE PUSH1 0x20 ADD PUSH1 0x0 DUP3 ADD PUSH1 0x2 SWAP1 SLOAD SWAP1 PUSH2 0x100 EXP SWAP1 DIV PUSH1 0xFF AND PUSH1 0xFF AND PUSH1 0xFF AND DUP2 MSTORE PUSH1 0x20 ADD PUSH1 0x0 DUP3 ADD PUSH1 0x3 SWAP1 SLOAD SWAP1 PUSH2 0x100 EXP SWAP1 DIV PUSH1 0xFF AND PUSH1 0xFF AND PUSH1 0xFF AND DUP2 MSTORE PUSH1 0x20 ADD PUSH1 0x0 DUP3 ADD PUSH1 0x4 SWAP1 SLOAD SWAP1 PUSH2 0x100 EXP SWAP1 DIV PUSH20 0xFFFFFFFFFFFFFFFFFFFFFFFFFFFFFFFFFFFFFFFF AND PUSH20 0xFFFFFFFFFFFFFFFFFFFFFFFFFFFFFFFFFFFFFFFF AND PUSH20 0xFFFFFFFFFFFFFFFFFFFFFFFFFFFFFFFFFFFFFFFF AND DUP2 MSTORE POP POP SWAP1 POP PUSH1 0x0 PUSH1 0x3 PUSH1 0x0 SWAP1 SLOAD SWAP1 PUSH2 0x100 EXP SWAP1 DIV PUSH20 0xFFFFFFFFFFFFFFFFFFFFFFFFFFFFFFFFFFFFFFFF AND PUSH20 0xFFFFFFFFFFFFFFFFFFFFFFFFFFFFFFFFFFFFFFFF AND PUSH4 0x9188D312 PUSH1 0x8 PUSH1 0x1 ADD DUP8 PUSH1 0xFF AND DUP2 SLOAD DUP2 LT PUSH2 0x2722 JUMPI PUSH2 0x2721 PUSH2 0x5372 JUMP JUMPDEST JUMPDEST SWAP1 PUSH1 0x0 MSTORE PUSH1 0x20 PUSH1 0x0 KECCAK256 SWAP1 PUSH1 0x20 SWAP2 DUP3 DUP3 DIV ADD SWAP2 SWAP1 MOD SWAP1 SLOAD SWAP1 PUSH2 0x100 EXP SWAP1 DIV PUSH1 0xFF AND PUSH1 0x40 MLOAD DUP3 PUSH4 0xFFFFFFFF AND PUSH1 0xE0 SHL DUP2 MSTORE PUSH1 0x4 ADD PUSH2 0x275E SWAP2 SWAP1 PUSH2 0x4E3F JUMP JUMPDEST PUSH1 0xE0 PUSH1 0x40 MLOAD DUP1 DUP4 SUB DUP2 DUP7 DUP1 EXTCODESIZE ISZERO DUP1 ISZERO PUSH2 0x2776 JUMPI PUSH1 0x0 DUP1 REVERT JUMPDEST POP GAS STATICCALL ISZERO DUP1 ISZERO PUSH2 0x278A JUMPI RETURNDATASIZE PUSH1 0x0 DUP1 RETURNDATACOPY RETURNDATASIZE PUSH1 0x0 REVERT JUMPDEST POP POP POP POP PUSH1 0x40 MLOAD RETURNDATASIZE PUSH1 0x1F NOT PUSH1 0x1F DUP3 ADD AND DUP3 ADD DUP1 PUSH1 0x40 MSTORE POP DUP2 ADD SWAP1 PUSH2 0x27AE SWAP2 SWAP1 PUSH2 0x4408 JUMP JUMPDEST SWAP1 POP PUSH1 0x0 PUSH2 0x3E8 PUSH32 0x0 PUSH2 0xFFFF AND PUSH1 0x2 PUSH1 0x0 SWAP1 SLOAD SWAP1 PUSH2 0x100 EXP SWAP1 DIV PUSH20 0xFFFFFFFFFFFFFFFFFFFFFFFFFFFFFFFFFFFFFFFF AND PUSH20 0xFFFFFFFFFFFFFFFFFFFFFFFFFFFFFFFFFFFFFFFF AND PUSH4 0xDD62ED3E PUSH32 0x0 ADDRESS PUSH1 0x40 MLOAD DUP4 PUSH4 0xFFFFFFFF AND PUSH1 0xE0 SHL DUP2 MSTORE PUSH1 0x4 ADD PUSH2 0x2857 SWAP3 SWAP2 SWAP1 PUSH2 0x49EB JUMP JUMPDEST PUSH1 0x20 PUSH1 0x40 MLOAD DUP1 DUP4 SUB DUP2 DUP7 DUP1 EXTCODESIZE ISZERO DUP1 ISZERO PUSH2 0x286F JUMPI PUSH1 0x0 DUP1 REVERT JUMPDEST POP GAS STATICCALL ISZERO DUP1 ISZERO PUSH2 0x2883 JUMPI RETURNDATASIZE PUSH1 0x0 DUP1 RETURNDATACOPY RETURNDATASIZE PUSH1 0x0 REVERT JUMPDEST POP POP POP POP PUSH1 0x40 MLOAD RETURNDATASIZE PUSH1 0x1F NOT PUSH1 0x1F DUP3 ADD AND DUP3 ADD DUP1 PUSH1 0x40 MSTORE POP DUP2 ADD SWAP1 PUSH2 0x28A7 SWAP2 SWAP1 PUSH2 0x4435 JUMP JUMPDEST PUSH2 0x28B1 SWAP2 SWAP1 PUSH2 0x509A JUMP JUMPDEST PUSH2 0x28BB SWAP2 SWAP1 PUSH2 0x5069 JUMP JUMPDEST SWAP1 POP DUP3 PUSH1 0x0 ADD MLOAD PUSH2 0x2901 JUMPI PUSH1 0x40 MLOAD PUSH32 0x8C379A000000000000000000000000000000000000000000000000000000000 DUP2 MSTORE PUSH1 0x4 ADD PUSH2 0x28F8 SWAP1 PUSH2 0x4D69 JUMP JUMPDEST PUSH1 0x40 MLOAD DUP1 SWAP2 SUB SWAP1 REVERT JUMPDEST DUP4 PUSH1 0x0 ADD PUSH1 0x2 SWAP1 SLOAD SWAP1 PUSH2 0x100 EXP SWAP1 DIV PUSH20 0xFFFFFFFFFFFFFFFFFFFFFFFFFFFFFFFFFFFFFFFF AND PUSH20 0xFFFFFFFFFFFFFFFFFFFFFFFFFFFFFFFFFFFFFFFF AND DUP4 PUSH1 0x80 ADD MLOAD PUSH20 0xFFFFFFFFFFFFFFFFFFFFFFFFFFFFFFFFFFFFFFFF AND EQ PUSH2 0x2997 JUMPI PUSH1 0x40 MLOAD PUSH32 0x8C379A000000000000000000000000000000000000000000000000000000000 DUP2 MSTORE PUSH1 0x4 ADD PUSH2 0x298E SWAP1 PUSH2 0x4C49 JUMP JUMPDEST PUSH1 0x40 MLOAD DUP1 SWAP2 SUB SWAP1 REVERT JUMPDEST DUP1 PUSH1 0xB PUSH1 0x0 CALLER PUSH20 0xFFFFFFFFFFFFFFFFFFFFFFFFFFFFFFFFFFFFFFFF AND PUSH20 0xFFFFFFFFFFFFFFFFFFFFFFFFFFFFFFFFFFFFFFFF AND DUP2 MSTORE PUSH1 0x20 ADD SWAP1 DUP2 MSTORE PUSH1 0x20 ADD PUSH1 0x0 KECCAK256 SLOAD GT ISZERO PUSH2 0x2A19 JUMPI PUSH1 0x40 MLOAD PUSH32 0x8C379A000000000000000000000000000000000000000000000000000000000 DUP2 MSTORE PUSH1 0x4 ADD PUSH2 0x2A10 SWAP1 PUSH2 0x4BE9 JUMP JUMPDEST PUSH1 0x40 MLOAD DUP1 SWAP2 SUB SWAP1 REVERT JUMPDEST PUSH1 0x5 DUP2 PUSH2 0x2A26 SWAP2 SWAP1 PUSH2 0x5069 JUMP JUMPDEST PUSH1 0xB PUSH1 0x0 CALLER PUSH20 0xFFFFFFFFFFFFFFFFFFFFFFFFFFFFFFFFFFFFFFFF AND PUSH20 0xFFFFFFFFFFFFFFFFFFFFFFFFFFFFFFFFFFFFFFFF AND DUP2 MSTORE PUSH1 0x20 ADD SWAP1 DUP2 MSTORE PUSH1 0x20 ADD PUSH1 0x0 KECCAK256 PUSH1 0x0 DUP3 DUP3 SLOAD PUSH2 0x2A74 SWAP2 SWAP1 PUSH2 0x4FDC JUMP JUMPDEST SWAP3 POP POP DUP2 SWAP1 SSTORE POP DUP2 PUSH1 0xC0 ADD MLOAD PUSH1 0xFF AND DUP4 PUSH1 0x40 ADD MLOAD PUSH1 0xFF AND GT PUSH2 0x2C1C JUMPI PUSH1 0x0 PUSH1 0x1 SWAP1 SLOAD SWAP1 PUSH2 0x100 EXP SWAP1 DIV PUSH2 0xFFFF AND PUSH1 0xA PUSH1 0x0 DUP7 PUSH1 0x0 ADD PUSH1 0x2 SWAP1 SLOAD SWAP1 PUSH2 0x100 EXP SWAP1 DIV PUSH20 0xFFFFFFFFFFFFFFFFFFFFFFFFFFFFFFFFFFFFFFFF AND PUSH20 0xFFFFFFFFFFFFFFFFFFFFFFFFFFFFFFFFFFFFFFFF AND PUSH20 0xFFFFFFFFFFFFFFFFFFFFFFFFFFFFFFFFFFFFFFFF AND DUP2 MSTORE PUSH1 0x20 ADD SWAP1 DUP2 MSTORE PUSH1 0x20 ADD PUSH1 0x0 KECCAK256 PUSH1 0x0 DUP6 PUSH1 0x20 ADD MLOAD PUSH1 0xFF AND PUSH1 0xFF AND DUP2 MSTORE PUSH1 0x20 ADD SWAP1 DUP2 MSTORE PUSH1 0x20 ADD PUSH1 0x0 KECCAK256 PUSH1 0x0 PUSH2 0x100 EXP DUP2 SLOAD DUP2 PUSH2 0xFFFF MUL NOT AND SWAP1 DUP4 PUSH2 0xFFFF AND MUL OR SWAP1 SSTORE POP PUSH1 0xC DUP6 PUSH1 0x0 ADD PUSH1 0x20 DUP2 ADD SWAP1 PUSH2 0x2B4E SWAP2 SWAP1 PUSH2 0x44A2 JUMP JUMPDEST PUSH1 0xFF AND DUP2 SLOAD DUP2 LT PUSH2 0x2B62 JUMPI PUSH2 0x2B61 PUSH2 0x5372 JUMP JUMPDEST JUMPDEST SWAP1 PUSH1 0x0 MSTORE PUSH1 0x20 PUSH1 0x0 KECCAK256 ADD DUP6 PUSH1 0x20 ADD PUSH1 0x20 DUP2 ADD SWAP1 PUSH2 0x2B7F SWAP2 SWAP1 PUSH2 0x44A2 JUMP JUMPDEST PUSH1 0xFF AND DUP2 SLOAD DUP2 LT PUSH2 0x2B93 JUMPI PUSH2 0x2B92 PUSH2 0x5372 JUMP JUMPDEST JUMPDEST SWAP1 PUSH1 0x0 MSTORE PUSH1 0x20 PUSH1 0x0 KECCAK256 ADD PUSH1 0x0 DUP1 DUP3 ADD PUSH1 0x0 PUSH2 0x100 EXP DUP2 SLOAD SWAP1 PUSH1 0xFF MUL NOT AND SWAP1 SSTORE PUSH1 0x0 DUP3 ADD PUSH1 0x1 PUSH2 0x100 EXP DUP2 SLOAD SWAP1 PUSH1 0xFF MUL NOT AND SWAP1 SSTORE PUSH1 0x0 DUP3 ADD PUSH1 0x2 PUSH2 0x100 EXP DUP2 SLOAD SWAP1 PUSH1 0xFF MUL NOT AND SWAP1 SSTORE PUSH1 0x0 DUP3 ADD PUSH1 0x3 PUSH2 0x100 EXP DUP2 SLOAD SWAP1 PUSH1 0xFF MUL NOT AND SWAP1 SSTORE PUSH1 0x0 DUP3 ADD PUSH1 0x4 PUSH2 0x100 EXP DUP2 SLOAD SWAP1 PUSH20 0xFFFFFFFFFFFFFFFFFFFFFFFFFFFFFFFFFFFFFFFF MUL NOT AND SWAP1 SSTORE POP POP PUSH2 0x2CC8 JUMP JUMPDEST PUSH1 0x3 DUP3 PUSH1 0xC0 ADD MLOAD PUSH2 0x2C2D SWAP2 SWAP1 PUSH2 0x50F4 JUMP JUMPDEST PUSH1 0xC DUP7 PUSH1 0x0 ADD PUSH1 0x20 DUP2 ADD SWAP1 PUSH2 0x2C42 SWAP2 SWAP1 PUSH2 0x44A2 JUMP JUMPDEST PUSH1 0xFF AND DUP2 SLOAD DUP2 LT PUSH2 0x2C56 JUMPI PUSH2 0x2C55 PUSH2 0x5372 JUMP JUMPDEST JUMPDEST SWAP1 PUSH1 0x0 MSTORE PUSH1 0x20 PUSH1 0x0 KECCAK256 ADD DUP7 PUSH1 0x20 ADD PUSH1 0x20 DUP2 ADD SWAP1 PUSH2 0x2C73 SWAP2 SWAP1 PUSH2 0x44A2 JUMP JUMPDEST PUSH1 0xFF AND DUP2 SLOAD DUP2 LT PUSH2 0x2C87 JUMPI PUSH2 0x2C86 PUSH2 0x5372 JUMP JUMPDEST JUMPDEST SWAP1 PUSH1 0x0 MSTORE PUSH1 0x20 PUSH1 0x0 KECCAK256 ADD PUSH1 0x0 ADD PUSH1 0x2 DUP3 DUP3 DUP3 SWAP1 SLOAD SWAP1 PUSH2 0x100 EXP SWAP1 DIV PUSH1 0xFF AND PUSH2 0x2CAF SWAP2 SWAP1 PUSH2 0x5197 JUMP JUMPDEST SWAP3 POP PUSH2 0x100 EXP DUP2 SLOAD DUP2 PUSH1 0xFF MUL NOT AND SWAP1 DUP4 PUSH1 0xFF AND MUL OR SWAP1 SSTORE POP JUMPDEST PUSH32 0xAD81C2D8FF449019CFAF2EDA745547AAE68EFD585520CF7BBAD02CA0FF57AAF1 DUP6 PUSH1 0x0 ADD PUSH1 0x20 DUP2 ADD SWAP1 PUSH2 0x2CFC SWAP2 SWAP1 PUSH2 0x44A2 JUMP JUMPDEST DUP7 PUSH1 0x20 ADD PUSH1 0x20 DUP2 ADD SWAP1 PUSH2 0x2D0F SWAP2 SWAP1 PUSH2 0x44A2 JUMP JUMPDEST PUSH1 0x3 DUP6 PUSH1 0xC0 ADD MLOAD PUSH2 0x2D20 SWAP2 SWAP1 PUSH2 0x50F4 JUMP JUMPDEST PUSH1 0x40 MLOAD PUSH2 0x2D2F SWAP4 SWAP3 SWAP2 SWAP1 PUSH2 0x4E9E JUMP JUMPDEST PUSH1 0x40 MLOAD DUP1 SWAP2 SUB SWAP1 LOG1 POP POP POP POP POP POP JUMP JUMPDEST PUSH1 0x0 PUSH1 0xC DUP4 PUSH1 0x0 ADD PUSH1 0x20 DUP2 ADD SWAP1 PUSH2 0x2D56 SWAP2 SWAP1 PUSH2 0x44A2 JUMP JUMPDEST PUSH1 0xFF AND DUP2 SLOAD DUP2 LT PUSH2 0x2D6A JUMPI PUSH2 0x2D69 PUSH2 0x5372 JUMP JUMPDEST JUMPDEST SWAP1 PUSH1 0x0 MSTORE PUSH1 0x20 PUSH1 0x0 KECCAK256 ADD DUP4 PUSH1 0x20 ADD PUSH1 0x20 DUP2 ADD SWAP1 PUSH2 0x2D87 SWAP2 SWAP1 PUSH2 0x44A2 JUMP JUMPDEST PUSH1 0xFF AND DUP2 SLOAD DUP2 LT PUSH2 0x2D9B JUMPI PUSH2 0x2D9A PUSH2 0x5372 JUMP JUMPDEST JUMPDEST SWAP1 PUSH1 0x0 MSTORE PUSH1 0x20 PUSH1 0x0 KECCAK256 ADD PUSH1 0x40 MLOAD DUP1 PUSH1 0xA0 ADD PUSH1 0x40 MSTORE SWAP1 DUP2 PUSH1 0x0 DUP3 ADD PUSH1 0x0 SWAP1 SLOAD SWAP1 PUSH2 0x100 EXP SWAP1 DIV PUSH1 0xFF AND ISZERO ISZERO ISZERO ISZERO DUP2 MSTORE PUSH1 0x20 ADD PUSH1 0x0 DUP3 ADD PUSH1 0x1 SWAP1 SLOAD SWAP1 PUSH2 0x100 EXP SWAP1 DIV PUSH1 0xFF AND PUSH1 0xFF AND PUSH1 0xFF AND DUP2 MSTORE PUSH1 0x20 ADD PUSH1 0x0 DUP3 ADD PUSH1 0x2 SWAP1 SLOAD SWAP1 PUSH2 0x100 EXP SWAP1 DIV PUSH1 0xFF AND PUSH1 0xFF AND PUSH1 0xFF AND DUP2 MSTORE PUSH1 0x20 ADD PUSH1 0x0 DUP3 ADD PUSH1 0x3 SWAP1 SLOAD SWAP1 PUSH2 0x100 EXP SWAP1 DIV PUSH1 0xFF AND PUSH1 0xFF AND PUSH1 0xFF AND DUP2 MSTORE PUSH1 0x20 ADD PUSH1 0x0 DUP3 ADD PUSH1 0x4 SWAP1 SLOAD SWAP1 PUSH2 0x100 EXP SWAP1 DIV PUSH20 0xFFFFFFFFFFFFFFFFFFFFFFFFFFFFFFFFFFFFFFFF AND PUSH20 0xFFFFFFFFFFFFFFFFFFFFFFFFFFFFFFFFFFFFFFFF AND PUSH20 0xFFFFFFFFFFFFFFFFFFFFFFFFFFFFFFFFFFFFFFFF AND DUP2 MSTORE POP POP SWAP1 POP PUSH1 0x0 PUSH1 0xC DUP4 PUSH1 0x0 ADD PUSH1 0x20 DUP2 ADD SWAP1 PUSH2 0x2E91 SWAP2 SWAP1 PUSH2 0x44A2 JUMP JUMPDEST PUSH1 0xFF AND DUP2 SLOAD DUP2 LT PUSH2 0x2EA5 JUMPI PUSH2 0x2EA4 PUSH2 0x5372 JUMP JUMPDEST JUMPDEST SWAP1 PUSH1 0x0 MSTORE PUSH1 0x20 PUSH1 0x0 KECCAK256 ADD DUP4 PUSH1 0x20 ADD PUSH1 0x20 DUP2 ADD SWAP1 PUSH2 0x2EC2 SWAP2 SWAP1 PUSH2 0x44A2 JUMP JUMPDEST PUSH1 0xFF AND DUP2 SLOAD DUP2 LT PUSH2 0x2ED6 JUMPI PUSH2 0x2ED5 PUSH2 0x5372 JUMP JUMPDEST JUMPDEST SWAP1 PUSH1 0x0 MSTORE PUSH1 0x20 PUSH1 0x0 KECCAK256 ADD PUSH1 0x40 MLOAD DUP1 PUSH1 0xA0 ADD PUSH1 0x40 MSTORE SWAP1 DUP2 PUSH1 0x0 DUP3 ADD PUSH1 0x0 SWAP1 SLOAD SWAP1 PUSH2 0x100 EXP SWAP1 DIV PUSH1 0xFF AND ISZERO ISZERO ISZERO ISZERO DUP2 MSTORE PUSH1 0x20 ADD PUSH1 0x0 DUP3 ADD PUSH1 0x1 SWAP1 SLOAD SWAP1 PUSH2 0x100 EXP SWAP1 DIV PUSH1 0xFF AND PUSH1 0xFF AND PUSH1 0xFF AND DUP2 MSTORE PUSH1 0x20 ADD PUSH1 0x0 DUP3 ADD PUSH1 0x2 SWAP1 SLOAD SWAP1 PUSH2 0x100 EXP SWAP1 DIV PUSH1 0xFF AND PUSH1 0xFF AND PUSH1 0xFF AND DUP2 MSTORE PUSH1 0x20 ADD PUSH1 0x0 DUP3 ADD PUSH1 0x3 SWAP1 SLOAD SWAP1 PUSH2 0x100 EXP SWAP1 DIV PUSH1 0xFF AND PUSH1 0xFF AND PUSH1 0xFF AND DUP2 MSTORE PUSH1 0x20 ADD PUSH1 0x0 DUP3 ADD PUSH1 0x4 SWAP1 SLOAD SWAP1 PUSH2 0x100 EXP SWAP1 DIV PUSH20 0xFFFFFFFFFFFFFFFFFFFFFFFFFFFFFFFFFFFFFFFF AND PUSH20 0xFFFFFFFFFFFFFFFFFFFFFFFFFFFFFFFFFFFFFFFF AND PUSH20 0xFFFFFFFFFFFFFFFFFFFFFFFFFFFFFFFFFFFFFFFF AND DUP2 MSTORE POP POP SWAP1 POP PUSH1 0x0 PUSH1 0x3 PUSH1 0x0 SWAP1 SLOAD SWAP1 PUSH2 0x100 EXP SWAP1 DIV PUSH20 0xFFFFFFFFFFFFFFFFFFFFFFFFFFFFFFFFFFFFFFFF AND PUSH20 0xFFFFFFFFFFFFFFFFFFFFFFFFFFFFFFFFFFFFFFFF AND PUSH4 0x9188D312 DUP5 PUSH1 0x60 ADD MLOAD PUSH1 0x40 MLOAD DUP3 PUSH4 0xFFFFFFFF AND PUSH1 0xE0 SHL DUP2 MSTORE PUSH1 0x4 ADD PUSH2 0x3016 SWAP2 SWAP1 PUSH2 0x4E3F JUMP JUMPDEST PUSH1 0xE0 PUSH1 0x40 MLOAD DUP1 DUP4 SUB DUP2 DUP7 DUP1 EXTCODESIZE ISZERO DUP1 ISZERO PUSH2 0x302E JUMPI PUSH1 0x0 DUP1 REVERT JUMPDEST POP GAS STATICCALL ISZERO DUP1 ISZERO PUSH2 0x3042 JUMPI RETURNDATASIZE PUSH1 0x0 DUP1 RETURNDATACOPY RETURNDATASIZE PUSH1 0x0 REVERT JUMPDEST POP POP POP POP PUSH1 0x40 MLOAD RETURNDATASIZE PUSH1 0x1F NOT PUSH1 0x1F DUP3 ADD AND DUP3 ADD DUP1 PUSH1 0x40 MSTORE POP DUP2 ADD SWAP1 PUSH2 0x3066 SWAP2 SWAP1 PUSH2 0x4408 JUMP JUMPDEST SWAP1 POP CALLER PUSH20 0xFFFFFFFFFFFFFFFFFFFFFFFFFFFFFFFFFFFFFFFF AND DUP4 PUSH1 0x80 ADD MLOAD PUSH20 0xFFFFFFFFFFFFFFFFFFFFFFFFFFFFFFFFFFFFFFFF AND EQ PUSH2 0x30DA JUMPI PUSH1 0x40 MLOAD PUSH32 0x8C379A000000000000000000000000000000000000000000000000000000000 DUP2 MSTORE PUSH1 0x4 ADD PUSH2 0x30D1 SWAP1 PUSH2 0x4C89 JUMP JUMPDEST PUSH1 0x40 MLOAD DUP1 SWAP2 SUB SWAP1 REVERT JUMPDEST DUP2 PUSH1 0x0 ADD MLOAD PUSH2 0x311E JUMPI PUSH1 0x40 MLOAD PUSH32 0x8C379A000000000000000000000000000000000000000000000000000000000 DUP2 MSTORE PUSH1 0x4 ADD PUSH2 0x3115 SWAP1 PUSH2 0x4D69 JUMP JUMPDEST PUSH1 0x40 MLOAD DUP1 SWAP2 SUB SWAP1 REVERT JUMPDEST CALLER PUSH20 0xFFFFFFFFFFFFFFFFFFFFFFFFFFFFFFFFFFFFFFFF AND DUP3 PUSH1 0x80 ADD MLOAD PUSH20 0xFFFFFFFFFFFFFFFFFFFFFFFFFFFFFFFFFFFFFFFF AND EQ PUSH2 0x3190 JUMPI PUSH1 0x40 MLOAD PUSH32 0x8C379A000000000000000000000000000000000000000000000000000000000 DUP2 MSTORE PUSH1 0x4 ADD PUSH2 0x3187 SWAP1 PUSH2 0x4D49 JUMP JUMPDEST PUSH1 0x40 MLOAD DUP1 SWAP2 SUB SWAP1 REVERT JUMPDEST PUSH1 0x1 DUP1 DUP2 GT ISZERO PUSH2 0x31A3 JUMPI PUSH2 0x31A2 PUSH2 0x5343 JUMP JUMPDEST JUMPDEST DUP2 PUSH1 0x20 ADD MLOAD PUSH1 0x1 DUP2 GT ISZERO PUSH2 0x31BA JUMPI PUSH2 0x31B9 PUSH2 0x5343 JUMP JUMPDEST JUMPDEST EQ PUSH2 0x31FA JUMPI PUSH1 0x40 MLOAD PUSH32 0x8C379A000000000000000000000000000000000000000000000000000000000 DUP2 MSTORE PUSH1 0x4 ADD PUSH2 0x31F1 SWAP1 PUSH2 0x4BC9 JUMP JUMPDEST PUSH1 0x40 MLOAD DUP1 SWAP2 SUB SWAP1 REVERT JUMPDEST PUSH1 0x0 PUSH1 0x4 PUSH1 0x0 ADD PUSH1 0x2 SWAP1 SLOAD SWAP1 PUSH2 0x100 EXP SWAP1 DIV PUSH20 0xFFFFFFFFFFFFFFFFFFFFFFFFFFFFFFFFFFFFFFFF AND PUSH20 0xFFFFFFFFFFFFFFFFFFFFFFFFFFFFFFFFFFFFFFFF AND PUSH1 0x8 PUSH1 0x0 ADD PUSH1 0x2 SWAP1 SLOAD SWAP1 PUSH2 0x100 EXP SWAP1 DIV PUSH20 0xFFFFFFFFFFFFFFFFFFFFFFFFFFFFFFFFFFFFFFFF AND PUSH20 0xFFFFFFFFFFFFFFFFFFFFFFFFFFFFFFFFFFFFFFFF AND EQ SWAP1 POP PUSH1 0x0 DUP2 PUSH2 0x32B3 JUMPI DUP6 PUSH1 0x0 ADD PUSH1 0x20 DUP2 ADD SWAP1 PUSH2 0x3291 SWAP2 SWAP1 PUSH2 0x44A2 JUMP JUMPDEST DUP8 PUSH1 0x0 ADD PUSH1 0x20 DUP2 ADD SWAP1 PUSH2 0x32A4 SWAP2 SWAP1 PUSH2 0x44A2 JUMP JUMPDEST PUSH2 0x32AE SWAP2 SWAP1 PUSH2 0x5197 JUMP JUMPDEST PUSH2 0x32E4 JUMP JUMPDEST DUP7 PUSH1 0x0 ADD PUSH1 0x20 DUP2 ADD SWAP1 PUSH2 0x32C6 SWAP2 SWAP1 PUSH2 0x44A2 JUMP JUMPDEST DUP7 PUSH1 0x0 ADD PUSH1 0x20 DUP2 ADD SWAP1 PUSH2 0x32D9 SWAP2 SWAP1 PUSH2 0x44A2 JUMP JUMPDEST PUSH2 0x32E3 SWAP2 SWAP1 PUSH2 0x5197 JUMP JUMPDEST JUMPDEST SWAP1 POP PUSH1 0x0 DUP8 PUSH1 0x20 ADD PUSH1 0x20 DUP2 ADD SWAP1 PUSH2 0x32FB SWAP2 SWAP1 PUSH2 0x44A2 JUMP JUMPDEST PUSH1 0xFF AND DUP8 PUSH1 0x20 ADD PUSH1 0x20 DUP2 ADD SWAP1 PUSH2 0x3311 SWAP2 SWAP1 PUSH2 0x44A2 JUMP JUMPDEST PUSH1 0xFF AND LT ISZERO PUSH2 0x334F JUMPI DUP7 PUSH1 0x20 ADD PUSH1 0x20 DUP2 ADD SWAP1 PUSH2 0x332D SWAP2 SWAP1 PUSH2 0x44A2 JUMP JUMPDEST DUP9 PUSH1 0x20 ADD PUSH1 0x20 DUP2 ADD SWAP1 PUSH2 0x3340 SWAP2 SWAP1 PUSH2 0x44A2 JUMP JUMPDEST PUSH2 0x334A SWAP2 SWAP1 PUSH2 0x5197 JUMP JUMPDEST PUSH2 0x3380 JUMP JUMPDEST DUP8 PUSH1 0x20 ADD PUSH1 0x20 DUP2 ADD SWAP1 PUSH2 0x3362 SWAP2 SWAP1 PUSH2 0x44A2 JUMP JUMPDEST DUP8 PUSH1 0x20 ADD PUSH1 0x20 DUP2 ADD SWAP1 PUSH2 0x3375 SWAP2 SWAP1 PUSH2 0x44A2 JUMP JUMPDEST PUSH2 0x337F SWAP2 SWAP1 PUSH2 0x5197 JUMP JUMPDEST JUMPDEST SWAP1 POP DUP4 PUSH1 0x60 ADD MLOAD PUSH1 0xFF AND DUP3 PUSH1 0xFF AND GT ISZERO DUP1 ISZERO PUSH2 0x33A6 JUMPI POP DUP4 PUSH1 0x40 ADD MLOAD PUSH1 0xFF AND DUP2 PUSH1 0xFF AND GT ISZERO JUMPDEST PUSH2 0x33E5 JUMPI PUSH1 0x40 MLOAD PUSH32 0x8C379A000000000000000000000000000000000000000000000000000000000 DUP2 MSTORE PUSH1 0x4 ADD PUSH2 0x33DC SWAP1 PUSH2 0x4DC9 JUMP JUMPDEST PUSH1 0x40 MLOAD DUP1 SWAP2 SUB SWAP1 REVERT JUMPDEST PUSH1 0x1 PUSH1 0xFF AND PUSH1 0x8 PUSH1 0x0 ADD PUSH1 0x1 SWAP1 SLOAD SWAP1 PUSH2 0x100 EXP SWAP1 DIV PUSH1 0xFF AND PUSH1 0xFF AND GT PUSH2 0x3440 JUMPI PUSH1 0x40 MLOAD PUSH32 0x8C379A000000000000000000000000000000000000000000000000000000000 DUP2 MSTORE PUSH1 0x4 ADD PUSH2 0x3437 SWAP1 PUSH2 0x4C69 JUMP JUMPDEST PUSH1 0x40 MLOAD DUP1 SWAP2 SUB SWAP1 REVERT JUMPDEST PUSH1 0x1 PUSH1 0x8 PUSH1 0x0 ADD PUSH1 0x1 DUP3 DUP3 DUP3 SWAP1 SLOAD SWAP1 PUSH2 0x100 EXP SWAP1 DIV PUSH1 0xFF AND PUSH2 0x3462 SWAP2 SWAP1 PUSH2 0x5197 JUMP JUMPDEST SWAP3 POP PUSH2 0x100 EXP DUP2 SLOAD DUP2 PUSH1 0xFF MUL NOT AND SWAP1 DUP4 PUSH1 0xFF AND MUL OR SWAP1 SSTORE POP DUP4 PUSH1 0xC0 ADD MLOAD PUSH1 0xC DUP9 PUSH1 0x0 ADD PUSH1 0x20 DUP2 ADD SWAP1 PUSH2 0x3494 SWAP2 SWAP1 PUSH2 0x44A2 JUMP JUMPDEST PUSH1 0xFF AND DUP2 SLOAD DUP2 LT PUSH2 0x34A8 JUMPI PUSH2 0x34A7 PUSH2 0x5372 JUMP JUMPDEST JUMPDEST SWAP1 PUSH1 0x0 MSTORE PUSH1 0x20 PUSH1 0x0 KECCAK256 ADD DUP9 PUSH1 0x20 ADD PUSH1 0x20 DUP2 ADD SWAP1 PUSH2 0x34C5 SWAP2 SWAP1 PUSH2 0x44A2 JUMP JUMPDEST PUSH1 0xFF AND DUP2 SLOAD DUP2 LT PUSH2 0x34D9 JUMPI PUSH2 0x34D8 PUSH2 0x5372 JUMP JUMPDEST JUMPDEST SWAP1 PUSH1 0x0 MSTORE PUSH1 0x20 PUSH1 0x0 KECCAK256 ADD PUSH1 0x0 ADD PUSH1 0x2 DUP3 DUP3 DUP3 SWAP1 SLOAD SWAP1 PUSH2 0x100 EXP SWAP1 DIV PUSH1 0xFF AND PUSH2 0x3501 SWAP2 SWAP1 PUSH2 0x5032 JUMP JUMPDEST SWAP3 POP PUSH2 0x100 EXP DUP2 SLOAD DUP2 PUSH1 0xFF MUL NOT AND SWAP1 DUP4 PUSH1 0xFF AND MUL OR SWAP1 SSTORE POP PUSH32 0x8755E3DE7285D4F55C28476287892F02FA00FE2A9476FD9F76AA96DDCE5A1237 DUP9 PUSH1 0x0 ADD PUSH1 0x20 DUP2 ADD SWAP1 PUSH2 0x354D SWAP2 SWAP1 PUSH2 0x44A2 JUMP JUMPDEST DUP10 PUSH1 0x20 ADD PUSH1 0x20 DUP2 ADD SWAP1 PUSH2 0x3560 SWAP2 SWAP1 PUSH2 0x44A2 JUMP JUMPDEST DUP10 PUSH1 0x0 ADD PUSH1 0x20 DUP2 ADD SWAP1 PUSH2 0x3573 SWAP2 SWAP1 PUSH2 0x44A2 JUMP JUMPDEST DUP11 PUSH1 0x20 ADD PUSH1 0x20 DUP2 ADD SWAP1 PUSH2 0x3586 SWAP2 SWAP1 PUSH2 0x44A2 JUMP JUMPDEST DUP9 PUSH1 0xC0 ADD MLOAD PUSH1 0x40 MLOAD PUSH2 0x359C SWAP6 SWAP5 SWAP4 SWAP3 SWAP2 SWAP1 PUSH2 0x4F1A JUMP JUMPDEST PUSH1 0x40 MLOAD DUP1 SWAP2 SUB SWAP1 LOG1 POP POP POP POP POP POP POP POP JUMP JUMPDEST PUSH1 0x0 PUSH1 0xC DUP3 PUSH1 0x0 ADD PUSH1 0x20 DUP2 ADD SWAP1 PUSH2 0x35C5 SWAP2 SWAP1 PUSH2 0x44A2 JUMP JUMPDEST PUSH1 0xFF AND DUP2 SLOAD DUP2 LT PUSH2 0x35D9 JUMPI PUSH2 0x35D8 PUSH2 0x5372 JUMP JUMPDEST JUMPDEST SWAP1 PUSH1 0x0 MSTORE PUSH1 0x20 PUSH1 0x0 KECCAK256 ADD DUP3 PUSH1 0x20 ADD PUSH1 0x20 DUP2 ADD SWAP1 PUSH2 0x35F6 SWAP2 SWAP1 PUSH2 0x44A2 JUMP JUMPDEST PUSH1 0xFF AND DUP2 SLOAD DUP2 LT PUSH2 0x360A JUMPI PUSH2 0x3609 PUSH2 0x5372 JUMP JUMPDEST JUMPDEST SWAP1 PUSH1 0x0 MSTORE PUSH1 0x20 PUSH1 0x0 KECCAK256 ADD PUSH1 0x40 MLOAD DUP1 PUSH1 0xA0 ADD PUSH1 0x40 MSTORE SWAP1 DUP2 PUSH1 0x0 DUP3 ADD PUSH1 0x0 SWAP1 SLOAD SWAP1 PUSH2 0x100 EXP SWAP1 DIV PUSH1 0xFF AND ISZERO ISZERO ISZERO ISZERO DUP2 MSTORE PUSH1 0x20 ADD PUSH1 0x0 DUP3 ADD PUSH1 0x1 SWAP1 SLOAD SWAP1 PUSH2 0x100 EXP SWAP1 DIV PUSH1 0xFF AND PUSH1 0xFF AND PUSH1 0xFF AND DUP2 MSTORE PUSH1 0x20 ADD PUSH1 0x0 DUP3 ADD PUSH1 0x2 SWAP1 SLOAD SWAP1 PUSH2 0x100 EXP SWAP1 DIV PUSH1 0xFF AND PUSH1 0xFF AND PUSH1 0xFF AND DUP2 MSTORE PUSH1 0x20 ADD PUSH1 0x0 DUP3 ADD PUSH1 0x3 SWAP1 SLOAD SWAP1 PUSH2 0x100 EXP SWAP1 DIV PUSH1 0xFF AND PUSH1 0xFF AND PUSH1 0xFF AND DUP2 MSTORE PUSH1 0x20 ADD PUSH1 0x0 DUP3 ADD PUSH1 0x4 SWAP1 SLOAD SWAP1 PUSH2 0x100 EXP SWAP1 DIV PUSH20 0xFFFFFFFFFFFFFFFFFFFFFFFFFFFFFFFFFFFFFFFF AND PUSH20 0xFFFFFFFFFFFFFFFFFFFFFFFFFFFFFFFFFFFFFFFF AND PUSH20 0xFFFFFFFFFFFFFFFFFFFFFFFFFFFFFFFFFFFFFFFF AND DUP2 MSTORE POP POP SWAP1 POP PUSH1 0x0 PUSH1 0x3 PUSH1 0x0 SWAP1 SLOAD SWAP1 PUSH2 0x100 EXP SWAP1 DIV PUSH20 0xFFFFFFFFFFFFFFFFFFFFFFFFFFFFFFFFFFFFFFFF AND PUSH20 0xFFFFFFFFFFFFFFFFFFFFFFFFFFFFFFFFFFFFFFFF AND PUSH4 0x9188D312 PUSH1 0x8 PUSH1 0x1 ADD DUP7 PUSH1 0xFF AND DUP2 SLOAD DUP2 LT PUSH2 0x3743 JUMPI PUSH2 0x3742 PUSH2 0x5372 JUMP JUMPDEST JUMPDEST SWAP1 PUSH1 0x0 MSTORE PUSH1 0x20 PUSH1 0x0 KECCAK256 SWAP1 PUSH1 0x20 SWAP2 DUP3 DUP3 DIV ADD SWAP2 SWAP1 MOD SWAP1 SLOAD SWAP1 PUSH2 0x100 EXP SWAP1 DIV PUSH1 0xFF AND PUSH1 0x40 MLOAD DUP3 PUSH4 0xFFFFFFFF AND PUSH1 0xE0 SHL DUP2 MSTORE PUSH1 0x4 ADD PUSH2 0x377F SWAP2 SWAP1 PUSH2 0x4E3F JUMP JUMPDEST PUSH1 0xE0 PUSH1 0x40 MLOAD DUP1 DUP4 SUB DUP2 DUP7 DUP1 EXTCODESIZE ISZERO DUP1 ISZERO PUSH2 0x3797 JUMPI PUSH1 0x0 DUP1 REVERT JUMPDEST POP GAS STATICCALL ISZERO DUP1 ISZERO PUSH2 0x37AB JUMPI RETURNDATASIZE PUSH1 0x0 DUP1 RETURNDATACOPY RETURNDATASIZE PUSH1 0x0 REVERT JUMPDEST POP POP POP POP PUSH1 0x40 MLOAD RETURNDATASIZE PUSH1 0x1F NOT PUSH1 0x1F DUP3 ADD AND DUP3 ADD DUP1 PUSH1 0x40 MSTORE POP DUP2 ADD SWAP1 PUSH2 0x37CF SWAP2 SWAP1 PUSH2 0x4408 JUMP JUMPDEST SWAP1 POP PUSH1 0x0 PUSH2 0x3E8 PUSH32 0x0 PUSH2 0xFFFF AND PUSH1 0x2 PUSH1 0x0 SWAP1 SLOAD SWAP1 PUSH2 0x100 EXP SWAP1 DIV PUSH20 0xFFFFFFFFFFFFFFFFFFFFFFFFFFFFFFFFFFFFFFFF AND PUSH20 0xFFFFFFFFFFFFFFFFFFFFFFFFFFFFFFFFFFFFFFFF AND PUSH4 0xDD62ED3E PUSH32 0x0 ADDRESS PUSH1 0x40 MLOAD DUP4 PUSH4 0xFFFFFFFF AND PUSH1 0xE0 SHL DUP2 MSTORE PUSH1 0x4 ADD PUSH2 0x3878 SWAP3 SWAP2 SWAP1 PUSH2 0x49EB JUMP JUMPDEST PUSH1 0x20 PUSH1 0x40 MLOAD DUP1 DUP4 SUB DUP2 DUP7 DUP1 EXTCODESIZE ISZERO DUP1 ISZERO PUSH2 0x3890 JUMPI PUSH1 0x0 DUP1 REVERT JUMPDEST POP GAS STATICCALL ISZERO DUP1 ISZERO PUSH2 0x38A4 JUMPI RETURNDATASIZE PUSH1 0x0 DUP1 RETURNDATACOPY RETURNDATASIZE PUSH1 0x0 REVERT JUMPDEST POP POP POP POP PUSH1 0x40 MLOAD RETURNDATASIZE PUSH1 0x1F NOT PUSH1 0x1F DUP3 ADD AND DUP3 ADD DUP1 PUSH1 0x40 MSTORE POP DUP2 ADD SWAP1 PUSH2 0x38C8 SWAP2 SWAP1 PUSH2 0x4435 JUMP JUMPDEST PUSH2 0x38D2 SWAP2 SWAP1 PUSH2 0x509A JUMP JUMPDEST PUSH2 0x38DC SWAP2 SWAP1 PUSH2 0x5069 JUMP JUMPDEST SWAP1 POP DUP1 PUSH1 0xB PUSH1 0x0 CALLER PUSH20 0xFFFFFFFFFFFFFFFFFFFFFFFFFFFFFFFFFFFFFFFF AND PUSH20 0xFFFFFFFFFFFFFFFFFFFFFFFFFFFFFFFFFFFFFFFF AND DUP2 MSTORE PUSH1 0x20 ADD SWAP1 DUP2 MSTORE PUSH1 0x20 ADD PUSH1 0x0 KECCAK256 SLOAD GT ISZERO PUSH2 0x3960 JUMPI PUSH1 0x40 MLOAD PUSH32 0x8C379A000000000000000000000000000000000000000000000000000000000 DUP2 MSTORE PUSH1 0x4 ADD PUSH2 0x3957 SWAP1 PUSH2 0x4BE9 JUMP JUMPDEST PUSH1 0x40 MLOAD DUP1 SWAP2 SUB SWAP1 REVERT JUMPDEST PUSH1 0x1 DUP1 DUP2 GT ISZERO PUSH2 0x3973 JUMPI PUSH2 0x3972 PUSH2 0x5343 JUMP JUMPDEST JUMPDEST DUP3 PUSH1 0x20 ADD MLOAD PUSH1 0x1 DUP2 GT ISZERO PUSH2 0x398A JUMPI PUSH2 0x3989 PUSH2 0x5343 JUMP JUMPDEST JUMPDEST EQ PUSH2 0x39CA JUMPI PUSH1 0x40 MLOAD PUSH32 0x8C379A000000000000000000000000000000000000000000000000000000000 DUP2 MSTORE PUSH1 0x4 ADD PUSH2 0x39C1 SWAP1 PUSH2 0x4BC9 JUMP JUMPDEST PUSH1 0x40 MLOAD DUP1 SWAP2 SUB SWAP1 REVERT JUMPDEST DUP3 PUSH1 0x0 ADD MLOAD PUSH2 0x3A0E JUMPI PUSH1 0x40 MLOAD PUSH32 0x8C379A000000000000000000000000000000000000000000000000000000000 DUP2 MSTORE PUSH1 0x4 ADD PUSH2 0x3A05 SWAP1 PUSH2 0x4D69 JUMP JUMPDEST PUSH1 0x40 MLOAD DUP1 SWAP2 SUB SWAP1 REVERT JUMPDEST CALLER PUSH20 0xFFFFFFFFFFFFFFFFFFFFFFFFFFFFFFFFFFFFFFFF AND DUP4 PUSH1 0x80 ADD MLOAD PUSH20 0xFFFFFFFFFFFFFFFFFFFFFFFFFFFFFFFFFFFFFFFF AND EQ PUSH2 0x3A80 JUMPI PUSH1 0x40 MLOAD PUSH32 0x8C379A000000000000000000000000000000000000000000000000000000000 DUP2 MSTORE PUSH1 0x4 ADD PUSH2 0x3A77 SWAP1 PUSH2 0x4D49 JUMP JUMPDEST PUSH1 0x40 MLOAD DUP1 SWAP2 SUB SWAP1 REVERT JUMPDEST PUSH1 0x5 DUP2 PUSH2 0x3A8D SWAP2 SWAP1 PUSH2 0x5069 JUMP JUMPDEST PUSH1 0xB PUSH1 0x0 CALLER PUSH20 0xFFFFFFFFFFFFFFFFFFFFFFFFFFFFFFFFFFFFFFFF AND PUSH20 0xFFFFFFFFFFFFFFFFFFFFFFFFFFFFFFFFFFFFFFFF AND DUP2 MSTORE PUSH1 0x20 ADD SWAP1 DUP2 MSTORE PUSH1 0x20 ADD PUSH1 0x0 KECCAK256 PUSH1 0x0 DUP3 DUP3 SLOAD PUSH2 0x3ADB SWAP2 SWAP1 PUSH2 0x4FDC JUMP JUMPDEST SWAP3 POP POP DUP2 SWAP1 SSTORE POP PUSH1 0x3 DUP3 PUSH1 0xC0 ADD MLOAD PUSH2 0x3AF3 SWAP2 SWAP1 PUSH2 0x50F4 JUMP JUMPDEST PUSH1 0xC DUP6 PUSH1 0x0 ADD PUSH1 0x20 DUP2 ADD SWAP1 PUSH2 0x3B08 SWAP2 SWAP1 PUSH2 0x44A2 JUMP JUMPDEST PUSH1 0xFF AND DUP2 SLOAD DUP2 LT PUSH2 0x3B1C JUMPI PUSH2 0x3B1B PUSH2 0x5372 JUMP JUMPDEST JUMPDEST SWAP1 PUSH1 0x0 MSTORE PUSH1 0x20 PUSH1 0x0 KECCAK256 ADD DUP6 PUSH1 0x20 ADD PUSH1 0x20 DUP2 ADD SWAP1 PUSH2 0x3B39 SWAP2 SWAP1 PUSH2 0x44A2 JUMP JUMPDEST PUSH1 0xFF AND DUP2 SLOAD DUP2 LT PUSH2 0x3B4D JUMPI PUSH2 0x3B4C PUSH2 0x5372 JUMP JUMPDEST JUMPDEST SWAP1 PUSH1 0x0 MSTORE PUSH1 0x20 PUSH1 0x0 KECCAK256 ADD PUSH1 0x0 ADD PUSH1 0x2 DUP3 DUP3 DUP3 SWAP1 SLOAD SWAP1 PUSH2 0x100 EXP SWAP1 DIV PUSH1 0xFF AND PUSH2 0x3B75 SWAP2 SWAP1 PUSH2 0x5032 JUMP JUMPDEST SWAP3 POP PUSH2 0x100 EXP DUP2 SLOAD DUP2 PUSH1 0xFF MUL NOT AND SWAP1 DUP4 PUSH1 0xFF AND MUL OR SWAP1 SSTORE POP PUSH32 0xB66F84BE78126463140B4FCD1F22EBE400BB165705BBFDD215781A0A0678660E DUP5 PUSH1 0x0 ADD PUSH1 0x20 DUP2 ADD SWAP1 PUSH2 0x3BC1 SWAP2 SWAP1 PUSH2 0x44A2 JUMP JUMPDEST DUP6 PUSH1 0x20 ADD PUSH1 0x20 DUP2 ADD SWAP1 PUSH2 0x3BD4 SWAP2 SWAP1 PUSH2 0x44A2 JUMP JUMPDEST PUSH1 0x3 DUP6 PUSH1 0xC0 ADD MLOAD PUSH2 0x3BE5 SWAP2 SWAP1 PUSH2 0x50F4 JUMP JUMPDEST PUSH1 0x40 MLOAD PUSH2 0x3BF4 SWAP4 SWAP3 SWAP2 SWAP1 PUSH2 0x4E9E JUMP JUMPDEST PUSH1 0x40 MLOAD DUP1 SWAP2 SUB SWAP1 LOG1 POP POP POP POP POP JUMP JUMPDEST PUSH1 0x0 PUSH1 0x2 PUSH1 0x0 SWAP1 SLOAD SWAP1 PUSH2 0x100 EXP SWAP1 DIV PUSH20 0xFFFFFFFFFFFFFFFFFFFFFFFFFFFFFFFFFFFFFFFF AND PUSH20 0xFFFFFFFFFFFFFFFFFFFFFFFFFFFFFFFFFFFFFFFF AND PUSH4 0xDD62ED3E PUSH32 0x0 ADDRESS PUSH1 0x40 MLOAD DUP4 PUSH4 0xFFFFFFFF AND PUSH1 0xE0 SHL DUP2 MSTORE PUSH1 0x4 ADD PUSH2 0x3C82 SWAP3 SWAP2 SWAP1 PUSH2 0x49EB JUMP JUMPDEST PUSH1 0x20 PUSH1 0x40 MLOAD DUP1 DUP4 SUB DUP2 DUP7 DUP1 EXTCODESIZE ISZERO DUP1 ISZERO PUSH2 0x3C9A JUMPI PUSH1 0x0 DUP1 REVERT JUMPDEST POP GAS STATICCALL ISZERO DUP1 ISZERO PUSH2 0x3CAE JUMPI RETURNDATASIZE PUSH1 0x0 DUP1 RETURNDATACOPY RETURNDATASIZE PUSH1 0x0 REVERT JUMPDEST POP POP POP POP PUSH1 0x40 MLOAD RETURNDATASIZE PUSH1 0x1F NOT PUSH1 0x1F DUP3 ADD AND DUP3 ADD DUP1 PUSH1 0x40 MSTORE POP DUP2 ADD SWAP1 PUSH2 0x3CD2 SWAP2 SWAP1 PUSH2 0x4435 JUMP JUMPDEST SWAP1 POP PUSH1 0x2 PUSH1 0x0 SWAP1 SLOAD SWAP1 PUSH2 0x100 EXP SWAP1 DIV PUSH20 0xFFFFFFFFFFFFFFFFFFFFFFFFFFFFFFFFFFFFFFFF AND PUSH20 0xFFFFFFFFFFFFFFFFFFFFFFFFFFFFFFFFFFFFFFFF AND PUSH4 0x23B872DD PUSH32 0x0 DUP6 PUSH1 0xB PUSH1 0x0 DUP9 PUSH20 0xFFFFFFFFFFFFFFFFFFFFFFFFFFFFFFFFFFFFFFFF AND PUSH20 0xFFFFFFFFFFFFFFFFFFFFFFFFFFFFFFFFFFFFFFFF AND DUP2 MSTORE PUSH1 0x20 ADD SWAP1 DUP2 MSTORE PUSH1 0x20 ADD PUSH1 0x0 KECCAK256 SLOAD PUSH2 0x3E8 PUSH32 0x0 PUSH2 0xFFFF AND DUP8 PUSH2 0x3DA7 SWAP2 SWAP1 PUSH2 0x509A JUMP JUMPDEST PUSH2 0x3DB1 SWAP2 SWAP1 PUSH2 0x5069 JUMP JUMPDEST PUSH2 0x3DBB SWAP2 SWAP1 PUSH2 0x5163 JUMP JUMPDEST PUSH1 0x40 MLOAD DUP5 PUSH4 0xFFFFFFFF AND PUSH1 0xE0 SHL DUP2 MSTORE PUSH1 0x4 ADD PUSH2 0x3DD9 SWAP4 SWAP3 SWAP2 SWAP1 PUSH2 0x4A14 JUMP JUMPDEST PUSH1 0x20 PUSH1 0x40 MLOAD DUP1 DUP4 SUB DUP2 PUSH1 0x0 DUP8 DUP1 EXTCODESIZE ISZERO DUP1 ISZERO PUSH2 0x3DF3 JUMPI PUSH1 0x0 DUP1 REVERT JUMPDEST POP GAS CALL ISZERO DUP1 ISZERO PUSH2 0x3E07 JUMPI RETURNDATASIZE PUSH1 0x0 DUP1 RETURNDATACOPY RETURNDATASIZE PUSH1 0x0 REVERT JUMPDEST POP POP POP POP PUSH1 0x40 MLOAD RETURNDATASIZE PUSH1 0x1F NOT PUSH1 0x1F DUP3 ADD AND DUP3 ADD DUP1 PUSH1 0x40 MSTORE POP DUP2 ADD SWAP1 PUSH2 0x3E2B SWAP2 SWAP1 PUSH2 0x43AE JUMP JUMPDEST PUSH2 0x3E6A JUMPI PUSH1 0x40 MLOAD PUSH32 0x8C379A000000000000000000000000000000000000000000000000000000000 DUP2 MSTORE PUSH1 0x4 ADD PUSH2 0x3E61 SWAP1 PUSH2 0x4D29 JUMP JUMPDEST PUSH1 0x40 MLOAD DUP1 SWAP2 SUB SWAP1 REVERT JUMPDEST PUSH1 0x2 PUSH1 0x0 SWAP1 SLOAD SWAP1 PUSH2 0x100 EXP SWAP1 DIV PUSH20 0xFFFFFFFFFFFFFFFFFFFFFFFFFFFFFFFFFFFFFFFF AND PUSH20 0xFFFFFFFFFFFFFFFFFFFFFFFFFFFFFFFFFFFFFFFF AND PUSH4 0x23B872DD PUSH32 0x0 PUSH32 0x0 PUSH2 0x3E8 PUSH32 0x0 PUSH2 0xFFFF AND DUP7 PUSH2 0x3F1D SWAP2 SWAP1 PUSH2 0x509A JUMP JUMPDEST PUSH2 0x3F27 SWAP2 SWAP1 PUSH2 0x5069 JUMP JUMPDEST PUSH1 0x40 MLOAD DUP5 PUSH4 0xFFFFFFFF AND PUSH1 0xE0 SHL DUP2 MSTORE PUSH1 0x4 ADD PUSH2 0x3F45 SWAP4 SWAP3 SWAP2 SWAP1 PUSH2 0x4A14 JUMP JUMPDEST PUSH1 0x20 PUSH1 0x40 MLOAD DUP1 DUP4 SUB DUP2 PUSH1 0x0 DUP8 DUP1 EXTCODESIZE ISZERO DUP1 ISZERO PUSH2 0x3F5F JUMPI PUSH1 0x0 DUP1 REVERT JUMPDEST POP GAS CALL ISZERO DUP1 ISZERO PUSH2 0x3F73 JUMPI RETURNDATASIZE PUSH1 0x0 DUP1 RETURNDATACOPY RETURNDATASIZE PUSH1 0x0 REVERT JUMPDEST POP POP POP POP PUSH1 0x40 MLOAD RETURNDATASIZE PUSH1 0x1F NOT PUSH1 0x1F DUP3 ADD AND DUP3 ADD DUP1 PUSH1 0x40 MSTORE POP DUP2 ADD SWAP1 PUSH2 0x3F97 SWAP2 SWAP1 PUSH2 0x43AE JUMP JUMPDEST PUSH2 0x3FD6 JUMPI PUSH1 0x40 MLOAD PUSH32 0x8C379A000000000000000000000000000000000000000000000000000000000 DUP2 MSTORE PUSH1 0x4 ADD PUSH2 0x3FCD SWAP1 PUSH2 0x4DA9 JUMP JUMPDEST PUSH1 0x40 MLOAD DUP1 SWAP2 SUB SWAP1 REVERT JUMPDEST PUSH1 0x1 PUSH1 0x0 SWAP1 SLOAD SWAP1 PUSH2 0x100 EXP SWAP1 DIV PUSH20 0xFFFFFFFFFFFFFFFFFFFFFFFFFFFFFFFFFFFFFFFF AND PUSH20 0xFFFFFFFFFFFFFFFFFFFFFFFFFFFFFFFFFFFFFFFF AND PUSH4 0x40C10F19 DUP5 PUSH1 0xA PUSH1 0x40 MLOAD DUP4 PUSH4 0xFFFFFFFF AND PUSH1 0xE0 SHL DUP2 MSTORE PUSH1 0x4 ADD PUSH2 0x4034 SWAP3 SWAP2 SWAP1 PUSH2 0x4A4B JUMP JUMPDEST PUSH1 0x0 PUSH1 0x40 MLOAD DUP1 DUP4 SUB DUP2 PUSH1 0x0 DUP8 DUP1 EXTCODESIZE ISZERO DUP1 ISZERO PUSH2 0x404E JUMPI PUSH1 0x0 DUP1 REVERT JUMPDEST POP GAS CALL ISZERO DUP1 ISZERO PUSH2 0x4062 JUMPI RETURNDATASIZE PUSH1 0x0 DUP1 RETURNDATACOPY RETURNDATASIZE PUSH1 0x0 REVERT JUMPDEST POP POP POP POP PUSH1 0x1 PUSH1 0x0 SWAP1 SLOAD SWAP1 PUSH2 0x100 EXP SWAP1 DIV PUSH20 0xFFFFFFFFFFFFFFFFFFFFFFFFFFFFFFFFFFFFFFFF AND PUSH20 0xFFFFFFFFFFFFFFFFFFFFFFFFFFFFFFFFFFFFFFFF AND PUSH4 0x40C10F19 DUP4 PUSH1 0x2 PUSH1 0x40 MLOAD DUP4 PUSH4 0xFFFFFFFF AND PUSH1 0xE0 SHL DUP2 MSTORE PUSH1 0x4 ADD PUSH2 0x40C4 SWAP3 SWAP2 SWAP1 PUSH2 0x4A4B JUMP JUMPDEST PUSH1 0x0 PUSH1 0x40 MLOAD DUP1 DUP4 SUB DUP2 PUSH1 0x0 DUP8 DUP1 EXTCODESIZE ISZERO DUP1 ISZERO PUSH2 0x40DE JUMPI PUSH1 0x0 DUP1 REVERT JUMPDEST POP GAS CALL ISZERO DUP1 ISZERO PUSH2 0x40F2 JUMPI RETURNDATASIZE PUSH1 0x0 DUP1 RETURNDATACOPY RETURNDATASIZE PUSH1 0x0 REVERT JUMPDEST POP POP POP POP PUSH32 0x1728DD43546EDD06FABFE796E5B641A151AA90998BFD1B1EC0AE98C6E7708459 DUP4 PUSH1 0x40 MLOAD PUSH2 0x4125 SWAP2 SWAP1 PUSH2 0x49D0 JUMP JUMPDEST PUSH1 0x40 MLOAD DUP1 SWAP2 SUB SWAP1 LOG1 POP POP POP JUMP JUMPDEST PUSH1 0x40 MLOAD DUP1 PUSH1 0xA0 ADD PUSH1 0x40 MSTORE DUP1 PUSH1 0x0 ISZERO ISZERO DUP2 MSTORE PUSH1 0x20 ADD PUSH1 0x0 PUSH1 0xFF AND DUP2 MSTORE PUSH1 0x20 ADD PUSH1 0x0 PUSH1 0xFF AND DUP2 MSTORE PUSH1 0x20 ADD PUSH1 0x0 PUSH1 0xFF AND DUP2 MSTORE PUSH1 0x20 ADD PUSH1 0x0 PUSH20 0xFFFFFFFFFFFFFFFFFFFFFFFFFFFFFFFFFFFFFFFF AND DUP2 MSTORE POP SWAP1 JUMP JUMPDEST PUSH1 0x0 DUP2 CALLDATALOAD SWAP1 POP PUSH2 0x4191 DUP2 PUSH2 0x5800 JUMP JUMPDEST SWAP3 SWAP2 POP POP JUMP JUMPDEST PUSH1 0x0 DUP1 DUP4 PUSH1 0x1F DUP5 ADD SLT PUSH2 0x41AD JUMPI PUSH2 0x41AC PUSH2 0x53D5 JUMP JUMPDEST JUMPDEST DUP3 CALLDATALOAD SWAP1 POP PUSH8 0xFFFFFFFFFFFFFFFF DUP2 GT ISZERO PUSH2 0x41CA JUMPI PUSH2 0x41C9 PUSH2 0x53D0 JUMP JUMPDEST JUMPDEST PUSH1 0x20 DUP4 ADD SWAP2 POP DUP4 PUSH1 0xC0 DUP3 MUL DUP4 ADD GT ISZERO PUSH2 0x41E6 JUMPI PUSH2 0x41E5 PUSH2 0x53DF JUMP JUMPDEST JUMPDEST SWAP3 POP SWAP3 SWAP1 POP JUMP JUMPDEST PUSH1 0x0 DUP2 MLOAD SWAP1 POP PUSH2 0x41FC DUP2 PUSH2 0x5817 JUMP JUMPDEST SWAP3 SWAP2 POP POP JUMP JUMPDEST PUSH1 0x0 DUP2 MLOAD SWAP1 POP PUSH2 0x4211 DUP2 PUSH2 0x582E JUMP JUMPDEST SWAP3 SWAP2 POP POP JUMP JUMPDEST PUSH1 0x0 DUP2 CALLDATALOAD SWAP1 POP PUSH2 0x4226 DUP2 PUSH2 0x583E JUMP JUMPDEST SWAP3 SWAP2 POP POP JUMP JUMPDEST PUSH1 0x0 PUSH1 0xE0 DUP3 DUP5 SUB SLT ISZERO PUSH2 0x4242 JUMPI PUSH2 0x4241 PUSH2 0x53DA JUMP JUMPDEST JUMPDEST PUSH2 0x424C PUSH1 0xE0 PUSH2 0x4F6D JUMP JUMPDEST SWAP1 POP PUSH1 0x0 PUSH2 0x425C DUP5 DUP3 DUP6 ADD PUSH2 0x41ED JUMP JUMPDEST PUSH1 0x0 DUP4 ADD MSTORE POP PUSH1 0x20 PUSH2 0x4270 DUP5 DUP3 DUP6 ADD PUSH2 0x4202 JUMP JUMPDEST PUSH1 0x20 DUP4 ADD MSTORE POP PUSH1 0x40 PUSH2 0x4284 DUP5 DUP3 DUP6 ADD PUSH2 0x431F JUMP JUMPDEST PUSH1 0x40 DUP4 ADD MSTORE POP PUSH1 0x60 PUSH2 0x4298 DUP5 DUP3 DUP6 ADD PUSH2 0x431F JUMP JUMPDEST PUSH1 0x60 DUP4 ADD MSTORE POP PUSH1 0x80 PUSH2 0x42AC DUP5 DUP3 DUP6 ADD PUSH2 0x431F JUMP JUMPDEST PUSH1 0x80 DUP4 ADD MSTORE POP PUSH1 0xA0 PUSH2 0x42C0 DUP5 DUP3 DUP6 ADD PUSH2 0x431F JUMP JUMPDEST PUSH1 0xA0 DUP4 ADD MSTORE POP PUSH1 0xC0 PUSH2 0x42D4 DUP5 DUP3 DUP6 ADD PUSH2 0x431F JUMP JUMPDEST PUSH1 0xC0 DUP4 ADD MSTORE POP SWAP3 SWAP2 POP POP JUMP JUMPDEST PUSH1 0x0 DUP2 CALLDATALOAD SWAP1 POP PUSH2 0x42EF DUP2 PUSH2 0x584E JUMP JUMPDEST SWAP3 SWAP2 POP POP JUMP JUMPDEST PUSH1 0x0 DUP2 MLOAD SWAP1 POP PUSH2 0x4304 DUP2 PUSH2 0x584E JUMP JUMPDEST SWAP3 SWAP2 POP POP JUMP JUMPDEST PUSH1 0x0 DUP2 CALLDATALOAD SWAP1 POP PUSH2 0x4319 DUP2 PUSH2 0x5865 JUMP JUMPDEST SWAP3 SWAP2 POP POP JUMP JUMPDEST PUSH1 0x0 DUP2 MLOAD SWAP1 POP PUSH2 0x432E DUP2 PUSH2 0x5865 JUMP JUMPDEST SWAP3 SWAP2 POP POP JUMP JUMPDEST PUSH1 0x0 PUSH1 0x20 DUP3 DUP5 SUB SLT ISZERO PUSH2 0x434A JUMPI PUSH2 0x4349 PUSH2 0x53E9 JUMP JUMPDEST JUMPDEST PUSH1 0x0 PUSH2 0x4358 DUP5 DUP3 DUP6 ADD PUSH2 0x4182 JUMP JUMPDEST SWAP2 POP POP SWAP3 SWAP2 POP POP JUMP JUMPDEST PUSH1 0x0 DUP1 PUSH1 0x20 DUP4 DUP6 SUB SLT ISZERO PUSH2 0x4378 JUMPI PUSH2 0x4377 PUSH2 0x53E9 JUMP JUMPDEST JUMPDEST PUSH1 0x0 DUP4 ADD CALLDATALOAD PUSH8 0xFFFFFFFFFFFFFFFF DUP2 GT ISZERO PUSH2 0x4396 JUMPI PUSH2 0x4395 PUSH2 0x53E4 JUMP JUMPDEST JUMPDEST PUSH2 0x43A2 DUP6 DUP3 DUP7 ADD PUSH2 0x4197 JUMP JUMPDEST SWAP3 POP SWAP3 POP POP SWAP3 POP SWAP3 SWAP1 POP JUMP JUMPDEST PUSH1 0x0 PUSH1 0x20 DUP3 DUP5 SUB SLT ISZERO PUSH2 0x43C4 JUMPI PUSH2 0x43C3 PUSH2 0x53E9 JUMP JUMPDEST JUMPDEST PUSH1 0x0 PUSH2 0x43D2 DUP5 DUP3 DUP6 ADD PUSH2 0x41ED JUMP JUMPDEST SWAP2 POP POP SWAP3 SWAP2 POP POP JUMP JUMPDEST PUSH1 0x0 PUSH1 0x20 DUP3 DUP5 SUB SLT ISZERO PUSH2 0x43F1 JUMPI PUSH2 0x43F0 PUSH2 0x53E9 JUMP JUMPDEST JUMPDEST PUSH1 0x0 PUSH2 0x43FF DUP5 DUP3 DUP6 ADD PUSH2 0x4217 JUMP JUMPDEST SWAP2 POP POP SWAP3 SWAP2 POP POP JUMP JUMPDEST PUSH1 0x0 PUSH1 0xE0 DUP3 DUP5 SUB SLT ISZERO PUSH2 0x441E JUMPI PUSH2 0x441D PUSH2 0x53E9 JUMP JUMPDEST JUMPDEST PUSH1 0x0 PUSH2 0x442C DUP5 DUP3 DUP6 ADD PUSH2 0x422C JUMP JUMPDEST SWAP2 POP POP SWAP3 SWAP2 POP POP JUMP JUMPDEST PUSH1 0x0 PUSH1 0x20 DUP3 DUP5 SUB SLT ISZERO PUSH2 0x444B JUMPI PUSH2 0x444A PUSH2 0x53E9 JUMP JUMPDEST JUMPDEST PUSH1 0x0 PUSH2 0x4459 DUP5 DUP3 DUP6 ADD PUSH2 0x42F5 JUMP JUMPDEST SWAP2 POP POP SWAP3 SWAP2 POP POP JUMP JUMPDEST PUSH1 0x0 DUP1 PUSH1 0x40 DUP4 DUP6 SUB SLT ISZERO PUSH2 0x4479 JUMPI PUSH2 0x4478 PUSH2 0x53E9 JUMP JUMPDEST JUMPDEST PUSH1 0x0 PUSH2 0x4487 DUP6 DUP3 DUP7 ADD PUSH2 0x42E0 JUMP JUMPDEST SWAP3 POP POP PUSH1 0x20 PUSH2 0x4498 DUP6 DUP3 DUP7 ADD PUSH2 0x42E0 JUMP JUMPDEST SWAP2 POP POP SWAP3 POP SWAP3 SWAP1 POP JUMP JUMPDEST PUSH1 0x0 PUSH1 0x20 DUP3 DUP5 SUB SLT ISZERO PUSH2 0x44B8 JUMPI PUSH2 0x44B7 PUSH2 0x53E9 JUMP JUMPDEST JUMPDEST PUSH1 0x0 PUSH2 0x44C6 DUP5 DUP3 DUP6 ADD PUSH2 0x430A JUMP JUMPDEST SWAP2 POP POP SWAP3 SWAP2 POP POP JUMP JUMPDEST PUSH1 0x0 DUP1 PUSH1 0x40 DUP4 DUP6 SUB SLT ISZERO PUSH2 0x44E6 JUMPI PUSH2 0x44E5 PUSH2 0x53E9 JUMP JUMPDEST JUMPDEST PUSH1 0x0 PUSH2 0x44F4 DUP6 DUP3 DUP7 ADD PUSH2 0x430A JUMP JUMPDEST SWAP3 POP POP PUSH1 0x20 PUSH2 0x4505 DUP6 DUP3 DUP7 ADD PUSH2 0x430A JUMP JUMPDEST SWAP2 POP POP SWAP3 POP SWAP3 SWAP1 POP JUMP JUMPDEST PUSH1 0x0 PUSH2 0x451B DUP4 DUP4 PUSH2 0x49B2 JUMP JUMPDEST PUSH1 0x20 DUP4 ADD SWAP1 POP SWAP3 SWAP2 POP POP JUMP JUMPDEST PUSH2 0x4530 DUP2 PUSH2 0x51CB JUMP JUMPDEST DUP3 MSTORE POP POP JUMP JUMPDEST PUSH2 0x453F DUP2 PUSH2 0x51CB JUMP JUMPDEST DUP3 MSTORE POP POP JUMP JUMPDEST PUSH1 0x0 PUSH2 0x4550 DUP3 PUSH2 0x4FA2 JUMP JUMPDEST PUSH2 0x455A DUP2 DUP6 PUSH2 0x4FBA JUMP JUMPDEST SWAP4 POP PUSH2 0x4565 DUP4 PUSH2 0x4F92 JUMP JUMPDEST DUP1 PUSH1 0x0 JUMPDEST DUP4 DUP2 LT ISZERO PUSH2 0x4596 JUMPI DUP2 MLOAD PUSH2 0x457D DUP9 DUP3 PUSH2 0x450F JUMP JUMPDEST SWAP8 POP PUSH2 0x4588 DUP4 PUSH2 0x4FAD JUMP JUMPDEST SWAP3 POP POP PUSH1 0x1 DUP2 ADD SWAP1 POP PUSH2 0x4569 JUMP JUMPDEST POP DUP6 SWAP4 POP POP POP POP SWAP3 SWAP2 POP POP JUMP JUMPDEST PUSH2 0x45AC DUP2 PUSH2 0x51DD JUMP JUMPDEST DUP3 MSTORE POP POP JUMP JUMPDEST PUSH2 0x45BB DUP2 PUSH2 0x51DD JUMP JUMPDEST DUP3 MSTORE POP POP JUMP JUMPDEST PUSH1 0x0 PUSH2 0x45CE PUSH1 0x11 DUP4 PUSH2 0x4FCB JUMP JUMPDEST SWAP2 POP PUSH2 0x45D9 DUP3 PUSH2 0x53FF JUMP JUMPDEST PUSH1 0x20 DUP3 ADD SWAP1 POP SWAP2 SWAP1 POP JUMP JUMPDEST PUSH1 0x0 PUSH2 0x45F1 PUSH1 0xE DUP4 PUSH2 0x4FCB JUMP JUMPDEST SWAP2 POP PUSH2 0x45FC DUP3 PUSH2 0x5428 JUMP JUMPDEST PUSH1 0x20 DUP3 ADD SWAP1 POP SWAP2 SWAP1 POP JUMP JUMPDEST PUSH1 0x0 PUSH2 0x4614 PUSH1 0x1C DUP4 PUSH2 0x4FCB JUMP JUMPDEST SWAP2 POP PUSH2 0x461F DUP3 PUSH2 0x5451 JUMP JUMPDEST PUSH1 0x20 DUP3 ADD SWAP1 POP SWAP2 SWAP1 POP JUMP JUMPDEST PUSH1 0x0 PUSH2 0x4637 PUSH1 0x1A DUP4 PUSH2 0x4FCB JUMP JUMPDEST SWAP2 POP PUSH2 0x4642 DUP3 PUSH2 0x547A JUMP JUMPDEST PUSH1 0x20 DUP3 ADD SWAP1 POP SWAP2 SWAP1 POP JUMP JUMPDEST PUSH1 0x0 PUSH2 0x465A PUSH1 0xE DUP4 PUSH2 0x4FCB JUMP JUMPDEST SWAP2 POP PUSH2 0x4665 DUP3 PUSH2 0x54A3 JUMP JUMPDEST PUSH1 0x20 DUP3 ADD SWAP1 POP SWAP2 SWAP1 POP JUMP JUMPDEST PUSH1 0x0 PUSH2 0x467D PUSH1 0x14 DUP4 PUSH2 0x4FCB JUMP JUMPDEST SWAP2 POP PUSH2 0x4688 DUP3 PUSH2 0x54CC JUMP JUMPDEST PUSH1 0x20 DUP3 ADD SWAP1 POP SWAP2 SWAP1 POP JUMP JUMPDEST PUSH1 0x0 PUSH2 0x46A0 PUSH1 0x13 DUP4 PUSH2 0x4FCB JUMP JUMPDEST SWAP2 POP PUSH2 0x46AB DUP3 PUSH2 0x54F5 JUMP JUMPDEST PUSH1 0x20 DUP3 ADD SWAP1 POP SWAP2 SWAP1 POP JUMP JUMPDEST PUSH1 0x0 PUSH2 0x46C3 PUSH1 0xF DUP4 PUSH2 0x4FCB JUMP JUMPDEST SWAP2 POP PUSH2 0x46CE DUP3 PUSH2 0x551E JUMP JUMPDEST PUSH1 0x20 DUP3 ADD SWAP1 POP SWAP2 SWAP1 POP JUMP JUMPDEST PUSH1 0x0 PUSH2 0x46E6 PUSH1 0x20 DUP4 PUSH2 0x4FCB JUMP JUMPDEST SWAP2 POP PUSH2 0x46F1 DUP3 PUSH2 0x5547 JUMP JUMPDEST PUSH1 0x20 DUP3 ADD SWAP1 POP SWAP2 SWAP1 POP JUMP JUMPDEST PUSH1 0x0 PUSH2 0x4709 PUSH1 0x14 DUP4 PUSH2 0x4FCB JUMP JUMPDEST SWAP2 POP PUSH2 0x4714 DUP3 PUSH2 0x5570 JUMP JUMPDEST PUSH1 0x20 DUP3 ADD SWAP1 POP SWAP2 SWAP1 POP JUMP JUMPDEST PUSH1 0x0 PUSH2 0x472C PUSH1 0x16 DUP4 PUSH2 0x4FCB JUMP JUMPDEST SWAP2 POP PUSH2 0x4737 DUP3 PUSH2 0x5599 JUMP JUMPDEST PUSH1 0x20 DUP3 ADD SWAP1 POP SWAP2 SWAP1 POP JUMP JUMPDEST PUSH1 0x0 PUSH2 0x474F PUSH1 0x13 DUP4 PUSH2 0x4FCB JUMP JUMPDEST SWAP2 POP PUSH2 0x475A DUP3 PUSH2 0x55C2 JUMP JUMPDEST PUSH1 0x20 DUP3 ADD SWAP1 POP SWAP2 SWAP1 POP JUMP JUMPDEST PUSH1 0x0 PUSH2 0x4772 PUSH1 0x11 DUP4 PUSH2 0x4FCB JUMP JUMPDEST SWAP2 POP PUSH2 0x477D DUP3 PUSH2 0x55EB JUMP JUMPDEST PUSH1 0x20 DUP3 ADD SWAP1 POP SWAP2 SWAP1 POP JUMP JUMPDEST PUSH1 0x0 PUSH2 0x4795 PUSH1 0x13 DUP4 PUSH2 0x4FCB JUMP JUMPDEST SWAP2 POP PUSH2 0x47A0 DUP3 PUSH2 0x5614 JUMP JUMPDEST PUSH1 0x20 DUP3 ADD SWAP1 POP SWAP2 SWAP1 POP JUMP JUMPDEST PUSH1 0x0 PUSH2 0x47B8 PUSH1 0x10 DUP4 PUSH2 0x4FCB JUMP JUMPDEST SWAP2 POP PUSH2 0x47C3 DUP3 PUSH2 0x563D JUMP JUMPDEST PUSH1 0x20 DUP3 ADD SWAP1 POP SWAP2 SWAP1 POP JUMP JUMPDEST PUSH1 0x0 PUSH2 0x47DB PUSH1 0x14 DUP4 PUSH2 0x4FCB JUMP JUMPDEST SWAP2 POP PUSH2 0x47E6 DUP3 PUSH2 0x5666 JUMP JUMPDEST PUSH1 0x20 DUP3 ADD SWAP1 POP SWAP2 SWAP1 POP JUMP JUMPDEST PUSH1 0x0 PUSH2 0x47FE PUSH1 0x1A DUP4 PUSH2 0x4FCB JUMP JUMPDEST SWAP2 POP PUSH2 0x4809 DUP3 PUSH2 0x568F JUMP JUMPDEST PUSH1 0x20 DUP3 ADD SWAP1 POP SWAP2 SWAP1 POP JUMP JUMPDEST PUSH1 0x0 PUSH2 0x4821 PUSH1 0x11 DUP4 PUSH2 0x4FCB JUMP JUMPDEST SWAP2 POP PUSH2 0x482C DUP3 PUSH2 0x56B8 JUMP JUMPDEST PUSH1 0x20 DUP3 ADD SWAP1 POP SWAP2 SWAP1 POP JUMP JUMPDEST PUSH1 0x0 PUSH2 0x4844 PUSH1 0x15 DUP4 PUSH2 0x4FCB JUMP JUMPDEST SWAP2 POP PUSH2 0x484F DUP3 PUSH2 0x56E1 JUMP JUMPDEST PUSH1 0x20 DUP3 ADD SWAP1 POP SWAP2 SWAP1 POP JUMP JUMPDEST PUSH1 0x0 PUSH2 0x4867 PUSH1 0x15 DUP4 PUSH2 0x4FCB JUMP JUMPDEST SWAP2 POP PUSH2 0x4872 DUP3 PUSH2 0x570A JUMP JUMPDEST PUSH1 0x20 DUP3 ADD SWAP1 POP SWAP2 SWAP1 POP JUMP JUMPDEST PUSH1 0x0 PUSH2 0x488A PUSH1 0x14 DUP4 PUSH2 0x4FCB JUMP JUMPDEST SWAP2 POP PUSH2 0x4895 DUP3 PUSH2 0x5733 JUMP JUMPDEST PUSH1 0x20 DUP3 ADD SWAP1 POP SWAP2 SWAP1 POP JUMP JUMPDEST PUSH1 0x0 PUSH2 0x48AD PUSH1 0x10 DUP4 PUSH2 0x4FCB JUMP JUMPDEST SWAP2 POP PUSH2 0x48B8 DUP3 PUSH2 0x575C JUMP JUMPDEST PUSH1 0x20 DUP3 ADD SWAP1 POP SWAP2 SWAP1 POP JUMP JUMPDEST PUSH1 0x0 PUSH2 0x48D0 PUSH1 0x1A DUP4 PUSH2 0x4FCB JUMP JUMPDEST SWAP2 POP PUSH2 0x48DB DUP3 PUSH2 0x5785 JUMP JUMPDEST PUSH1 0x20 DUP3 ADD SWAP1 POP SWAP2 SWAP1 POP JUMP JUMPDEST PUSH1 0x0 PUSH2 0x48F3 PUSH1 0x16 DUP4 PUSH2 0x4FCB JUMP JUMPDEST SWAP2 POP PUSH2 0x48FE DUP3 PUSH2 0x57AE JUMP JUMPDEST PUSH1 0x20 DUP3 ADD SWAP1 POP SWAP2 SWAP1 POP JUMP JUMPDEST PUSH1 0x0 PUSH2 0x4916 PUSH1 0x15 DUP4 PUSH2 0x4FCB JUMP JUMPDEST SWAP2 POP PUSH2 0x4921 DUP3 PUSH2 0x57D7 JUMP JUMPDEST PUSH1 0x20 DUP3 ADD SWAP1 POP SWAP2 SWAP1 POP JUMP JUMPDEST PUSH1 0xA0 DUP3 ADD PUSH1 0x0 DUP3 ADD MLOAD PUSH2 0x4942 PUSH1 0x0 DUP6 ADD DUP3 PUSH2 0x45A3 JUMP JUMPDEST POP PUSH1 0x20 DUP3 ADD MLOAD PUSH2 0x4955 PUSH1 0x20 DUP6 ADD DUP3 PUSH2 0x49B2 JUMP JUMPDEST POP PUSH1 0x40 DUP3 ADD MLOAD PUSH2 0x4968 PUSH1 0x40 DUP6 ADD DUP3 PUSH2 0x49B2 JUMP JUMPDEST POP PUSH1 0x60 DUP3 ADD MLOAD PUSH2 0x497B PUSH1 0x60 DUP6 ADD DUP3 PUSH2 0x49B2 JUMP JUMPDEST POP PUSH1 0x80 DUP3 ADD MLOAD PUSH2 0x498E PUSH1 0x80 DUP6 ADD DUP3 PUSH2 0x4527 JUMP JUMPDEST POP POP POP POP JUMP JUMPDEST PUSH2 0x499D DUP2 PUSH2 0x5217 JUMP JUMPDEST DUP3 MSTORE POP POP JUMP JUMPDEST PUSH2 0x49AC DUP2 PUSH2 0x522E JUMP JUMPDEST DUP3 MSTORE POP POP JUMP JUMPDEST PUSH2 0x49BB DUP2 PUSH2 0x5221 JUMP JUMPDEST DUP3 MSTORE POP POP JUMP JUMPDEST PUSH2 0x49CA DUP2 PUSH2 0x5221 JUMP JUMPDEST DUP3 MSTORE POP POP JUMP JUMPDEST PUSH1 0x0 PUSH1 0x20 DUP3 ADD SWAP1 POP PUSH2 0x49E5 PUSH1 0x0 DUP4 ADD DUP5 PUSH2 0x4536 JUMP JUMPDEST SWAP3 SWAP2 POP POP JUMP JUMPDEST PUSH1 0x0 PUSH1 0x40 DUP3 ADD SWAP1 POP PUSH2 0x4A00 PUSH1 0x0 DUP4 ADD DUP6 PUSH2 0x4536 JUMP JUMPDEST PUSH2 0x4A0D PUSH1 0x20 DUP4 ADD DUP5 PUSH2 0x4536 JUMP JUMPDEST SWAP4 SWAP3 POP POP POP JUMP JUMPDEST PUSH1 0x0 PUSH1 0x60 DUP3 ADD SWAP1 POP PUSH2 0x4A29 PUSH1 0x0 DUP4 ADD DUP7 PUSH2 0x4536 JUMP JUMPDEST PUSH2 0x4A36 PUSH1 0x20 DUP4 ADD DUP6 PUSH2 0x4536 JUMP JUMPDEST PUSH2 0x4A43 PUSH1 0x40 DUP4 ADD DUP5 PUSH2 0x4994 JUMP JUMPDEST SWAP5 SWAP4 POP POP POP POP JUMP JUMPDEST PUSH1 0x0 PUSH1 0x40 DUP3 ADD SWAP1 POP PUSH2 0x4A60 PUSH1 0x0 DUP4 ADD DUP6 PUSH2 0x4536 JUMP JUMPDEST PUSH2 0x4A6D PUSH1 0x20 DUP4 ADD DUP5 PUSH2 0x49A3 JUMP JUMPDEST SWAP4 SWAP3 POP POP POP JUMP JUMPDEST PUSH1 0x0 PUSH1 0x20 DUP3 ADD SWAP1 POP DUP2 DUP2 SUB PUSH1 0x0 DUP4 ADD MSTORE PUSH2 0x4A8E DUP2 DUP5 PUSH2 0x4545 JUMP JUMPDEST SWAP1 POP SWAP3 SWAP2 POP POP JUMP JUMPDEST PUSH1 0x0 PUSH1 0xA0 DUP3 ADD SWAP1 POP PUSH2 0x4AAB PUSH1 0x0 DUP4 ADD DUP9 PUSH2 0x45B2 JUMP JUMPDEST PUSH2 0x4AB8 PUSH1 0x20 DUP4 ADD DUP8 PUSH2 0x49C1 JUMP JUMPDEST PUSH2 0x4AC5 PUSH1 0x40 DUP4 ADD DUP7 PUSH2 0x49C1 JUMP JUMPDEST PUSH2 0x4AD2 PUSH1 0x60 DUP4 ADD DUP6 PUSH2 0x49C1 JUMP JUMPDEST PUSH2 0x4ADF PUSH1 0x80 DUP4 ADD DUP5 PUSH2 0x4536 JUMP JUMPDEST SWAP7 SWAP6 POP POP POP POP POP POP JUMP JUMPDEST PUSH1 0x0 PUSH1 0x20 DUP3 ADD SWAP1 POP DUP2 DUP2 SUB PUSH1 0x0 DUP4 ADD MSTORE PUSH2 0x4B02 DUP2 PUSH2 0x45C1 JUMP JUMPDEST SWAP1 POP SWAP2 SWAP1 POP JUMP JUMPDEST PUSH1 0x0 PUSH1 0x20 DUP3 ADD SWAP1 POP DUP2 DUP2 SUB PUSH1 0x0 DUP4 ADD MSTORE PUSH2 0x4B22 DUP2 PUSH2 0x45E4 JUMP JUMPDEST SWAP1 POP SWAP2 SWAP1 POP JUMP JUMPDEST PUSH1 0x0 PUSH1 0x20 DUP3 ADD SWAP1 POP DUP2 DUP2 SUB PUSH1 0x0 DUP4 ADD MSTORE PUSH2 0x4B42 DUP2 PUSH2 0x4607 JUMP JUMPDEST SWAP1 POP SWAP2 SWAP1 POP JUMP JUMPDEST PUSH1 0x0 PUSH1 0x20 DUP3 ADD SWAP1 POP DUP2 DUP2 SUB PUSH1 0x0 DUP4 ADD MSTORE PUSH2 0x4B62 DUP2 PUSH2 0x462A JUMP JUMPDEST SWAP1 POP SWAP2 SWAP1 POP JUMP JUMPDEST PUSH1 0x0 PUSH1 0x20 DUP3 ADD SWAP1 POP DUP2 DUP2 SUB PUSH1 0x0 DUP4 ADD MSTORE PUSH2 0x4B82 DUP2 PUSH2 0x464D JUMP JUMPDEST SWAP1 POP SWAP2 SWAP1 POP JUMP JUMPDEST PUSH1 0x0 PUSH1 0x20 DUP3 ADD SWAP1 POP DUP2 DUP2 SUB PUSH1 0x0 DUP4 ADD MSTORE PUSH2 0x4BA2 DUP2 PUSH2 0x4670 JUMP JUMPDEST SWAP1 POP SWAP2 SWAP1 POP JUMP JUMPDEST PUSH1 0x0 PUSH1 0x20 DUP3 ADD SWAP1 POP DUP2 DUP2 SUB PUSH1 0x0 DUP4 ADD MSTORE PUSH2 0x4BC2 DUP2 PUSH2 0x4693 JUMP JUMPDEST SWAP1 POP SWAP2 SWAP1 POP JUMP JUMPDEST PUSH1 0x0 PUSH1 0x20 DUP3 ADD SWAP1 POP DUP2 DUP2 SUB PUSH1 0x0 DUP4 ADD MSTORE PUSH2 0x4BE2 DUP2 PUSH2 0x46B6 JUMP JUMPDEST SWAP1 POP SWAP2 SWAP1 POP JUMP JUMPDEST PUSH1 0x0 PUSH1 0x20 DUP3 ADD SWAP1 POP DUP2 DUP2 SUB PUSH1 0x0 DUP4 ADD MSTORE PUSH2 0x4C02 DUP2 PUSH2 0x46D9 JUMP JUMPDEST SWAP1 POP SWAP2 SWAP1 POP JUMP JUMPDEST PUSH1 0x0 PUSH1 0x20 DUP3 ADD SWAP1 POP DUP2 DUP2 SUB PUSH1 0x0 DUP4 ADD MSTORE PUSH2 0x4C22 DUP2 PUSH2 0x46FC JUMP JUMPDEST SWAP1 POP SWAP2 SWAP1 POP JUMP JUMPDEST PUSH1 0x0 PUSH1 0x20 DUP3 ADD SWAP1 POP DUP2 DUP2 SUB PUSH1 0x0 DUP4 ADD MSTORE PUSH2 0x4C42 DUP2 PUSH2 0x471F JUMP JUMPDEST SWAP1 POP SWAP2 SWAP1 POP JUMP JUMPDEST PUSH1 0x0 PUSH1 0x20 DUP3 ADD SWAP1 POP DUP2 DUP2 SUB PUSH1 0x0 DUP4 ADD MSTORE PUSH2 0x4C62 DUP2 PUSH2 0x4742 JUMP JUMPDEST SWAP1 POP SWAP2 SWAP1 POP JUMP JUMPDEST PUSH1 0x0 PUSH1 0x20 DUP3 ADD SWAP1 POP DUP2 DUP2 SUB PUSH1 0x0 DUP4 ADD MSTORE PUSH2 0x4C82 DUP2 PUSH2 0x4765 JUMP JUMPDEST SWAP1 POP SWAP2 SWAP1 POP JUMP JUMPDEST PUSH1 0x0 PUSH1 0x20 DUP3 ADD SWAP1 POP DUP2 DUP2 SUB PUSH1 0x0 DUP4 ADD MSTORE PUSH2 0x4CA2 DUP2 PUSH2 0x4788 JUMP JUMPDEST SWAP1 POP SWAP2 SWAP1 POP JUMP JUMPDEST PUSH1 0x0 PUSH1 0x20 DUP3 ADD SWAP1 POP DUP2 DUP2 SUB PUSH1 0x0 DUP4 ADD MSTORE PUSH2 0x4CC2 DUP2 PUSH2 0x47AB JUMP JUMPDEST SWAP1 POP SWAP2 SWAP1 POP JUMP JUMPDEST PUSH1 0x0 PUSH1 0x20 DUP3 ADD SWAP1 POP DUP2 DUP2 SUB PUSH1 0x0 DUP4 ADD MSTORE PUSH2 0x4CE2 DUP2 PUSH2 0x47CE JUMP JUMPDEST SWAP1 POP SWAP2 SWAP1 POP JUMP JUMPDEST PUSH1 0x0 PUSH1 0x20 DUP3 ADD SWAP1 POP DUP2 DUP2 SUB PUSH1 0x0 DUP4 ADD MSTORE PUSH2 0x4D02 DUP2 PUSH2 0x47F1 JUMP JUMPDEST SWAP1 POP SWAP2 SWAP1 POP JUMP JUMPDEST PUSH1 0x0 PUSH1 0x20 DUP3 ADD SWAP1 POP DUP2 DUP2 SUB PUSH1 0x0 DUP4 ADD MSTORE PUSH2 0x4D22 DUP2 PUSH2 0x4814 JUMP JUMPDEST SWAP1 POP SWAP2 SWAP1 POP JUMP JUMPDEST PUSH1 0x0 PUSH1 0x20 DUP3 ADD SWAP1 POP DUP2 DUP2 SUB PUSH1 0x0 DUP4 ADD MSTORE PUSH2 0x4D42 DUP2 PUSH2 0x4837 JUMP JUMPDEST SWAP1 POP SWAP2 SWAP1 POP JUMP JUMPDEST PUSH1 0x0 PUSH1 0x20 DUP3 ADD SWAP1 POP DUP2 DUP2 SUB PUSH1 0x0 DUP4 ADD MSTORE PUSH2 0x4D62 DUP2 PUSH2 0x485A JUMP JUMPDEST SWAP1 POP SWAP2 SWAP1 POP JUMP JUMPDEST PUSH1 0x0 PUSH1 0x20 DUP3 ADD SWAP1 POP DUP2 DUP2 SUB PUSH1 0x0 DUP4 ADD MSTORE PUSH2 0x4D82 DUP2 PUSH2 0x487D JUMP JUMPDEST SWAP1 POP SWAP2 SWAP1 POP JUMP JUMPDEST PUSH1 0x0 PUSH1 0x20 DUP3 ADD SWAP1 POP DUP2 DUP2 SUB PUSH1 0x0 DUP4 ADD MSTORE PUSH2 0x4DA2 DUP2 PUSH2 0x48A0 JUMP JUMPDEST SWAP1 POP SWAP2 SWAP1 POP JUMP JUMPDEST PUSH1 0x0 PUSH1 0x20 DUP3 ADD SWAP1 POP DUP2 DUP2 SUB PUSH1 0x0 DUP4 ADD MSTORE PUSH2 0x4DC2 DUP2 PUSH2 0x48C3 JUMP JUMPDEST SWAP1 POP SWAP2 SWAP1 POP JUMP JUMPDEST PUSH1 0x0 PUSH1 0x20 DUP3 ADD SWAP1 POP DUP2 DUP2 SUB PUSH1 0x0 DUP4 ADD MSTORE PUSH2 0x4DE2 DUP2 PUSH2 0x48E6 JUMP JUMPDEST SWAP1 POP SWAP2 SWAP1 POP JUMP JUMPDEST PUSH1 0x0 PUSH1 0x20 DUP3 ADD SWAP1 POP DUP2 DUP2 SUB PUSH1 0x0 DUP4 ADD MSTORE PUSH2 0x4E02 DUP2 PUSH2 0x4909 JUMP JUMPDEST SWAP1 POP SWAP2 SWAP1 POP JUMP JUMPDEST PUSH1 0x0 PUSH1 0xA0 DUP3 ADD SWAP1 POP PUSH2 0x4E1E PUSH1 0x0 DUP4 ADD DUP5 PUSH2 0x492C JUMP JUMPDEST SWAP3 SWAP2 POP POP JUMP JUMPDEST PUSH1 0x0 PUSH1 0x20 DUP3 ADD SWAP1 POP PUSH2 0x4E39 PUSH1 0x0 DUP4 ADD DUP5 PUSH2 0x4994 JUMP JUMPDEST SWAP3 SWAP2 POP POP JUMP JUMPDEST PUSH1 0x0 PUSH1 0x20 DUP3 ADD SWAP1 POP PUSH2 0x4E54 PUSH1 0x0 DUP4 ADD DUP5 PUSH2 0x49A3 JUMP JUMPDEST SWAP3 SWAP2 POP POP JUMP JUMPDEST PUSH1 0x0 PUSH1 0x20 DUP3 ADD SWAP1 POP PUSH2 0x4E6F PUSH1 0x0 DUP4 ADD DUP5 PUSH2 0x49C1 JUMP JUMPDEST SWAP3 SWAP2 POP POP JUMP JUMPDEST PUSH1 0x0 PUSH1 0x40 DUP3 ADD SWAP1 POP PUSH2 0x4E8A PUSH1 0x0 DUP4 ADD DUP6 PUSH2 0x49C1 JUMP JUMPDEST PUSH2 0x4E97 PUSH1 0x20 DUP4 ADD DUP5 PUSH2 0x49C1 JUMP JUMPDEST SWAP4 SWAP3 POP POP POP JUMP JUMPDEST PUSH1 0x0 PUSH1 0x60 DUP3 ADD SWAP1 POP PUSH2 0x4EB3 PUSH1 0x0 DUP4 ADD DUP7 PUSH2 0x49C1 JUMP JUMPDEST PUSH2 0x4EC0 PUSH1 0x20 DUP4 ADD DUP6 PUSH2 0x49C1 JUMP JUMPDEST PUSH2 0x4ECD PUSH1 0x40 DUP4 ADD DUP5 PUSH2 0x49C1 JUMP JUMPDEST SWAP5 SWAP4 POP POP POP POP JUMP JUMPDEST PUSH1 0x0 PUSH1 0x80 DUP3 ADD SWAP1 POP PUSH2 0x4EEA PUSH1 0x0 DUP4 ADD DUP8 PUSH2 0x49C1 JUMP JUMPDEST PUSH2 0x4EF7 PUSH1 0x20 DUP4 ADD DUP7 PUSH2 0x49C1 JUMP JUMPDEST PUSH2 0x4F04 PUSH1 0x40 DUP4 ADD DUP6 PUSH2 0x49C1 JUMP JUMPDEST PUSH2 0x4F11 PUSH1 0x60 DUP4 ADD DUP5 PUSH2 0x49C1 JUMP JUMPDEST SWAP6 SWAP5 POP POP POP POP POP JUMP JUMPDEST PUSH1 0x0 PUSH1 0xA0 DUP3 ADD SWAP1 POP PUSH2 0x4F2F PUSH1 0x0 DUP4 ADD DUP9 PUSH2 0x49C1 JUMP JUMPDEST PUSH2 0x4F3C PUSH1 0x20 DUP4 ADD DUP8 PUSH2 0x49C1 JUMP JUMPDEST PUSH2 0x4F49 PUSH1 0x40 DUP4 ADD DUP7 PUSH2 0x49C1 JUMP JUMPDEST PUSH2 0x4F56 PUSH1 0x60 DUP4 ADD DUP6 PUSH2 0x49C1 JUMP JUMPDEST PUSH2 0x4F63 PUSH1 0x80 DUP4 ADD DUP5 PUSH2 0x49C1 JUMP JUMPDEST SWAP7 SWAP6 POP POP POP POP POP POP JUMP JUMPDEST PUSH1 0x0 PUSH2 0x4F77 PUSH2 0x4F88 JUMP JUMPDEST SWAP1 POP PUSH2 0x4F83 DUP3 DUP3 PUSH2 0x5240 JUMP JUMPDEST SWAP2 SWAP1 POP JUMP JUMPDEST PUSH1 0x0 PUSH1 0x40 MLOAD SWAP1 POP SWAP1 JUMP JUMPDEST PUSH1 0x0 DUP2 SWAP1 POP PUSH1 0x20 DUP3 ADD SWAP1 POP SWAP2 SWAP1 POP JUMP JUMPDEST PUSH1 0x0 DUP2 MLOAD SWAP1 POP SWAP2 SWAP1 POP JUMP JUMPDEST PUSH1 0x0 PUSH1 0x20 DUP3 ADD SWAP1 POP SWAP2 SWAP1 POP JUMP JUMPDEST PUSH1 0x0 DUP3 DUP3 MSTORE PUSH1 0x20 DUP3 ADD SWAP1 POP SWAP3 SWAP2 POP POP JUMP JUMPDEST PUSH1 0x0 DUP3 DUP3 MSTORE PUSH1 0x20 DUP3 ADD SWAP1 POP SWAP3 SWAP2 POP POP JUMP JUMPDEST PUSH1 0x0 PUSH2 0x4FE7 DUP3 PUSH2 0x5217 JUMP JUMPDEST SWAP2 POP PUSH2 0x4FF2 DUP4 PUSH2 0x5217 JUMP JUMPDEST SWAP3 POP DUP3 PUSH32 0xFFFFFFFFFFFFFFFFFFFFFFFFFFFFFFFFFFFFFFFFFFFFFFFFFFFFFFFFFFFFFFFF SUB DUP3 GT ISZERO PUSH2 0x5027 JUMPI PUSH2 0x5026 PUSH2 0x52E5 JUMP JUMPDEST JUMPDEST DUP3 DUP3 ADD SWAP1 POP SWAP3 SWAP2 POP POP JUMP JUMPDEST PUSH1 0x0 PUSH2 0x503D DUP3 PUSH2 0x5221 JUMP JUMPDEST SWAP2 POP PUSH2 0x5048 DUP4 PUSH2 0x5221 JUMP JUMPDEST SWAP3 POP DUP3 PUSH1 0xFF SUB DUP3 GT ISZERO PUSH2 0x505E JUMPI PUSH2 0x505D PUSH2 0x52E5 JUMP JUMPDEST JUMPDEST DUP3 DUP3 ADD SWAP1 POP SWAP3 SWAP2 POP POP JUMP JUMPDEST PUSH1 0x0 PUSH2 0x5074 DUP3 PUSH2 0x5217 JUMP JUMPDEST SWAP2 POP PUSH2 0x507F DUP4 PUSH2 0x5217 JUMP JUMPDEST SWAP3 POP DUP3 PUSH2 0x508F JUMPI PUSH2 0x508E PUSH2 0x5314 JUMP JUMPDEST JUMPDEST DUP3 DUP3 DIV SWAP1 POP SWAP3 SWAP2 POP POP JUMP JUMPDEST PUSH1 0x0 PUSH2 0x50A5 DUP3 PUSH2 0x5217 JUMP JUMPDEST SWAP2 POP PUSH2 0x50B0 DUP4 PUSH2 0x5217 JUMP JUMPDEST SWAP3 POP DUP2 PUSH32 0xFFFFFFFFFFFFFFFFFFFFFFFFFFFFFFFFFFFFFFFFFFFFFFFFFFFFFFFFFFFFFFFF DIV DUP4 GT DUP3 ISZERO ISZERO AND ISZERO PUSH2 0x50E9 JUMPI PUSH2 0x50E8 PUSH2 0x52E5 JUMP JUMPDEST JUMPDEST DUP3 DUP3 MUL SWAP1 POP SWAP3 SWAP2 POP POP JUMP JUMPDEST PUSH1 0x0 PUSH2 0x50FF DUP3 PUSH2 0x5221 JUMP JUMPDEST SWAP2 POP PUSH2 0x510A DUP4 PUSH2 0x5221 JUMP JUMPDEST SWAP3 POP DUP2 PUSH1 0xFF DIV DUP4 GT DUP3 ISZERO ISZERO AND ISZERO PUSH2 0x5124 JUMPI PUSH2 0x5123 PUSH2 0x52E5 JUMP JUMPDEST JUMPDEST DUP3 DUP3 MUL SWAP1 POP SWAP3 SWAP2 POP POP JUMP JUMPDEST PUSH1 0x0 PUSH2 0x513A DUP3 PUSH2 0x51E9 JUMP JUMPDEST SWAP2 POP PUSH2 0x5145 DUP4 PUSH2 0x51E9 JUMP JUMPDEST SWAP3 POP DUP3 DUP3 LT ISZERO PUSH2 0x5158 JUMPI PUSH2 0x5157 PUSH2 0x52E5 JUMP JUMPDEST JUMPDEST DUP3 DUP3 SUB SWAP1 POP SWAP3 SWAP2 POP POP JUMP JUMPDEST PUSH1 0x0 PUSH2 0x516E DUP3 PUSH2 0x5217 JUMP JUMPDEST SWAP2 POP PUSH2 0x5179 DUP4 PUSH2 0x5217 JUMP JUMPDEST SWAP3 POP DUP3 DUP3 LT ISZERO PUSH2 0x518C JUMPI PUSH2 0x518B PUSH2 0x52E5 JUMP JUMPDEST JUMPDEST DUP3 DUP3 SUB SWAP1 POP SWAP3 SWAP2 POP POP JUMP JUMPDEST PUSH1 0x0 PUSH2 0x51A2 DUP3 PUSH2 0x5221 JUMP JUMPDEST SWAP2 POP PUSH2 0x51AD DUP4 PUSH2 0x5221 JUMP JUMPDEST SWAP3 POP DUP3 DUP3 LT ISZERO PUSH2 0x51C0 JUMPI PUSH2 0x51BF PUSH2 0x52E5 JUMP JUMPDEST JUMPDEST DUP3 DUP3 SUB SWAP1 POP SWAP3 SWAP2 POP POP JUMP JUMPDEST PUSH1 0x0 PUSH2 0x51D6 DUP3 PUSH2 0x51F7 JUMP JUMPDEST SWAP1 POP SWAP2 SWAP1 POP JUMP JUMPDEST PUSH1 0x0 DUP2 ISZERO ISZERO SWAP1 POP SWAP2 SWAP1 POP JUMP JUMPDEST PUSH1 0x0 PUSH2 0xFFFF DUP3 AND SWAP1 POP SWAP2 SWAP1 POP JUMP JUMPDEST PUSH1 0x0 PUSH20 0xFFFFFFFFFFFFFFFFFFFFFFFFFFFFFFFFFFFFFFFF DUP3 AND SWAP1 POP SWAP2 SWAP1 POP JUMP JUMPDEST PUSH1 0x0 DUP2 SWAP1 POP SWAP2 SWAP1 POP JUMP JUMPDEST PUSH1 0x0 PUSH1 0xFF DUP3 AND SWAP1 POP SWAP2 SWAP1 POP JUMP JUMPDEST PUSH1 0x0 PUSH2 0x5239 DUP3 PUSH2 0x5221 JUMP JUMPDEST SWAP1 POP SWAP2 SWAP1 POP JUMP JUMPDEST PUSH2 0x5249 DUP3 PUSH2 0x53EE JUMP JUMPDEST DUP2 ADD DUP2 DUP2 LT PUSH8 0xFFFFFFFFFFFFFFFF DUP3 GT OR ISZERO PUSH2 0x5268 JUMPI PUSH2 0x5267 PUSH2 0x53A1 JUMP JUMPDEST JUMPDEST DUP1 PUSH1 0x40 MSTORE POP POP POP JUMP JUMPDEST PUSH1 0x0 PUSH2 0x527C DUP3 PUSH2 0x51E9 JUMP JUMPDEST SWAP2 POP PUSH2 0xFFFF DUP3 EQ ISZERO PUSH2 0x5291 JUMPI PUSH2 0x5290 PUSH2 0x52E5 JUMP JUMPDEST JUMPDEST PUSH1 0x1 DUP3 ADD SWAP1 POP SWAP2 SWAP1 POP JUMP JUMPDEST PUSH1 0x0 PUSH2 0x52A7 DUP3 PUSH2 0x5217 JUMP JUMPDEST SWAP2 POP PUSH32 0xFFFFFFFFFFFFFFFFFFFFFFFFFFFFFFFFFFFFFFFFFFFFFFFFFFFFFFFFFFFFFFFF DUP3 EQ ISZERO PUSH2 0x52DA JUMPI PUSH2 0x52D9 PUSH2 0x52E5 JUMP JUMPDEST JUMPDEST PUSH1 0x1 DUP3 ADD SWAP1 POP SWAP2 SWAP1 POP JUMP JUMPDEST PUSH32 0x4E487B7100000000000000000000000000000000000000000000000000000000 PUSH1 0x0 MSTORE PUSH1 0x11 PUSH1 0x4 MSTORE PUSH1 0x24 PUSH1 0x0 REVERT JUMPDEST PUSH32 0x4E487B7100000000000000000000000000000000000000000000000000000000 PUSH1 0x0 MSTORE PUSH1 0x12 PUSH1 0x4 MSTORE PUSH1 0x24 PUSH1 0x0 REVERT JUMPDEST PUSH32 0x4E487B7100000000000000000000000000000000000000000000000000000000 PUSH1 0x0 MSTORE PUSH1 0x21 PUSH1 0x4 MSTORE PUSH1 0x24 PUSH1 0x0 REVERT JUMPDEST PUSH32 0x4E487B7100000000000000000000000000000000000000000000000000000000 PUSH1 0x0 MSTORE PUSH1 0x32 PUSH1 0x4 MSTORE PUSH1 0x24 PUSH1 0x0 REVERT JUMPDEST PUSH32 0x4E487B7100000000000000000000000000000000000000000000000000000000 PUSH1 0x0 MSTORE PUSH1 0x41 PUSH1 0x4 MSTORE PUSH1 0x24 PUSH1 0x0 REVERT JUMPDEST PUSH1 0x0 DUP1 REVERT JUMPDEST PUSH1 0x0 DUP1 REVERT JUMPDEST PUSH1 0x0 DUP1 REVERT JUMPDEST PUSH1 0x0 DUP1 REVERT JUMPDEST PUSH1 0x0 DUP1 REVERT JUMPDEST PUSH1 0x0 DUP1 REVERT JUMPDEST PUSH1 0x0 PUSH1 0x1F NOT PUSH1 0x1F DUP4 ADD AND SWAP1 POP SWAP2 SWAP1 POP JUMP JUMPDEST PUSH32 0x546172676574206F66662D626F756E6473000000000000000000000000000000 PUSH1 0x0 DUP3 ADD MSTORE POP JUMP JUMPDEST PUSH32 0x4E6F74207269676874207475726E000000000000000000000000000000000000 PUSH1 0x0 DUP3 ADD MSTORE POP JUMP JUMPDEST PUSH32 0x4E6F7420656E6F75676820656E6572677920666F722061747461636B00000000 PUSH1 0x0 DUP3 ADD MSTORE POP JUMP JUMPDEST PUSH32 0x43616E27742070757420706C617965722074686973207475726E000000000000 PUSH1 0x0 DUP3 ADD MSTORE POP JUMP JUMPDEST PUSH32 0x496E76616C696420636F6C756D6E000000000000000000000000000000000000 PUSH1 0x0 DUP3 ADD MSTORE POP JUMP JUMPDEST PUSH32 0x42617365206973206F7574206F662072616E6765000000000000000000000000 PUSH1 0x0 DUP3 ADD MSTORE POP JUMP JUMPDEST PUSH32 0x456E6572677920696E73756666696369656E7400000000000000000000000000 PUSH1 0x0 DUP3 ADD MSTORE POP JUMP JUMPDEST PUSH32 0x4E6F742061206865616C20636172640000000000000000000000000000000000 PUSH1 0x0 DUP3 ADD MSTORE POP JUMP JUMPDEST PUSH32 0x4E6F2062616C616E6365206C65667420746F2075736520676F6420706F776572 PUSH1 0x0 DUP3 ADD MSTORE POP JUMP JUMPDEST PUSH32 0x4E6F7420616E2061747461636B20706C61796572000000000000000000000000 PUSH1 0x0 DUP3 ADD MSTORE POP JUMP JUMPDEST PUSH32 0x41747461636B696E67206F6E206F776E2063656C6C7300000000000000000000 PUSH1 0x0 DUP3 ADD MSTORE POP JUMP JUMPDEST PUSH32 0x57726F6E672074617267657420706C6179657200000000000000000000000000 PUSH1 0x0 DUP3 ADD MSTORE POP JUMP JUMPDEST PUSH32 0x4E6F7420656E6F75676820656E65726779000000000000000000000000000000 PUSH1 0x0 DUP3 ADD MSTORE POP JUMP JUMPDEST PUSH32 0x4E6F74206F776E696E6720746865207061776E00000000000000000000000000 PUSH1 0x0 DUP3 ADD MSTORE POP JUMP JUMPDEST PUSH32 0x43656C6C206973206F6363757069656400000000000000000000000000000000 PUSH1 0x0 DUP3 ADD MSTORE POP JUMP JUMPDEST PUSH32 0x456E65726779206E6F7420737566666963656E74000000000000000000000000 PUSH1 0x0 DUP3 ADD MSTORE POP JUMP JUMPDEST PUSH32 0x41747461636B696E67206F6E20616E20656D7074792063656C6C000000000000 PUSH1 0x0 DUP3 ADD MSTORE POP JUMP JUMPDEST PUSH32 0x4E6F74206120636172642061747461636B000000000000000000000000000000 PUSH1 0x0 DUP3 ADD MSTORE POP JUMP JUMPDEST PUSH32 0x57696E6E6572207061796D656E74206661696C65640000000000000000000000 PUSH1 0x0 DUP3 ADD MSTORE POP JUMP JUMPDEST PUSH32 0x4E6F74206F776E696E6720746865207461726765740000000000000000000000 PUSH1 0x0 DUP3 ADD MSTORE POP JUMP JUMPDEST PUSH32 0x5461726765742063656C6C20697320656D707479000000000000000000000000 PUSH1 0x0 DUP3 ADD MSTORE POP JUMP JUMPDEST PUSH32 0x496C6C6567616C206D6F76656D656E7400000000000000000000000000000000 PUSH1 0x0 DUP3 ADD MSTORE POP JUMP JUMPDEST PUSH32 0x4172656E61206F776E6572207061796D656E74206661696C6564000000000000 PUSH1 0x0 DUP3 ADD MSTORE POP JUMP JUMPDEST PUSH32 0x546172676574206973206F7574206F662072616E676500000000000000000000 PUSH1 0x0 DUP3 ADD MSTORE POP JUMP JUMPDEST PUSH32 0x4E6F74206F776E696E6720746865206F726967696E0000000000000000000000 PUSH1 0x0 DUP3 ADD MSTORE POP JUMP JUMPDEST PUSH2 0x5809 DUP2 PUSH2 0x51CB JUMP JUMPDEST DUP2 EQ PUSH2 0x5814 JUMPI PUSH1 0x0 DUP1 REVERT JUMPDEST POP JUMP JUMPDEST PUSH2 0x5820 DUP2 PUSH2 0x51DD JUMP JUMPDEST DUP2 EQ PUSH2 0x582B JUMPI PUSH1 0x0 DUP1 REVERT JUMPDEST POP JUMP JUMPDEST PUSH1 0x2 DUP2 LT PUSH2 0x583B JUMPI PUSH1 0x0 DUP1 REVERT JUMPDEST POP JUMP JUMPDEST PUSH1 0x7 DUP2 LT PUSH2 0x584B JUMPI PUSH1 0x0 DUP1 REVERT JUMPDEST POP JUMP JUMPDEST PUSH2 0x5857 DUP2 PUSH2 0x5217 JUMP JUMPDEST DUP2 EQ PUSH2 0x5862 JUMPI PUSH1 0x0 DUP1 REVERT JUMPDEST POP JUMP JUMPDEST PUSH2 0x586E DUP2 PUSH2 0x5221 JUMP JUMPDEST DUP2 EQ PUSH2 0x5879 JUMPI PUSH1 0x0 DUP1 REVERT JUMPDEST POP JUMP INVALID LOG2 PUSH5 0x6970667358 0x22 SLT KECCAK256 OR LOG3 0x21 0xC9 0xC0 0xD8 0xA9 0x2C 0xAD 0xCC 0xE5 MSIZE 0xF9 0xDC 0xC6 EXTCODEHASH 0x23 DUP7 0x27 SWAP12 0xE4 SGT SLT COINBASE EQ 0xE4 0x23 DUP5 0xF7 SWAP1 0x4A SELFDESTRUCT PUSH5 0x736F6C6343 STOP ADDMOD SMOD STOP CALLER LOG2 PUSH5 0x6970667358 0x22 SLT KECCAK256 MUL PUSH3 0xC0B425 0xCB 0xCA LOG2 0xDD SGT DUP5 PUSH16 0xABEF800046ADCEDC899B622C2FB2157A SDIV CODECOPY PUSH29 0xD464736F6C634300080700330000000000000000000000000000000000 "
    },
    "gasEstimates": {
      "creation": {
        "codeDepositCost": "6894400",
        "executionCost": "infinite",
        "totalCost": "infinite"
      },
      "external": {
        "arenaToPlayer(uint256)": "infinite",
        "inGame(address)": "2868",
        "leaveGame(uint256)": "infinite",
        "owner()": "2566",
        "registerToMatch(uint256,uint8[])": "infinite",
        "renounceOwnership()": "30374",
        "transferOwnership(address)": "30789"
      }
    },
    "methodIdentifiers": {
      "arenaToPlayer(uint256)": "7962bf0c",
      "inGame(address)": "25bc6be1",
      "leaveGame(uint256)": "3feef58a",
      "owner()": "8da5cb5b",
      "registerToMatch(uint256,uint8[])": "0721cbb9",
      "renounceOwnership()": "715018a6",
      "transferOwnership(address)": "f2fde38b"
    }
  },
  "abi": [
    {
      "inputs": [
        {
          "internalType": "contract XP",
          "name": "xpAddress",
          "type": "address"
        },
        {
          "internalType": "contract ARENA",
          "name": "arenaAddress",
          "type": "address"
        },
        {
          "internalType": "contract SONS",
          "name": "sonsAddress",
          "type": "address"
        },
        {
          "internalType": "contract BILIRA",
          "name": "biliraAddress",
          "type": "address"
        },
        {
          "internalType": "contract GOD",
          "name": "playerAddress",
          "type": "address"
        }
      ],
      "stateMutability": "nonpayable",
      "type": "constructor"
    },
    {
      "anonymous": false,
      "inputs": [
        {
          "indexed": false,
          "internalType": "uint256",
          "name": "gameId",
          "type": "uint256"
        }
      ],
      "name": "GameRegistered",
      "type": "event"
    },
    {
      "anonymous": false,
      "inputs": [
        {
          "indexed": false,
          "internalType": "uint256",
          "name": "gameId",
          "type": "uint256"
        },
        {
          "indexed": false,
          "internalType": "address",
          "name": "instance",
          "type": "address"
        }
      ],
      "name": "GameStarted",
      "type": "event"
    },
    {
      "anonymous": false,
      "inputs": [
        {
          "indexed": true,
          "internalType": "address",
          "name": "previousOwner",
          "type": "address"
        },
        {
          "indexed": true,
          "internalType": "address",
          "name": "newOwner",
          "type": "address"
        }
      ],
      "name": "OwnershipTransferred",
      "type": "event"
    },
    {
      "anonymous": false,
      "inputs": [
        {
          "indexed": false,
          "internalType": "uint256",
          "name": "gameId",
          "type": "uint256"
        },
        {
          "indexed": false,
          "internalType": "address",
          "name": "leavingPlayer",
          "type": "address"
        }
      ],
      "name": "WaitingLeave",
      "type": "event"
    },
    {
      "inputs": [
        {
          "internalType": "uint256",
          "name": "",
          "type": "uint256"
        }
      ],
      "name": "arenaToPlayer",
      "outputs": [
        {
          "internalType": "bool",
          "name": "exists",
          "type": "bool"
        },
        {
          "internalType": "address",
          "name": "addr",
          "type": "address"
        },
        {
          "internalType": "uint256",
          "name": "gameId",
          "type": "uint256"
        }
      ],
      "stateMutability": "view",
      "type": "function"
    },
    {
      "inputs": [
        {
          "internalType": "address",
          "name": "",
          "type": "address"
        }
      ],
      "name": "inGame",
      "outputs": [
        {
          "internalType": "bool",
          "name": "",
          "type": "bool"
        }
      ],
      "stateMutability": "view",
      "type": "function"
    },
    {
      "inputs": [
        {
          "internalType": "uint256",
          "name": "arenaId",
          "type": "uint256"
        }
      ],
      "name": "leaveGame",
      "outputs": [],
      "stateMutability": "nonpayable",
      "type": "function"
    },
    {
      "inputs": [],
      "name": "owner",
      "outputs": [
        {
          "internalType": "address",
          "name": "",
          "type": "address"
        }
      ],
      "stateMutability": "view",
      "type": "function"
    },
    {
      "inputs": [
        {
          "internalType": "uint256",
          "name": "arenaId",
          "type": "uint256"
        },
        {
          "internalType": "uint8[]",
          "name": "deck",
          "type": "uint8[]"
        }
      ],
      "name": "registerToMatch",
      "outputs": [],
      "stateMutability": "nonpayable",
      "type": "function"
    },
    {
      "inputs": [],
      "name": "renounceOwnership",
      "outputs": [],
      "stateMutability": "nonpayable",
      "type": "function"
    },
    {
      "inputs": [
        {
          "internalType": "address",
          "name": "newOwner",
          "type": "address"
        }
      ],
      "name": "transferOwnership",
      "outputs": [],
      "stateMutability": "nonpayable",
      "type": "function"
    }
  ]
}