{
  "_format": "hh-sol-artifact-1",
  "contractName": "GOD",
  "sourceName": "contracts/tokens/GOD.sol",
  "abi": [
    {
      "inputs": [],
      "stateMutability": "nonpayable",
      "type": "constructor"
    },
    {
      "anonymous": false,
      "inputs": [
        {
          "indexed": true,
          "internalType": "address",
          "name": "account",
          "type": "address"
        },
        {
          "indexed": true,
          "internalType": "address",
          "name": "operator",
          "type": "address"
        },
        {
          "indexed": false,
          "internalType": "bool",
          "name": "approved",
          "type": "bool"
        }
      ],
      "name": "ApprovalForAll",
      "type": "event"
    },
    {
      "anonymous": false,
      "inputs": [
        {
          "indexed": true,
          "internalType": "address",
          "name": "previousOwner",
          "type": "address"
        },
        {
          "indexed": true,
          "internalType": "address",
          "name": "newOwner",
          "type": "address"
        }
      ],
      "name": "OwnershipTransferred",
      "type": "event"
    },
    {
      "anonymous": false,
      "inputs": [
        {
          "indexed": true,
          "internalType": "address",
          "name": "operator",
          "type": "address"
        },
        {
          "indexed": true,
          "internalType": "address",
          "name": "from",
          "type": "address"
        },
        {
          "indexed": true,
          "internalType": "address",
          "name": "to",
          "type": "address"
        },
        {
          "indexed": false,
          "internalType": "uint256[]",
          "name": "ids",
          "type": "uint256[]"
        },
        {
          "indexed": false,
          "internalType": "uint256[]",
          "name": "values",
          "type": "uint256[]"
        }
      ],
      "name": "TransferBatch",
      "type": "event"
    },
    {
      "anonymous": false,
      "inputs": [
        {
          "indexed": true,
          "internalType": "address",
          "name": "operator",
          "type": "address"
        },
        {
          "indexed": true,
          "internalType": "address",
          "name": "from",
          "type": "address"
        },
        {
          "indexed": true,
          "internalType": "address",
          "name": "to",
          "type": "address"
        },
        {
          "indexed": false,
          "internalType": "uint256",
          "name": "id",
          "type": "uint256"
        },
        {
          "indexed": false,
          "internalType": "uint256",
          "name": "value",
          "type": "uint256"
        }
      ],
      "name": "TransferSingle",
      "type": "event"
    },
    {
      "anonymous": false,
      "inputs": [
        {
          "indexed": false,
          "internalType": "string",
          "name": "value",
          "type": "string"
        },
        {
          "indexed": true,
          "internalType": "uint256",
          "name": "id",
          "type": "uint256"
        }
      ],
      "name": "URI",
      "type": "event"
    },
    {
      "inputs": [
        {
          "internalType": "address",
          "name": "account",
          "type": "address"
        },
        {
          "internalType": "uint256",
          "name": "id",
          "type": "uint256"
        }
      ],
      "name": "balanceOf",
      "outputs": [
        {
          "internalType": "uint256",
          "name": "",
          "type": "uint256"
        }
      ],
      "stateMutability": "view",
      "type": "function"
    },
    {
      "inputs": [
        {
          "internalType": "address[]",
          "name": "accounts",
          "type": "address[]"
        },
        {
          "internalType": "uint256[]",
          "name": "ids",
          "type": "uint256[]"
        }
      ],
      "name": "balanceOfBatch",
      "outputs": [
        {
          "internalType": "uint256[]",
          "name": "",
          "type": "uint256[]"
        }
      ],
      "stateMutability": "view",
      "type": "function"
    },
    {
      "inputs": [],
      "name": "getBalances",
      "outputs": [
        {
          "internalType": "uint256[]",
          "name": "",
          "type": "uint256[]"
        }
      ],
      "stateMutability": "view",
      "type": "function"
    },
    {
      "inputs": [
        {
          "internalType": "uint256",
          "name": "typeId",
          "type": "uint256"
        }
      ],
      "name": "getCard",
      "outputs": [
        {
          "components": [
            {
              "internalType": "bool",
              "name": "initialized",
              "type": "bool"
            },
            {
              "internalType": "enum CardType",
              "name": "cardType",
              "type": "uint8"
            },
            {
              "internalType": "uint8",
              "name": "rangeX",
              "type": "uint8"
            },
            {
              "internalType": "uint8",
              "name": "rangeY",
              "type": "uint8"
            },
            {
              "internalType": "uint8",
              "name": "deployEnergy",
              "type": "uint8"
            },
            {
              "internalType": "uint8",
              "name": "health",
              "type": "uint8"
            },
            {
              "internalType": "uint8",
              "name": "points",
              "type": "uint8"
            }
          ],
          "internalType": "struct Card",
          "name": "",
          "type": "tuple"
        }
      ],
      "stateMutability": "view",
      "type": "function"
    },
    {
      "inputs": [
        {
          "internalType": "uint256",
          "name": "",
          "type": "uint256"
        }
      ],
      "name": "idToCardDetails",
      "outputs": [
        {
          "internalType": "bool",
          "name": "initialized",
          "type": "bool"
        },
        {
          "internalType": "enum CardType",
          "name": "cardType",
          "type": "uint8"
        },
        {
          "internalType": "uint8",
          "name": "rangeX",
          "type": "uint8"
        },
        {
          "internalType": "uint8",
          "name": "rangeY",
          "type": "uint8"
        },
        {
          "internalType": "uint8",
          "name": "deployEnergy",
          "type": "uint8"
        },
        {
          "internalType": "uint8",
          "name": "health",
          "type": "uint8"
        },
        {
          "internalType": "uint8",
          "name": "points",
          "type": "uint8"
        }
      ],
      "stateMutability": "view",
      "type": "function"
    },
    {
      "inputs": [
        {
          "internalType": "address",
          "name": "account",
          "type": "address"
        },
        {
          "internalType": "address",
          "name": "operator",
          "type": "address"
        }
      ],
      "name": "isApprovedForAll",
      "outputs": [
        {
          "internalType": "bool",
          "name": "",
          "type": "bool"
        }
      ],
      "stateMutability": "view",
      "type": "function"
    },
    {
      "inputs": [
        {
          "internalType": "address",
          "name": "account",
          "type": "address"
        },
        {
          "internalType": "uint256",
          "name": "id",
          "type": "uint256"
        },
        {
          "internalType": "uint256",
          "name": "amount",
          "type": "uint256"
        },
        {
          "internalType": "bytes",
          "name": "data",
          "type": "bytes"
        }
      ],
      "name": "mint",
      "outputs": [],
      "stateMutability": "nonpayable",
      "type": "function"
    },
    {
      "inputs": [
        {
          "internalType": "address",
          "name": "to",
          "type": "address"
        },
        {
          "internalType": "uint256[]",
          "name": "ids",
          "type": "uint256[]"
        },
        {
          "internalType": "uint256[]",
          "name": "amounts",
          "type": "uint256[]"
        },
        {
          "internalType": "bytes",
          "name": "data",
          "type": "bytes"
        }
      ],
      "name": "mintBatch",
      "outputs": [],
      "stateMutability": "nonpayable",
      "type": "function"
    },
    {
      "inputs": [],
      "name": "owner",
      "outputs": [
        {
          "internalType": "address",
          "name": "",
          "type": "address"
        }
      ],
      "stateMutability": "view",
      "type": "function"
    },
    {
      "inputs": [
        {
          "internalType": "uint256",
          "name": "cardType",
          "type": "uint256"
        },
        {
          "components": [
            {
              "internalType": "bool",
              "name": "initialized",
              "type": "bool"
            },
            {
              "internalType": "enum CardType",
              "name": "cardType",
              "type": "uint8"
            },
            {
              "internalType": "uint8",
              "name": "rangeX",
              "type": "uint8"
            },
            {
              "internalType": "uint8",
              "name": "rangeY",
              "type": "uint8"
            },
            {
              "internalType": "uint8",
              "name": "deployEnergy",
              "type": "uint8"
            },
            {
              "internalType": "uint8",
              "name": "health",
              "type": "uint8"
            },
            {
              "internalType": "uint8",
              "name": "points",
              "type": "uint8"
            }
          ],
          "internalType": "struct Card",
          "name": "details",
          "type": "tuple"
        }
      ],
      "name": "registerType",
      "outputs": [],
      "stateMutability": "nonpayable",
      "type": "function"
    },
    {
      "inputs": [],
      "name": "renounceOwnership",
      "outputs": [],
      "stateMutability": "nonpayable",
      "type": "function"
    },
    {
      "inputs": [
        {
          "internalType": "address",
          "name": "from",
          "type": "address"
        },
        {
          "internalType": "address",
          "name": "to",
          "type": "address"
        },
        {
          "internalType": "uint256[]",
          "name": "ids",
          "type": "uint256[]"
        },
        {
          "internalType": "uint256[]",
          "name": "amounts",
          "type": "uint256[]"
        },
        {
          "internalType": "bytes",
          "name": "data",
          "type": "bytes"
        }
      ],
      "name": "safeBatchTransferFrom",
      "outputs": [],
      "stateMutability": "nonpayable",
      "type": "function"
    },
    {
      "inputs": [
        {
          "internalType": "address",
          "name": "from",
          "type": "address"
        },
        {
          "internalType": "address",
          "name": "to",
          "type": "address"
        },
        {
          "internalType": "uint256",
          "name": "id",
          "type": "uint256"
        },
        {
          "internalType": "uint256",
          "name": "amount",
          "type": "uint256"
        },
        {
          "internalType": "bytes",
          "name": "data",
          "type": "bytes"
        }
      ],
      "name": "safeTransferFrom",
      "outputs": [],
      "stateMutability": "nonpayable",
      "type": "function"
    },
    {
      "inputs": [
        {
          "internalType": "address",
          "name": "operator",
          "type": "address"
        },
        {
          "internalType": "bool",
          "name": "approved",
          "type": "bool"
        }
      ],
      "name": "setApprovalForAll",
      "outputs": [],
      "stateMutability": "nonpayable",
      "type": "function"
    },
    {
      "inputs": [
        {
          "internalType": "string",
          "name": "newuri",
          "type": "string"
        }
      ],
      "name": "setURI",
      "outputs": [],
      "stateMutability": "nonpayable",
      "type": "function"
    },
    {
      "inputs": [
        {
          "internalType": "bytes4",
          "name": "interfaceId",
          "type": "bytes4"
        }
      ],
      "name": "supportsInterface",
      "outputs": [
        {
          "internalType": "bool",
          "name": "",
          "type": "bool"
        }
      ],
      "stateMutability": "view",
      "type": "function"
    },
    {
      "inputs": [
        {
          "internalType": "address",
          "name": "newOwner",
          "type": "address"
        }
      ],
      "name": "transferOwnership",
      "outputs": [],
      "stateMutability": "nonpayable",
      "type": "function"
    },
    {
      "inputs": [
        {
          "internalType": "uint256",
          "name": "",
          "type": "uint256"
        }
      ],
      "name": "uri",
      "outputs": [
        {
          "internalType": "string",
          "name": "",
          "type": "string"
        }
      ],
      "stateMutability": "view",
      "type": "function"
    }
  ],
  "bytecode": "0x60806040523480156200001157600080fd5b506040805160208101909152600081526200002c816200003e565b50620000383362000057565b6200018c565b805162000053906002906020840190620000a9565b5050565b600380546001600160a01b038381166001600160a01b0319831681179093556040519116919082907f8be0079c531659141344cd1fd0a4f28419497f9722a3daafe3b4186f6b6457e090600090a35050565b828054620000b7906200014f565b90600052602060002090601f016020900481019282620000db576000855562000126565b82601f10620000f657805160ff191683800117855562000126565b8280016001018555821562000126579182015b828111156200012657825182559160200191906001019062000109565b506200013492915062000138565b5090565b5b8082111562000134576000815560010162000139565b600181811c908216806200016457607f821691505b602082108114156200018657634e487b7160e01b600052602260045260246000fd5b50919050565b612046806200019c6000396000f3fe608060405234801561001057600080fd5b50600436106101145760003560e01c80634e1273f4116100a25780639188d312116100715780639188d312146102a9578063a22cb465146102c9578063e985e9c5146102dc578063f242432a14610318578063f2fde38b1461032b57600080fd5b80634e1273f414610260578063715018a614610273578063731133e91461027b5780638da5cb5b1461028e57600080fd5b80630e89341c116100e95780630e89341c146101905780631bfb166f146101b05780631f7fdffa14610227578063227358831461023a5780632eb2c2d61461024d57600080fd5b8062113e0814610119578062fdd58e1461013757806301ffc9a71461015857806302fe53051461017b575b600080fd5b61012161033e565b60405161012e9190611a6e565b60405180910390f35b61014a6101453660046116f4565b6103b5565b60405190815260200161012e565b61016b610166366004611844565b61044c565b604051901515815260200161012e565b61018e61018936600461187e565b61049e565b005b6101a361019e3660046118cf565b6104d4565b60405161012e9190611af9565b6102146101be3660046118cf565b60046020526000908152604090205460ff80821691610100810482169162010000820481169163010000008104821691640100000000820481169165010000000000810482169166010000000000009091041687565b60405161012e9796959493929190611aaf565b61018e610235366004611624565b610568565b61018e6102483660046118e8565b6105a4565b61018e61025b366004611515565b6105e8565b61012161026e366004611773565b61067f565b61018e6107a9565b61018e61028936600461171e565b6107df565b6003546040516001600160a01b03909116815260200161012e565b6102bc6102b73660046118cf565b610815565b60405161012e9190611ca1565b61018e6102d73660046116bd565b61094e565b61016b6102ea3660046114e2565b6001600160a01b03918216600090815260016020908152604080832093909416825291909152205460ff1690565b61018e6103263660046115bf565b61095d565b61018e6103393660046114c7565b6109e4565b60408051600580825260c08201909252606091600091906020820160a08036833701905050905060005b60058110156103af5761038033610145836001611d2a565b82828151811061039257610392611deb565b6020908102919091010152806103a781611da4565b915050610368565b50919050565b60006001600160a01b0383166104265760405162461bcd60e51b815260206004820152602b60248201527f455243313135353a2062616c616e636520717565727920666f7220746865207a60448201526a65726f206164647265737360a81b60648201526084015b60405180910390fd5b506000908152602081815260408083206001600160a01b03949094168352929052205490565b60006001600160e01b03198216636cdb3d1360e11b148061047d57506001600160e01b031982166303a24d0760e21b145b8061049857506301ffc9a760e01b6001600160e01b03198316145b92915050565b6003546001600160a01b031633146104c85760405162461bcd60e51b815260040161041d90611be3565b6104d181610a7c565b50565b6060600280546104e390611d42565b80601f016020809104026020016040519081016040528092919081815260200182805461050f90611d42565b801561055c5780601f106105315761010080835404028352916020019161055c565b820191906000526020600020905b81548152906001019060200180831161053f57829003601f168201915b50505050509050919050565b6003546001600160a01b031633146105925760405162461bcd60e51b815260040161041d90611be3565b61059e84848484610a8f565b50505050565b6003546001600160a01b031633146105ce5760405162461bcd60e51b815260040161041d90611be3565b6000828152600460205260409020819061059e8282611ed0565b6001600160a01b038516331480610604575061060485336102ea565b61066b5760405162461bcd60e51b815260206004820152603260248201527f455243313135353a207472616e736665722063616c6c6572206973206e6f74206044820152711bdddb995c881b9bdc88185c1c1c9bdd995960721b606482015260840161041d565b6106788585858585610bda565b5050505050565b606081518351146106e45760405162461bcd60e51b815260206004820152602960248201527f455243313135353a206163636f756e747320616e6420696473206c656e677468604482015268040dad2e6dac2e8c6d60bb1b606482015260840161041d565b6000835167ffffffffffffffff81111561070057610700611e01565b604051908082528060200260200182016040528015610729578160200160208202803683370190505b50905060005b84518110156107a15761077485828151811061074d5761074d611deb565b602002602001015185838151811061076757610767611deb565b60200260200101516103b5565b82828151811061078657610786611deb565b602090810291909101015261079a81611da4565b905061072f565b509392505050565b6003546001600160a01b031633146107d35760405162461bcd60e51b815260040161041d90611be3565b6107dd6000610d76565b565b6003546001600160a01b031633146108095760405162461bcd60e51b815260040161041d90611be3565b61059e84848484610dc8565b6040805160e081018252600080825260208201819052918101829052606081018290526080810182905260a0810182905260c081019190915260008281526004602052604090205460ff166108a25760405162461bcd60e51b81526020600482015260136024820152724361726420646f65736e27742065786973747360681b604482015260640161041d565b600082815260046020908152604091829020825160e08101909352805460ff8082161515855291928401916101009091041660018111156108e5576108e5611dd5565b60018111156108f6576108f6611dd5565b8152905460ff6201000082048116602084015263010000008204811660408401526401000000008204811660608401526501000000000082048116608084015266010000000000009091041660a09091015292915050565b610959338383610e98565b5050565b6001600160a01b038516331480610979575061097985336102ea565b6109d75760405162461bcd60e51b815260206004820152602960248201527f455243313135353a2063616c6c6572206973206e6f74206f776e6572206e6f7260448201526808185c1c1c9bdd995960ba1b606482015260840161041d565b6106788585858585610f79565b6003546001600160a01b03163314610a0e5760405162461bcd60e51b815260040161041d90611be3565b6001600160a01b038116610a735760405162461bcd60e51b815260206004820152602660248201527f4f776e61626c653a206e6577206f776e657220697320746865207a65726f206160448201526564647265737360d01b606482015260840161041d565b6104d181610d76565b8051610959906002906020840190611316565b6001600160a01b038416610ab55760405162461bcd60e51b815260040161041d90611c60565b8151835114610ad65760405162461bcd60e51b815260040161041d90611c18565b3360005b8451811015610b7257838181518110610af557610af5611deb565b6020026020010151600080878481518110610b1257610b12611deb565b602002602001015181526020019081526020016000206000886001600160a01b03166001600160a01b031681526020019081526020016000206000828254610b5a9190611d2a565b90915550819050610b6a81611da4565b915050610ada565b50846001600160a01b031660006001600160a01b0316826001600160a01b03167f4a39dc06d4c0dbc64b70af90fd698a233a518aa5d07e595d983b8c0526c8f7fb8787604051610bc3929190611a81565b60405180910390a461067881600087878787611096565b8151835114610bfb5760405162461bcd60e51b815260040161041d90611c18565b6001600160a01b038416610c215760405162461bcd60e51b815260040161041d90611b54565b3360005b8451811015610d08576000858281518110610c4257610c42611deb565b602002602001015190506000858381518110610c6057610c60611deb565b602090810291909101810151600084815280835260408082206001600160a01b038e168352909352919091205490915081811015610cb05760405162461bcd60e51b815260040161041d90611b99565b6000838152602081815260408083206001600160a01b038e8116855292528083208585039055908b16825281208054849290610ced908490611d2a565b9250508190555050505080610d0190611da4565b9050610c25565b50846001600160a01b0316866001600160a01b0316826001600160a01b03167f4a39dc06d4c0dbc64b70af90fd698a233a518aa5d07e595d983b8c0526c8f7fb8787604051610d58929190611a81565b60405180910390a4610d6e818787878787611096565b505050505050565b600380546001600160a01b038381166001600160a01b0319831681179093556040519116919082907f8be0079c531659141344cd1fd0a4f28419497f9722a3daafe3b4186f6b6457e090600090a35050565b6001600160a01b038416610dee5760405162461bcd60e51b815260040161041d90611c60565b33610e0881600087610dff88611201565b61067888611201565b6000848152602081815260408083206001600160a01b038916845290915281208054859290610e38908490611d2a565b909155505060408051858152602081018590526001600160a01b0380881692600092918516917fc3d58168c5ae7397731d063d5bbf3d657854427343f4c083240f7aacaa2d0f62910160405180910390a46106788160008787878761124c565b816001600160a01b0316836001600160a01b03161415610f0c5760405162461bcd60e51b815260206004820152602960248201527f455243313135353a2073657474696e6720617070726f76616c20737461747573604482015268103337b91039b2b63360b91b606482015260840161041d565b6001600160a01b03838116600081815260016020908152604080832094871680845294825291829020805460ff191686151590811790915591519182527f17307eab39ab6107e8899845ad3d59bd9653f200f220920489ca2b5937696c31910160405180910390a3505050565b6001600160a01b038416610f9f5760405162461bcd60e51b815260040161041d90611b54565b33610faf818787610dff88611201565b6000848152602081815260408083206001600160a01b038a16845290915290205483811015610ff05760405162461bcd60e51b815260040161041d90611b99565b6000858152602081815260408083206001600160a01b038b811685529252808320878503905590881682528120805486929061102d908490611d2a565b909155505060408051868152602081018690526001600160a01b03808916928a821692918616917fc3d58168c5ae7397731d063d5bbf3d657854427343f4c083240f7aacaa2d0f62910160405180910390a461108d82888888888861124c565b50505050505050565b6001600160a01b0384163b15610d6e5760405163bc197c8160e01b81526001600160a01b0385169063bc197c81906110da90899089908890889088906004016119cb565b602060405180830381600087803b1580156110f457600080fd5b505af1925050508015611124575060408051601f3d908101601f1916820190925261112191810190611861565b60015b6111d157611130611e2a565b806308c379a0141561116a5750611145611e46565b80611150575061116c565b8060405162461bcd60e51b815260040161041d9190611af9565b505b60405162461bcd60e51b815260206004820152603460248201527f455243313135353a207472616e7366657220746f206e6f6e20455243313135356044820152732932b1b2b4bb32b91034b6b83632b6b2b73a32b960611b606482015260840161041d565b6001600160e01b0319811663bc197c8160e01b1461108d5760405162461bcd60e51b815260040161041d90611b0c565b6040805160018082528183019092526060916000919060208083019080368337019050509050828160008151811061123b5761123b611deb565b602090810291909101015292915050565b6001600160a01b0384163b15610d6e5760405163f23a6e6160e01b81526001600160a01b0385169063f23a6e61906112909089908990889088908890600401611a29565b602060405180830381600087803b1580156112aa57600080fd5b505af19250505080156112da575060408051601f3d908101601f191682019092526112d791810190611861565b60015b6112e657611130611e2a565b6001600160e01b0319811663f23a6e6160e01b1461108d5760405162461bcd60e51b815260040161041d90611b0c565b82805461132290611d42565b90600052602060002090601f016020900481019282611344576000855561138a565b82601f1061135d57805160ff191683800117855561138a565b8280016001018555821561138a579182015b8281111561138a57825182559160200191906001019061136f565b5061139692915061139a565b5090565b5b80821115611396576000815560010161139b565b600067ffffffffffffffff8311156113c9576113c9611e01565b6040516113e0601f8501601f191660200182611d77565b8091508381528484840111156113f557600080fd5b83836020830137600060208583010152509392505050565b80356001600160a01b038116811461142457600080fd5b919050565b600082601f83011261143a57600080fd5b8135602061144782611d06565b6040516114548282611d77565b8381528281019150858301600585901b8701840188101561147457600080fd5b60005b8581101561149357813584529284019290840190600101611477565b5090979650505050505050565b600082601f8301126114b157600080fd5b6114c0838335602085016113af565b9392505050565b6000602082840312156114d957600080fd5b6114c08261140d565b600080604083850312156114f557600080fd5b6114fe8361140d565b915061150c6020840161140d565b90509250929050565b600080600080600060a0868803121561152d57600080fd5b6115368661140d565b94506115446020870161140d565b9350604086013567ffffffffffffffff8082111561156157600080fd5b61156d89838a01611429565b9450606088013591508082111561158357600080fd5b61158f89838a01611429565b935060808801359150808211156115a557600080fd5b506115b2888289016114a0565b9150509295509295909350565b600080600080600060a086880312156115d757600080fd5b6115e08661140d565b94506115ee6020870161140d565b93506040860135925060608601359150608086013567ffffffffffffffff81111561161857600080fd5b6115b2888289016114a0565b6000806000806080858703121561163a57600080fd5b6116438561140d565b9350602085013567ffffffffffffffff8082111561166057600080fd5b61166c88838901611429565b9450604087013591508082111561168257600080fd5b61168e88838901611429565b935060608701359150808211156116a457600080fd5b506116b1878288016114a0565b91505092959194509250565b600080604083850312156116d057600080fd5b6116d98361140d565b915060208301356116e981611fec565b809150509250929050565b6000806040838503121561170757600080fd5b6117108361140d565b946020939093013593505050565b6000806000806080858703121561173457600080fd5b61173d8561140d565b93506020850135925060408501359150606085013567ffffffffffffffff81111561176757600080fd5b6116b1878288016114a0565b6000806040838503121561178657600080fd5b823567ffffffffffffffff8082111561179e57600080fd5b818501915085601f8301126117b257600080fd5b813560206117bf82611d06565b6040516117cc8282611d77565b8381528281019150858301600585901b870184018b10156117ec57600080fd5b600096505b84871015611816576118028161140d565b8352600196909601959183019183016117f1565b509650508601359250508082111561182d57600080fd5b5061183a85828601611429565b9150509250929050565b60006020828403121561185657600080fd5b81356114c081611ffa565b60006020828403121561187357600080fd5b81516114c081611ffa565b60006020828403121561189057600080fd5b813567ffffffffffffffff8111156118a757600080fd5b8201601f810184136118b857600080fd5b6118c7848235602084016113af565b949350505050565b6000602082840312156118e157600080fd5b5035919050565b6000808284036101008112156118fd57600080fd5b8335925060e0601f198201121561191357600080fd5b506020830190509250929050565b600081518084526020808501945080840160005b8381101561195157815187529582019590820190600101611935565b509495945050505050565b6000815180845260005b8181101561198257602081850181015186830182015201611966565b81811115611994576000602083870101525b50601f01601f19169290920160200192915050565b600281106119c757634e487b7160e01b600052602160045260246000fd5b9052565b6001600160a01b0386811682528516602082015260a0604082018190526000906119f790830186611921565b8281036060840152611a098186611921565b90508281036080840152611a1d818561195c565b98975050505050505050565b6001600160a01b03868116825285166020820152604081018490526060810183905260a060808201819052600090611a639083018461195c565b979650505050505050565b6020815260006114c06020830184611921565b604081526000611a946040830185611921565b8281036020840152611aa68185611921565b95945050505050565b871515815260e08101611ac560208301896119a9565b60ff96871660408301529486166060820152928516608084015290841660a083015290921660c09092019190915292915050565b6020815260006114c0602083018461195c565b60208082526028908201527f455243313135353a204552433131353552656365697665722072656a656374656040820152676420746f6b656e7360c01b606082015260800190565b60208082526025908201527f455243313135353a207472616e7366657220746f20746865207a65726f206164604082015264647265737360d81b606082015260800190565b6020808252602a908201527f455243313135353a20696e73756666696369656e742062616c616e636520666f60408201526939103a3930b739b332b960b11b606082015260800190565b6020808252818101527f4f776e61626c653a2063616c6c6572206973206e6f7420746865206f776e6572604082015260600190565b60208082526028908201527f455243313135353a2069647320616e6420616d6f756e7473206c656e677468206040820152670dad2e6dac2e8c6d60c31b606082015260800190565b60208082526021908201527f455243313135353a206d696e7420746f20746865207a65726f206164647265736040820152607360f81b606082015260800190565b81511515815260208083015160e0830191611cbe908401826119a9565b5060ff604084015116604083015260ff606084015116606083015260ff608084015116608083015260ff60a08401511660a083015260ff60c08401511660c083015292915050565b600067ffffffffffffffff821115611d2057611d20611e01565b5060051b60200190565b60008219821115611d3d57611d3d611dbf565b500190565b600181811c90821680611d5657607f821691505b602082108114156103af57634e487b7160e01b600052602260045260246000fd5b601f8201601f1916810167ffffffffffffffff81118282101715611d9d57611d9d611e01565b6040525050565b6000600019821415611db857611db8611dbf565b5060010190565b634e487b7160e01b600052601160045260246000fd5b634e487b7160e01b600052602160045260246000fd5b634e487b7160e01b600052603260045260246000fd5b634e487b7160e01b600052604160045260246000fd5b6000813560ff8116811461049857600080fd5b600060033d1115611e435760046000803e5060005160e01c5b90565b600060443d1015611e545790565b6040516003193d81016004833e81513d67ffffffffffffffff8160248401118184111715611e8457505050505090565b8285019150815181811115611e9c5750505050505090565b843d8701016020828501011115611eb65750505050505090565b611ec560208286010187611d77565b509095945050505050565b8135611edb81611fec565b815460ff19811691151560ff169182178355602084013560028110611eff57600080fd5b61ff008160081b168361ffff19841617178455505050611f3c611f2460408401611e17565b825462ff0000191660109190911b62ff000016178255565b611f65611f4b60608401611e17565b825463ff000000191660189190911b63ff00000016178255565b611f90611f7460808401611e17565b825464ff00000000191660209190911b64ff0000000016178255565b611fbd611f9f60a08401611e17565b825465ff0000000000191660289190911b65ff000000000016178255565b610959611fcc60c08401611e17565b825466ff000000000000191660309190911b66ff00000000000016178255565b80151581146104d157600080fd5b6001600160e01b0319811681146104d157600080fdfea2646970667358221220e066aa8d3473f6ef8a22772cee974eeecb7a96188c98b51102a2ddb3d327556964736f6c63430008070033",
  "linkReferences": {},
  "deployedLinkReferences": {}
}