{
  "_format": "hh-sol-artifact-1",
  "contractName": "Clash",
  "sourceName": "contracts/Clash.sol",
  "abi": [
    {
      "inputs": [
        {
          "internalType": "contract XP",
          "name": "xpAddress",
          "type": "address"
        },
        {
          "internalType": "contract SONS",
          "name": "sonsAddress",
          "type": "address"
        },
        {
          "internalType": "contract GOD",
          "name": "godAddress",
          "type": "address"
        },
        {
          "components": [
            {
              "internalType": "uint8",
              "name": "gameConstant",
              "type": "uint8"
            },
            {
              "internalType": "uint16",
              "name": "winnerPercent",
              "type": "uint16"
            },
            {
              "internalType": "uint16",
              "name": "ownerPercent",
              "type": "uint16"
            },
            {
              "internalType": "uint256",
              "name": "entranceFee",
              "type": "uint256"
            }
          ],
          "internalType": "struct ArenaDetails",
          "name": "arena",
          "type": "tuple"
        },
        {
          "internalType": "address",
          "name": "arenaOwner",
          "type": "address"
        },
        {
          "internalType": "address",
          "name": "addressOne",
          "type": "address"
        },
        {
          "internalType": "address",
          "name": "addressTwo",
          "type": "address"
        },
        {
          "internalType": "uint8[]",
          "name": "deckOne",
          "type": "uint8[]"
        },
        {
          "internalType": "uint8[]",
          "name": "deckTwo",
          "type": "uint8[]"
        }
      ],
      "stateMutability": "nonpayable",
      "type": "constructor"
    },
    {
      "anonymous": false,
      "inputs": [
        {
          "indexed": false,
          "internalType": "uint8",
          "name": "orow",
          "type": "uint8"
        },
        {
          "indexed": false,
          "internalType": "uint8",
          "name": "ocol",
          "type": "uint8"
        },
        {
          "indexed": false,
          "internalType": "uint8",
          "name": "damage",
          "type": "uint8"
        }
      ],
      "name": "AttackBase",
      "type": "event"
    },
    {
      "anonymous": false,
      "inputs": [
        {
          "indexed": false,
          "internalType": "uint8",
          "name": "orow",
          "type": "uint8"
        },
        {
          "indexed": false,
          "internalType": "uint8",
          "name": "ocol",
          "type": "uint8"
        },
        {
          "indexed": false,
          "internalType": "uint8",
          "name": "trow",
          "type": "uint8"
        },
        {
          "indexed": false,
          "internalType": "uint8",
          "name": "tcol",
          "type": "uint8"
        },
        {
          "indexed": false,
          "internalType": "uint8",
          "name": "points",
          "type": "uint8"
        }
      ],
      "name": "AttackCard",
      "type": "event"
    },
    {
      "anonymous": false,
      "inputs": [
        {
          "indexed": false,
          "internalType": "uint8",
          "name": "trow",
          "type": "uint8"
        },
        {
          "indexed": false,
          "internalType": "uint8",
          "name": "tcol",
          "type": "uint8"
        },
        {
          "indexed": false,
          "internalType": "uint8",
          "name": "points",
          "type": "uint8"
        }
      ],
      "name": "AttackGodPower",
      "type": "event"
    },
    {
      "anonymous": false,
      "inputs": [
        {
          "indexed": false,
          "internalType": "address",
          "name": "winner",
          "type": "address"
        }
      ],
      "name": "GameFinished",
      "type": "event"
    },
    {
      "anonymous": false,
      "inputs": [
        {
          "indexed": false,
          "internalType": "uint8",
          "name": "orow",
          "type": "uint8"
        },
        {
          "indexed": false,
          "internalType": "uint8",
          "name": "ocol",
          "type": "uint8"
        },
        {
          "indexed": false,
          "internalType": "uint8",
          "name": "trow",
          "type": "uint8"
        },
        {
          "indexed": false,
          "internalType": "uint8",
          "name": "tcol",
          "type": "uint8"
        },
        {
          "indexed": false,
          "internalType": "uint8",
          "name": "points",
          "type": "uint8"
        }
      ],
      "name": "HealCard",
      "type": "event"
    },
    {
      "anonymous": false,
      "inputs": [
        {
          "indexed": false,
          "internalType": "uint8",
          "name": "trow",
          "type": "uint8"
        },
        {
          "indexed": false,
          "internalType": "uint8",
          "name": "tcol",
          "type": "uint8"
        },
        {
          "indexed": false,
          "internalType": "uint8",
          "name": "points",
          "type": "uint8"
        }
      ],
      "name": "HealGodPower",
      "type": "event"
    },
    {
      "anonymous": false,
      "inputs": [
        {
          "indexed": false,
          "internalType": "uint8",
          "name": "orow",
          "type": "uint8"
        },
        {
          "indexed": false,
          "internalType": "uint8",
          "name": "ocol",
          "type": "uint8"
        },
        {
          "indexed": false,
          "internalType": "uint8",
          "name": "trow",
          "type": "uint8"
        },
        {
          "indexed": false,
          "internalType": "uint8",
          "name": "tcol",
          "type": "uint8"
        }
      ],
      "name": "MoveCard",
      "type": "event"
    },
    {
      "anonymous": false,
      "inputs": [
        {
          "indexed": false,
          "internalType": "uint8",
          "name": "col",
          "type": "uint8"
        },
        {
          "indexed": false,
          "internalType": "uint8",
          "name": "typeId",
          "type": "uint8"
        }
      ],
      "name": "PutCard",
      "type": "event"
    },
    {
      "anonymous": false,
      "inputs": [
        {
          "indexed": false,
          "internalType": "uint8",
          "name": "turn",
          "type": "uint8"
        }
      ],
      "name": "TurnFinished",
      "type": "event"
    },
    {
      "inputs": [
        {
          "internalType": "address",
          "name": "",
          "type": "address"
        }
      ],
      "name": "flashLoans",
      "outputs": [
        {
          "internalType": "uint256",
          "name": "",
          "type": "uint256"
        }
      ],
      "stateMutability": "view",
      "type": "function"
    },
    {
      "inputs": [
        {
          "internalType": "uint256",
          "name": "",
          "type": "uint256"
        },
        {
          "internalType": "uint256",
          "name": "",
          "type": "uint256"
        }
      ],
      "name": "gameBoard",
      "outputs": [
        {
          "internalType": "bool",
          "name": "occupied",
          "type": "bool"
        },
        {
          "internalType": "uint8",
          "name": "slotId",
          "type": "uint8"
        },
        {
          "internalType": "uint8",
          "name": "health",
          "type": "uint8"
        },
        {
          "internalType": "uint8",
          "name": "cardId",
          "type": "uint8"
        },
        {
          "internalType": "address",
          "name": "owner",
          "type": "address"
        }
      ],
      "stateMutability": "view",
      "type": "function"
    },
    {
      "inputs": [
        {
          "internalType": "uint8",
          "name": "i",
          "type": "uint8"
        },
        {
          "internalType": "uint8",
          "name": "j",
          "type": "uint8"
        }
      ],
      "name": "getCell",
      "outputs": [
        {
          "components": [
            {
              "internalType": "bool",
              "name": "occupied",
              "type": "bool"
            },
            {
              "internalType": "uint8",
              "name": "slotId",
              "type": "uint8"
            },
            {
              "internalType": "uint8",
              "name": "health",
              "type": "uint8"
            },
            {
              "internalType": "uint8",
              "name": "cardId",
              "type": "uint8"
            },
            {
              "internalType": "address",
              "name": "owner",
              "type": "address"
            }
          ],
          "internalType": "struct Cell",
          "name": "",
          "type": "tuple"
        }
      ],
      "stateMutability": "view",
      "type": "function"
    },
    {
      "inputs": [],
      "name": "getEnemyDeck",
      "outputs": [
        {
          "internalType": "uint8[]",
          "name": "",
          "type": "uint8[]"
        }
      ],
      "stateMutability": "view",
      "type": "function"
    },
    {
      "inputs": [
        {
          "components": [
            {
              "internalType": "enum MoveType",
              "name": "moveType",
              "type": "uint8"
            },
            {
              "internalType": "uint8",
              "name": "slotId",
              "type": "uint8"
            },
            {
              "components": [
                {
                  "internalType": "uint8",
                  "name": "row",
                  "type": "uint8"
                },
                {
                  "internalType": "uint8",
                  "name": "col",
                  "type": "uint8"
                }
              ],
              "internalType": "struct Origin",
              "name": "origin",
              "type": "tuple"
            },
            {
              "components": [
                {
                  "internalType": "uint8",
                  "name": "row",
                  "type": "uint8"
                },
                {
                  "internalType": "uint8",
                  "name": "col",
                  "type": "uint8"
                }
              ],
              "internalType": "struct Target",
              "name": "target",
              "type": "tuple"
            }
          ],
          "internalType": "struct Move[]",
          "name": "moves",
          "type": "tuple[]"
        }
      ],
      "name": "playTurn",
      "outputs": [],
      "stateMutability": "nonpayable",
      "type": "function"
    }
  ],
  "bytecode": "0x6101406040526000805462ffffff191690553480156200001e57600080fd5b5060405162003d0738038062003d07833981016040819052620000419162000630565b85516001906200005390600262000741565b6200005f91906200076d565b60ff16825114801562000092575085516001906200007f90600262000741565b6200008b91906200076d565b60ff168151145b620000f55760405162461bcd60e51b815260206004820152602960248201527f4465636b2073697a6520646f65736e2774206d617463682067616d6520726571604482015268756972656d656e747360b81b606482015260840160405180910390fd5b600180546001600160a01b03199081166001600160a01b038c81169182179093556002805483168c8516179055600380549092168a8416179091556040805160808101918290526327e235e360e01b90915291861660848301528190620001ba906327e235e360a484015b60206040518083038186803b1580156200017957600080fd5b505afa1580156200018e573d6000803e3d6000fd5b505050506040513d601f19601f82011682018060405250810190620001b4919062000727565b620003ab565b60ff9081168252885181166020808401919091526001600160a01b0380891660408086019190915260609485018890528551600480548886015193890151909416620100000262010000600160b01b03199387166101000261ffff1990951692909616919091179290921716929092178255918301518051919262000246926005929091019062000400565b50506040805160808101918290526001546327e235e360e01b9092526001600160a01b03868116608483015290925082916200028c91166327e235e360a4840162000160565b60ff9081168252885181166020808401919091526001600160a01b0380881660408086019190915260609485018790528551600680548886015193890151909416620100000262010000600160b01b03199387166101000261ffff1990951692909616919091179290921716929092178255918301518051919262000318926007929091019062000400565b50505033606090811b6101205285901b6001600160601b03191661010052604086015160f090811b6001600160f01b031990811660e052602088015190911b1660c052855160f81b6001600160f81b03191660a05285516001906200037f90600262000741565b6200038b91906200076d565b60f81b6001600160f81b03191660805250620007d8975050505050505050565b60006064821015620003bf5750600a919050565b6101c2821015620003d25750600f919050565b61041a821015620003e557506014919050565b6110fe821015620003f857506019919050565b50601e919050565b82805482825590600052602060002090601f016020900481019282156200049b5791602002820160005b838211156200046a57835183826101000a81548160ff021916908360ff16021790555092602001926001016020816000010492830192600103026200042a565b8015620004995782816101000a81549060ff02191690556001016020816000010492830192600103026200046a565b505b50620004a9929150620004ad565b5090565b5b80821115620004a95760008155600101620004ae565b8051620004d181620007bf565b919050565b600082601f830112620004e857600080fd5b815160206001600160401b0380831115620005075762000507620007a9565b8260051b604051601f19603f830116810181811084821117156200052f576200052f620007a9565b604052848152838101925086840182880185018910156200054f57600080fd5b600092505b858310156200057d5762000568816200061e565b84529284019260019290920191840162000554565b50979650505050505050565b6000608082840312156200059c57600080fd5b604051608081016001600160401b0381118282101715620005c157620005c1620007a9565b604052905080620005d2836200061e565b8152620005e2602084016200060b565b6020820152620005f5604084016200060b565b6040820152606083015160608201525092915050565b805161ffff81168114620004d157600080fd5b805160ff81168114620004d157600080fd5b60008060008060008060008060006101808a8c0312156200065057600080fd5b89516200065d81620007bf565b60208b01519099506200067081620007bf565b97506200068060408b01620004c4565b9650620006918b60608c0162000589565b9550620006a160e08b01620004c4565b9450620006b26101008b01620004c4565b9350620006c36101208b01620004c4565b6101408b01519093506001600160401b0380821115620006e257600080fd5b620006f08d838e01620004d6565b93506101608c01519150808211156200070857600080fd5b50620007178c828d01620004d6565b9150509295985092959850929598565b6000602082840312156200073a57600080fd5b5051919050565b600060ff821660ff84168160ff048111821515161562000765576200076562000793565b029392505050565b600060ff821660ff8416808210156200078a576200078a62000793565b90039392505050565b634e487b7160e01b600052601160045260246000fd5b634e487b7160e01b600052604160045260246000fd5b6001600160a01b0381168114620007d557600080fd5b50565b60805160f81c60a05160f81c60c05160f01c60e05160f01c6101005160601c6101205160601c61348e6200087960003960008181611d410152818161281801528181612b7001528181612c240152612d6901526000612d8a01526000612db4015260008181611d7c015281816128530152612c510152600061058b01526000818161075d01528181610bb901528181610bf701526119f8015261348e6000f3fe608060405234801561001057600080fd5b50600436106100575760003560e01c80631be80d551461005c5780633f312752146100af5780634f033fa0146100c45780634f4fdf80146100f2578063d9d881e31461015a575b600080fd5b61006f61006a3660046131ac565b61016f565b60408051951515865260ff94851660208701529284169285019290925290911660608301526001600160a01b0316608082015260a0015b60405180910390f35b6100c26100bd366004613024565b6101da565b005b6100e46100d2366004612ff4565b600b6020526000908152604090205481565b6040519081526020016100a6565b6101056101003660046131eb565b61027a565b6040516100a69190600060a08201905082511515825260ff602084015116602083015260ff604084015116604083015260ff606084015116606083015260018060a01b03608084015116608083015292915050565b610162610345565b6040516100a69190613224565b600c828154811061017f57600080fd5b90600052602060002001818154811061019757600080fd5b60009182526020909120015460ff80821693506101008204811692506201000082048116916301000000810490911690600160201b90046001600160a01b031685565b6008546201000090046001600160a01b031633146102305760405162461bcd60e51b815260206004820152600e60248201526d2737ba103934b3b43a103a3ab93760911b60448201526064015b60405180910390fd5b60005b8181101561026d5761025b83838381811061025057610250613433565b905060c002016103dc565b80610265816133ec565b915050610233565b50610276610585565b5050565b6040805160a081018252600080825260208201819052918101829052606081018290526080810191909152600c8360ff16815481106102bb576102bb613433565b906000526020600020018260ff16815481106102d9576102d9613433565b60009182526020918290206040805160a081018252929091015460ff808216151584526101008204811694840194909452620100008104841691830191909152630100000081049092166060820152600160201b9091046001600160a01b031660808201529392505050565b6004546060906201000090046001600160a01b0316331461036757600561036a565b60075b8054806020026020016040519081016040528092919081815260200182805480156103d257602002820191906000526020600020906000905b825461010083900a900460ff168152602060019283018181049485019490930390920291018084116103a35790505b5050505050905090565b60006103eb60208301836130b4565b60068111156103fc576103fc61341d565b141561042d5761042a61041560408301602084016131ce565b61042560808401606085016131ce565b6106be565b50565b600161043c60208301836130b4565b600681111561044d5761044d61341d565b14156104635761042a8160400182608001610aea565b600261047260208301836130b4565b60068111156104835761048361341d565b14156104995761042a8160400182608001611068565b60036104a860208301836130b4565b60068111156104b9576104b961341d565b14156104cb5761042a8160400161177b565b60046104da60208301836130b4565b60068111156104eb576104eb61341d565b141561050d5761042a61050460408301602084016131ce565b82608001611b94565b600561051c60208301836130b4565b600681111561052d5761052d61341d565b14156105435761042a81604001826080016120fd565b600661055260208301836130b4565b60068111156105635761056361341d565b141561042a5761042a61057c60408301602084016131ce565b82608001612696565b600880547f000000000000000000000000000000000000000000000000000000000000000091906001906105c2908490610100900460ff166132de565b92506101000a81548160ff021916908360ff160217905550600060018111156105ed576105ed61341d565b60005460ff1660018111156106045761060461341d565b14610610576000610613565b60015b6000805460ff19166001838181111561062e5761062e61341d565b021790555060008054610100900461ffff1690600161064c836133ca565b91906101000a81548161ffff021916908361ffff160217905550507fb2a5f112f4ef2b6d1ab7a886557835d90f7826318e7a0a40a34673a7248ba8de60008054906101000a900460ff1660018111156106a7576106a761341d565b60405160ff909116815260200160405180910390a1565b6008546201000090046001600160a01b03166000908152600a6020908152604080832060ff8616845290915281205490546002916107099161ffff918216916101009091041661336d565b61ffff16101561075b5760405162461bcd60e51b815260206004820152601a60248201527f43616e27742070757420706c617965722074686973207475726e0000000000006044820152606401610227565b7f000000000000000000000000000000000000000000000000000000000000000060ff168160ff16106107c15760405162461bcd60e51b815260206004820152600e60248201526d24b73b30b634b21031b7b63ab6b760911b6044820152606401610227565b600c6000815481106107d5576107d5613433565b906000526020600020018160ff16815481106107f3576107f3613433565b60009182526020909120015460ff16156108425760405162461bcd60e51b815260206004820152601060248201526f10d95b1b081a5cc81bd8d8dd5c1a595960821b6044820152606401610227565b600060086001018360ff168154811061085d5761085d613433565b6000918252602080832090820401546003546040516348c4698960e11b8152601f9093166101000a90910460ff166004830181905293506001600160a01b031690639188d3129060240160e06040518083038186803b1580156108bf57600080fd5b505afa1580156108d3573d6000803e3d6000fd5b505050506040513d601f19601f820116820180604052508101906108f791906130d5565b608081015160085491925060ff90811661010090920416116109525760405162461bcd60e51b8152602060048201526014602482015273115b995c99de481b9bdd081cdd59999a58d95b9d60621b6044820152606401610227565b608081015160088054600190610971908490610100900460ff166133a7565b92506101000a81548160ff021916908360ff1602179055506040518060a001604052806001151581526020018560ff1681526020018260a0015160ff1681526020018360ff168152602001600860000160029054906101000a90046001600160a01b03166001600160a01b0316815250600c6000815481106109f5576109f5613433565b906000526020600020018460ff1681548110610a1357610a13613433565b600091825260209182902083519101805484840151604080870151606088015160809098015161ffff1990941695151561ff0019169590951761010060ff938416021763ffff00001916620100009583169590950263ff00000019169490941763010000009682169690960295909517640100000000600160c01b031916600160201b6001600160a01b039092169190910217905580518684168152928516918301919091527f2a102de3851f9d59b8d145c1ce90b60cb023d819273a14fd3b25e7f0cec7ed4e910160405180910390a150505050565b6000600c610afb60208501856131ce565b60ff1681548110610b0e57610b0e613433565b90600052602060002001836020016020810190610b2b91906131ce565b60ff1681548110610b3e57610b3e613433565b60009182526020918290206040805160a081018252929091015460ff8082161515845261010082048116848601526201000080830482169385019390935263010000008204811660608501526001600160a01b03600160201b90920482166080850152600454600854949650938390048216929093041614917f000000000000000000000000000000000000000000000000000000000000000090911690610be8908501856131ce565b60ff16108015610c2c575060ff7f000000000000000000000000000000000000000000000000000000000000000016610c2760408501602086016131ce565b60ff16105b610c6c5760405162461bcd60e51b8152602060048201526011602482015270546172676574206f66662d626f756e647360781b6044820152606401610227565b60808201516001600160a01b03163314610cc05760405162461bcd60e51b81526020600482015260156024820152742737ba1037bbb734b733903a34329037b934b3b4b760591b6044820152606401610227565b600854600161010090910460ff1611610d115760405162461bcd60e51b8152602060048201526013602482015272115b995c99de481a5b9cdd59999a58da595b9d606a1b6044820152606401610227565b600081610d4157610d2560208501856131ce565b610d3260208701876131ce565b610d3c91906133a7565b610d65565b610d4e60208601866131ce565b610d5b60208601866131ce565b610d6591906133a7565b90506000610d7960408701602088016131ce565b60ff16610d8c60408701602088016131ce565b60ff161015610dc457610da560408601602087016131ce565b610db560408801602089016131ce565b610dbf91906133a7565b610dee565b610dd460408701602088016131ce565b610de460408701602088016131ce565b610dee91906133a7565b90508160ff1660011480610e0557508060ff166001145b610e445760405162461bcd60e51b815260206004820152601060248201526f125b1b1959d85b081b5bdd995b595b9d60821b6044820152606401610227565b60088054600191908290610e61908290610100900460ff166133a7565b92506101000a81548160ff021916908360ff16021790555083600c866000016020810190610e8f91906131ce565b60ff1681548110610ea257610ea2613433565b90600052602060002001866020016020810190610ebf91906131ce565b60ff1681548110610ed257610ed2613433565b6000918252602091829020835191018054848401516040860151606087015160809097015161ffff1990931694151561ff0019169490941761010060ff928316021763ffff00001916620100009482169490940263ff0000001916939093176301000000939095169290920293909317640100000000600160c01b031916600160201b6001600160a01b039092169190910217909155600c90610f77908801886131ce565b60ff1681548110610f8a57610f8a613433565b90600052602060002001866020016020810190610fa791906131ce565b60ff1681548110610fba57610fba613433565b60009182526020918290200180546001600160c01b03191690557fd46e1b079f3442f942e1744a9c599b87a4a96c160cda79caa418bd5e4632a1c290611002908801886131ce565b6110126040890160208a016131ce565b61101f60208901896131ce565b61102f60408a0160208b016131ce565b6040805160ff958616815293851660208501529184169183019190915290911660608201526080015b60405180910390a1505050505050565b6000600c61107960208501856131ce565b60ff168154811061108c5761108c613433565b906000526020600020018360200160208101906110a991906131ce565b60ff16815481106110bc576110bc613433565b600091825260208083206040805160a081018252939091015460ff808216151585526101008204811685850152620100008204811692850192909252630100000081049091166060840152600160201b90046001600160a01b03166080830152909250600c9061112e908501856131ce565b60ff168154811061114157611141613433565b9060005260206000200183602001602081019061115e91906131ce565b60ff168154811061117157611171613433565b60009182526020918290206040805160a081018252919092015460ff8082161515835261010082048116948301949094526201000081048416928201929092526301000000820490921660608301526001600160a01b03600160201b90910481166080808401919091528401519192501633146112005760405162461bcd60e51b81526004016102279061326b565b805161124e5760405162461bcd60e51b815260206004820152601a60248201527f41747461636b696e67206f6e20616e20656d7074792063656c6c0000000000006044820152606401610227565b60808101516001600160a01b03163314156112a45760405162461bcd60e51b815260206004820152601660248201527541747461636b696e67206f6e206f776e2063656c6c7360501b6044820152606401610227565b60035460608301516040516348c4698960e11b815260ff90911660048201526000916001600160a01b031690639188d3129060240160e06040518083038186803b1580156112f157600080fd5b505afa158015611305573d6000803e3d6000fd5b505050506040513d601f19601f8201168201806040525081019061132991906130d5565b90506000816020015160018111156113435761134361341d565b146113845760405162461bcd60e51b81526020600482015260116024820152704e6f74206120636172642061747461636b60781b6044820152606401610227565b60045460085462010000918290046001600160a01b039081169290910416146000816113d3576113b760208701876131ce565b6113c460208901896131ce565b6113ce91906133a7565b6113f7565b6113e060208801886131ce565b6113ed60208801886131ce565b6113f791906133a7565b9050600061140b6040890160208a016131ce565b60ff1661141e6040890160208a016131ce565b60ff1610156114565761143760408801602089016131ce565b61144760408a0160208b016131ce565b61145191906133a7565b611480565b6114666040890160208a016131ce565b6114766040890160208a016131ce565b61148091906133a7565b9050836060015160ff168260ff16111580156114a65750836040015160ff168160ff1611155b6114eb5760405162461bcd60e51b8152602060048201526016602482015275546172676574206973206f7574206f662072616e676560501b6044820152606401610227565b600854600161010090910460ff16116115465760405162461bcd60e51b815260206004820152601c60248201527f4e6f7420656e6f75676820656e6572677920666f722061747461636b000000006044820152606401610227565b60088054600191908290611563908290610100900460ff166133a7565b92506101000a81548160ff021916908360ff1602179055508360c0015160ff16856040015160ff1611611647576000805460808701516001600160a01b03168252600a60209081526040808420828a015160ff1685528252909220805461010090920461ffff1661ffff19909216919091179055600c906115e6908901896131ce565b60ff16815481106115f9576115f9613433565b9060005260206000200187602001602081019061161691906131ce565b60ff168154811061162957611629613433565b600091825260209091200180546001600160c01b03191690556116db565b60c0840151600c61165b60208a018a6131ce565b60ff168154811061166e5761166e613433565b9060005260206000200188602001602081019061168b91906131ce565b60ff168154811061169e5761169e613433565b600091825260209091200180546002906116c290849062010000900460ff166133a7565b92506101000a81548160ff021916908360ff1602179055505b7f821fa0d3357caf1ed6e818f6af88d667dbb5e5afc86fd1dd63c43c5d9cb668de61170960208a018a6131ce565b61171960408b0160208c016131ce565b61172660208b018b6131ce565b61173660408c0160208d016131ce565b60c08901516040805160ff9687168152948616602086015292851684840152908416606084015292909216608082015290519081900360a00190a15050505050505050565b60008060005460ff1660018111156117955761179561341d565b146117a15760046117a4565b60065b90506000600c6117b760208501856131ce565b60ff16815481106117ca576117ca613433565b906000526020600020018360200160208101906117e791906131ce565b60ff16815481106117fa576117fa613433565b600091825260208083206040805160a081018252939091015460ff80821615158552610100820481169385019390935262010000810483168483015263010000008104909216606084018190526001600160a01b03600160201b9093048316608085015260035491516348c4698960e11b815260048101919091529294501690639188d3129060240160e06040518083038186803b15801561189b57600080fd5b505afa1580156118af573d6000803e3d6000fd5b505050506040513d601f19601f820116820180604052508101906118d391906130d5565b60808301519091506001600160a01b031633146119025760405162461bcd60e51b81526004016102279061326b565b60008160200151600181111561191a5761191a61341d565b1461195e5760405162461bcd60e51b81526020600482015260146024820152732737ba1030b71030ba3a30b1b590383630bcb2b960611b6044820152606401610227565b600854600161010090910460ff16116119ad5760405162461bcd60e51b81526020600482015260116024820152704e6f7420656e6f75676820656e6572677960781b6044820152606401610227565b60045460085462010000918290046001600160a01b03908116929091041614806119ef57606082015160ff166119e660208701876131ce565b60ff1610611a36565b606082015160ff7f00000000000000000000000000000000000000000000000000000000000000001690611a2660208801886131ce565b611a3091906132de565b60ff1610155b611a795760405162461bcd60e51b815260206004820152601460248201527342617365206973206f7574206f662072616e676560601b6044820152606401610227565b60088054600191908290611a96908290610100900460ff166133a7565b82546101009290920a60ff818102199093169183160217909155855460c0850151908216911611159050611aef576008548454611aea916001600160a01b0362010000918290048116929190910416612b56565b611b22565b60c082015184548590600090611b0990849060ff166133a7565b92506101000a81548160ff021916908360ff1602179055505b7f9514b0a645ab311710078885b3d1aa7b7c941ade5dba24715646519e625ec858611b5060208701876131ce565b611b6060408801602089016131ce565b60c08501516040805160ff948516815292841660208401529216918101919091526060015b60405180910390a15050505050565b60008060005460ff166001811115611bae57611bae61341d565b14611bba576004611bbd565b60065b90506000600c611bd060208501856131ce565b60ff1681548110611be357611be3613433565b90600052602060002001836020016020810190611c0091906131ce565b60ff1681548110611c1357611c13613433565b600091825260208083206040805160a081018252939091015460ff8082161515855261010082048116938501939093526201000081048316918401919091526301000000810482166060840152600160201b90046001600160a01b03908116608084015260035460098054949650911692639188d312928916908110611c9b57611c9b613433565b60009182526020918290209181049091015460405160e084901b6001600160e01b0319168152601f9092166101000a900460ff16600482015260240160e06040518083038186803b158015611cef57600080fd5b505afa158015611d03573d6000803e3d6000fd5b505050506040513d601f19601f82011682018060405250810190611d2791906130d5565b600254604051636eb1769f60e11b81526001600160a01b037f0000000000000000000000000000000000000000000000000000000000000000811660048301523060248301529293506000926103e89261ffff7f0000000000000000000000000000000000000000000000000000000000000000169291169063dd62ed3e9060440160206040518083038186803b158015611dc157600080fd5b505afa158015611dd5573d6000803e3d6000fd5b505050506040513d601f19601f82011682018060405250810190611df99190613193565b611e039190613325565b611e0d9190613303565b8351909150611e2e5760405162461bcd60e51b815260040161022790613298565b835460808401516001600160a01b03908116620100009092041614611e8b5760405162461bcd60e51b81526020600482015260136024820152722bb937b733903a30b933b2ba10383630bcb2b960691b6044820152606401610227565b336000908152600b6020526040902054811015611eea5760405162461bcd60e51b815260206004820181905260248201527f4e6f2062616c616e6365206c65667420746f2075736520676f6420706f7765726044820152606401610227565b611ef5600582613303565b336000908152600b602052604081208054909190611f149084906132c6565b925050819055508160c0015160ff16836040015160ff1611611fea576000805485546201000090046001600160a01b03168252600a602090815260408084208783015160ff1685528252909220805461010090920461ffff1661ffff19909216919091179055600c90611f89908701876131ce565b60ff1681548110611f9c57611f9c613433565b90600052602060002001856020016020810190611fb991906131ce565b60ff1681548110611fcc57611fcc613433565b600091825260209091200180546001600160c01b031916905561208a565b60038260c00151611ffb9190613344565b600c61200a60208801886131ce565b60ff168154811061201d5761201d613433565b9060005260206000200186602001602081019061203a91906131ce565b60ff168154811061204d5761204d613433565b6000918252602090912001805460029061207190849062010000900460ff166133a7565b92506101000a81548160ff021916908360ff1602179055505b7fad81c2d8ff449019cfaf2eda745547aae68efd585520cf7bbad02ca0ff57aaf16120b860208701876131ce565b6120c860408801602089016131ce565b60038560c001516120d99190613344565b6040805160ff94851681529284166020840152921691810191909152606001611058565b6000600c61210e60208501856131ce565b60ff168154811061212157612121613433565b9060005260206000200183602001602081019061213e91906131ce565b60ff168154811061215157612151613433565b600091825260208083206040805160a081018252939091015460ff808216151585526101008204811685850152620100008204811692850192909252630100000081049091166060840152600160201b90046001600160a01b03166080830152909250600c906121c3908501856131ce565b60ff16815481106121d6576121d6613433565b906000526020600020018360200160208101906121f391906131ce565b60ff168154811061220657612206613433565b600091825260208083206040805160a081018252939091015460ff8082161515855261010082048116938501939093526201000081048316848301526301000000810483166060808601919091526001600160a01b03600160201b909204821660808601526003549088015192516348c4698960e11b8152929093166004830152929450911690639188d3129060240160e06040518083038186803b1580156122ae57600080fd5b505afa1580156122c2573d6000803e3d6000fd5b505050506040513d601f19601f820116820180604052508101906122e691906130d5565b60808401519091506001600160a01b031633146123155760405162461bcd60e51b81526004016102279061326b565b81516123335760405162461bcd60e51b815260040161022790613298565b60808201516001600160a01b031633146123875760405162461bcd60e51b8152602060048201526015602482015274139bdd081bdddb9a5b99c81d1a19481d185c99d95d605a1b6044820152606401610227565b60018160200151600181111561239f5761239f61341d565b146123de5760405162461bcd60e51b815260206004820152600f60248201526e139bdd0818481a19585b0818d85c99608a1b6044820152606401610227565b60045460085462010000918290046001600160a01b0390811692909104161460008161242d5761241160208701876131ce565b61241e60208901896131ce565b61242891906133a7565b612451565b61243a60208801886131ce565b61244760208801886131ce565b61245191906133a7565b905060006124656040890160208a016131ce565b60ff166124786040890160208a016131ce565b60ff1610156124b05761249160408801602089016131ce565b6124a160408a0160208b016131ce565b6124ab91906133a7565b6124da565b6124c06040890160208a016131ce565b6124d06040890160208a016131ce565b6124da91906133a7565b9050836060015160ff168260ff16111580156125005750836040015160ff168160ff1611155b6125455760405162461bcd60e51b8152602060048201526016602482015275546172676574206973206f7574206f662072616e676560501b6044820152606401610227565b600854600161010090910460ff16116125945760405162461bcd60e51b81526020600482015260116024820152704e6f7420656e6f75676820656e6572677960781b6044820152606401610227565b600880546001919082906125b1908290610100900460ff166133a7565b92506101000a81548160ff021916908360ff1602179055508360c00151600c8860000160208101906125e391906131ce565b60ff16815481106125f6576125f6613433565b9060005260206000200188602001602081019061261391906131ce565b60ff168154811061262657612626613433565b6000918252602090912001805460029061264a90849062010000900460ff166132de565b92506101000a81548160ff021916908360ff1602179055507f8755e3de7285d4f55c28476287892f02fa00fe2a9476fd9f76aa96ddce5a123788600001602081019061170991906131ce565b6000600c6126a760208401846131ce565b60ff16815481106126ba576126ba613433565b906000526020600020018260200160208101906126d791906131ce565b60ff16815481106126ea576126ea613433565b600091825260208083206040805160a081018252939091015460ff8082161515855261010082048116938501939093526201000081048316918401919091526301000000810482166060840152600160201b90046001600160a01b03908116608084015260035460098054949650911692639188d31292881690811061277257612772613433565b60009182526020918290209181049091015460405160e084901b6001600160e01b0319168152601f9092166101000a900460ff16600482015260240160e06040518083038186803b1580156127c657600080fd5b505afa1580156127da573d6000803e3d6000fd5b505050506040513d601f19601f820116820180604052508101906127fe91906130d5565b600254604051636eb1769f60e11b81526001600160a01b037f0000000000000000000000000000000000000000000000000000000000000000811660048301523060248301529293506000926103e89261ffff7f0000000000000000000000000000000000000000000000000000000000000000169291169063dd62ed3e9060440160206040518083038186803b15801561289857600080fd5b505afa1580156128ac573d6000803e3d6000fd5b505050506040513d601f19601f820116820180604052508101906128d09190613193565b6128da9190613325565b6128e49190613303565b336000908152600b60205260409020549091508110156129465760405162461bcd60e51b815260206004820181905260248201527f4e6f2062616c616e6365206c65667420746f2075736520676f6420706f7765726044820152606401610227565b60018260200151600181111561295e5761295e61341d565b1461299d5760405162461bcd60e51b815260206004820152600f60248201526e139bdd0818481a19585b0818d85c99608a1b6044820152606401610227565b82516129bb5760405162461bcd60e51b815260040161022790613298565b60808301516001600160a01b03163314612a0f5760405162461bcd60e51b8152602060048201526015602482015274139bdd081bdddb9a5b99c81d1a19481d185c99d95d605a1b6044820152606401610227565b612a1a600582613303565b336000908152600b602052604081208054909190612a399084906132c6565b909155505060c0820151612a4f90600390613344565b600c612a5e60208701876131ce565b60ff1681548110612a7157612a71613433565b90600052602060002001856020016020810190612a8e91906131ce565b60ff1681548110612aa157612aa1613433565b60009182526020909120018054600290612ac590849062010000900460ff166132de565b92506101000a81548160ff021916908360ff1602179055507fb66f84be78126463140b4fcd1f22ebe400bb165705bbfdd215781a0a0678660e846000016020810190612b1191906131ce565b612b2160408701602088016131ce565b60038560c00151612b329190613344565b6040805160ff94851681529284166020840152921691810191909152606001611b85565b600254604051636eb1769f60e11b81526001600160a01b037f000000000000000000000000000000000000000000000000000000000000000081166004830152306024830152600092169063dd62ed3e9060440160206040518083038186803b158015612bc257600080fd5b505afa158015612bd6573d6000803e3d6000fd5b505050506040513d601f19601f82011682018060405250810190612bfa9190613193565b6002546001600160a01b038581166000908152600b602052604090205492935016906323b872dd907f00000000000000000000000000000000000000000000000000000000000000009086906103e8612c7761ffff7f00000000000000000000000000000000000000000000000000000000000000001688613325565b612c819190613303565b612c8b9190613390565b6040516001600160e01b031960e086901b1681526001600160a01b0393841660048201529290911660248301526044820152606401602060405180830381600087803b158015612cda57600080fd5b505af1158015612cee573d6000803e3d6000fd5b505050506040513d601f19601f82011682018060405250810190612d129190613099565b612d565760405162461bcd60e51b815260206004820152601560248201527415da5b9b995c881c185e5b595b9d0819985a5b1959605a1b6044820152606401610227565b6002546001600160a01b03166323b872dd7f00000000000000000000000000000000000000000000000000000000000000007f00000000000000000000000000000000000000000000000000000000000000006103e8612dda61ffff7f00000000000000000000000000000000000000000000000000000000000000001687613325565b612de49190613303565b6040516001600160e01b031960e086901b1681526001600160a01b0393841660048201529290911660248301526044820152606401602060405180830381600087803b158015612e3357600080fd5b505af1158015612e47573d6000803e3d6000fd5b505050506040513d601f19601f82011682018060405250810190612e6b9190613099565b612eb75760405162461bcd60e51b815260206004820152601a60248201527f4172656e61206f776e6572207061796d656e74206661696c65640000000000006044820152606401610227565b6001546040516340c10f1960e01b81526001600160a01b038581166004830152600a6024830152909116906340c10f1990604401600060405180830381600087803b158015612f0557600080fd5b505af1158015612f19573d6000803e3d6000fd5b50506001546040516340c10f1960e01b81526001600160a01b0386811660048301526002602483015290911692506340c10f199150604401600060405180830381600087803b158015612f6b57600080fd5b505af1158015612f7f573d6000803e3d6000fd5b50506040516001600160a01b03861681527f1728dd43546edd06fabfe796e5b641a151aa90998bfd1b1ec0ae98c6e77084599250602001905060405180910390a1505050565b80518015158114612fd557600080fd5b919050565b805160028110612fd557600080fd5b8051612fd581613449565b60006020828403121561300657600080fd5b81356001600160a01b038116811461301d57600080fd5b9392505050565b6000806020838503121561303757600080fd5b823567ffffffffffffffff8082111561304f57600080fd5b818501915085601f83011261306357600080fd5b81358181111561307257600080fd5b86602060c08302850101111561308757600080fd5b60209290920196919550909350505050565b6000602082840312156130ab57600080fd5b61301d82612fc5565b6000602082840312156130c657600080fd5b81356007811061301d57600080fd5b600060e082840312156130e757600080fd5b60405160e0810181811067ffffffffffffffff8211171561311857634e487b7160e01b600052604160045260246000fd5b60405261312483612fc5565b815261313260208401612fda565b602082015261314360408401612fe9565b604082015261315460608401612fe9565b606082015261316560808401612fe9565b608082015261317660a08401612fe9565b60a082015261318760c08401612fe9565b60c08201529392505050565b6000602082840312156131a557600080fd5b5051919050565b600080604083850312156131bf57600080fd5b50508035926020909101359150565b6000602082840312156131e057600080fd5b813561301d81613449565b600080604083850312156131fe57600080fd5b823561320981613449565b9150602083013561321981613449565b809150509250929050565b6020808252825182820181905260009190848201906040850190845b8181101561325f57835160ff1683529284019291840191600101613240565b50909695505050505050565b6020808252601390820152722737ba1037bbb734b733903a3432903830bbb760691b604082015260600190565b6020808252601490820152735461726765742063656c6c20697320656d70747960601b604082015260600190565b600082198211156132d9576132d9613407565b500190565b600060ff821660ff84168060ff038211156132fb576132fb613407565b019392505050565b60008261332057634e487b7160e01b600052601260045260246000fd5b500490565b600081600019048311821515161561333f5761333f613407565b500290565b600060ff821660ff84168160ff048111821515161561336557613365613407565b029392505050565b600061ffff8381169083168181101561338857613388613407565b039392505050565b6000828210156133a2576133a2613407565b500390565b600060ff821660ff8416808210156133c1576133c1613407565b90039392505050565b600061ffff808316818114156133e2576133e2613407565b6001019392505050565b600060001982141561340057613400613407565b5060010190565b634e487b7160e01b600052601160045260246000fd5b634e487b7160e01b600052602160045260246000fd5b634e487b7160e01b600052603260045260246000fd5b60ff8116811461042a57600080fdfea264697066735822122081106a359ff909ec5f54ae2b1ff8a5184b9aaa34f938d781666aeff9575dfec564736f6c63430008070033",
  "linkReferences": {},
  "deployedLinkReferences": {}
}